:020000040800F2
:10000000984C0020C9720008ED720008F1720008D7
:10001000F5720008F9720008FD7200080000000087
:10002000000000000000000000000000AD6A0008B1
:100030000173000800000000556A00086D70000898
:1000400005730008097300080D7300081173000898
:1000500015730008197300087170000877700008A4
:100060007D70000883700008897000081D73000807
:1000700021730008257300088F7000082973000899
:100080002D7300083173000835730008000000006C
:100090000000000000000000000000009F70000849
:1000A000397300083D730008C770000841730008E9
:1000B00045730008497300084D7300085173000828
:1000C00055730008597300085D73000861730008D8
:1000D00065730008697300086D7300080000000074
:1000E0007173000875730008797300080000000040
:1000F0000000000000000000000000007D73000808
:1001000000000000817300088573000889730008EF
:1001100000000000000000000000000000000000DF
:100120008D73000891730008957300089973000897
:10013000D97000080000000000000000000000006E
:100140000000000000000000000000009D73000897
:10015000A1730008A5730008A9730008DF700008E8
:10016000AD730008B173000800000000000000003B
:10017000000000000000000000000000000000007F
:1001800000000000B573000800000000000000003F
:10019000B9730008BD7300080068DFF8481C884286
:1001A0000DD1DFF8440CC168416201698162416987
:1001B000C16281690163C1694163016A81637047FA
:1001C0002DE9F84F9EB001F0EDFD00F01DFB00F0B1
:1001D00029FC002000904FF0804BDFF8100CDFF876
:1001E000104C016841F40011016004F59368026845
:1001F00002F4001200920022009900920521036887
:1002000043F480030360006800F4800000900098CD
:100210000E2001F0EEFD0E2001F014FE002205215B
:100220003C2001F0E6FD3C2001F00CFE00F0A2FBBA
:100230000020C8F80400C8F80800C8F800B04FF45F
:100240009650C8F80C000020C8F81000404601F095
:100250006CFE00B1FEE70021009001914046694626
:1002600002F06DF900B1FEE76020002102900391D9
:1002700004910691002202A9404601F0D0FF00B18E
:10028000FEE7082202A9404601F0C9FF00B1FEE7DF
:10029000404602F08CFB04F57C77DFF8580B3860A1
:1002A000DFF8540B78600020B860F8604FF48040AD
:1002B000386100207861B861F8613862384602F030
:1002C00081FC00B1FEE700F0F5FA04F5B365DFF854
:1002D0002C0BA86604F5C06003F021F900B1FEE71D
:1002E000DFF81C0BDFF81C1B41604FF4E13181602B
:1002F0000021C160016141610C2181610021C16166
:100300000162001D03F01EF900B1FEE75F20C8F88E
:1003100040000020C8F8440044F62060C8F84800B7
:100320000020C8F84C0004F2D44ADFF8DC9BC8F87F
:100330003C90504601F0F9FD00B1FEE7002100902D
:1003400001915046694602F0FAF800B1FEE76020DC
:1003500000210290039104910691002202A95046C7
:1003600001F05DFF00B1FEE7042202A9504601F052
:1003700056FF00B1FEE7082202A9504601F04FFFE8
:1003800000B1FEE70C2202A9504601F048FF00B17F
:10039000FEE7504602F00BFBDFF8700BC8F8780060
:1003A00004F5A3660020C8F87C00306077207060F8
:1003B0000020B06004F5A260009001F0B6FD00B12D
:1003C000FEE701900021029101A9009802F0B7F820
:1003D00000B1FEE760200390002104910591079190
:1003E0000422009803A901F01AFF00B1FEE700986B
:1003F00002F0DDFADFF8180B70635F20B0630020B5
:10040000F06344F6206030640020706404F24C50C5
:10041000009001F08AFD00B1FEE7019000210291F9
:1004200001A9009802F08BF800B1FEE7602003906C
:1004300000210491059107910022009803A901F081
:10044000EEFE00B1FEE70098042203A901F0E7FEEA
:1004500000B1FEE7009802F0AAFADFF8BC0A78655E
:10046000DFF89409B8650020F86538664FF48040DD
:1004700078660020B866F8663867786704F244400A
:1004800002F0A0FB00B1FEE74FF0A0402060042086
:1004900060600220E0600020206160610220A061B5
:1004A0000020E06120626062E0622063204603F089
:1004B000D3FA00B1FEE7DFF86C0A306704F5B167E4
:1004C00000207067B0674FF49650F06700202860F6
:1004D000384601F02AFD00B1FEE7602000210190BE
:1004E000029103910591002201A9384601F097FE7F
:1004F00000B1FEE7384602F05AFADFF8300AE86247
:100500004FF470702863002068634FF6FF70A86393
:100510000020E86304F2C450019001F0CBFC00B16C
:10052000FEE7DFF80C6A0021304601F00DFD0021E6
:10053000304601F0EFFF0421304601F005FD0421B3
:10054000304601F0E7FF0821304601F0FDFC0821AC
:10055000304601F0DFFF0C21304601F0F5FC0C21A4
:10056000304601F0D7FF0021404601F0EDFC0021AC
:10057000404601F0CFFF0821404601F0E5FC08218C
:10058000404601F0C7FF0021504601F0DDFC00218C
:10059000504601F0BFFF0421504601F0D5FC042174
:1005A000504601F0B7FF0821504601F0CDFC08216C
:1005B000504601F0AFFF0C21504601F0C5FC0C2164
:1005C000504601F0A7FF0098DFF86869002101F0AC
:1005D000BBFC0098002101F09DFF0098042101F070
:1005E000B3FC0098042101F095FF0021384601F08A
:1005F000ABFC0021384601F08DFF0198DFF8387917
:1006000001F067FCDFF834094FF4F07101604160DC
:100610008160C160CBF83410CBF83C104FF47A7095
:10062000C9F83400C9F83800C9F83C00C9F84000DE
:100630000022DFF8DC18486388634FF400414FF470
:10064000F060CBF83C00DFF8F8B8DFF8F80803F00A
:10065000A6FB00224FF40061304603F0A0FB00220D
:100660004FF40051584603F09AFB00224FF48041AA
:10067000584603F094FB00224FF48061584603F083
:100680008EFB00224FF40061584603F088FB0022E5
:100690004021384603F083FB00228021384603F0D6
:1006A0007EFB00224FF40071384603F078FB0022F5
:1006B0004FF48061384603F072FB00224FF4805102
:1006C000304603F06CFB00224FF40051304603F03B
:1006D00066FB00221021384603F061FB0022202136
:1006E000384603F05CFB00221021584603F057FB0C
:1006F00000222021584603F052FB03F075FB03F063
:1007000090FB0FF28C0191E88C0919A8002180E878
:100710008C0903F038FC0FF28C01286714A891E8CB
:100720008C0980E88C09002103F02DFC0FF2880170
:1007300068670FA891E88C0980E88C09002103F014
:1007400022FC0FF28801A8670AA891E88C0980E8CA
:100750008C09002103F017FC0FF28401E86705A85B
:1007600091E88C0980E88C09002104F5C36403F04A
:100770000AFC0FF280012060684691E88C0980E84D
:100780008C09002103F0FFFB606003F0F7FBFEE73C
:1007900058710008810F0008FDFF000000000000F4
:1007A00080000000647100088D0F00080000000048
:1007B000000000008000000070710008871C000825
:1007C0000200000000000000800000007C710008B2
:1007D000911C0008010000000000000080000000E3
:1007E000887100080D1D0008FEFF000000000000D9
:1007F00080000000947100082D1D0008000000001A
:10080000000000008000000080B592B00020009041
:10081000DFF83407016841F0805101600021006871
:1008200000F0805000900098DFF82007009101212F
:10083000026842F4404202604FF48032006800F4E3
:10084000404000900098069102204FF480010D91E5
:100850000C90C0210F9104200E9010900821079257
:10086000119106A803F0B8FB00B1FEE70F210220AA
:100870000191029000214FF4805003910490059162
:1008800001A8032103F026FD00B1FEE703F0AAFD55
:10089000DFF8BC26A0FB0221480A01F0DDFA0420A3
:1008A00001F0EBFA00220F214FF0FF3001F0A1FA26
:1008B00013B000BDDFF82C0510B5DFF898462060B6
:1008C0004FF48030606084B00020A060012020617F
:1008D000A06100202062E062DFF87C06A0620020B8
:1008E000E0600620E061012020636061204603F0A3
:1008F000E3FD00B1FEE70220012100900191029189
:100900002046694603F086FE00B1FEE7032002217F
:10091000009001912046694603F07CFE00B1FEE79D
:100920000A200321009001912046694603F072FEDF
:1009300000B1FEE70B20042100900191204669469A
:1009400003F068FE00B1FEE70C2005210090019144
:100950002046694603F05EFE00B1FEE70D20062149
:10096000009001912046694603F054FE00B1FEE775
:1009700004B010BDDFF8E40510B5DFF8B445206021
:1009800000206060A06090B04FF49650E0600020BE
:1009900020616061204601F0C8FA00B1FEE7002145
:1009A000009001912046694601F0C9FD00B1FEE7C3
:1009B0006020002102900391049105910691079116
:1009C0000891002202A9204601F029FC00B1FEE7AF
:1009D000042202A9204601F022FC00B1FEE7082211
:1009E00002A9204601F01BFC00B1FEE70C2202A97F
:1009F000204601F014FC00B1FEE700210A910C91A1
:100A000009904FF400510B900D900E910F9009A991
:100A1000204601F0BAFD00B1FEE7204601F0C7FF15
:100A200010B010BD2DE9F04186B00020059046F6CB
:100A30003047DFF8B803DFF808850168DFF8F844CD
:100A4000DFF80055DFF8EC6441F010010160026846
:100A500002F010020592002205990592036843F006
:100A600004030360016801F00401059105990592F2
:100A7000036843F080030360016801F08001059181
:100A800005990592036843F001030360016801F0D2
:100A90000101059105990592036843F00203036083
:100AA000016801F002010591059905923946036834
:100AB00043F008030360006800F008000590059803
:100AC000404603F06CF900224FF4DE61204603F04B
:100AD00066F900224FF40041284603F060F9002235
:100AE0004FF47841304603F05AF900970120002175
:100AF0000190029103914046694603F005F84FF4D6
:100B0000DE6000900121002001910290039069466F
:100B1000204602F0F9FF4FF4C0700090002102203F
:100B2000019102906946DFF8380402F0EDFF4FF4BE
:100B3000E040009000210220019102906946284681
:100B400002F0E2FF4FF400400090012100200191EB
:100B5000029003906946284602F0D6FF4FF4707069
:100B600000900220DFF8FC130191029069463046A4
:100B700002F0CAFF4FF48060009000210220019132
:100B800002906946304602F0BFFF4FF47840009073
:100B9000012100200191029003906946304602F045
:100BA000B3FF3F2000900220DFF8BC1301910290B8
:100BB0006946304602F0A8FF00220521062001F018
:100BC00018F9062001F03EF900220521072001F066
:100BD00010F9072001F036F900220521082001F064
:100BE00008F9082001F02EF900220521092001F062
:100BF00000F9092001F026F9002205210A2001F060
:100C0000F8F80A2001F01EF900220521172001F052
:100C1000F0F8172001F016F906B0BDE8F08138B5FC
:100C2000012816D0022823D0042831D008283ED02D
:100C300010284AD0202857D0402864D080287DD062
:100C4000B0F5807F00F09580B0F5007F00F0AD80BA
:100C500031BD4FF48051DFF8EC02634C03F098F89B
:100C6000002819BF2188481E2088401C208031BDE3
:100C70004FF40051DFF8CC025B4C03F089F80028F8
:100C8000608802D0411E618031BD401C608031BD52
:100C90004FF48041AB48544C03F07AF80028A08808
:100CA00002D0411EA18031BD401CA08031BD8021F9
:100CB000AB484D4C03F06CF80028E08802D0411E90
:100CC000E18031BD401CE08031BD4FF48071A4480B
:100CD000454C03F05DF80028208902D0411E218197
:100CE00031BD401C208131BD4FF4806191483E4CA4
:100CF00003F04EF80028608902D0411E618131BDA9
:100D0000401C608131BD384C984DE06B401CE06365
:100D10004021884803F03CF80028286801D020646E
:100D200031BD6064206C616C8842616C206C24BFB2
:100D300001F57F41FF31091AA16431BD2A4C8B4D69
:100D4000E06C401CE06480217A4803F021F8002820
:100D5000286801D0206531BD6065206D616D8842D5
:100D6000616D206D24BF01F57F41FF31091AA16536
:100D700031BD1D4C7D4DE06D401CE0654FF4807130
:100D80006C4803F005F80028286801D0206631BDC2
:100D90006066206E616E8842616E206E24BF01F530
:100DA0007F41FF31091AA16631BD0F4C6F4DE06ED6
:100DB000401CE0664FF400715E4802F0E9FF002835
:100DC000286801D0206731BD6067206F616F88425D
:100DD000616F206F24BF01F57F41FF31091AA167C0
:100DE00031BD0000002001402C4600203038024078
:100DF000C03D002000540040A086010000300240A9
:100E0000684700200014014010B52DED028BB0EEB4
:100E1000408A10EE900A03F065FD554A554B03F0E9
:100E200085FD0022544B03F053FE03F075FF00EEE6
:100E3000100AB5EE400AF1EE10FADFED360A10DBCB
:100E4000B4EE600AF1EE10FA0BD54C4CF0EE000A4D
:100E500084ED008A20EE200A04F07EF828EE400A95
:100E60004CE0B4EE600AF1EE10FA9FED2C1A12DBA2
:100E7000B4EE410AF1EE10FA0DD5F0EE000A20EEC4
:100E8000200A04F069F83D4C28EE400A84ED000A7F
:100E900084ED018A34E0B4EE410AF1EE10FADFEDA0
:100EA000200A12DBB4EE600AF1EE10FA0DD5334CD5
:100EB000F1EE480AC4ED000AF0EE000A20EE200A26
:100EC00004F04AF828EE000A18E0B4EE600AF1EEE9
:100ED00010FA15DB9FED141AB4EE410AF1EE10FA88
:100EE0000ED5F0EE000A20EE200A04F035F8234C6F
:100EF00028EE000A84ED000AB1EE480A84ED010AEA
:100F0000BDEC028B10BD0000000400400008004052
:100F1000000C0040D00FC93F005C0040D00F49409A
:100F2000DCCB964000400140D00FC9400044014056
:100F300004480020000C0240000002403400014040
:100F400000080240000402404038024000700040A7
:100F5000986E1283BC4700200100000F0000014082
:100F60000010024000003110000011102444014024
:100F70006E861BF0F9210940008066407C48002005
:100F800080B5012003F017F8FBE700002DE9F84FCA
:100F90002DED108B86B0684600230024984680E82B
:100FA0001801DFF8B45DDFF8B40D062205F10C017D
:100FB00003F0AAFADFF8A86D4FF000099FED7ABAA6
:100FC0009FED7A8B9FED7BFBDFED7CBA9FED7C9BE9
:100FD0009FED7DCA9FED7DAB9FED7EEB06F1840713
:100FE0003DE0706D03F07EFC41EC100B03F0B9FFA7
:100FF00053EC102B51EC180B03F098FCDFF8642D28
:10100000DFF8643D03F064FD53EC182B03F0B0FFF0
:1010100003F082FE306496ED0F0AB4EE4B0AF1EE57
:1010200010FA05DB96ED0F0A3BEE400A86ED0F0A3B
:1010300096ED100AB4EE4B0AF1EE10FA05DB96EDD0
:10104000100A3BEE400A86ED100A03A802F0FCFEEF
:101050000398306703A8416871678068B0674FF4F0
:101060008051DFF8084D204602F092FE30704FF4B8
:101070000051204602F08CFE70704FF480412046F3
:1010800002F086FEB0708021DFF8E44C204602F0CA
:101090007FFEF0704FF48071204602F079FE3071CF
:1010A0004FF48061DFF8CC0CDFF8CC4C02F070FE1E
:1010B00070719FED4ADB2068B06309F10109B08BC4
:1010C00002F079FFA86C04F00FF853EC1E2B03F02C
:1010D0002DFC03F021FE3062A86D04F005F853ECFE
:1010E0001E2B03F023FC03F017FE7062A86E03F0C2
:1010F000FBFF53EC1E2B03F019FC03F00DFEB06256
:10110000A86F03F0F1FF53EC1E2B03F00FFC03F06C
:1011100003FEF062686A03F0E7FF53EC1D2B03F057
:1011200005FC03F0F9FD3063A86A03F0DDFF53EC22
:101130001D2B03F0FBFB03F0EFFD70636FF0630208
:10114000E86A70824FF4B471286BB082686BF082E9
:10115000A86B3083F388B5F80080DFF8200CA8EB8B
:10116000030EBEF1640F3DDD00EB080CACEB030396
:1011700097ED1C0AB6F81AE000EE903AF8EEE00A95
:1011800020EE800A00EE90EAF8EE600A80EE200A77
:10119000D6ED1F0A30EE200A86ED1F0A4B43B6F843
:1011A0001AC093FBFCF359E00000B44300000000B8
:1011B00000806640000000989999E93FCDCC4C3EF4
:1011C000000000D0CCCCE43F3333B33E000000003D
:1011D00000408F40C3F5285C8FC2C53F7B14AE47EB
:1011E000E17A743F964597ED1C0A1FDA4FF6FF7AB5
:1011F0000AEB080CACEB030300EE903AB6F81AE0E9
:10120000F8EEE00A20EE800A00EE90EAF8EE600ABE
:1012100080EE200AD6ED1F0A30EE200A86ED1F0A66
:101220004B43B6F81AC093FBFCF317E000EE90EACC
:10123000738BF8EEE00A20EE800A00EE903AF8EEAA
:10124000600A80EE200AD6ED1F0A30EE200A86EDF5
:101250001F0A01FB0EFE738B9EFBF3F300EE103AA8
:10126000B8EEC00AD7ED0A0A30EE200A87ED0A0A66
:101270003389B5F802C0ACEB030EBEF1640F1EDD7E
:101280008444ACEB030397ED1C0AB6F81AE000EEB9
:10129000903AF8EEE00A20EE800A00EE90EAF8EECE
:1012A000600A80EE200AD7ED000A30EE200A87EDB2
:1012B000000A4B43B6F81AC093FBFCF33AE096459C
:1012C00097ED1C0A1EDA4FF6FF7AD444ACEB030309
:1012D00000EE903AB6F81AE0F8EEE00A20EE800A46
:1012E00000EE90EAF8EE600A80EE200AD7ED000AE0
:1012F00030EE200A87ED000A4B43B6F81AC093FB84
:10130000FCF317E000EE90EA738BF8EEE00A20EEB3
:10131000800A00EE903AF8EE600A80EE200AD7EDDF
:10132000000A30EE200A87ED000A01FB0EFE738BE7
:101330009EFBF3F300EE103AB8EEC00AD7ED0B0AAD
:1013400030EE200A87ED0B0A7389B5F804C0ACEBC8
:10135000030EBEF1640F1EDD8444ACEB030397ED76
:101360001C0AB6F81AE000EE903AF8EEE00A20EE19
:10137000800A00EE90EAF8EE600A80EE200AD7EDCF
:10138000020A30EE200A87ED020A4B43B6F81AC073
:1013900093FBFCF33AE0964597ED1C0A1EDA4FF6F4
:1013A000FF7AD444ACEB030300EE903AB6F81AE0AF
:1013B000F8EEE00A20EE800A00EE90EAF8EE600A0D
:1013C00080EE200AD7ED020A30EE200A87ED020AED
:1013D0004B43B6F81AC093FBFCF317E000EE90EA1B
:1013E000738BF8EEE00A20EE800A00EE903AF8EEF9
:1013F000600A80EE200AD7ED020A30EE200A87ED5F
:10140000020A01FB0EFE738B9EFBF3F300EE103A13
:10141000B8EEC00AD7ED0C0A30EE200A87ED0C0AB0
:10142000B389B5F806C0ACEB030EBEF1640F1EDD48
:101430008444ACEB030397ED1C0AB6F81AE000EE07
:10144000903AF8EEE00A20EE800A00EE90EAF8EE1C
:10145000600A80EE200AD7ED040A30EE200A87EDFC
:10146000040A4B43B6F81AC093FBFCF33AE09645E6
:1014700097ED1C0A1EDA4FF6FF7AD444ACEB030357
:1014800000EE903AB6F81AE0F8EEE00A20EE800A94
:1014900000EE90EAF8EE600A80EE200AD7ED040A2A
:1014A00030EE200A87ED040A4B43B6F81AC093FBCE
:1014B000FCF317E000EE90EA738BF8EEE00A20EE02
:1014C000800A00EE903AF8EE600A80EE200AD7ED2E
:1014D000040A30EE200A87ED040A01FB0EFE738B2E
:1014E0009EFBF3F300EE103AB8EEC00AD7ED0D0AFA
:1014F00030EE200A87ED0D0AF389B5F808C0ACEB91
:10150000030EBEF1640F1EDD8444ACEB030397EDC4
:101510001C0AB6F81AE000EE903AF8EEE00A20EE67
:10152000800A00EE90EAF8EE600A80EE200AD7ED1D
:10153000060A30EE200A87ED060A4B43B6F81AC0B9
:1015400093FBFCF33AE0964597ED1C0A1EDA4FF642
:10155000FF7AD444ACEB030300EE903AB6F81AE0FD
:10156000F8EEE00A20EE800A00EE90EAF8EE600A5B
:1015700080EE200AD7ED060A30EE200A87ED060A33
:101580004B43B6F81AC093FBFCF317E000EE90EA69
:10159000738BF8EEE00A20EE800A00EE903AF8EE47
:1015A000600A80EE200AD7ED060A30EE200A87EDA9
:1015B000060A01FB0EFE738B9EFBF3F300EE103A5E
:1015C000B8EEC00AD7ED0E0A30EE200A87ED0E0AFB
:1015D000338AB5F80AC0ACEB030EBEF1640F1BDD15
:1015E0006044C01A97ED1C0A728B00EE900AF8EE68
:1015F000E00A20EE800A00EE902AF8EE600A80EE03
:10160000200AD7ED080A30EE200A87ED080A414388
:10161000728B91FBF2F037E0964597ED1C0A1BDACE
:101620004FF6FF706044C01A00EE900A728BF8EE1D
:10163000E00A20EE800A00EE902AF8EE600A80EEC2
:10164000200AD7ED080A30EE200A87ED080A484341
:10165000728B90FBF2F017E000EE90EA708BF8EEE0
:10166000E00A20EE800A00EE900AF8EE600A80EEB2
:10167000200AD7ED080A30EE200A87ED080A01FBA0
:101680000EF1708B91FBF0F000EE100AB8EEC00A7C
:10169000D7ED0F0A30EE200A87ED0F0A96ED1F0AEC
:1016A000D6ED200A30EE600A10EE100A03F01AF9A7
:1016B00053EC1A2B03F03AF98246B08B8B4603F0B9
:1016C00013FD02460B465046594603F001FA03F05B
:1016D00023FB386497ED000AD7ED010A30EE600A6B
:1016E00010EE100A03F0FEF853EC1A2B03F01EF96B
:1016F0008246B08B8B4603F0F7FC02460B46504601
:10170000594603F0E5F903F007FBB86497ED020AC8
:10171000D7ED030A30EE600A10EE100A03F0E2F88B
:1017200053EC1A2B03F002F98246B08B8B4603F080
:10173000DBFC02460B465046594603F0C9F903F05C
:10174000EBFA386597ED040AD7ED050A30EE600A2A
:1017500010EE100A03F0C6F853EC1A2B03F0E6F86B
:101760008246B08B8B4603F0BFFC02460B465046C8
:10177000594603F0ADF903F0CFFAB86597ED060AC4
:10178000D7ED070A30EE600A10EE100A03F0AAF84F
:1017900053EC1A2B03F0CAF88246B08B8B4603F049
:1017A000A3FC02460B465046594603F091F903F05C
:1017B000B3FA386697ED080AD7ED090A30EE600AE9
:1017C00010EE100A03F08EF853EC1A2B03F0AEF86B
:1017D0008246B08B8B4603F087FC02460B46504690
:1017E000594603F075F903F097FAB86697ED100AB9
:1017F00020EE0C0A10EE100A03F074F88246786CA2
:101800008B4603F06FF853EC192B03F08FF8524618
:101810005B4603F0ADFB03F07FFA786497ED120AA4
:1018200020EE0C0A10EE100A03F05CF88246F86C09
:101830008B4603F057F853EC192B03F077F8524618
:101840005B4603F095FB03F067FAF86497ED140A22
:1018500020EE0C0A10EE100A03F044F88246786D70
:101860008B4603F03FF853EC192B03F05FF8524618
:101870005B4603F07DFB03F04FFA786597ED160A9F
:1018800020EE0C0A10EE100A03F02CF88246F86DD8
:101890008B4603F027F853EC192B03F047F8524618
:1018A0005B4603F065FB03F037FAF86597ED180A1D
:1018B00020EE0C0A10EE100A03F014F88246786E3F
:1018C0008B4603F00FF853EC192B03F02FF8524618
:1018D0005B4603F04DFB03F01FFA786697ED1A0A9A
:1018E00020EE0C0A10EE100A02F0FCFF8246F86EA1
:1018F0008B4602F0F7FF53EC192B03F017F8524612
:101900005B4603F035FB03F007FAF866DFF8701466
:10191000F06FC6F8800038687860B868F860386999
:101920007861B869F861386A7862A6F806806888D4
:101930003081A8887081E888B0812889F081688921
:101940003082A9FB0110C00800EB8002B9EB420015
:1019500013D121684FF6FE70814246D2DFF824840D
:1019600001221021404602F01AFA2068401C21682A
:101970008842FCD20022102134E0022807D12168DD
:101980004FF6FE70814230D2DFF8F8831EE0042863
:1019900013D121684FF6FE70814226D2DFF8E8832A
:1019A00001221021404602F0FAF92068401C21680B
:1019B0008842FCD20022102114E0062815D12168AB
:1019C0004FF6FE70814210D2DFF8BC830122202145
:1019D000404602F0E4F92068401C21688842FCD2AD
:1019E00000222021404602F0DAF919F0030F7FF4BB
:1019F00036AB684602F00CFA0098B0659FEDC9DB83
:101A00000199F1650298306696ED160A20EE2B0AD0
:101A100010EE100A02F066FF0446706E884602F06F
:101A200061FF53EC1F2B02F081FF2246434603F077
:101A30009FFA03F071F9706696ED170A20EE2B0AF3
:101A400010EE100A02F04EFF0446B06E884602F017
:101A500049FF53EC1F2B02F069FF2246434603F077
:101A600087FA03F059F9B06696ED180A20EE2B0AB2
:101A700010EE100A02F036FF0446F06E884602F0BF
:101A800031FF53EC1F2B02F051FF2246434603F077
:101A90006FFA03F041F9F06696ED190AD6ED190ACE
:101AA00096ED1A1AD6ED1A1A96ED1B2A20EE200A88
:101AB00001EE210AD6ED1B0A02EE200A10EE100AF2
:101AC00002F010FF41EC100B03F01CFB51EC100B6B
:101AD00003F022F9706496ED1A0AD6ED110A80EE31
:101AE000200A86ED120A96ED120AD6ED120A20EEB1
:101AF000200A10EE100A02F0F5FE02460B4651ECE9
:101B00001D0B03F081FB41EC100B03F0FBFA51ECD1
:101B1000100B03F001F9F06496ED190AD6ED110AE5
:101B200080EE200A86ED140A96ED140AD6ED140A0A
:101B300020EE200A10EE100A02F0D4FE02460B46F8
:101B400051EC1D0B03F060FB41EC100B03F0DAFAD3
:101B500051EC100B03F0E0F8706596ED120AB5EE4B
:101B6000400AF1EE10FA18DDD6ED130AF06CF5EE2E
:101B7000400AF1EE10FA2EDD02F0B4FE41EC100B3B
:101B800003F0EFF953EC102B51EC180B02F0CEFEE2
:101B9000744A754B02F09CFF31E096ED130AB5EEE6
:101BA000400AF1EE10FA15DDF06C02F09BFE41ECFC
:101BB000100B03F0D6F953EC102B51EC180B02F07C
:101BC000B5FE684A684B02F083FF9FED70DB53EC73
:101BD0001D2B12E0F06C02F085FE41EC100B03F0BF
:101BE000C0F953EC102B51EC180B02F09FFE5D4A2C
:101BF0005D4B02F06DFF53EC182B03F0B9F903F0C5
:101C00008BF8F06396ED140AB5EE400AF1EE10FA87
:101C10001ADDD6ED150A706DF5EE400AF1EE10FAF8
:101C20007FF7E0A902F05EFE41EC100B03F099F99A
:101C300053EC102B51EC180B02F078FE494A4A4B3A
:101C400002F046FFFFF7E4B996ED150AB5EE400A3B
:101C5000F1EE10FA7FF7C5A9706D02F043FE41EC7A
:101C6000100B03F07EF953EC102B51EC180B02F023
:101C70005DFE3C4A3C4B02F02BFF9FED44DB53ECF6
:101C80001D2BFFF7C3B980B5012002F094F9FBE7E3
:101C900038B540F6B9343F4D03222946281D01F0DE
:101CA00080FC2978FF2922D168786528BCBFA978F3
:101CB000B5291CDA00EE100AB8EE400AF3EE090A64
:101CC00080EE200A85ED130A00EE101AB8EE400AE5
:101CD000F0EE000A20EE200A85ED140AD5ED140A74
:101CE00095ED130AFFF790F803F000FB686403F02A
:101CF000FDFA696C401AA864A86CA04202D30020C7
:101D0000E8642865142002F056F9C5E710B5194CAF
:101D10004FF47A7002F04FF94FF40041204602F080
:101D200044F8F5E7000000000000F03F80B50FF236
:101D3000700001680122032003F0B7FBFA2002F0D3
:101D40003AF9012003F0C6FBF8E70068124988421F
:101D500008BF03F0E7BB70472C460020BC470020BB
:101D60002C0000206E861BF0F9210940000402407F
:101D700000100240000C0240244401400100FFFF1B
:101D8000CDCCCCCC00000240000802400000000096
:101D9000008076406847002000480140FEE70000D0
:101DA00000000A0080B50B48016841F40071016031
:101DB000026842F480620260016841F4807101604F
:101DC000032000F009F8002003F0B4FB00F00CFC45
:101DD000002002BD003C02402F4A13684FF6FF016D
:101DE00000020B4000F4E06018432C4908431060E7
:101DF000704738B4284B1C68C4F30223C3F10704AE
:101E0000052C28BF04241D1D072D34BF0023DB1E15
:101E1000012505FA04F4641E2140994005FA03F3F4
:101E20005B1E1A4011430901002807D51C4A00F027
:101E30000F00104400F8041C31BC7047194A1154BB
:101E400031BC7047012200F01F01174BFFE78A40A9
:101E5000400943F820207047401EB0F1807F01D335
:101E6000012070471149124A4860F020107000228A
:101E70008A60072008600020704704280B4904D1BD
:101E8000086840F00400086070470A6822F0040205
:101E90000A607047000000000CED00E00000FA0549
:101EA00018ED00E000E400E000E100E010E000E0F8
:101EB00023ED00E038B5040001D1012032BD04F16A
:101EC0003805687820B900212970204600F05CFDB3
:101ED00021E0022180F8391001680A6842F001020D
:101EE0000A6013E00068C16841F00101C160026846
:101EF00042F0010202600020704707D1D1F800C013
:101F00004FEA5C0C4FEA4C0CC1F800C0012180F88C
:101F100039100020704702206870211D206800F0F1
:101F2000EBF901206870002032BD38B5040001D102
:101F3000012032BD04F13805687820B900212970EC
:101F4000204600F08DFCE6E71CE00A0006D00429DC
:101F500009D008290CD00C290FD013E00268D368EF
:101F600043F002030DE00268D36843F0040308E085
:101F70000268D36843F0080303E00268D36843F0C3
:101F80001003D3600068012202FA01F1026A8A4359
:101F90000262026A11430162DFF82C11884205D106
:101FA000DFF82C110A6842F400420A60016841F02F
:101FB00001010160002070477CB504460D4694F88D
:101FC0003900022811467BD094F83900012807D146
:101FD00019B9180001D0012076BD022084F839001B
:101FE000280006D0042D17D0082D28D00C2D39D06C
:101FF0004BE0226ADFF8D400D063266ADFF8C40021
:10200000F064206800F13402206A03F049FB206884
:10201000C16841F4007137E0626ADFF8B000D06354
:10202000626ADFF8A000D064206800F13802606ABC
:1020300003F036FB2068C16841F4806124E0A26AA5
:10204000DFF88800D063A26ADFF87800D0642068E7
:1020500000F13C02A06A03F023FB2068C16841F450
:10206000006111E0E26ADFF86400D063E26ADFF841
:102070005400D064206800F14002E06A03F010FBD5
:102080002068C16841F48051C1602068012101FAD3
:1020900005F5016AA9430162016A0D4305622068E2
:1020A000DFF82410884205D1DFF82400016841F4EC
:1020B000004101602068026842F0010202600020D5
:1020C00076BD00000124000800000140C52300087F
:1020D0004400014010B50446206801698A0716D5FE
:1020E000C1688A0713D56FF00202026101212176CF
:1020F000806910F0030F204602D003F023FC04E0B7
:1021000003F021FC204603F01FFC0020207620680D
:1021100001694A0716D5C1684A0713D56FF0040252
:10212000026102212176806910F4407F204602D0AE
:1021300003F008FC04E003F006FC204603F004FC76
:1021400000202076206801690A0716D5C1680A07B1
:1021500013D56FF00802026104212176C06910F0E6
:10216000030F204602D003F0EDFB04E003F0EBFB8D
:10217000204603F0E9FB0020207620680169CA06AA
:1021800016D5C168CA0613D56FF010020261082186
:102190002176C06910F4407F204602D003F0D2FBC4
:1021A00004E003F0D0FB204603F0CEFB00202076B5
:1021B00020680169CA0708D5C168CA0705D56FF04C
:1021C000010202612046FFF7C0FD206801690A068E
:1021D00008D5C1680A0605D56FF080020261204665
:1021E00003F0B3FB206801694A0608D5C1684A06B6
:1021F00005D56FF040020261204603F0A7FB20687E
:1022000001698A060AD5C1688A0607D56FF02002DF
:1022100002612046BDE8104003F099BB10BD70B5C7
:10222000064606F138040D462078012801D1022027
:1022300070BD012121700220607032B1042A18D0D3
:10224000082A2BD00C2A3DD050E03068294600F0F7
:10225000E0F83068816941F0080181613068816986
:1022600021F00401816131688A69286902438A6129
:102270003CE03068294600F07CF83068816941F420
:10228000006181613068816921F480618161306819
:1022900081692A6941EA0221816127E03068294683
:1022A00000F0DDF83068C16941F00801C1613068B3
:1022B000C16921F00401C1613168CA69286902431A
:1022C000CA6113E03068294600F0F2F83068C1694D
:1022D00041F40061C1613068C16921F48061C1616C
:1022E0003068C1692A6941EA0221C161FFE7012022
:1022F00060700020207070BD18B47E4B0468984256
:1023000018BFB0F1804F07D07B4A90421FBF7B4A75
:1023100090427B4A90420ED14A6824F070041443E4
:10232000984218BFB0F1804F11D0734A90421CBF41
:10233000724A90420BD0724A90421CBF714A90423E
:1023400005D0714A90421CBF704A904203D1CA68BE
:1023500024F440741443046098428A68C2620A6894
:10236000826202D109696A4A11600122426111BC8C
:10237000704770B4026A5F4E22F010020262B042EF
:10238000056A436884690A6824F4E64444EA02243E
:102390008A6825F0200545EA02150DD1CA684E6904
:1023A00025F0800545EA02158A6923F44063164347
:1023B00025F0400543EA86034360846149688163F0
:1023C00073E0000010B5846B012184F83910216A94
:1023D000884208BF01200DD0616A884208BF0220F0
:1023E00008D0A16A884208BF042003D0E16A88426D
:1023F00001D108202076204603F0A6FA06E000006E
:10240000806B012180F8391003F0A2BA00202076F9
:1024100010BD30B4026A520852000262056A436875
:1024200084690A6824F0730414438A6825F002055D
:102430001543304A90420BD123F44073CA6825F00B
:10244000080515434A6913438A6925F004051343B7
:102450004360846149684163056230BC704770B471
:10246000026A244E22F480720262056A4368C469DB
:102470000A6824F0730414438A6825F40075B04296
:1024800045EA02250DD1CA684E6925F4006545EA82
:1024900002258A6923F44053164325F4806543EAF4
:1024A00006134360C4614968C163056270BC70472C
:1024B00070B4026A0F4E22F480520262B042046A83
:1024C0004268C3690D6823F4E64343EA05238D6837
:1024D00024F4005444EA053404D14D6922F48042C6
:1024E00042EA85124260C36149680164046270BCBB
:1024F0007047000000000140000400400008004058
:10250000000C0040004001400044014000480140F0
:10251000300001400068042202FA01F1026AFFE77C
:102520008A430262026A11430162416C41F4004134
:102530004164026842F0010202600020704730B43A
:1025400000F138031A78012A08BF02201BD00124A9
:102550001C7002225A700268546824F0700454609F
:10256000046865680A68154365600268946824F029
:102570008004946002689468486804439460012071
:1025800058700020187030BC704730B490F8382074
:10259000012A08BF022024D0012380F83830CD68FA
:1025A0008B684A688C6925F440751D4325F4806565
:1025B00015430B680A69496925F400651D4325F434
:1025C0008055154325F400550D4325F480452543DA
:1025D000026825F400452C435464002180F838102B
:1025E000002030BC7047000080B500200090002221
:1025F000DFF83C05416841F480414160416801F4E5
:102600008041009100990092036843F08053036079
:10261000006800F08050009000980320FFF7DCFB7A
:10262000002200216FF00B00FFF7E3FB00220021E6
:102630006FF00A00FFF7DDFB002200216FF00900B8
:10264000FFF7D7FB002200216FF00400FFF7D1FB5A
:10265000002200216FF00300FFF7CBFB00220F21C7
:102660006FF00100FFF7C5FBBDE8084000220F2115
:102670004FF0FF30FFF7BDBB38B5044686B0206889
:10268000DFF8B014884245D10021DFF8AC04DFF850
:10269000AC5400910F21026842F480720260032260
:1026A000006800F480700090009801910020039071
:1026B000029201A9DFF8880401F026FA0320002124
:1026C0000C2202900391019201A9DFF8780401F035
:1026D0001BFADFF87404286000206860A860E860D6
:1026E0004FF4806028614FF4805068614FF480405F
:1026F000A8614FF48070E861002028626862284673
:1027000002F058FF20B18C210FF28040FFF746FB0A
:10271000A563AC6307B030BD81B00068DFF82C144E
:1027200088420CD10021DFF828040091026842F4AD
:1027300080520260006800F480500090009801B060
:10274000704710B586B00068DFF8081488422AD1B7
:1027500040200090122101200191029000210420CC
:10276000039104906946DFF8F043204601F0CCF96C
:102770004FF400700090122101200191029003217A
:102780000420039104906946204601F0BDF9002021
:102790000590DFF89C03016841F4001101600068B6
:1027A00000F400102EE0DFF8B41388422CD14FF46F
:1027B0000070009012210120019102900321042059
:1027C000039104906946DFF8780301F09DF94FF416
:1027D00080700090122101200191029003210420B9
:1027E000039104906946DFF85C0301F08DF9002045
:1027F0000590DFF83C03016841F4000101600068C6
:1028000000F400000590059806B010BD80B5006882
:10281000DFF8401388420AD1DFF81403016821F47D
:10282000001101604FF41071DFF82C0313E0DFF8A2
:102830002C23904213D1DFF8F802016821F4000143
:1028400001604FF40071DFF8F80201F029FA4FF44B
:102850008071DFF8F002BDE8044001F021BA01BD4B
:1028600038B50446DFF8F8122068884216D10020F7
:1028700000900022DFF8B802416841F00101416098
:102880000021406800F00100009000981A20FFF736
:10289000B0FABDE832401A20FFF7D4BAB0F1804F49
:1028A0000BD100200090DFF88802016841F001019F
:1028B0000160006800F0010063E0DFF8A8128842C0
:1028C0000BD100200090DFF86802016841F002019E
:1028D0000160006800F0020053E0DFF88C128842CB
:1028E00034D100200090DFF884529148016841F013
:1028F000040101600068DFF8781200F00400009025
:10290000009829604020A8604FF080610020E860B6
:1029100069604FF4806028614FF4006068614FF493
:102920000050A8610020E8614FF4003028620020C8
:102930006862284602F03EFE28B14FF4C3710FF2E0
:102940004C20FFF72BFA6562AC6331BD89498842A0
:102950000AD1002000907648016841F0080101602A
:10296000006800F008000CE0834988420BD1002089
:1029700000906F48416841F480314160406800F444
:1029800080300090009831BD81B000687B4988425A
:102990000BD1002168480091026842F400320260C5
:1029A000006800F400300090009801B0704700B556
:1029B00085B000686A49884209D14FF4D44000903C
:1029C00002210020029003900191012055E0B0F116
:1029D000804F1AD14FF480610091022000210291B2
:1029E000039101900121049169465B4801F08CF844
:1029F0004FF40040009002210020029003900191CA
:102A00000120049069464F483AE0564988420BD16C
:102A100033200090022100200290039001910220B7
:102A2000049069464C482BE04F4988420BD18020E6
:102A30000090022100200290039001910220049056
:102A4000694645481CE04B4988420BD10320009061
:102A50000221002002900390019102200490694617
:102A600038480DE0444988420CD1202000900221D2
:102A70000020029003900191032004906946404891
:102A800001F042F805B000BD00683E49884200D020
:102A9000704780B586B0002127480091C0210268A8
:102AA00042F0200202600222006800F02000009044
:102AB00000980191012003900321082004910590C2
:102AC000029201A91E4801F01FF8002205214720AB
:102AD000FFF78FF94720FFF7B5F907B000BD006891
:102AE000B0F1A04F00D0704780B586B04FF4C05110
:102AF0000191022000210290039103200A210490F9
:102B0000059101A90F4800F0FFFF1F48016841F03F
:102B10008001016000220092016941F4804101615D
:102B2000006900F480400090009807B000BD0000EC
:102B3000403802400020014044380240A8460020AE
:102B40000008024000000240706402400030024071
:102B5000303802400054004000040240005C004055
:102B60000000014000040040000800400847002029
:102B700058600240000C0040004001400044014009
:102B8000001002400014014034380240433A5C47D0
:102B900049545C526576767944656D6F4B69745C17
:102BA00053544D3332463431315C5372635C737429
:102BB0006D3332663478785F68616C5F6D73702E48
:102BC00063000000F8B5040001D10120F2BD04F15A
:102BD0003C05687820B9002129702046FFF7B1FD37
:102BE000242068702068016849084900016001F0EC
:102BF000FCFB0146DFF8EC20DFF8EC30A1FB022003
:102C0000C20C206842606068984208D34FF4967006
:102C100010FB02F2DFF8D470A2FB0776720A20687C
:102C2000521C026266689E4208D27600B1FBF6F042
:102C3000C0F30B01042913D2042011E0A06820B9CD
:102C400006EB4606B1FBF6F005E019225643B1FB50
:102C5000F6F040F4804001050CBF012040F4004034
:102C60002168C861E269206A024320680260216924
:102C7000E0680143206881606169A06901432068C0
:102C8000C1602068016841F00101016000206860B6
:102C90002020687000202063A870F2BD38B50400C1
:102CA00001D1012032BD04F13C0524206870206868
:102CB00001684908490001602046FFF7A7FD002090
:102CC000686068702063A870287032BD0320BDE87A
:102CD000F6870120BDE8F6870120BDE8F2830320D6
:102CE000BDE8F28306BD3786A1860100986E128387
:102CF0002DE9FC470646884691469A4602F0F6FAC8
:102D000006F13C070546787820280FD130688169A4
:102D10008A0754D502F0EAFA401B1A28F6D300209D
:102D20003063202078700020B8703870F8E178683F
:102D3000042803D100213970FFF7CBBF0020387081
:102D4000FFF7C4BF716A4A1C726209780161308D55
:102D5000411E3185708D411E7185308D002877D0E0
:102D6000306841690A0660D441694A0513D56FF499
:102D700080624261042078600020306320207870F7
:102D80000020387078680428DAD13068016841F48E
:102D900000710160D0E714F1010FE1D024B102F01D
:102DA000A5FA401B8442DBD2786840F020007860AE
:102DB00000213163202078703970E3E75CE03978D6
:102DC0000129B3D001223A700268D10703D4016807
:102DD00041F0010101604146D6F800E00C9C0B98DF
:102DE000DDF828C0DEF8008028F40068CEF8008006
:102DF0004FF0210E87F801E053464FF0400E87F860
:102E000002E04A464FF0000EC7F804E0C6F824C0BE
:102E100070851848F062708D3085019500943046B9
:102E200000F08AF9002898D081E7716A4A1C726222
:102E300009780161308D411E3185708D421E728589
:102E400030684269530788D589B200297FF47AAF88
:102E50002A462146304600F003FB0028AED07868B1
:102E600004287FF46DAF3068016841F4007101609F
:102E700062E700000000FFFF3068016841F4007164
:102E80000160202078700020B8703870BDE8F687A7
:102E90002DE9FC470646884691469A4602F026FAF6
:102EA00006F13C0705467878202810D13068816902
:102EB0008A0740F1AA8002F019FA401B1A28F5D3BC
:102EC00000203063202078700020B870387027E12F
:102ED00000203870FFF7FABE308D08B9009008E086
:102EE0003168012810D1086820F480600860002152
:102EF00000913068416900918269009200990168EF
:102F000041F40071016025E002280FD1086820F427
:102F1000806008603068016841F400610160002051
:102F20000090306841690091806904E000200090C1
:102F30004A6900928869009000990BE0706A411C10
:102F4000716231680A690270308D411E3185708D61
:102F5000411E7185308D002800F09680042837D2FC
:102F600001280BD12A462146304600F0ABFA002852
:102F7000E4D078682028ADD0FFF7ABBE022840F03F
:102F80008480306841694A0700F1938014F1010F91
:102F9000F7D024B102F0AAF9401B8442F1D20020FC
:102FA0003063202078700020B87092E714F1010F90
:102FB00000F0A0802CB102F099F9401B844280F00F
:102FC000998000203063202078700020B87080E75E
:102FD0002A462146304600F075FA0028C9D1706AA9
:102FE000411C716231680A690270308D411E318561
:102FF000708D411E7185306841694A07AAD5716A92
:103000004A1C7262006908709EE7397801293FF412
:103010005EAF01223A700268D10703D4016841F023
:10302000010101604146D6F800E00C9C0B98DDF8E8
:1030300028C0DEF8008028F40068CEF800804FF049
:10304000220E87F801E053464FF0400E87F802E069
:103050004A464FF0000EC7F804E0C6F824C0708559
:10306000DFF8C800F062708D30850195009430461D
:1030700000F0E9F800283FF42FAF786804287FF4C7
:1030800027AF0021397077E7FBE6306841694A07CE
:1030900020D414F1010FF8D024B102F027F9401B1D
:1030A0008442F2D200203063202078700020B87073
:1030B0000FE7016841F400710160706A411C7162A0
:1030C00031680A690270308D411E3185708D411E54
:1030D000718533E7016821F480610160706A411CE9
:1030E000716231680A690270308D411E3185708DC0
:1030F000411E7185306841694A077FF557AF026804
:1031000042F400720260706A411C716231680A699F
:103110000270308D411E3185708D411E71850DE725
:103120000220BDE8F68790F83D0070470000FFFFE1
:1031300041600020BDE8F2832DE9F843064630687F
:10314000089C099D0F46016841F48071914698469C
:10315000016030684169CA074CD414F1010FF8D0FE
:1031600024B102F0C3F8401B8442F2D20020306345
:10317000202106F13C00417000218170017032E095
:1031800041694A0515D5026842F4007202606FF485
:1031900080603168486106F13C00042242600021F1
:1031A00031632021417000210170416804291AD146
:1031B00017E014F1010F20D024B102F097F8401B62
:1031C00084421AD20020306306F13C00E9E706F1A0
:1031D0003C004168042906D13068026842F400725C
:1031E0000260FFF779BDFFF77ABD30685FFA89F7B3
:1031F00007619EE707F0FE070761306841698A07AB
:10320000BED5002200922A46416900918069009053
:1032100030460099214600F009F90028D7D1B8F1CD
:10322000010FE2D031684FEA192008612A46214691
:10323000304600F0FBF80028D7D006F13C0041688A
:103240000429D0D1C8E72DE9FE43064630680A9C20
:103250000B9F0D46016841F4806101609046306823
:10326000026842F480729946026030684169CA0778
:1032700000F1A08014F1010FF7D024B102F036F86C
:10328000C01B8442F1D200203063202106F13C00B3
:1032900041700021817001708AE041694A0515D5AD
:1032A000026842F4007202606FF480603168486125
:1032B00006F13C000422426000213163202141706C
:1032C000002101704168042972D161E014F1010FFD
:1032D00073D024B102F00AF8C01B84426DD20020E2
:1032E000306306F13C00E9E706F13C00416804293F
:1032F0005ED13068026842F40072026048E03068D3
:103300005FFA88F101613A462146304600F08EF8B6
:1033100050B106F13C004168042949D13068026887
:1033200042F40072026033E03068016841F4807159
:10333000016030684169CA076CD414F1010FF8D0FC
:1033400024B101F0D3FFC01B8442F2D200203063CD
:10335000202106F13C00417000218170017027E0BE
:1033600041694A0516D5026842F4007202606FF4A2
:1033700080603168486106F13C000422426000210F
:1033800031632021417000210170416804290FD16F
:10339000012048E014F1010F40D024B101F0A6FF54
:1033A000C01B84423AD20020306306F13C00E8E7BB
:1033B000032038E005F0FE010161306841698A07A9
:1033C0007FF56BAF002200923A4641690091806917
:1033D000009030460099214600F028F8002883D15B
:1033E000B9F1010F8BD031684FEA182008613A46D5
:1033F0002146304600F01AF800283FF480AF06F16D
:103400003C0041680429D3D13068026842F400725C
:103410000260BDE745F00105EDB205613068416924
:103420008A079DD5002003B0BDE8F083F8B50646B5
:103430000C46174606F13C05306841690A060DD472
:1034400041694A0500D530E014F1010FF4D024B1F0
:1034500001F04CFFC01B8442EED21BE00020F2BD05
:10346000F8B506460C46174606F13C05306841693A
:103470004A070DD441694A0500D516E014F1010F41
:10348000F4D024B101F032FFC01B8442EED201E03F
:103490000020F2BD686840F02000686000213163C0
:1034A0002020687029700320F2BD6FF480624261B1
:1034B000042068600020306320206870002028709D
:1034C0000120F2BD70B505460C46164628684169D4
:1034D0004A0622D44169CA0611D424B101F006FF7C
:1034E000801B8442F2D205F13C002022416841F069
:1034F00020014160427000210170032070BD6FF017
:103500001001416105F13C00002141602963202147
:10351000417000210170012070BD002070BD10B508
:10352000040001D1012010BD607920B90021217172
:103530002046FFF7F1F80220607101206071002041
:1035400010BD000038B5040001D1012032BD04F1E6
:103550003805687820B9002129702046FFF794FAD1
:10356000242068702068C16821F40051C1602046A1
:1035700000F04AF92068016921F490410161206856
:10358000416921F02A01FFE741612068C16841F4E7
:103590000051C1600020686020206870A870002081
:1035A00032BD30B400F138039C78202C1BD109B116
:1035B000140000D118E01C78012C14D001251D70D6
:1035C00081628285C2850021596022219970002183
:1035D000197001684A6942F001024A610068C168D5
:1035E00041F4907106E002E030BC0120704730BC2D
:1035F00002207047C160002030BC704738B50446D7
:1036000025682968EA686B6911F00F0007D1880600
:1036100060D590065ED52046BDE83240AEE0D807C2
:1036200002D412F4907F55D0C80705D5D00503D534
:10363000E06B40F00100E063480705D5D80703D5EB
:10364000E06B40F00200E063880705D5D80703D59A
:10365000E06B40F00400E063080705D5D80703D508
:10366000E06B40F00800E063E06B002871D0890651
:1036700004D5900644BF204600F080F820684069D9
:10368000E16B0A0701D440061ED5204600F062F81F
:10369000206841694A0612D5416921F04001416123
:1036A000606B60B10FF2C9010165606B02F03FF819
:1036B00000284ED0606B016DBDE8344008472046BD
:1036C000BDE8324002F045B9204602F042F9002040
:1036D000E06331BD08062CD510062AD594F83900D0
:1036E000212836D1A168206AB1F5805F0DD101880B
:1036F000C1F308016960206918B9216A881C206239
:1037000007E0206A411C216203E0411C216200782D
:103710006860E08C401EE08480B2D0B92068C16847
:1037200021F08001C1602068C16841F04001C160A2
:1037300031BD48060DD550060BD5E86820F0400095
:10374000E860202184F839102046BDE8324002F0BC
:1037500001B931BD0168CA6822F49072CA6001687B
:103760004A69520852004A61202180F83A10704795
:10377000806B0021C185C18402F0EBB880B590F860
:103780003A1022293ED18268B2F5805F14D1826A54
:10379000016941B903685968C1F308011180826A5F
:1037A000911C816218E001684B6803F0FF031380ED
:1037B000816A4A1C82620FE001690029816A04D192
:1037C0004A1C82620268536805E04A1C82620268F1
:1037D000536803F07F030B70C18D491EC18589B208
:1037E00071B90168CA6822F49072CA6001684A69B6
:1037F000520852004A61202180F83A1002F0ABF8DA
:10380000002002BD022002BD2DE9F04704462168D8
:103810000A69E06822F4405202430A618A48CA6891
:103820000240A06802432069024360690243E069E4
:103830000243CA604A69A06922F4407202434A61A5
:103840008248E269B2F5004F40F09B8081421CBF84
:103850007F4881424AD100F0D0FD054600F0CDFD01
:10386000064600F0CAFD074600F0C7FD804600F09E
:10387000C4FD6168DFF8DCA1DFF8D8E119235F43FC
:103880004900B7FBF1F75D435E43A7FB0AA9642239
:10389000B5FBF1F5B6FBF1F64FEA9917A5FB0EEC77
:1038A00002FB17664FEA9C15F6003236DFF8A4C11A
:1038B000A6FB0CC7BE09760006F4F87606EB0516E3
:1038C00003FB08F74343B3FBF1F0B7FBF1F5614BA2
:1038D000A0FB0331880902FB1052D20032325D494D
:1038E000A2FB0110800900F00700A7E000F07DFDB9
:1038F000054600F07AFD064600F077FD074600F029
:1039000074FD804600F071FD6168DFF848A1DFF8C2
:1039100044E119235F434900B7FBF1F75D435E4380
:10392000A7FB0AA96422B5FBF1F5B6FBF1F64FEA55
:103930009917A5FB0EEC02FB17664FEA9C15F600E3
:103940003236DFF810C1A6FB0CC7BE09760006F4BC
:10395000F87606EB051603FB08F74343B3FBF1F0DB
:10396000B7FBF1F53B4BA0FB0331880902FB10527A
:10397000D20032323749A2FB0110800900F0070063
:103980005CE081421CBF324881420ED100F035FD1F
:10399000054600F032FD064600F02FFD074600F018
:1039A0002CFD804600F029FD0DE000F01EFD0546CF
:1039B00000F01BFD064600F018FD074600F015FD5F
:1039C000804600F012FD6168DFF888A0DFF884E02F
:1039D00019235F438900B7FBF1F75D435E43A7FB03
:1039E0000AA96422B5FBF1F5B6FBF1F64FEA991787
:1039F000A5FB0EEC02FB17664FEA9C15360132362A
:103A0000DFF850C0A6FB0CC7BE0906F0F00606EBB7
:103A1000051603FB08F74343B3FBF1F0B7FBF1F5E1
:103A20000C4BA0FB0331880902FB10521201323209
:103A30000849A2FB0110800900F00F0022688619D6
:103A40009660BDE8F0870000F369FFFF00100140B9
:103A5000001401403E0AD7A338B58AB004460025B9
:103A600014B901200BB030BD032084F8B9032046FF
:103A7000FFF735F8206801F0A6FF83B0211D6846E6
:103A8000342202F085F80EBC206801F065FF206842
:103A9000002101F09EFF04F1380001214170057002
:103AA000C5800021C1708160C16041616D1C1C3006
:103AB0000F2DF2D3002004F5FC7200235370107018
:103AC000A2F5DD7318800023D3709360D360536137
:103AD000401C25680D441C32091D0F28C5F804310F
:103AE000EBD383B0211D6846342202F051F80EBC9E
:103AF000206801F081FF012084F8B903206802F0FA
:103B00000FF800200BB030BD2DE9F84F03460C46EE
:103B10004FF00008C146C246AA48AB490F22012512
:103B200005FA08FC25680CEA050EE64540F0AC8075
:103B30006568022D18BF122D10D14FEAD80503EB8E
:103B400085050AF01C062F6A02FA06FB27EA0B0716
:103B5000D4F810B00BFA06F63E432E6203251E6819
:103B6000277905FA09F5ED4307F003072E4007FA18
:103B700009F73E431E606668012E18BF022E03D06F
:103B8000112E18BF122E10D19E68E7682E4007FA3A
:103B900009F73E439E605E6826EA0C076668C6F336
:103BA000001606FA08F63E435E60DE683540A668F9
:103BB00006FA09F63543DD606568ED0064D5002539
:103BC00000954FEA980C0D6845F480450D600AF0A9
:103BD0000C060D6805F48045009502FA06F7009D75
:103BE0007A4D55F82CB02BEA0707DFF8E4B15B45B6
:103BF00008BF4FF0000B1CD0DFF8D8B15B4508BF01
:103C00004FF0010B15D0DFF8D0B15B4508BF4FF086
:103C1000020B0ED0DFF8C4B15B4508BF4FF0030BB9
:103C200007D0DFF8BCB15B450CBF4FF0040B4FF081
:103C3000070B0BFA06F63E4345F82C606FEA0E0CB4
:103C4000056866680CEA0505F70348BF4EEA0505F6
:103C50000560456866680CEA0505B70348BF4EEA8B
:103C600005054560856866680CEA0505F70248BFEA
:103C70004EEA05058560C56866680CEA0505B6026A
:103C800048BF4EEA0505C56008F10108B8F10F0FFD
:103C90000AF1040A09F102097FF641AFBDE8F18F8C
:103CA0002DE9F84F0C464FF0000BDC464549474ADA
:103CB00000940F234FF001080546D946009808FAF2
:103CC00009FE0EEA0000704557D1032404FA0BF4F4
:103CD0002E68E44326402E600CF01C074FEAD906FC
:103CE00005EB860603FA07F7D6F820A02AEA0707AD
:103CF0003762AE682640AE606E6826EA0E066E60D9
:103D00004FEA990EEE683440EC600CF00C0452F867
:103D10002E7003FA04F606EA070A2D4FBD4208BFCB
:103D2000002713D02B4FBD4208BF01270ED02A4FCA
:103D3000BD4208BF022709D0284FBD4208BF032754
:103D400004D0274FBD420CBF0427072707FA04F40D
:103D5000A24512D152F82E4024EA060642F82E60FF
:103D6000C0430C6804400C604C6804404C608C6894
:103D700004408C60CC682040C86009F10109B9F1A9
:103D80000F0F0CF1040C0BF1020B97D9BDE8F18F6A
:103D900000690140481E8041C043C00F704781B098
:103DA00002B90904816101B0704742695140416123
:103DB00070470C4A136803421CBF1060FCF72FBF0A
:103DC00070470000003C0140443802400838014080
:103DD000000002400004024000080240000C0240C3
:103DE00000100240143C014038B5614D68688047BE
:103DF000012433280AD15F4C256040F6470029682A
:103E0000884721680A6A902090470024204632BDE6
:103E100058490A6882B0916A09B102B0084702B0F5
:103E2000704780B5942200213C2001F0D3FF80220E
:103E300001213C2001F0CEFFBDE808400022FFE751
:103E400002213C2001F0C6BF2DE9F041804601214E
:103E50003C2001F0C0FF064604213C20464C01F006
:103E6000BAFF207003213C2001F0B5FF60700821EB
:103E70003C2001F0B0FFA07007213C2001F0ABFF17
:103E8000E07006213C2001F0A6FF207105213C20B6
:103E90000027002501F09FFF06F0E006202E60714C
:103EA0000ED0402E11D0602E14D0802E17D0A02E10
:103EB0001AD0C02E1DD0E02E04BFE627CD251CE071
:103EC00040F24C474FF4757517E040F257374FF406
:103ED0003E7512E040F29E274FF416750DE04FF448
:103EE000E1774FF4C87508E04FF4C87740F26315E6
:103EF00003E04FF4A57740F227156178227802EBB2
:103F0000012212B200EE107A01EE102AB8EE400A39
:103F1000B8EEC11ADFED150A81EE001A21EE201A63
:103F200088ED001AE178A27802EB012212B201EECC
:103F3000102AB8EEC11A81EE000A20EE200A88EDA0
:103F4000010A01EE105A217901EB002000B200EEC7
:103F5000100AB8EEC00AB8EE411A80EE010A20EE4F
:103F6000200A88ED020ABDE8F081000000007A44D2
:103F7000000000208C4800208448002080B502F01A
:103F80001FF8002002BD00B583B00B46B0F9081041
:103F90000022842918BFCA1C02A90092019101685D
:103FA0000269406892B201F017FF012814BF002097
:103FB000029803B000BD80B500B9012001F0DFFF19
:103FC000002002BD80B502F05DF9012803D0BDE8F4
:103FD000014002F04BBA01BD2DE9FC41040019D0AB
:103FE0002078B84EC10740F1D080B06800F00C00D6
:103FF000042807D0B06800F00C0008280DD17068C4
:1040000041020AD53168880340F1BF80606800280A
:1040100040F0BB800120BDE8F6816068B0F5803FCC
:1040200006D0B0F5A02F316807D141F4802131606E
:10403000306840F48030306006E021F48031316037
:10404000326822F480223260606870B101F04EF96B
:1040500005463168880300F1988001F047F9401B5C
:104060006528F6D30320BDE8F68101F03FF9054647
:104070003068810340F1898001F038F9401B6528E0
:10408000F6D3EFE701F032F9401B022840F2A98095
:10409000E8E7E0688C4970B101220A6001F026F976
:1040A00005463068810700F1C78001F01FF9401B09
:1040B0000228F6D9D6E7086001F018F905463068FD
:1040C000810740F1818001F011F9401B0228F6D9E7
:1040D000C8E7086001F00AF90546706F810740F1F2
:1040E000848001F003F9401B0228F6D9BAE70528BD
:1040F000306F06D140F004003067306F40F00100AF
:1041000005E0400840003067306F20F00400306761
:10411000A06870B101F0EAF8074641F28938306FC3
:10412000810700F1998001F0E1F8C01B4045F6D30A
:1041300098E701F0DBF8074641F28938306F8107D4
:1041400040F18A8001F0D2F8C01B4045F6D389E7E0
:1041500001F0CCF8C01B022840F2948082E701F005
:10416000C5F8001B022840F2A5807BE700202866E6
:1041700001F0BCF804463068810140F19F8001F0F5
:10418000B5F8001B0228F6D96CE7207881071BD50B
:10419000B06810F00C0F09D0B06800F00C000828CF
:1041A0007FF477AF706841023FF573AF31688807DD
:1041B00003D5E06801287FF42DAF3168206921F034
:1041C000F80141EAC0013160217808070DD5606926
:1041D0003E4900283FF47DAF01220A6001F086F8D5
:1041E0000546706F81077FF54DAF2178480738D5B8
:1041F000306C0025C1000AD400950125306C40F0D8
:1042000080503064306C00F0805000900098304F47
:104210003968C80518D4386840F48070386001F0F7
:1042200065F880463968C8050ED401F05FF8A0EB48
:1042300008000228F6D915E73068216920F0F80057
:1042400040EAC1003060BFE7A06801287FF44FAFAB
:10425000306F40F001005AE71DB1306C20F0805003
:104260003064A06950B3B16801F00C0108293FF433
:10427000D1AE0228144D7FF479AF0020286601F0FA
:1042800035F80746306881013FF562AFE169206A81
:10429000A26A0143606A520841EA8011521EE06A34
:1042A00041EA024141EA006171600121296601F0A1
:1042B0001DF80446306881017FF551AF0020BDE84C
:1042C000F68100BF0038024000004742800E47429E
:1042D000007000402DE9F84304000F4600F07F8095
:1042E000594E306800F00F00B84205D2377031687F
:1042F00001F00F01B94272D12068544D810712D5E7
:10430000400703D5A86840F4E050A860217808076A
:1043100003D5A86840F46040A860A968A06821F0AF
:10432000F0010143A9602078C1074DD560680128DC
:1043300002D129688A0305E0022818BF032803D1A7
:1043400029688A0103D44AE02A68910747D5A968F9
:10435000890840EA8100A86041F2893900F0C6FF6F
:104360008046A868616800F00C00B0EB810F2BD08C
:1043700000F0BCFFA0EB08004845F2D30320BDE8E5
:10438000F2832078410705D5A968E06821F4E0515F
:104390000143A9602078010706D5A868216920F4A7
:1043A000604040EAC100A86000F05AF8AA682849B5
:1043B000C2F30312895C274AC8401060002001F054
:1043C000B9F80020BDE8F283306800F00F008742A2
:1043D000D7D23770316801F00F01B942D1D0012036
:1043E000BDE8F2831B48006870471A481A4A006803
:1043F00013681A49C3F3822206E01648164A006879
:1044000013681649C3F34232895CC84070470F22D3
:104410000260114A136803F003034360D2F800C03E
:104420000CF0F00CC0F808C0136803F4E053C3604C
:104430001268D20802F4E05202610348026802F0F6
:104440000F020A6070470000003C02400038024042
:10445000487100089401002008380240E472000806
:1044600018B5124C606800F00C00042802D008282F
:1044700002D019E00E4812BD0023226820684102D4
:104480002068C0F388104CBF09490A4902F03F0276
:10449000A1FB000102F020F82168C1F30141491C91
:1044A0004900B0FBF1F012BD024812BD04380240D1
:1044B00000127A000024F40070B5044600250CB9FF
:1044C000012070BD04F13C06706820B9B560307001
:1044D0002046FEF7D1F87068C10610D4706820F449
:1044E000885040F002007060204600F035F9B56059
:1044F000706820F0020040F00100706000E00125CB
:1045000000203070284670BDF8B50446002004F144
:104510003C0300901D78012D01D10220F2BD012045
:10452000187020688568EE0715D48568DFF81C735D
:1045300045F001058560DFF818030568A5FB0776DF
:10454000F60C06EB4606009602E00098401E00902E
:1045500000980028F9D12568A868C60758D55E6874
:10456000DFF8F002064046F480765E606868450534
:1045700005D5586820F4005040F4805058605868C1
:10458000C50404D5986820F00600986001E0002575
:104590009D6000201870A36B0FF2D120D863A36B2D
:1045A0000FF225301864A36B0FF22530D8646FF03A
:1045B0002200256828602068436843F080634360D8
:1045C0002068836843F480738360134620680A463A
:1045D00000F14C01A06B01F063F820689E490A6865
:1045E00012F01F0F08D1816811F0405F10D181686F
:1045F00041F0804181600BE0984A904202BF9848A8
:10460000016811F0405F03D1026842F0804202600D
:104610000020F2BD78B402460020009092F83C30B1
:10462000012B08BF022000F09580012082F83C0099
:1046300007240B6810680A2B12D30A3BC56803EBEA
:1046400043039C4025EA0404C460C3680D688C6879
:10465000A5F10A0606EB4606B4402343C3600FE00B
:10466000056903EB430304FA03F325EA030303613B
:1046700003690D688C6805EB4505AC402343036175
:104680001F244B68072B11D25B1E456B03EB830382
:104690009C4025EA04044463436B4D680C886E1EFD
:1046A00006EB8606B4402343436325E00D2B11D26D
:1046B000DB1F056B03EB83039C4025EA04040463C2
:1046C000036B4D680C88EE1F06EB8606B44023434F
:1046D000036311E00D3BC56A03EB83039C4025EAAD
:1046E0000404C462C36A4D680C88A5F10D0606EB8C
:1046F0008606B4402343C362584B984226D10868CB
:10470000122804D15448036843F480030360086806
:10471000544B984218BF112818D14F48046844F4EC
:10472000000404600868984210D14948474C016869
:10473000A1FB0443DB0C03EB83056D00009502E055
:104740000098401E009000980028F9D1002182F8BE
:104750003C10002072BC70473F4A116821F4403180
:104760001160136841680B4313600268516821F4BB
:10477000807151605168036941EA032151605168B9
:1047800021F040715160536881680B435360916818
:1047900021F4006191609368C1680B439360816A62
:1047A000314B994210D0936823F070639360936803
:1047B000816A0B439360916821F040519160936846
:1047C000C16A0B43936007E0916821F070619160CA
:1047D000916821F040519160916821F0020191604F
:1047E0009168836941EA43019160016A69B1536844
:1047F00043F400635360516821F460415160516893
:10480000436A5B1E41EA433102E0516821F40061D2
:104810005160D16A21F47001D162D16AC3695B1E13
:1048200041EA0351D162916821F40071916091686D
:10483000036B41EA43219160916821F480619160AA
:104840009168406941EA80219160704706BD3786D2
:1048500094010020FEF9FFFF0423014000200140E5
:1048600008200140120000100100000F816B0A6C4B
:1048700012F0500F24D1086C40F4007008640A68EC
:10488000906810F0405F04BF8869002815D1D36A92
:1048900013F4700F02D0906843050ED4506820F0D6
:1048A00020005060086C20F480700864086CC2041A
:1048B00003D4086C40F0010008640846FBF76CBCA8
:1048C000896BCA6C10470000806B01F01CBF0000B0
:1048D000806B40210164416C41F00401416401F0AE
:1048E00013BF0000C0F3C75181B1FF2906D0C1102A
:1048F000400721F0E04101F16051704741020CBFD7
:1049000040F4E0016FF000410020704700F00041EA
:1049100000020AD0B0FA80FC00FA0CF001F16051FC
:10492000A1EB0C5101EBD02140057047B0B581EAF5
:10493000030C0CF0004C40F2FF7515EA11541DBF3A
:1049400015EA1357AC42AF4239E0E41923EA455364
:1049500043F48013C90241F0004141EA505EC702AE
:104960001100A7FB020200284FF00000EEFB01201F
:104970004FF00001E3FB072118BF42F0010240188D
:1049800000214941E3FB0E01A4F580640F0302D22C
:1049900052004041494154F101046CDD470872F175
:1049A000004250F1000051EB0451A1F580115CBFB1
:1049B00041EA0C01B0BD4CEA05510020B0BD05EA4A
:1049C0001357AC4214BFAF4241E050EA410E1CBF46
:1049D00052EA430E02E061460020B0BD24423C444E
:1049E0001BD15FEA070EF6D0090302BF0146002083
:1049F000AEF1140EB1FA81F7AEEB070401FA07FE2F
:104A00000C37C7F1200100FA07F7C8404EEA000E44
:104A100023EA455343F48013A2E733F00043B3FA8B
:104A200083F704BFB2FA82FE77440B3FE41BB7F171
:104A3000200E2FBF02FA0EF3BB40C7F1200E22FA60
:104A40000EFE38BF43EA0E03BA40641C82E750EA08
:104A5000410E14BF52EA430E6FF000014FF40017ED
:104A600017EB430F8ABF194617EB410FB5E74CEA26
:104A700005510020B0BDD4F10104B4F120070FDAD4
:104A8000C4F12007520828BF42F0010210FA07F5CE
:104A900001FA07F7E1BF2A43E0403843E1400FE065
:104AA000352C98DCC7F1200452EA400220FA07F2C4
:104AB00018BF42F0010231FA07F0A1400A43002179
:104AC00072F1004250F1000051EB0C01B0BD00004A
:104AD000F0B540F2FF7581EA030C0CF0004C15EACA
:104AE00011541DBF15EA1357AC42AF42E5E0BC417B
:104AF000C1F31301C3F31303801A994143F48013E4
:104B000004D2641E4000494180185941C90241EA5B
:104B10005051B1FBF3F603FB1611A2FB0675D7EB60
:104B2000C020A94102D2761E80185941C90241EA2B
:104B30005051B1FBF3FE03FB1E11A2FB0E75D7EB28
:104B4000C020A94103D2AEF1010E8018594189025B
:104B500041EA9051760546EA8E2EB1FBF3F603FB4F
:104B60001611A2FB0675D7EB8020A94102D2761E52
:104B700080185941C90241EA50514EEA060EB1FB74
:104B8000F3F603FB1611A2FB0675D7EBC020A94173
:104B900002D2761E80185941C90241EA5051B1FB38
:104BA000F3F703FB1711A2FB0735D3EBC020A94194
:104BB00067F100070CBF004247F0010766F3D527F5
:104BC0004FEA1E31B80814F5806412DDBD0775F197
:104BD000004250EB0E5051EB045111F5801F5CBFA9
:104BE00041EA0C01F0BD4CF07F6141F0E041002052
:104BF000F0BDBD076D0840EA0E5041F48011D4F1BC
:104C00000104B4F120060ADAC4F120060200E040F3
:104C100001FA06F3E1401843B24015430EE0342C8C
:104C200013DCC6F1200445EA40056D0820FA06F2BF
:104C3000154321FA06F0A1400D43002175F1004211
:104C400050F1000051EB0C01F0BD00205FEA0C01B7
:104C5000F0BDCFB992185B41B3FA83F704BFB2FA43
:104C600082F6BF190B3FB7F120062FBF02FA06F3F9
:104C7000BB40C7F1200622FA06F638BF3343BA40DC
:104C80001CB1E419641E33E77F4231F00041B1FAF0
:104C900081F404BFB0FA80F6A4190B3CB4F12006ED
:104CA0002FBF00FA06F1A140C4F1200620FA06F653
:104CB00038BF3143A0403C1B1AE7AC421ABF05EA9B
:104CC0001357AF4212E050EA41061CBF52EA4306B6
:104CD000BFE750EA4107304661461CBF41EA055133
:104CE000F0BD52EA430C08BFC143F0BD00204FF4B1
:104CF000001616EB410F98BF16EB430F08BF16EBDB
:104D0000410F24BFC14305E016EB430F0CBF6146C2
:104D10004CEA0551F0BD000001F000428B1AA3F1EE
:104D20006051B1F5801F0ADBB1F17F6F1FD242EAFB
:104D3000C102C10071F1004142EB507070470B1588
:104D4000C3F10903212B10D2890241EA905180025C
:104D50000128494141F0004121FA03F0C3F1200349
:104D6000994071F1004150417047100070476FF059
:104D7000000013EB103F5CBF000E42EAC0507047CA
:104D8000DFED650A60EE200A10EE901A21F0004176
:104D900001EE101ADFED611AB4EE611AF1EE10FAAD
:104DA00027D510EE902A4FF07C5102F000421143BB
:104DB00001EE101A70EE810AFDEEE00A10EE901A74
:104DC00000296ED0FAEEC90A9FED551A00EEC10A0D
:104DD0009FED541A00EEC10A9FED531A00EEC10A6E
:104DE0009FED521A00EEC10A9FED511A00EEC10A62
:104DF00057E010EE101A49000916491C10EE101A5F
:104E000009D149000816401C02D1090240F08380F4
:104E10009FED480A7047490004D100287BD0B7EEC7
:104E2000000A704710EE902A4FF07C5102F00042C9
:104E3000114301EE101A70EE810A10EE902A510013
:104E40000FD0090EC1F196011829A8BF02F0004247
:104E500005DA0129A4BF22FA01F303FA01F200EEF8
:104E6000902A10EE901A490017D09FED331A20EEC9
:104E7000811ADFED2B1A01EE610ADFED2A1A01EE2D
:104E8000610ADFED291A01EE610ADFED281A01EE51
:104E9000610ADFED271A01EE610AFDEEE00A10EE6D
:104EA000901A10EE102A22F0004200EE902A9FED98
:104EB000231A01F00301F4EE410A0818F1EE10FA8A
:104EC00000F0010103D511B3B7EE000A1FE060EE58
:104ED000000A71B19FED1A0A9FED1A1A00EE801AAE
:104EE000DFED191A41EE201AB7EE000A01EEA00A12
:104EF0000DE0DFED161A9FED162A00EEA12ADFED78
:104F0000152A20EE201A42EE202A01EE220A8007FE
:104F100048BFB1EE400A704783F9223F0000004FBE
:104F20000000C94600A0FD400020A23A0000343332
:104F30000030C22EFFFFFF7F000080380000803964
:104F40009349B2BA36A02A3DDFFFFFBE6E8C4CB942
:104F50004283083CA1AA2ABE012011E741EC100BB4
:104F600001BD80B551EC100B01F0D0FBF6E700005D
:104F700070B44FF0004591EA030F40F14D816B4052
:104F8000841A71EB030604D26E40001BB141121962
:104F900073414FF4001C1CEB410F34BF7CEB430604
:104FA00082E00C0DA4EB1356362E7BDC012E45EA75
:104FB000C32341DC43EA525312BFD20292025B0880
:104FC000240545EAC12141EA5051D2EBC020994164
:104FD00025D407D1B0FA80F610FA06F162D000208D
:104FE000203608E0B1FA81F6B140C6F1200220FA7D
:104FF00002F21143B0404FEAF474B4EB465434F07B
:1050000001064FEA74040AD8D6F50016760D04F0AE
:105010000044F04061FA06F25040F1404840C00AB6
:1050200040EA415021F0004128BF5FEA500550F1AD
:10503000000044EBD12135E0DB0A45EAC121C90A71
:10504000B6F120050EDD42EA0242120CC5F120063F
:1050500003FA06F6EB4042EA06056D42984161F11B
:1050600000010DE062FA06F5F240554063FA06FCD5
:1050700082EA0C02F3405A406D42904161EB030119
:1050800011F4801F05D1641E620502D06D004041FD
:10509000494121F48011430875F1004350F10000AB
:1050A00041EB045170BC70471CEB410F15D223F04B
:1050B000004352EA43060BD04FEA4C0CBCEB410FC5
:1050C00004D80C0D661E342EB7DDEBE7801A99412B
:1050D00050EA410608BF0021E4E708BF1CEB430F7C
:1050E00028BF6FF00001DDE7014648B1B0FA80F15A
:1050F0008840C91CC1F58461090501EBD021400538
:105100007047000051EC100B00B500F003F841ECC3
:10511000100B00BD40F2FF7C0B0D4DD0634566D2F5
:1051200030B421EA035141F4801103F2FD3C5FEAFF
:105130005C0C01D300184941890041EA907180005C
:105140004FF440140023E202D50AB1F5100107D450
:105150006D081DD2091B641900184941491BF7D578
:105160006D080AD20919641B00184941491BEFD583
:105170006D08F7D301E0520817D0C01861419B1A9F
:10518000AC4100184941801AA941F4D452080AD010
:10519000C01AA1419B186C4100184941801AA941CD
:1051A000E9D45208F4D15B1C6C4161084FEA33002A
:1051B00001EB0C5130BC704750EA0103FBD030B416
:1051C000B1FA81F311B9B0FA80F41B190B3BB3F1BA
:1051D00020042FBF00FA04F19940C3F1200420FA03
:1051E00004F438BF21439840D3F101039DE76345A0
:1051F00014BF50EA410CDEE711F5801FDBD8D9431C
:10520000AFF300807047000070B44FF0004591EAA2
:10521000030F7FF5B5AE6B40841A71EB030603D222
:10522000001BB141121973414FF4001C1CEB410FDC
:1052300034BF7CEB430442E00C0DA4EB1356352E37
:105240004FDC45EAC323DB0A45EAC121C912B6F1A6
:1052500020050DDD63FA05F6EB4086EA03051242F0
:1052600018BF45F00105C01851F100010CD213E040
:1052700062FA06F5F2405540F3415A40B340F3401C
:105280005A408018594107D349085FEA30005FEA65
:10529000350528BF45F0010501F58011420875F17B
:1052A000004250F1000041EB04514E0016F5001F82
:1052B00070BC38BF70470020090D090570471CEB12
:1052C000410F10D252EA43060BD0BCEB410F05D878
:1052D0000C0DAB43661E342EB6DD02E0AB438018E6
:1052E000594170BC704770BC70470000014840686D
:1052F000704700BF88010020DFF81C1201200873EE
:105300007047F0B4DFF81442DFF80C62002527463E
:10531000042371783078B2786D1C5FEA016C4CBF61
:105320004FF0410C4FF0220CA7F800C06D1C5FEA53
:10533000416C4CBF4FF0410C4FF0220CA7F802C05B
:105340006D1C5FEA816C4CBF4FF0410C4FF0220C9A
:10535000A7F804C06D1C5FEAC16C4CBF4FF0410C54
:105360004FF0220CA7F806C06D1C5FEA017C4CBF11
:105370004FF0410C4FF0220CA7F808C06D1C5FEAFB
:10538000417C4CBF4FF0410C4FF0220CA7F80AC0F3
:105390006D1C5FEA817C4CBF4FF0410C4FF0220C3A
:1053A0006D1CC9074CBF41212221F9816D1C0106EA
:1053B0004CBF4121222139826D1C41064CBF412145
:1053C000222179826D1C81064CBF41212221B982A4
:1053D0006D1CC1064CBF41212221F9826D1C0107C1
:1053E0004CBF4121222139836D1C41074CBF412113
:1053F000222179836D1C81074CBF412122216D1C24
:10540000C0074CBF41202220F8836D1C10064CBF02
:105410004120222038846D1C50064CBF41202220A0
:1054200078846D1C90064CBF41202220B8846D1CEE
:10543000D0064CBF41202220F8846D1C10074CBFC1
:105440004120222038856D1C50074CBF412022206E
:1054500078856D1C90074CBF41202220B8856D1CBB
:10546000D0074CBF41202220A7F80CC0B983F88593
:105470003037F61C5B1E7FF44CAF04EB4500F0BCEC
:10548000602101F0A5B9287B0028FCD0FFF739FF87
:1054900001B0002129739023BDE83040DFF87C2063
:1054A000DFF87C000421FCF787BD38B504281446DA
:1054B0000FD2009100EB4000174D284469460322AB
:1054C00000F056FBE4B2012C287B02D10028FDD06D
:1054D000DCE731BD38B504460F4D68462946032246
:1054E00000F046FB2846E91C032200F041FBE81CC3
:1054F000A91D032200F03CFBA81D05F109010322B0
:1055000000F036FB05F109006946032200F030FB8C
:10551000012C00D1B7E731BD98010020E043002005
:10552000D0420020024841680278891841607047E3
:105530008801002018B5014687B000221A20FCF728
:1055400058FC1A20FCF77EFC00200090154C1648F1
:10555000016841F48021016001A9006800F4802005
:105560000090009802A8FEF752FFFEF746FF0F4991
:105570000F4A2160002340F2E731E1602361A0FB84
:105580000221C80C401E6060A3602046FCF792FC1C
:1055900020B92046FCF7A6FC08B010BD012008B0D9
:1055A00010BD00004048002044380240004801403F
:1055B00006BD37867CB50446FFF798FE06460CB953
:1055C000012076BD04F134050020287002206870A7
:1055D0002068016849084900016021680868C2071D
:1055E00020D5FFF783FE801B0628F6D320202862F3
:1055F000032015E0B0F5005F09D1032E42D8DFE8A3
:1056000006F00C0A0C02B1F1C07F3BD105E0022E7E
:1056100003D9F61E36D1C80134D5402028620120B6
:10562000687076BD0A68DFF80403024060680243D0
:10563000A0680243E06802432069024360690243B4
:10564000A0690243E0690243206A0243606A0428B9
:1056500003D1E36A206B03431A430A6023685A6943
:10566000606AD208042840EAC2020BD1A66AE16A45
:10567000324339B1A0690028BCD1002E18BF022ED8
:10568000C9D0C0D35A61204600F038F9A96A3F2238
:105690008A4082600020286201206870002076BD68
:1056A000F0B400F1340500242F786E6A012F08BF92
:1056B00002203AD001272F706F78012F32D10227B4
:1056C0006F702C620768D7F800C02CF4802CC7F8E4
:1056D00000C007687B608368402B04D10768BA600C
:1056E0000268D16003E0036899600168CA603F22E4
:1056F000A96A8A40B26001680A6842F016020A602C
:1057000001684A6942F080024A61E96821B1016892
:105710000A6842F008020A600068016841F001016D
:10572000016001E02C7002242046F0BC704790F824
:105730003510022903D080224265012070470521DF
:1057400080F83510006801684908490001600020B0
:1057500070472DE9FC41044604F1340600207549E8
:10576000754B0090776A0A683D68A2FB03304FEAE8
:105770005038B06A082101FA00F005420ED02068C6
:10578000026853070AD5036823F004030360B06A74
:105790008140B960306A40F001003062B06A25FA99
:1057A00000F1C9070BD521684A69110607D5012107
:1057B00001FA00F0B860306A40F002003062042163
:1057C000B06A01FA00F0054208D021680A68930720
:1057D00004D5B860306A40F0040030621021B06A2D
:1057E00001FA00F005421BD021680A68130717D59B
:1057F000B860206801684A0307D5006801030BD52B
:10580000716969B1204688470AE00168CA0503D476
:10581000026822F008020260F16809B12046884758
:10582000B06A202101FA00F0054245D021680A68DB
:10583000D30641D5B86020687178052922D1026865
:1058400022F0160202602068416921F08001416166
:10585000F168002904BF7069002804D0206801683D
:1058600021F0080101603F22B06A8240BA60002046
:10587000307001207070F16900293CD02046BDE8ED
:10588000FC41084701684A0307D5006801030FD4AB
:10589000316989B1204688470EE00168CA0507D4FE
:1058A000026822F010020260002030700120707047
:1058B000B16809B120468847306AE0B1316AC8074B
:1058C00013D50520707020680168490849000160FF
:1058D00020680099491C8845009102D30168CA07D5
:1058E000F7D40020307001207070B16919B12046E2
:1058F000BDE8FC410847BDE8F381000081B00168C4
:10590000DFF82CC001F0FF02103AA2FB0CC31A0909
:105910000FF228039B5CC365890A8902042A28BF09
:10592000091D8165084601B0704700003F8010F0F6
:10593000ABAAAAAA94010020A80D74DA00061016DA
:1059400000061016704770477047704770477047E1
:1059500070477047704770470EB418B504460898F2
:10596000012817D1A16BDFF8F80121F48031A16380
:10597000E1680140E160E06820F44010E0600F98C9
:10598000012803D1E16841F48011E160204600F074
:10599000D3F809E0E06840F04000E060204600F005
:1059A000CBF84FF48030A0630698012807D1A16896
:1059B00041F00601A160A06840F02000A060002036
:1059C00012BC5DF810FB8168490849008160002025
:1059D000704780B5C26822F0C0420129C26003D17D
:1059E000C16841F0005103E019B9C16841F080413C
:1059F000C160322000F09CB80EB42DE9FC010246D3
:105A0000119B906B002B0CBF40F4001040F4002061
:105A10009063002102F5606002F500640160206877
:105A200020600C98012807D109982168002818BF28
:105A300041F00101216003E0206840F00300206094
:105A40004FF484611161DFF81C110846401E02D03A
:105A50001669B706FAD410201061491E02D01069E9
:105A6000C606FAD40021216161614FF0FF30A061C8
:105A7000E161079808B302F51067FF214FF09046E7
:105A80004FF000083D68002D4CBF3E60C7F8008015
:105A9000C7F81080B9602037401EF3D1079802F58F
:105AA00030652F68002F4CBF2E60C5F80080C5F808
:105AB0001080A9602035401EF3D1206920F4807049
:105AC00020610A98012809D1DFF89C102163216B1D
:105AD00041F4803141F003012163216B0021916188
