:020000040800F2
:10000000F84C002021750008457500084975000866
:100010004D75000851750008557500080000000076
:10002000000000000000000000000000E96F000870
:100030005975000800000000916F0008A56C0008C9
:100040005D75000861750008657500086975000830
:100050006D750008717500080D73000813730008B2
:10006000197300081F7300082573000875750008D0
:10007000797500087D7500082B73000881750008EC
:1000800085750008897500088D750008000000005E
:1000900000000000000000000000000031730008B4
:1000A0009175000895750008597300089975000846
:1000B0009D750008A1750008A5750008A9750008C0
:1000C000AD750008B1750008B5750008B975000870
:1000D000BD750008C1750008C57500080000000066
:1000E000C9750008CD750008D17500080000000032
:1000F000000000000000000000000000D5750008AE
:1001000000000000D9750008DD750008E1750008E1
:1001100000000000000000000000000000000000DF
:10012000E5750008E9750008ED750008F17500082F
:100130006B730008000000000000000000000000D9
:10014000000000000000000000000000F57500083D
:1001500071730008F9750008FD75000877730008D1
:10016000017600080576000800000000000000008D
:10017000000000000000000000000000000000007F
:1001800000000000097600080000000000000000E8
:100190000D760008117600080068DFF88C1B884295
:1001A0000DD1DFF8540DC168416201698162416976
:1001B000C16281690163C1694163016A81637047FA
:1001C0002DE9F84F9EB001F095FE00F08FFB00F096
:1001D000A9FC002000900024DFF8140D016841F410
:1001E000800101600025026802F480020092002272
:1001F000009900920521036843F400130360002670
:10020000006800F40010009000980E2001F099FEA4
:100210000E2001F0BFFE002205213C2001F091FEDE
:100220003C2001F0B7FE00220521442001F089FEA8
:10023000442001F0AFFE00F008FC0FF2186004A9A2
:10024000D0E90023CDE90223002071C131C1DFF8DC
:10025000A44C04F29C45A865E8654FF080414FF43A
:1002600096502866696504F59E6001906E6601F0FF
:10027000E0FE00B1FEE70290039602A9019802F0A9
:1002800030F900B1FEE760200490059606960896C6
:100290000022019804A901F0BCFF00B1FEE701981B
:1002A000082204A901F0B5FF00B1FEE7019802F0B1
:1002B000DBFB04F57C76DFF8440CB065DFF8400C1E
:1002C000F0650020306670664FF48040B066002014
:1002D000F06630677067B06704F5896002F01CFD56
:1002E00000B1FEE700F04DFB04F22C69DFF8140CBE
:1002F000C9F82C0004F5CB6003F0BBF900B1FEE7B0
:10030000DFF8040CDFF8041C41604FF4E131816038
:100310000021C160016141610C2181610021C16145
:100320000162001D03F0B8F900B1FEE70FF22C5294
:10033000DFF8DC8BD2E90001CDE9020104AB002239
:10034000002794469646A3E88450A3E884105F20D3
:1003500004F22C57786044F62060F860BA603A6185
:10036000C7F80080384601F064FE00B1FEE70021C6
:1003700002900391384602A902F0B3F800B1FEE7FB
:10038000602000210490059106910891002204A9A3
:10039000384601F03EFF00B1FEE7042204A93846CA
:1003A00001F037FF00B1FEE7082204A9384601F04A
:1003B00030FF00B1FEE70C2204A9384601F029FF06
:1003C00000B1FEE7384602F04FFB0FF2984204AB53
:1003D000D2E90001CDE902010022944696469246F8
:1003E000A3E80454A3E80450DFF8280CF8633A6447
:1003F0007720B8647A64FA6404F5AD6A504601F077
:1004000018FE00B1FEE7002102900391504602A9B8
:1004100002F067F800B1FEE760200021049005912A
:1004200006910891042204A9504601F0F2FE00B1A1
:10043000FEE7504602F018FB0FF2304204ABD2E95F
:100440000001CDE902010022944696469246A3E8B7
:1004500004545F20A3E80450F86704F2AC5B44F650
:100460002060CBF8040004F2A450DFF8ACABCBF86A
:100470000020CBF808200090C7F878A001F0D9FD43
:1004800000B1FEE702900021039102A9009802F05A
:1004900028F800B1FEE76020049000210591069144
:1004A00008910022009804A901F0B3FE00B1FEE714
:1004B0000098042204A901F0ACFE00B1FEE7009808
:1004C00002F0D2FADFF8540B2860DFF8340A6860D3
:1004D0000020A860E8604FF4804028610020686137
:1004E000A861E8612862284602F016FC00B1FEE728
:1004F0004FF0A0402060042060600220E0600020F7
:10050000206160610220A0610020E06120626062E1
:10051000E0622063204603F049FB00B1FEE703A838
:1005200000210022002300252EC00EC06320CBF83E
:1005300038004FF41660CBF8400004F5BC60DFF8DB
:10054000E45ACBF83C10CBF844100290CBF834506E
:1005500001F06FFD00B1FEE76020039000210491DF
:10056000059107910422029803A901F052FE00B1FF
:10057000FEE7029802F078FADFF8B00ACBF87000D4
:1005800004F21C644FF47070CBF874000020CBF8B8
:1005900078004FF6FF70CBF87C000020C9F800000F
:1005A000204601F00BFD00B1FEE7DFF8880A30605D
:1005B0004FF4827070600020B060F0603061706154
:1005C0004FF40070B0612020F06100203062706252
:1005D000B0620A20F062304603F040FB00B1FEE753
:1005E000DFF8546A0021304601F032FD0021304628
:1005F00001F062FF0421304601F02AFD042130465B
:1006000001F05AFF0821304601F022FD0821304652
:1006100001F052FF0C21304601F01AFD0C2130464A
:1006200001F04AFF0198DFF8186A002101F010FD7F
:100630000198002101F040FF0198082101F008FD18
:100640000198082101F038FF0021384601F000FD33
:100650000021384601F030FF0421384601F0F8FC53
:100660000421384601F028FF0821384601F0F0FC4B
:100670000821384601F020FF0C21384601F0E8FC43
:100680000C21384601F018FF0098002101F0E0FC31
:100690000098002101F010FF0098042101F0D8FC1F
:1006A0000098042101F008FF0298042101F0D0FC19
:1006B0000298042101F000FF204601F08EFCDFF8D3
:1006C0008409DFF884494FF4B461016041608160BE
:1006D000C1604FF0804000224163C1634FF47A70E3
:1006E000C8F83400C8F83800C8F83C00C8F8400022
:1006F000CAF83400CAF838004FF400410020A8635B
:10070000DFF84859DFF8480903F007FD01224FF4EC
:100710000061204603F001FD00224FF400512846FD
:1007200003F0FBFC01224FF48041284603F0F5FC66
:1007300000224FF48061284603F0EFFC01224FF4C1
:100740000061284603F0E9FC00224021304603F016
:10075000E4FC01228021304603F0DFFC00224FF44C
:100760000071304603F0D9FC01224FF4806130461D
:1007700003F0D3FC00224FF48051204603F0CDFC5F
:1007800001224FF40051204603F0C7FC0022102143
:10079000304603F0C2FC00222021304603F0BDFCAD
:1007A00000221021284603F0B8FC00222021284610
:1007B00003F0B3FC03F0D6FC03F0F1FC0FF2B4013C
:1007C00091E87C0019A8002180E87C0003F099FDE5
:1007D0000FF2B401C9F8340014A891E87C0080E855
:1007E0007C00002103F08DFD0FF2B001C9F8380044
:1007F0000FA891E87C0080E87C00002103F081FDD7
:100800000FF2AC01C9F83C000AA891E87C0080E82E
:100810007C00002103F075FD0FF2A801C9F840002B
:1008200005A891E87C0080E87C00002103F069FDC8
:100830000FF2A401C9F84400684691E87C0080E802
:100840007C00002103F05DFDC9F8480003F054FD71
:10085000FEE70000000000000000000000000000B3
:100860000000000000000000000000000000000088
:1008700000000000446D000889100008FDFF000022
:100880000000000080000000506D00089510000876
:100890000000000000000000800000005C6D000807
:1008A0008B1D000802000000000000008000000016
:1008B000686D0008951D00080100000000000000A0
:1008C00080000000746D0008111E0008FEFF00008B
:1008D0000000000080000000806D0008391E000844
:1008E000000000000000000080000000F8B592B099
:1008F00006A8302103F024FD01AC002500260027C6
:10090000E0C460C4DFF84C070095016841F08051F5
:1009100001600121006800F0805000900098DFF82D
:1009200038070095026842F4404202604FF480327A
:10093000006800F4404000900098069102204FF4B7
:1009400080010D910C90C0210F9104200E90109009
:1009500008210792119106A803F0F6FC00B1FEE70A
:10096000022102910F204FF48051019004910395D0
:100970000595032101A803F065FE00B1FEE713B061
:10098000F0BD38B584B06846002100220023002461
:1009900080E81E004FF48030DFF8C046E24D606012
:1009A000A16001202061A0612162E162E160256017
:1009B000DFF8AC06A0620620E061012020636061E0
:1009C000204603F02DFF00B1FEE702200090012138
:1009D0000720019102906946204603F0CFFF00B145
:1009E000FEE703200221009001912046694603F0B2
:1009F000C5FF00B1FEE70A200321009001912046C7
:100A0000694603F0BBFF00B1FEE70B200421009014
:100A100001912046694603F0B1FF00B1FEE70C20CA
:100A20000521009001912046694603F0A7FF00B11F
:100A3000FEE70D200621009001912046694603F053
:100A40009DFF00B1FEE705B030BDF8B50FF2CC0058
:100A500090B0D0E90023CDE9002302A900200024B2
:100A60000025002671C131C109AA00230027844650
:100A70008646A2E88850A2E88810DFF8BC45DFF877
:100A8000E405206063604FF49650E060A36023614A
:100A90006361204601F0CDFA00B1FEE700900195B8
:100AA0006946204601F01DFD00B1FEE7602002907E
:100AB000039504950595069507950895002202A9CA
:100AC000204601F0A6FB00B1FEE7042202A9204661
:100AD00001F09FFB00B1FEE7082202A9204601F0C9
:100AE00098FB00B1FEE70C2202A9204601F091FB21
:100AF00000B1FEE74FF4005109900B900D900E915C
:100B00000F900A950C9509A9204601F010FD00B13F
:100B1000FEE7204601F0A8FF11B0F0BD0000000084
:100B2000000000002DE9F04186B068460021002257
:100B300000230EC006C0059146F63047DFF8B0032B
:100B4000DFF808850168DFF8F844DFF80455DFF8BE
:100B5000F86441F010010160026802F01002059291
:100B6000002205990592036843F0040303600168BD
:100B700001F00401059105990592036843F0800393
:100B80000360016801F080010591059905920368F1
:100B900043F001030360016801F00101059105992B
:100BA0000592036843F002030360016801F002014B
:100BB0000591059905923946036843F008030360DF
:100BC000006800F0080005900598404603F0A5FA7B
:100BD00000224FF4DE61204603F09FFA00224FF41A
:100BE0000041284603F099FA00224FF4784130463C
:100BF00003F093FA009701200021019002910391E4
:100C00004046694603F03EF94FF4DE600090012152
:100C100000200191029003906946204603F032F9CA
:100C20004FF4C070009000210220019102906946AB
:100C3000DFF8340403F026F94FF4E040009000217F
:100C40000220019102906946284603F01BF94FF4F7
:100C5000004000900121002001910290039069461C
:100C6000284603F00FF94FF470700090DFF8FC1382
:100C70000191022002906946304603F003F94FF4D7
:100C80008060009000210220019102906946304668
:100C900003F0F8F84FF47840009001210020019112
:100CA000029003906946304603F0ECF83F20009034
:100CB0000220DFF8BC13019102906946304603F030
:100CC000E1F800220521062001F03BF9062001F0A1
:100CD00061F900220521072001F033F9072001F016
:100CE00059F900220521082001F02BF9082001F014
:100CF00051F900220521092001F023F9092001F012
:100D000049F9002205210A2001F01BF90A2001F00F
:100D100041F900220521172001F013F9172001F0F5
:100D200039F906B0BDE8F0810020014038B501284E
:100D300016D0022823D0042831D008283ED010280D
:100D40004AD0202857D0402864D080287DD0B0F5E4
:100D5000807F00F09580B0F5007F00F0AD8031BD60
:100D60004FF48051DFF8E802634C03F0CFF900281C
:100D700019BF2188481E2088401C208031BD4FF4B7
:100D80000051DFF8CC025C4C03F0C0F90028608809
:100D900002D0411E618031BD401C608031BD4FF4E6
:100DA0008041AB48544C03F0B1F90028A08802D030
:100DB000411EA18031BD401CA08031BD8021AA48C8
:100DC0004D4C03F0A3F90028E08802D0411EE180D9
:100DD00031BD401CE08031BD4FF48071A248464CCB
:100DE00003F094F90028208902D0411E218131BDF1
:100DF000401C208131BD4FF4806193483E4C03F08C
:100E000085F90028608902D0411E618131BD401CF6
:100E1000608131BD384C974DE06B401CE063402150
:100E2000894803F073F90028286801D0206431BD97
:100E30006064206C616C8842616C206C24BF01F599
:100E40007F41FF31091AA16431BD2B4C894DE06C03
:100E5000401CE06480217C4803F058F90028286891
:100E600001D0206531BD6065206D616D8842616D86
:100E7000206D24BF01F57F41FF31091AA16531BD05
:100E80001D4C7C4DE06D401CE0654FF480716E4858
:100E900003F03CF90028286801D0206631BD606667
:100EA000206E616E8842616E206E24BF01F57F4125
:100EB000FF31091AA16631BD0F4C6E4DE06E401C2A
:100EC000E0664FF40071604803F020F900282868BC
:100ED00001D0206731BD6067206F616F8842616F0C
:100EE000206F24BF01F57F41FF31091AA16731BD91
:100EF00030380240B43D0020FC4500200054004042
:100F0000A0860100003002409847002000140140F4
:100F10000004004010B52DED028BB0EE408A10EEBB
:100F2000900A03F093FE544A544B03F0B3FE0022A0
:100F3000534B03F081FF04F0A3F800EE100AB5EE66
:100F4000400AF1EE10FADFED360A10DBB4EE600A6B
:100F5000F1EE10FA0BD54B4CF0EE000A84ED008A4E
:100F600020EE200A04F0ACF928EE400A4CE0B4EE82
:100F7000600AF1EE10FA9FED2C1A12DBB4EE410A72
:100F8000F1EE10FA0DD5F0EE000A20EE200A04F082
:100F900097F93C4C28EE400A84ED000A84ED018A62
:100FA00034E0B4EE410AF1EE10FADFED210A12DB73
:100FB000B4EE600AF1EE10FA0DD5324CF1EE480AAB
:100FC000C4ED000AF0EE000A20EE200A04F078F9E1
:100FD00028EE000A18E0B4EE600AF1EE10FA15DB14
:100FE0009FED161AB4EE410AF1EE10FA0ED5F0EEAE
:100FF000000A20EE200A04F063F9224C28EE000AD1
:1010000084ED000AB1EE480A84ED010ABDEC028BC2
:1010100010BD000000080040000C0040005C0040D3
:10102000D00FC93F00400140D00F4940004401406B
:10103000DCCB96400050014034480020D00FC9401E
:101040000000024034000140000C02400008024051
:10105000000402404038024000700040EC4700208D
:101060000100000F0000014000100240000031109C
:1010700000001110244401406E861BF0F921094044
:1010800000806640DC48002080B5012003F051F963
:10109000FBE700002DE9F84F2DED108B86B0684678
:1010A000002398469A4680E80805DFF87C4DDFF873
:1010B0007C0D062204F10C0103F0DAFBDFF8C86DA9
:1010C0004FF000099FED83BA9FED838BDFED84BA6B
:1010D0009FED849B9FED85CA9FED85AB9FED86FBC1
:1010E00006F184073DE0706D03F0B0FD41EC100B9C
:1010F00004F0EBF853EC102B51EC180B03F0CAFD85
:10110000DFF8CC2DDFF8C43D03F096FE53EC182B2E
:1011100004F0E2F803F0B4FF306496ED0F0AB4EE89
:101120004B0AF1EE10FA05DB96ED0F0A3BEE400A92
:1011300086ED0F0A96ED100AB4EE4B0AF1EE10FAA6
:1011400005DB96ED100A3BEE400A86ED100A03A877
:1011500003F038F80398306703A841687167806826
:10116000B0674FF48051DFF8345DDFF8348D2846E6
:1011700002F0CCFF30704FF40051284602F0C6FF59
:1011800070704FF48041284602F0C0FFB07080219B
:10119000DFF8105D284602F0B9FFF0704FF480715F
:1011A000284602F0B3FF30714FF48061DFF8F80C8D
:1011B00002F0ACFF70719FED52EBD8F80000B06305
:1011C0009FED51DBB08B03F0B4F8A06C04F040F954
:1011D00053EC1F2B03F05EFD03F052FF306209F168
:1011E0000109A06D04F034F953EC1F2B03F052FDFC
:1011F00003F046FF7062A06E04F02AF953EC1F2B37
:1012000003F048FD03F03CFFB062A06F04F020F94A
:1012100053EC1F2B03F03EFD03F032FFF062606AD7
:1012200004F016F953EC1E2B03F034FD53EC1D2B88
:1012300003F030FD0022DFF8743C03F0FDFD03F005
:101240001FFF3063A06A04F003F953EC1E2B03F078
:1012500021FD53EC1D2B03F01DFD0022DFF84C3C5B
:1012600003F0EAFD03F00CFF706347F6015CE06AEF
:10127000DFF83C1CDFF83C3C70824FF4B472206B0A
:10128000B082606BF082A06B3083B4F800A0F0886D
:10129000AAEB000565453BDB03EB0A0EAEEB000055
:1012A00097ED1C0A758B00EE900AF8EEE00A20EE2E
:1012B000800A00EE905AF8EE600A80EE200AD6ED21
:1012C0001F0A30EE200A86ED1F0A5043758B90FBF3
:1012D000F5F055E00000B4430000000000806640D7
:1012E000CDCC4C3E000000D0CCCCE43F3333B33EF9
:1012F0000000000000408F40C3F5285C8FC2C53F4E
:101300000000000000000840000000000000244031
:101310008D4297ED1C0A1CDA4FF6FF7BD344ABEBF2
:10132000000000EE900A758BF8EEE00A20EE800ACD
:1013300000EE905AF8EE600A80EE200AD6ED1F0A01
:1013400030EE200A86ED1F0A5043758B90FBF5F0B6
:1013500016E000EE905A708BF8EEE00A20EE800A5C
:1013600000EE900AF8EE600A80EE200AD6ED1F0A21
:1013700030EE200A86ED1F0A5543708B95FBF0F086
:1013800000EE100AB8EEC00AD7ED0A0A30EE200AC5
:1013900087ED0A0A3089B4F802E0AEEB0005654536
:1013A0001CDB9E44AEEB000097ED1C0A758B00EE33
:1013B000900AF8EEE00A20EE800A00EE905AF8EE6D
:1013C000600A80EE200AD7ED000A30EE200A87ED91
:1013D000000A5043758B90FBF5F037E08D4297ED96
:1013E0001C0A1CDA4FF6FF7BF344ABEB000000EE67
:1013F000900A758BF8EEE00A20EE800A00EE905A13
:10140000F8EE600A80EE200AD7ED000A30EE200ADE
:1014100087ED000A5043758B90FBF5F016E000EE67
:10142000905A708BF8EEE00A20EE800A00EE900AE7
:10143000F8EE600A80EE200AD7ED000A30EE200AAE
:1014400087ED000A5543708B95FBF0F000EE100A13
:10145000B8EEC00AD7ED0B0A30EE200A87ED0B0A72
:101460007089B4F804E0AEEB000565451CDB9E44D2
:10147000AEEB000097ED1C0A758B00EE900AF8EEBB
:10148000E00A20EE800A00EE905AF8EE600A80EE44
:10149000200AD7ED020A30EE200A87ED020A5043F7
:1014A000758B90FBF5F037E08D4297ED1C0A1CDA46
:1014B0004FF6FF7BF344ABEB000000EE900A758B18
:1014C000F8EEE00A20EE800A00EE905AF8EE600A8C
:1014D00080EE200AD7ED020A30EE200A87ED020ADC
:1014E0005043758B90FBF5F016E000EE905A708B30
:1014F000F8EEE00A20EE800A00EE900AF8EE600AAC
:1015000080EE200AD7ED020A30EE200A87ED020AAB
:101510005543708B95FBF0F000EE100AB8EEC00A50
:10152000D7ED0C0A30EE200A87ED0C0AB089B4F82A
:1015300006E0AEEB000565451CDB9E44AEEB00000B
:1015400097ED1C0A758B00EE900AF8EEE00A20EE8B
:10155000800A00EE905AF8EE600A80EE200AD7ED7D
:10156000040A30EE200A87ED040A5043758B90FB85
:10157000F5F037E08D4297ED1C0A1CDA4FF6FF7B41
:10158000F344ABEB000000EE900A758BF8EEE00A36
:1015900020EE800A00EE905AF8EE600A80EE200AF3
:1015A000D7ED040A30EE200A87ED040A5043758B0C
:1015B00090FBF5F016E000EE905A708BF8EEE00A22
:1015C00020EE800A00EE900AF8EE600A80EE200A13
:1015D000D7ED040A30EE200A87ED040A5543708BDC
:1015E00095FBF0F000EE100AB8EEC00AD7ED0D0A38
:1015F00030EE200A87ED0D0AF089B4F808E0AEEB72
:10160000000565451CDB9E44AEEB000097ED1C0A0F
:10161000758B00EE900AF8EEE00A20EE800A00EEEC
:10162000905AF8EE600A80EE200AD7ED060A30EEF6
:10163000200A87ED060A5043758B90FBF5F037E0E2
:101640008D4297ED1C0A1CDA4FF6FF7BF344ABEB9F
:10165000000000EE900A758BF8EEE00A20EE800A9A
:1016600000EE905AF8EE600A80EE200AD7ED060AE6
:1016700030EE200A87ED060A5043758B90FBF5F09B
:1016800016E000EE905A708BF8EEE00A20EE800A29
:1016900000EE900AF8EE600A80EE200AD7ED060A06
:1016A00030EE200A87ED060A5543708B95FBF0F06B
:1016B00000EE100AB8EEC00AD7ED0E0A30EE200A8E
:1016C00087ED0E0A308AB4F80AE0AEEB00056545F6
:1016D00019DB73441B1A97ED1C0A718B00EE903ACC
:1016E000F8EEE00A20EE800A00EE901AF8EE600AAA
:1016F00080EE200AD7ED080A30EE200A87ED080AAE
:101700005A43708B34E08D4297ED1C0A1BDA4FF67A
:10171000FF717144091A00EE901A738BF8EEE00A1B
:1017200020EE800A00EE903AF8EE600A80EE200A81
:10173000D7ED080A30EE200A87ED080A5143708B76
:1017400091FBF0F016E000EE905A708BF8EEE00A94
:1017500020EE800A00EE900AF8EE600A80EE200A81
:10176000D7ED080A30EE200A87ED080A6A43708B2D
:1017700092FBF0F0D7ED0F0A00EE100AB8EEC00AA7
:1017800030EE200A87ED0F0A96ED1F0AD6ED200AEB
:1017900030EE600A10EE100A03F058FA53EC1A2BE0
:1017A00003F078FA0546B08B8B4603F051FE0246F3
:1017B0000B462846594603F03FFB03F061FC3864B2
:1017C00097ED000AD7ED010A30EE600A10EE100A1C
:1017D00003F03CFA53EC1A2B03F05CFA0546B08B8D
:1017E0008B4603F035FE02460B462846594603F069
:1017F00023FB03F045FCB86497ED020AD7ED030A1A
:1018000030EE600A10EE100A03F020FA53EC1A2BA7
:1018100003F040FA0546B08B8B4603F019FE0246F2
:101820000B462846594603F007FB03F029FC3865B0
:1018300097ED040AD7ED050A30EE600A10EE100AA3
:1018400003F004FA53EC1A2B03F024FA0546B08B8C
:101850008B4603F0FDFD02460B462846594603F031
:10186000EBFA03F00DFCB86597ED060AD7ED070A11
:1018700030EE600A10EE100A03F0E8F953EC1A2B70
:1018800003F008FA0546B08B8B4603F0E1FD0246F3
:101890000B462846594603F0CFFA03F0F1FB3866B1
:1018A00097ED080AD7ED090A30EE600A10EE100A2B
:1018B00003F0CCF953EC1A2B03F0ECF90546B08B8E
:1018C0008B4603F0C5FD02460B462846594603F0F9
:1018D000B3FA03F0D5FBB86697ED100A20EE0C0AB8
:1018E00010EE100A03F0B2F90546786C8B4603F04F
:1018F000ADF953EC192B03F0CDF92A465B4603F002
:10190000EBFC03F0BDFB786497ED120A20EE0C0AA5
:1019100010EE100A03F09AF90546F86C8B4603F0B6
:1019200095F953EC192B03F0B5F92A465B4603F001
:10193000D3FC03F0A5FBF86497ED140A20EE0C0A23
:1019400010EE100A03F082F90546786D8B4603F01D
:101950007DF953EC192B03F09DF92A465B4603F001
:10196000BBFC03F08DFB786597ED160A20EE0C0AA0
:1019700010EE100A03F06AF90546F86D8B4603F085
:1019800065F953EC192B03F085F92A465B4603F001
:10199000A3FC03F075FBF86597ED180A20EE0C0A1E
:1019A00010EE100A03F052F90546786E8B4603F0EC
:1019B0004DF953EC192B03F06DF92A465B4603F001
:1019C0008BFC03F05DFB786697ED1A0A20EE0C0A9B
:1019D00010EE100A03F03AF90546F86E8B4603F054
:1019E00035F953EC192B03F055F92A465B4603F001
:1019F00073FC03F045FBF866DFF8BC14F06FC6F823
:101A0000800038687860B868F86038697861B869CB
:101A1000F861386A7862A6F806A060883081A088EC
:101A20007081E088B0812089F08160893082A9FBD3
:101A30000110C00800EB8002B9EB420016D1D8F8C3
:101A400000104FF6FE7081424FD2DFF87054012231
:101A50001021284602F061FBD8F80000401CD8F89D
:101A600000108842FBD2002210213BE0022808D15E
:101A7000D8F800104FF6FE70814236D2DFF83C54A1
:101A800022E0042816D1D8F800104FF6FE708142EB
:101A90002BD2DFF82C5401221021284602F03DFB06
:101AA000D8F80000401CD8F800108842FBD2002271
:101AB000102117E0062818D1D8F800104FF6FE7054
:101AC000814212D2DFF8F85301222021284602F089
:101AD00024FBD8F80000401CD8F800108842FBD244
:101AE00000222021284602F018FB19F0030F7FF492
:101AF00038AB684602F04AFB0098B0659FEDCCDB3E
:101B00000199F1650298306696ED160A20EE2B0ACF
:101B100010EE100A03F09AF80546706E8A4603F03C
:101B200095F853EC1D2B03F0B5F82A46534603F005
:101B3000D3FB03F0A5FA706696ED170A20EE2B0A88
:101B400010EE100A03F082F80546B06E8A4603F0E4
:101B50007DF853EC1D2B03F09DF82A46534603F005
:101B6000BBFB03F08DFAB06696ED180A20EE2B0A47
:101B700010EE100A03F06AF80546F06E8A4603F08C
:101B800065F853EC1D2B03F085F82A46534603F005
:101B9000A3FB03F075FAF0669FEDCADB96ED190A18
:101BA000D6ED190A96ED1A1AD6ED1A1A96ED1B2AD9
:101BB00020EE200A01EE210AD6ED1B0A02EE200AD1
:101BC00010EE100A03F042F841EC100B03F04EFC4B
:101BD00051EC100B03F054FA706496ED1A0AD6ED2E
:101BE000110A80EE200A86ED120A96ED120AD6ED51
:101BF000120A20EE200A10EE100A03F027F802461F
:101C00000B4651EC1D0B03F0B3FC41EC100B03F041
:101C10002DFC51EC100B03F033FAF06496ED190A29
:101C2000D6ED110A80EE200A86ED140A96ED140A0C
:101C3000D6ED140A20EE200A10EE100A03F006F882
:101C400002460B4651EC1D0B03F092FC41EC100BCD
:101C500003F00CFC51EC100B03F012FA706596EDDA
:101C6000120AB5EE400AF1EE10FA18DDD6ED130AAD
:101C7000F06CF5EE400AF1EE10FA2EDD02F0E6FF10
:101C800041EC100B03F021FB53EC102B51EC180B23
:101C900003F000F88E4A8D4B03F0CEF831E096ED5C
:101CA000130AB5EE400AF1EE10FA15DDF06C02F001
:101CB000CDFF41EC100B03F008FB53EC102B51EC63
:101CC000180B02F0E7FF824A804B03F0B5F89FED56
:101CD00081DB53EC1D2B12E0F06C02F0B7FF41ECFE
:101CE000100B03F0F2FA53EC102B51EC180B02F02E
:101CF000D1FF774A754B03F09FF853EC182B03F094
:101D0000EBFA03F0BDF9F06396ED140AB5EE400A64
:101D1000F1EE10FA1ADDD6ED150A706DF5EE400AF7
:101D2000F1EE10FA7FF7E0A902F090FF41EC100B02
:101D300003F0CBFA53EC102B51EC180B02F0AAFF76
:101D4000634A624B03F078F8FFF7E4B996ED150AA1
:101D5000B5EE400AF1EE10FA7FF7C5A9706D02F0FA
:101D600075FF41EC100B03F0B0FA53EC102B51EC63
:101D7000180B02F08FFF564A544B03F05DF89FEDAD
:101D800055DB53EC1D2BFFF7C3B980B5012002F0E2
:101D9000D0FAFBE738B540F6B934504D0322294656
:101DA000281D01F0A8FC2978FF2922D16878652830
:101DB000BCBFA978B5291CDA00EE100AB8EE400ABB
:101DC000F3EE090A80EE200A85ED130A00EE101AE0
:101DD000B8EE400AF0EE000A20EE200A85ED140A63
:101DE000D5ED140A95ED130AFFF794F803F032FCD1
:101DF000686403F02FFC696C401AA864A86CA042C8
:101E000002D30020E8642865142002F092FAC5E7A6
:101E100010B5254C4FF47A7002F08BFA4FF4004164
:101E2000204602F080F9F5E7FC450020EC47002051
:101E3000000000989999E93F10B50FF2AC031A4CD5
:101E400019680022002003F06CFC0FF2A001096861
:101E50000022012003F065FC0FF2940001680022CB
:101E6000022003F05EFC962002F063FA4FF48041FA
:101E7000204602F058F9012003F092FC4FF4804113
:101E8000204602F050F9EEE72C00002000681449CB
:101E9000884208BF03F098BC70470000000402406D
:101EA0002444014000100240000C024000FEAF40FC
:101EB0000083FFFF0100FFFFCDCCCCCC000002402F
:101EC00000080240000000000000F03FF921094036
:101ED0006E861BF0000000000080764098470020CE
:101EE00000480140FEE70000000A00000A0A0A005C
:101EF0000A00000080B50B48016841F400710160E0
:101F0000026842F480620260016841F480710160FD
:101F1000032000F009F8002003F05EFC00F036FB1F
:101F2000002002BD003C02401F4A13684FF6FF012B
:101F300000020B4000F4E06018431C4908431060A5
:101F4000704738B4184B1C68C4F30223C3F107046C
:101F5000052C28BF04241D1D072D34BF0023DB1EC4
:101F6000012505FA04F4641E2140994005FA03F3A3
:101F70005B1E1A4011430901002807D50C4A00F0E6
:101F80000F00104400F8041C31BC7047094A11547A
:101F900031BC7047012200F01F01074BFFE78A4068
:101FA000400943F8202070470CED00E00000FA05DE
:101FB00018ED00E000E400E000E100E038B50400C6
:101FC00001D1012032BD04F13805687820B9002123
:101FD0002970204600F033FD21E0022180F83910FD
:101FE00001680A6842F001020A6013E00068C168F3
:101FF00041F00101C160026842F00102026000206C
:10200000704707D1D1F800C04FEA5C0C4FEA4C0C86
:10201000C1F800C0012180F839100020704702206B
:102020006870211D206800F061F9012068700020AF
:1020300032BD38B5040001D1012032BD04F13805AC
:10204000687820B900212970204600F05CFCE6E7A2
:102050001CE00A0006D0042909D008290CD00C295C
:102060000FD013E00268D36843F002030DE002686A
:10207000D36843F0040308E00268D36843F0080320
:1020800003E00268D36843F01003D36000680122C4
:1020900002FA01F1026A8A430262026A1143016292
:1020A000DFF81C10884205D1DFF818100A6842F4E6
:1020B00000420A60016841F00101016000207047A0
:1020C000000001404400014010B504462068016949
:1020D0008A0716D5C1688A0713D56FF0020202611C
:1020E00001212176806910F0030F204602D003F011
:1020F000B3FB04E003F0B1FB204603F0AFFB00208C
:102100002076206801694A0716D5C1684A0713D5A9
:102110006FF00402026102212176806910F4407F91
:10212000204602D003F098FB04E003F096FB204623
:1021300003F094FB00202076206801690A0716D579
:10214000C1680A0713D56FF00802026104212176E5
:10215000C06910F0030F204602D003F07DFB04E0BD
:1021600003F07BFB204603F079FB002020762068FB
:102170000169CA0616D5C168CA0613D56FF01002E8
:10218000026108212176C06910F4407F204602D008
:1021900003F062FB04E003F060FB204603F05EFB0B
:1021A0000020207620680169CA0708D5C168CA07DF
:1021B00005D56FF0010202612046FFF767FE206837
:1021C00001690A0608D5C1680A0605D56FF08002C4
:1021D0000261204603F043FB206801694A0608D5E6
:1021E000C1684A0605D56FF040020261204603F03F
:1021F00037FB206801698A060AD5C1688A0607D5B7
:102200006FF0200202612046BDE8104003F029BBB8
:1022100010BD70B5064606F138040D462078012839
:1022200001D1022070BD012121700220607032B105
:10223000042A18D0082A2BD00C2A3DD050E0306850
:10224000294600F0B8F83068816941F008018161E1
:102250003068816921F00401816131688A692869E7
:1022600002438A613CE03068294600F07CF830681F
:10227000816941F4006181613068816921F4806184
:102280008161306881692A6941EA0221816127E020
:102290003068294600F0B5F83068C16941F008019E
:1022A000C1613068C16921F00401C1613168CA6946
:1022B00028690243CA6113E03068294600F0CAF871
:1022C0003068C16941F40061C1613068C16921F4BD
:1022D0008061C1613068C1692A6941EA0221C16136
:1022E000FFE7012060700020207070BD18B46A4BB9
:1022F0000468984218BFB0F1804F07D0674A9042F7
:102300001FBF674A9042674A90420ED14A6824F044
:1023100070041443984218BFB0F1804F11D05F4A47
:1023200090421CBF5E4A90420BD05E4A90421CBF56
:102330005D4A904205D05D4A90421CBF5C4A904283
:1023400003D1CA6824F440741443046098428A6834
:10235000C2620A68826202D10969564A116001228A
:10236000426111BC704770B4026A4B4E22F01002F9
:102370000262B042056A436884690A6824F4E6444C
:1023800044EA02248A6825F0200545EA02150DD1A9
:10239000CA684E6925F0800545EA02158A6923F46A
:1023A0004063164325F0400543EA86034360846199
:1023B000496881634BE030B4026A520852000262FD
:1023C000056A436884690A6824F0730414438A68C0
:1023D00025F002051543304A90420BD123F4407397
:1023E000CA6825F0080515434A6913438A6925F030
:1023F000040513434360846149684163056230BC4E
:10240000704770B4026A244E22F480720262056A38
:102410004368C4690A6824F0730414438A6825F485
:102420000075B04245EA02250DD1CA684E6925F40F
:10243000006545EA02258A6923F44053164325F4D2
:10244000806543EA06134360C4614968C16305625D
:1024500070BC704770B4026A0F4E22F48052026260
:10246000B042046A4268C3690D6823F4E64343EA54
:1024700005238D6824F4005444EA053404D14D69E1
:1024800022F4804242EA85124260C36149680164D5
:10249000046270BC7047000000000140000400406E
:1024A00000080040000C0040004001400044014092
:1024B00000480140300001400068042202FA01F1A6
:1024C000026AFFE78A430262026A11430162416CB9
:1024D00041F400414164026842F0010202600020C0
:1024E000704730B400F138031A78012A08BF02207F
:1024F0001BD001241C7002225A700268546824F018
:1025000070045460046865680A6815436560026871
:10251000946824F0800494600268946848680443D6
:102520009460012058700020187030BC704730B49F
:1025300090F83820012A08BF022024D0012380F817
:102540003830CD688B684A688C6925F440751D4326
:1025500025F4806515430B680A69496925F400650F
:102560001D4325F48055154325F400550D4325F4EE
:1025700080452543026825F400452C43546400211E
:1025800080F83810002030BC7047000082B0002076
:1025900000900022DFF81C07416841F4804141604F
:1025A000416801F480410091009900920F21036875
:1025B00043F080530360006800F080500090009862
:1025C0006FF0010002B0FFF7BCBC38B586B004461E
:1025D00001A80021002200230EC006C02168DFF8F8
:1025E000D826914256D1DFF8D406DFF8D4560093AE
:1025F0000022416941F480714161416901F48071B7
:10260000009100990092036843F00403036001689D
:1026100001F004010091009900920F21036843F03A
:10262000010303600322006800F00100009000989D
:10263000019100200390029201A9DFF8880601F0C1
:1026400021FC032000210C2202900391019201A998
:10265000DFF8740601F016FCDFF870062860002031
:102660006860A860E8604FF4806028614FF4805093
:1026700068614FF48040A8614FF48070E8610020E9
:1026800028626862284603F0EDF808B1FFF72AFCDB
:10269000A563AC6307B030BD81B00068DFF83416C5
:1026A00088420CD10021DFF814060091026842F440
:1026B00080520260006800F480500090009801B0E1
:1026C000704738B586B069460022002300241CC13B
:1026D0000CC10068DFF80026904233D1DFF8DC45FA
:1026E000DFF8F85505931222216841F002012160BC
:1026F0004021206800F0020005900598009101201B
:10270000029001920420049003936946284601F048
:10271000B9FB4FF40070009012210120019102904A
:1027200003210420039104906946284601F0AAFB86
:1027300000200590216941F400112161206900F415
:10274000001042E0DFF89815884240D1DFF86C4570
:102750000593216841F0040121604FF40071206865
:1027600000F00400059005980593226842F00102EC
:1027700022601222206800F0010005900598009167
:1027800001200290032104200391049001926946E4
:10279000DFF8300501F076FB4FF4807000901221D5
:1027A00001200191029003210420039104906946C5
:1027B000DFF8140501F066FB00200590216941F463
:1027C00000012161206900F400000590059807B020
:1027D00030BD80B50068DFF8001588420AD1DFF807
:1027E000D404016821F4001101604FF41071DFF886
:1027F000EC0413E0DFF8E824904213D1DFF8B404CE
:10280000016821F4000101604FF40071DFF8B404A5
:1028100001F004FC4FF48071DFF8AC04BDE8044023
:1028200001F0FCBB01BD38B586B0044601A800210B
:10283000002200230EC006C02168DFF8A8249142C0
:102840005FD1DFF87804DFF8A054009300224169DB
:1028500041F480114161416901F4801100910099B6
:102860000092036843F010030360016801F0100157
:102870000091009900920421036843F00203036071
:102880000222006800F002000090009801910020F0
:1028900003900321062004910590029201A9DFF81C
:1028A0004C0401F0EFFA0220002102900391032072
:1028B00006214FF4807204900591019201A9DFF87E
:1028C0001C0401F0DFFADFF8280428604FF02060D4
:1028D00068604020A8600020E8604FF480602861B4
:1028E00000206861A861E8614FF400302862002090
:1028F0006862284602F0B6FF08B1FFF7F3FAA56454
:10290000AC6307B030BD38B50446DFF8E813206883
:10291000884216D1002000900022DFF89803416819
:1029200041F0010141600021406800F00100009089
:1029300000981A20FFF705FBBDE832401A20FFF788
:1029400029BBB0F1804F0BD100200090DFF8640369
:10295000016841F001010160006800F001006BE0D6
:10296000DFF8941388420BD100200090DFF8440375
:10297000016841F002010160006800F002005BE0C4
:10298000DFF87813884238D100200090DFF87053C8
:10299000DFF82003016841F0040101600068DFF8FE
:1029A000641300F004000090009829604020A860A3
:1029B0004FF080610020E86069604FF4806028611A
:1029C0004FF4006068614FF40050A8610020E86196
:1029D0004FF400302862042068620320A8624FF49C
:1029E0000000E86200202863284602F03BFF08B19F
:1029F000FFF778FA6562AC6331BDDFF80C138842EB
:102A00000BD100200090DFF8AC02016841F0080112
:102A10000160006800F008000EE0DFF8F012884264
:102A20000CD100200090DFF88C02416841F4803125
:102A30004160406800F480300090009831BD81B062
:102A40000068DFF8CC1288420CD10021DFF8800248
:102A50000091026842F400320260006800F4003025
:102A60000090009801B0704710B586B0694600220A
:102A7000002300241CC10CC10068DFF878229042BA
:102A800013D18E4805930222016841F010010160C4
:102A90004FF4D441006800F01000059005980091B3
:102AA00001920293039301208DE0B0F1804F2DD16C
:102AB00082480593026842F0020202600222016825
:102AC00001F002010591059905934FF480610368B7
:102AD00043F001030360006800F0010005900598D1
:102AE00000910120049001920294039469467B486E
:102AF00001F0C8F94FF4004000900221012001913B
:102B000004900294039469466F485FE07A498842D2
:102B100014D16A4805930222016841F00201016064
:102B20003321006800F00200059005986B48009181
:102B30000192029303930492694647E06F498842E9
:102B400014D15E4805930222016841F00201016040
:102B50008021006800F00200059005985F48009110
:102B6000019202930392049269462FE066498842DB
:102B700014D1524805930222016841F0010101601D
:102B80000321006800F00100059005984E4800916F
:102B90000192029303930492694617E05B498842CD
:102BA00016D1464805930222016841F010010160E8
:102BB0004021006800F010000590059800910192F6
:102BC00002930393032004906946484801F05AF9A0
:102BD00006B010BD10B586B001A900220023002464
:102BE0001CC10CC100684B4A90422AD13348009363
:102BF0000222416941F020014161416901F0200157
:102C0000009100990093C021036843F0040303601E
:102C1000006800F0040000900098019101200390EA
:102C20000321082004910590029201A9254801F092
:102C300029F9002205214720FFF783F94720FFF7F4
:102C4000A9F906B010BD10B586B001A90022002375
:102C500000241CC10CC10068B0F1A04F27D1174C53
:102C600000920222206840F001002060216801F0FB
:102C7000010100914FF4C051009801910A200321F5
:102C8000049105900292039301A90F4801F0FAF80C
:102C9000616841F08001616000200090616941F449
:102CA00080416161606900F480400090009806B046
:102CB00010BD000040380240002001403038024082
:102CC0007846002000080240000002407064024084
:102CD00044380240003002400054004000040240EA
:102CE000005C004000500140D84600200010024027
:102CF00088640240000001400004004000080040D9
:102D00003847002058600240000C0040004001405D
:102D10000044014000140140F8B5040001D1012035
:102D2000F2BD04F13C05687820B9002129702046E5
:102D3000FFF7C7FC24206870206801684908490033
:102D4000016001F007FD0146DFF8EC20DFF8EC3010
:102D5000A1FB0220C20C206842606068984208D340
:102D60004FF4967010FB02F2DFF8D470A2FB0776E6
:102D7000720A2068521C026266689E4208D276007F
:102D8000B1FBF6F0C0F30B01042913D2042011E0CB
:102D9000A06820B906EB4606B1FBF6F005E0192263
:102DA0005643B1FBF6F040F4804001050CBF012012
:102DB00040F400402168C861E269206A024320684B
:102DC00002602169E0680143206881606169A0694F
:102DD00001432068C1602068016841F00101016081
:102DE000002068602020687000202063A870F2BD79
:102DF00038B5040001D1012032BD04F13C05242086
:102E00006870206801684908490001602046FFF7A2
:102E1000E0FC0020686068702063A870287032BDF4
:102E20000320BDE8F6870120BDE8F6870120BDE854
:102E3000F2830320BDE8F28306BD3786A186010038
:102E4000986E12832DE9FC470646884691469A46BD
:102E500002F000FC06F13C070546787820280FD1E7
:102E6000306881698A0754D502F0F4FB401B1A28A8
:102E7000F6D300203063202078700020B8703870BE
:102E8000F8E17868042803D100213970FFF7CBBF3F
:102E900000203870FFF7C4BF716A4A1C726209785B
:102EA0000161308D411E3185708D411E7185308DDF
:102EB000002877D0306841690A0660D441694A0524
:102EC00013D56FF480624261042078600020306383
:102ED000202078700020387078680428DAD13068B3
:102EE000016841F400710160D0E714F1010FE1D0F5
:102EF00024B102F0AFFB401B8442DBD2786840F083
:102F00002000786000213163202078703970E3E779
:102F10005CE039780129B3D001223A700268D10708
:102F200003D4016841F0010101604146D6F800E098
:102F30000C9C0B98DDF828C0DEF8008028F40068AF
:102F4000CEF800804FF0210E87F801E053464FF095
:102F5000400E87F802E04A464FF0000EC7F804E042
:102F6000C6F824C070851848F062708D30850195D0
:102F70000094304600F08AF9002898D081E7716A01
:102F80004A1C726209780161308D411E3185708D55
:102F9000421E728530684269530788D589B200297C
:102FA0007FF47AAF2A462146304600F003FB002822
:102FB000AED0786804287FF46DAF3068016841F4C2
:102FC0000071016062E700000000FFFF30680168E7
:102FD00041F400710160202078700020B8703870D2
:102FE000BDE8F6872DE9FC470646884691469A4695
:102FF00002F030FB06F13C0705467878202810D116
:10300000306881698A0740F1AA8002F023FB401BE7
:103010001A28F5D300203063202078700020B87083
:10302000387027E100203870FFF7FABE308D08B9FC
:10303000009008E03168012810D1086820F4806011
:103040000860002100913068416900918269009216
:103050000099016841F40071016025E002280FD158
:10306000086820F4806008603068016841F40061FD
:10307000016000200090306841690091806904E09F
:10308000002000904A6900928869009000990BE046
:10309000706A411C716231680A690270308D411E8C
:1030A0003185708D411E7185308D002800F096802D
:1030B000042837D201280BD12A462146304600F099
:1030C000ABFA0028E4D078682028ADD0FFF7ABBE7B
:1030D000022840F08480306841694A0700F19380FB
:1030E00014F1010FF7D024B102F0B4FA401B84426E
:1030F000F1D200203063202078700020B87092E771
:1031000014F1010F00F0A0802CB102F0A3FA401BD3
:10311000844280F099800020306320207870002065
:10312000B87080E72A462146304600F075FA00283C
:10313000C9D1706A411C716231680A690270308DB0
:10314000411E3185708D411E7185306841694A0785
:10315000AAD5716A4A1C7262006908709EE73978C4
:1031600001293FF45EAF01223A700268D10703D40F
:10317000016841F0010101604146D6F800E00C9C75
:103180000B98DDF828C0DEF8008028F40068CEF83F
:1031900000804FF0220E87F801E053464FF0400EBA
:1031A00087F802E04A464FF0000EC7F804E0C6F880
:1031B00024C07085DFF8C800F062708D30850195FD
:1031C0000094304600F0E9F800283FF42FAF78680B
:1031D00004287FF427AF0021397077E7FBE63068D9
:1031E00041694A0720D414F1010FF8D024B102F04C
:1031F00031FA401B8442F2D20020306320207870E4
:103200000020B8700FE7016841F400710160706A36
:10321000411C716231680A690270308D411E31852E
:10322000708D411E718533E7016821F48061016072
:10323000706A411C716231680A690270308D411EEA
:103240003185708D411E7185306841694A077FF56F
:1032500057AF026842F400720260706A411C7162EA
:1032600031680A690270308D411E3185708D411EB2
:1032700071850DE70220BDE8F68790F83D007047A4
:103280000000FFFF41600020BDE8F2832DE9F84314
:1032900006463068089C099D0F46016841F480711C
:1032A00091469846016030684169CA074CD414F1D0
:1032B000010FF8D024B102F0CDF9401B8442F2D2C4
:1032C00000203063202106F13C0041700021817014
:1032D000017032E041694A0515D5026842F4007276
:1032E00002606FF480603168486106F13C0004229E
:1032F000426000213163202141700021017041684A
:1033000004291AD117E014F1010F20D024B102F0E2
:10331000A1F9401B84421AD20020306306F13C0020
:10332000E9E706F13C004168042906D130680268EB
:1033300042F400720260FFF779BDFFF77ABD306892
:103340005FFA89F707619EE707F0FE0707613068BB
:1033500041698A07BED5002200922A464169009140
:103360008069009030460099214600F009F9002854
:10337000D7D1B8F1010FE2D031684FEA19200861C6
:103380002A462146304600F0FBF80028D7D006F147
:103390003C0041680429D0D1C8E72DE9FE43064628
:1033A00030680A9C0B9F0D46016841F48061016002
:1033B00090463068026842F4807299460260306834
:1033C0004169CA0700F1A08014F1010FF7D024B1C0
:1033D00002F040F9C01B8442F1D20020306320216A
:1033E00006F13C0041700021817001708AE0416962
:1033F0004A0515D5026842F4007202606FF48060DD
:103400003168486106F13C000422426000213163CA
:1034100020214170002101704168042972D161E0CE
:1034200014F1010F73D024B102F014F9C01B8442CF
:103430006DD20020306306F13C00E9E706F13C0064
:10344000416804295ED13068026842F4007202606B
:1034500048E030685FFA88F101613A46214630461B
:1034600000F08EF850B106F13C004168042949D1C2
:103470003068026842F40072026033E0306801682C
:1034800041F48071016030684169CA076CD414F15D
:10349000010FF8D024B102F0DDF8C01B8442F2D253
:1034A00000203063202106F13C0041700021817032
:1034B000017027E041694A0516D5026842F400729E
:1034C00002606FF480603168486106F13C000422BC
:1034D0004260002131632021417000210170416868
:1034E00004290FD1012048E014F1010F40D024B18C
:1034F00002F0B0F8C01B84423AD20020306306F1DB
:103500003C00E8E7032038E005F0FE010161306887
:1035100041698A077FF56BAF002200923A46416904
:1035200000918069009030460099214600F028F80B
:10353000002883D1B9F1010F8BD031684FEA1820F0
:1035400008613A462146304600F01AF800283FF458
:1035500080AF06F13C0041680429D3D1306802688D
:1035600042F400720260BDE745F00105EDB205616D
:10357000306841698A079DD5002003B0BDE8F0831B
:10358000F8B506460C46174606F13C053068416919
:103590000A060DD441694A0500D530E014F1010F47
:1035A000F4D024B102F056F8C01B8442EED21BE0E6
:1035B0000020F2BDF8B506460C46174606F13C055C
:1035C000306841694A070DD441694A0500D516E0C3
:1035D00014F1010FF4D024B102F03CF8C01B844276
:1035E000EED201E00020F2BD686840F02000686083
:1035F000002131632020687029700320F2BD6FF430
:10360000806242610420686000203063202068707E
:10361000002028700120F2BD70B505460C46164604
:10362000286841694A0622D44169CA0611D424B1E6
:1036300002F010F8801B8442F2D205F13C002022F7
:10364000416841F020014160427000210170032077
:1036500070BD6FF01001416105F13C000021416037
:1036600029632021417000210170012070BD0020DC
:1036700070BD10B5040001D1012010BD607920B9E2
:10368000002121712046FFF707F802206071012018
:103690006071002010BD000038B5040001D1012088
:1036A00032BD04F13805687820B900212970204620
:1036B000FFF790FA242068702068C16821F4005157
:1036C000C160204600F04AF92068016921F4904168
:1036D00001612068416921F02A01FFE7416120680A
:1036E000C16841F40051C16000206860202068700A
:1036F000A870002032BD30B400F138039C78202C33
:103700001BD109B1140000D118E01C78012C14D091
:1037100001251D7081628285C285002159602221A8
:1037200099700021197001684A6942F001024A61EA
:103730000068C16841F4907106E002E030BC0120ED
:10374000704730BC02207047C160002030BC704719
:1037500038B5044625682968EA686B6911F00F00DE
:1037600007D1880660D590065ED52046BDE8324078
:10377000AEE0D80702D412F4907F55D0C80705D523
:10378000D00503D5E06B40F00100E063480705D5A4
:10379000D80703D5E06B40F00200E063880705D549
:1037A000D80703D5E06B40F00400E063080705D5B7
:1037B000D80703D5E06B40F00800E063E06B002819
:1037C00071D0890604D5900644BF204600F080F8E9
:1037D00020684069E16B0A0701D440061ED52046E7
:1037E00000F062F8206841694A0612D5416921F06B
:1037F00040014161606B60B10FF2C9010165606B0E
:1038000002F0EDF800284ED0606B016DBDE8344049
:1038100008472046BDE8324002F0ECB9204602F0ED
:10382000E9F90020E06331BD08062CD510062AD541
:1038300094F83900212836D1A168206AB1F5805F5B
:103840000DD10188C1F308016960206918B9216AA6
:10385000881C206207E0206A411C216203E0411CB1
:10386000216200786860E08C401EE08480B2D0B9AC
:103870002068C16821F08001C1602068C16841F002
:103880004001C16031BD48060DD550060BD5E86832
:1038900020F04000E860202184F839102046BDE87F
:1038A000324002F0A8B931BD0168CA6822F49072B2
:1038B000CA6001684A69520852004A61202180F8B2
:1038C0003A107047806B0021C185C18402F092B923
:1038D00080B590F83A1022293ED18268B2F5805F17
:1038E00014D1826A016941B903685968C1F30801BA
:1038F0001180826A911C816218E001684B6803F0B4
:10390000FF031380816A4A1C82620FE0016900296B
:10391000816A04D14A1C82620268536805E04A1C2D
:1039200082620268536803F07F030B70C18D491EE9
:10393000C18589B271B90168CA6822F49072CA60FF
:1039400001684A69520852004A61202180F83A1001
:1039500002F052F9002002BD022002BD2DE9F0471D
:10396000044621680A69E06822F4405202430A6171
:103970008A48CA680240A06802432069024360691D
:103980000243E0690243CA604A69A06922F44072B6
:1039900002434A618248E269B2F5004F40F09B80E1
:1039A00081421CBF7F4881424AD100F0DBFE0546C0
:1039B00000F0D8FE064600F0D5FE074600F0D2FE25
:1039C000804600F0CFFE6168DFF8DCA1DFF8D8E1C7
:1039D00019235F434900B7FBF1F75D435E43A7FB43
:1039E0000AA96422B5FBF1F5B6FBF1F64FEA991787
:1039F000A5FB0EEC02FB17664FEA9C15F60032366B
:103A0000DFF8A4C1A6FB0CC7BE09760006F4F87661
:103A100006EB051603FB08F74343B3FBF1F0B7FBD6
:103A2000F1F5614BA0FB0331880902FB1052D20073
:103A300032325D49A2FB0110800900F00700A7E0C7
:103A400000F088FE054600F085FE064600F082FE86
:103A5000074600F07FFE804600F07CFE6168DFF8DC
:103A600048A1DFF844E119235F434900B7FBF1F7B0
:103A70005D435E43A7FB0AA96422B5FBF1F5B6FBE3
:103A8000F1F64FEA9917A5FB0EEC02FB17664FEA19
:103A90009C15F6003236DFF810C1A6FB0CC7BE0934
:103AA000760006F4F87606EB051603FB08F74343A9
:103AB000B3FBF1F0B7FBF1F53B4BA0FB03318809F9
:103AC00002FB1052D20032323749A2FB01108009AA
:103AD00000F007005CE081421CBF324881420ED1F9
:103AE00000F040FE054600F03DFE064600F03AFEBE
:103AF000074600F037FE804600F034FE0DE000F08F
:103B000029FE054600F026FE064600F023FE074685
:103B100000F020FE804600F01DFE6168DFF888A0FE
:103B2000DFF884E019235F438900B7FBF1F75D43B9
:103B30005E43A7FB0AA96422B5FBF1F5B6FBF1F6DB
:103B40004FEA9917A5FB0EEC02FB17664FEA9C158E
:103B500036013236DFF850C0A6FB0CC7BE0906F0AE
:103B6000F00606EB051603FB08F74343B3FBF1F041
:103B7000B7FBF1F50C4BA0FB0331880902FB105297
:103B8000120132320849A2FB0110800900F00F0037
:103B9000226886199660BDE8F0870000F369FFFF90
:103BA00000100140001401403E0AD7A338B58AB086
:103BB0000446002514B901200BB030BD032084F861
:103BC000B9032046FFF73FF8206802F04EF883B0B3
:103BD000211D6846342202F02DF90EBC206802F047
:103BE0000DF82068002102F046F804F138000121A8
:103BF00041700570C5800021C1708160C160416164
:103C00006D1C1C300F2DF2D3002004F5FC72002334
:103C100053701070A2F5DD7318800023D370936089
:103C2000D3605361401C25680D441C32091D0F28C8
:103C3000C5F80431EBD383B0211D6846342202F06D
:103C4000F9F80EBC206802F029F8012084F8B903C5
:103C5000206802F0B7F800200BB030BD38B5040082
:103C600001D1012032BD0020A06204F15005687826
:103C700020B9002129702046FEF7D5FD022068708A
:103C80002068016821F0400101606268A068A169B4
:103C90000243E0680243206902436069024301F481
:103CA0000071E0690A430243206A0243A06A0243AA
:103CB00020680260A169606A090C01F004010143F7
:103CC000206841602068C16921F40061C161002061
:103CD000686001206870002032BD70B5064606F1AC
:103CE000500400252078012801D1022070BD012355
:103CF00023706078012818BF022540D109B1100057
:103D000001D101253BE00320607065603163B2861C
:103D1000F286B56375643564B587F587B068B0F52C
:103D2000004F04D13068016841F480410160B16CFA
:103D30000FF215100864B16C0FF24D00C863B16C3E
:103D40000FF20D10C864B16C0D65F38E3068316BE5
:103D500000F10C02B06C01F0FBFD306801684A060E
:103D600003D4026842F0400202603068416841F0CA
:103D7000200141603068416841F00201416000204B
:103D80002070284670BD00007CB50646B46B01F07B
:103D900061FC054630680168CA0552D42068416854
:103DA00021F00201416020688168080636D501F0E3
:103DB00051FC401B6428F6D32068416821F0E001E3
:103DC00041606068B0F5827F0BD1A068B0F5004F0C
:103DD00018BFB0F5806F04D12068016821F0400160
:103DE0000160A06AB0F5005F0AD121680A684DF64B
:103DF000FF7002400A602068016841F400510160D0
:103E000004F150000122427000210170416841F02C
:103E100020014160416841F020014160A06838B94B
:103E2000002100912068C16800918068009000998D
:103E30000020E086012104F150004170406800B18B
:103E400016E0204619E00000806B02F036B8000052
:103E5000806B01684A68920892004A600122416DB5
:103E600041F01001416580F8512002F027B80000B0
:103E70002046BDE8764002F021B8BDE8764001F06A
:103E8000EFBB00002DE9F84F03460C464FF0000849
:103E9000C146C246AA48AB490F22012505FA08FCD3
:103EA00025680CEA050EE64540F0AC806568022DF9
:103EB00018BF122D10D14FEAD80503EB85050AF083
:103EC0001C062F6A02FA06FB27EA0B07D4F810B08B
:103ED0000BFA06F63E432E6203251E68277905FA83
:103EE00009F5ED4307F003072E4007FA09F73E43B3
:103EF0001E606668012E18BF022E03D0112E18BF57
:103F0000122E10D19E68E7682E4007FA09F73E434B
:103F10009E605E6826EA0C076668C6F3001606FA1D
:103F200008F63E435E60DE683540A66806FA09F68C
:103F30003543DD606568ED0064D5002500954FEAE6
:103F4000980C0D6845F480450D600AF00C060D686C
:103F500005F48045009502FA06F7009D7A4D55F864
:103F60002CB02BEA0707DFF8E4B15B4508BF4FF040
:103F7000000B1CD0DFF8D8B15B4508BF4FF0010B38
:103F800015D0DFF8D0B15B4508BF4FF0020B0ED063
:103F9000DFF8C4B15B4508BF4FF0030B07D0DFF873
:103FA000BCB15B450CBF4FF0040B4FF0070B0BFA95
:103FB00006F63E4345F82C606FEA0E0C056866680D
:103FC0000CEA0505F70348BF4EEA0505056045689C
:103FD00066680CEA0505B70348BF4EEA050545606B
:103FE000856866680CEA0505F70248BF4EEA0505D4
:103FF0008560C56866680CEA0505B60248BF4EEAEA
:104000000505C56008F10108B8F10F0F0AF1040AAF
:1040100009F102097FF641AFBDE8F18F2DE9F84FB4
:104020000C464FF0000BDC464549474A00940F23ED
:104030004FF001080546D946009808FA09FE0EEA35
:104040000000704557D1032404FA0BF42E68E443B2
:1040500026402E600CF01C074FEAD90605EB8606B9
:1040600003FA07F7D6F820A02AEA07073762AE68F6
:104070002640AE606E6826EA0E066E604FEA990E24
:10408000EE683440EC600CF00C0452F82E7003FA29
:1040900004F606EA070A2D4FBD4208BF002713D0D9
:1040A0002B4FBD4208BF01270ED02A4FBD4208BF8B
:1040B000022709D0284FBD4208BF032704D0274F4D
:1040C000BD420CBF0427072707FA04F4A24512D10A
:1040D00052F82E4024EA060642F82E60C0430C68CF
:1040E00004400C604C6804404C608C6804408C6058
:1040F000CC682040C86009F10109B9F10F0F0CF13B
:10410000040C0BF1020B97D9BDE8F18F0069014057
:10411000481E8041C043C00F704781B002B90904F6
:10412000816101B0704742695140416170470C4A5A
:10413000136803421CBF1060FCF7F8BD7047000015
:10414000003C014044380240083801400000024071
:104150000004024000080240000C0240001002402F
:10416000143C014038B5614D68688047012433280C
:104170000AD15F4C256040F64700296888472168CE
:104180000A6A902090470024204632BD58490A68A8
:1041900082B0916A09B102B0084702B0704780B599
:1041A000942200213C2001F069FF802201213C2063
:1041B00001F064FFBDE808400022FFE702213C2037
:1041C00001F05CBF2DE9F041804601213C2001F067
:1041D00056FF064604213C20464C01F050FF20705B
:1041E00003213C2001F04BFF607008213C2001F0CE
:1041F00046FFA07007213C2001F041FFE07006213E
:104200003C2001F03CFF207105213C2000270025C7
:1042100001F035FF06F0E006202E60710ED0402E32
:1042200011D0602E14D0802E17D0A02E1AD0C02E00
:104230001DD0E02E04BFE627CD251CE040F24C4700
:104240004FF4757517E040F257374FF43E7512E0A2
:1042500040F29E274FF416750DE04FF4E1774FF4CE
:10426000C87508E04FF4C87740F2631503E04FF4D7
:10427000A57740F227156178227802EB012212B26D
:1042800000EE107A01EE102AB8EE400AB8EEC11A1C
:10429000DFED150A81EE001A21EE201A88ED001AD2
:1042A000E178A27802EB012212B201EE102AB8EEF8
:1042B000C11A81EE000A20EE200A88ED010A01EE03
:1042C000105A217901EB002000B200EE100AB8EE7E
:1042D000C00AB8EE411A80EE010A20EE200A88EDED
:1042E000020ABDE8F081000000007A4400000020CE
:1042F000EC480020E448002080B501F0B5FF002024
:1043000002BD00B583B00B46B0F908100022842925
:1043100018BFCA1C02A90092019101680269406895
:1043200092B201F0ADFE012814BF0020029803B044
:1043300000BD80B500B9012001F075FF002002BD6D
:10434000002202F037B900002DE9FC41040019D029
:104350002078B84EC10740F1D080B06800F00C0062
:10436000042807D0B06800F00C0008280DD1706850
:1043700041020AD53168880340F1BF806068002897
:1043800040F0BB800120BDE8F6816068B0F5803F59
:1043900006D0B0F5A02F316807D141F480213160FB
:1043A000306840F48030306006E021F480313160C4
:1043B000326822F480223260606870B101F04AF9FC
:1043C00005463168880300F1988001F043F9401BED
:1043D0006528F6D30320BDE8F68101F03BF90546D8
:1043E0003068810340F1898001F034F9401B652871
:1043F000F6D3EFE701F02EF9401B022840F2A98026
:10440000E8E7E0688C4970B101220A6001F022F906
:1044100005463068810700F1C78001F01BF9401B99
:104420000228F6D9D6E7086001F014F9054630688D
:10443000810740F1818001F00DF9401B0228F6D977
:10444000C8E7086001F006F90546706F810740F182
:10445000848001F0FFF8401B0228F6D9BAE705284E
:10446000306F06D140F004003067306F40F001003B
:1044700005E0400840003067306F20F004003067EE
:10448000A06870B101F0E6F8074641F28938306F54
:10449000810700F1998001F0DDF8C01B4045F6D39B
:1044A00098E701F0D7F8074641F28938306F810765
:1044B00040F18A8001F0CEF8C01B4045F6D389E771
:1044C00001F0C8F8C01B022840F2948082E701F096
:1044D000C1F8001B022840F2A5807BE70020286677
:1044E00001F0B8F804463068810140F19F8001F086
:1044F000B1F8001B0228F6D96CE7207881071BD59C
:10450000B06810F00C0F09D0B06800F00C0008285B
:104510007FF477AF706841023FF573AF3168880769
:1045200003D5E06801287FF42DAF3168206921F0C0
:10453000F80141EAC0013160217808070DD56069B2
:104540003E4900283FF47DAF01220A6001F082F865
:104550000546706F81077FF54DAF2178480738D544
:10456000306C0025C1000AD400950125306C40F064
:1045700080503064306C00F0805000900098304FD4
:104580003968C80518D4386840F48070386001F084
:1045900061F880463968C8050ED401F05BF8A0EBDD
:1045A00008000228F6D915E73068216920F0F800E4
:1045B00040EAC1003060BFE7A06801287FF44FAF38
:1045C000306F40F001005AE71DB1306C20F0805090
:1045D0003064A06950B3B16801F00C0108293FF4C0
:1045E000D1AE0228144D7FF479AF0020286601F087
:1045F00031F80746306881013FF562AFE169206A12
:10460000A26A0143606A520841EA8011521EE06AC0
:1046100041EA024141EA006171600121296601F02D
:1046200019F80446306881017FF551AF0020BDE8DC
:10463000F68100BF0038024000004742800E47422A
:10464000007000402DE9F84304000F4600F07F8021
:10465000574E306800F00F00B84205D2377031680D
:1046600001F00F01B94272D12068524D810712D575
:10467000400703D5A86840F4E050A86021780807F7
:1046800003D5A86840F46040A860A968A06821F03C
:10469000F0010143A9602078C1074DD56068012869
:1046A00002D129688A0305E0022818BF032803D134
:1046B00029688A0103D44AE02A68910747D5A96886
:1046C000890840EA8100A86041F2893900F0C2FF00
:1046D0008046A868616800F00C00B0EB810F2BD019
:1046E00000F0B8FFA0EB08004845F2D30320BDE876
:1046F000F2832078410705D5A968E06821F4E051EC
:104700000143A9602078010706D5A868216920F433
:10471000604040EAC100A86000F056F8AA68264947
:10472000C2F30312895C254AC8401060002001F0E2
:1047300053F80020BDE8F283306800F00F00874294
:10474000D7D23770316801F00F01B942D1D00120C2
:10475000BDE8F28319481A4A006813681949C3F37F
:10476000822206E01548164A006813681549C3F30B
:104770004232895CC84070470F220260104A1368B9
:1047800003F003034360D2F800C00CF0F00CC0F853
:1047900008C0136803F4E053C3601268D20802F43F
:1047A000E05202610248026802F00F020A6070479C
:1047B000003C024000380240E473000894010020ED
:1047C000083802403C75000818B5124C606800F0CB
:1047D0000C00042802D0082802D019E00E4812BDAF
:1047E00000232268206841022068C0F388104CBF73
:1047F00009490A4902F03F02A1FB000101F0F4FE61
:104800002168C1F30141491C4900B0FBF1F012BD20
:10481000024812BD0438024000127A000024F4005D
:1048200070B5044600250CB9012070BD04F13C06AA
:10483000706820B9B56030702046FDF7C6FE70681C
:10484000C10610D4706820F4885040F002007060F7
:10485000204600F035F9B560706820F0020040F0A5
:104860000100706000E0012500203070284670BD16
:10487000F8B50446002004F13C0300901D78012D9A
:1048800001D10220F2BD0120187020688568EE0772
:1048900015D48568DFF81C7345F001058560DFF8E5
:1048A00018030568A5FB0776F60C06EB460600968E
:1048B00002E00098401E009000980028F9D1256879
:1048C000A868C60758D55E68DFF8F002064046F4CF
:1048D00080765E606868450505D5586820F400500C
:1048E00040F4805058605868C50404D5986820F09A
:1048F0000600986001E000259D6000201870A36B01
:104900000FF2D120D863A36B0FF225301864A36B8C
:104910000FF22530D8646FF02200256828602068E7
:10492000436843F0806343602068836843F4807386
:104930008360134620680A4600F14C01A06B01F029
:1049400007F820689E490A6812F01F0F08D1816895
:1049500011F0405F10D1816841F0804181600BE02F
:10496000984A904202BF9848016811F0405F03D115
:10497000026842F0804202600020F2BD78B4024634
:104980000020009092F83C30012B08BF022000F07C
:104990009580012082F83C0007240B6810680A2BE0
:1049A00012D30A3BC56803EB43039C4025EA040489
:1049B000C460C3680D688C68A5F10A0606EB46065C
:1049C000B4402343C3600FE0056903EB430304FADB
:1049D00003F325EA0303036103690D688C6805EBA3
:1049E0004505AC40234303611F244B68072B11D2BC
:1049F0005B1E456B03EB83039C4025EA0404446380
:104A0000436B4D680C886E1E06EB8606B44023434C
:104A1000436325E00D2B11D2DB1F056B03EB8303F2
:104A20009C4025EA04040463036B4D680C88EE1F68
:104A300006EB8606B4402343036311E00D3BC56AD1
:104A400003EB83039C4025EA0404C462C36A4D68F7
:104A50000C88A5F10D0606EB8606B4402343C3621D
:104A6000584B984226D10868122804D1544803684C
:104A700043F4800303600868544B984218BF112820
:104A800018D14F48046844F4000404600868984250
:104A900010D14948474C0168A1FB0443DB0C03EBF0
:104AA00083056D00009502E00098401E009000987C
:104AB0000028F9D1002182F83C10002072BC704718
:104AC0003F4A116821F440311160136841680B437B
:104AD00013600268516821F4807151605168036964
:104AE00041EA03215160516821F0407151605368DF
:104AF00081680B435360916821F400619160936871
:104B0000C1680B439360816A314B994210D093681E
:104B100023F0706393609368816A0B43936091689C
:104B200021F0405191609368C16A0B43936007E0A4
:104B3000916821F070619160916821F0405191601D
:104B4000916821F0020191609168836941EA430113
:104B50009160016A69B1536843F40063536051681E
:104B600021F4604151605168436A5B1E41EA433160
:104B700002E0516821F400615160D16A21F47001B2
:104B8000D162D16AC3695B1E41EA0351D162916867
:104B900021F4007191609168036B41EA43219160B7
:104BA000916821F4806191609168406941EA8021B7
:104BB0009160704706BD378694010020FEF9FFFF23
:104BC0000423014000200140082001401200001091
:104BD0000100000F816B0A6C12F0500F24D1086C99
:104BE00040F4007008640A68906810F0405F04BFE9
:104BF0008869002815D1D36A13F4700F02D0906829
:104C000043050ED4506820F020005060086C20F45A
:104C100080700864086CC20403D4086C40F0010082
:104C200008640846FBF7B8BA896BCA6C10470000E5
:104C3000806B01F0F0BD0000806B40210164416C8D
:104C400041F00401416401F0E7BD0000C0F3C75129
:104C500081B1FF2906D0C110400721F0E04101F1E8
:104C60006051704741020CBF40F4E0016FF0004119
:104C70000020704700F0004100020AD0B0FA80FC2A
:104C800000FA0CF001F16051A1EB0C5101EBD021C5
:104C900040057047B0B581EA030C0CF0004C40F2BF
:104CA000FF7515EA11541DBF15EA1357AC42AF4208
:104CB00039E0E41923EA455343F48013C90241F073
:104CC000004141EA505EC7021100A7FB0202002822
:104CD0004FF00000EEFB01204FF00001E3FB072145
:104CE00018BF42F00102401800214941E3FB0E01C8
:104CF000A4F580640F0302D252004041494154F1AF
:104D000001046CDD470872F1004250F1000051EBE4
:104D10000451A1F580115CBF41EA0C01B0BD4CEA21
:104D200005510020B0BD05EA1357AC4214BFAF4295
:104D300041E050EA410E1CBF52EA430E02E06146D8
:104D40000020B0BD24423C441BD15FEA070EF6D0E0
:104D5000090302BF01460020AEF1140EB1FA81F73B
:104D6000AEEB070401FA07FE0C37C7F1200100FA89
:104D700007F7C8404EEA000E23EA455343F4801378
:104D8000A2E733F00043B3FA83F704BFB2FA82FE1E
:104D900077440B3FE41BB7F1200E2FBF02FA0EF34E
:104DA000BB40C7F1200E22FA0EFE38BF43EA0E03C5
:104DB000BA40641C82E750EA410E14BF52EA430E27
:104DC0006FF000014FF4001717EB430F8ABF19462D
:104DD00017EB410FB5E74CEA05510020B0BDD4F107
:104DE0000104B4F120070FDAC4F12007520828BFEC
:104DF00042F0010210FA07F501FA07F7E1BF2A4372
:104E0000E0403843E1400FE0352C98DCC7F1200446
:104E100052EA400220FA07F218BF42F0010231FACA
:104E200007F0A1400A43002172F1004250F1000056
:104E300051EB0C01B0BD0000F0B540F2FF7581EA06
:104E4000030C0CF0004C15EA11541DBF15EA135762
:104E5000AC42AF42E5E0BC41C1F31301C3F313031D
:104E6000801A994143F4801304D2641E40004941E2
:104E700080185941C90241EA5051B1FBF3F603FBD6
:104E80001611A2FB0675D7EBC020A94102D2761EEF
:104E900080185941C90241EA5051B1FBF3FE03FBAE
:104EA0001E11A2FB0E75D7EBC020A94103D2AEF1B3
:104EB000010E80185941890241EA9051760546EA6F
:104EC0008E2EB1FBF3F603FB1611A2FB0675D7EB92
:104ED0008020A94102D2761E80185941C90241EAB8
:104EE00050514EEA060EB1FBF3F603FB1611A2FB7E
:104EF0000675D7EBC020A94102D2761E8018594111
:104F0000C90241EA5051B1FBF3F703FB1711A2FBB1
:104F10000735D3EBC020A94167F100070CBF004261
:104F200047F0010766F3D5274FEA1E31B80814F59C
:104F3000806412DDBD0775F1004250EB0E5051EB5D
:104F4000045111F5801F5CBF41EA0C01F0BD4CF02B
:104F50007F6141F0E0410020F0BDBD076D0840EAEF
:104F60000E5041F48011D4F10104B4F120060ADAA4
:104F7000C4F120060200E04001FA06F3E1401843C4
:104F8000B24015430EE0342C13DCC6F1200445EA90
:104F900040056D0820FA06F2154321FA06F0A140FB
:104FA0000D43002175F1004250F1000051EB0C015E
:104FB000F0BD00205FEA0C01F0BDCFB992185B4153
:104FC000B3FA83F704BFB2FA82F6BF190B3FB7F109
:104FD00020062FBF02FA06F3BB40C7F1200622FAD3
:104FE00006F638BF3343BA401CB1E419641E33E7F8
:104FF0007F4231F00041B1FA81F404BFB0FA80F68B
:10500000A4190B3CB4F120062FBF00FA06F1A14011
:10501000C4F1200620FA06F638BF3143A0403C1BFD
:105020001AE7AC421ABF05EA1357AF4212E050EA42
:1050300041061CBF52EA4306BFE750EA410730462B
:1050400061461CBF41EA0551F0BD52EA430C08BF5E
:10505000C143F0BD00204FF4001616EB410F98BF7E
:1050600016EB430F08BF16EB410F24BFC14305E009
:1050700016EB430F0CBF61464CEA0551F0BD000032
:1050800001F000428B1AA3F16051B1F5801F0ADBD9
:10509000B1F17F6F1FD242EAC102C10071F100413C
:1050A00042EB507070470B15C3F10903212B10D24E
:1050B000890241EA905180020128494141F00041B2
:1050C00021FA03F0C3F12003994071F100415041EE
:1050D0007047100070476FF0000013EB103F5CBF8B
:1050E000000E42EAC0507047DFED650A60EE200A0C
:1050F00010EE901A21F0004101EE101ADFED611A56
:10510000B4EE611AF1EE10FA27D510EE902A4FF0A6
:105110007C5102F00042114301EE101A70EE810A38
:10512000FDEEE00A10EE901A00296ED0FAEEC90AE0
:105130009FED551A00EEC10A9FED541A00EEC10A08
:105140009FED531A00EEC10A9FED521A00EEC10AFC
:105150009FED511A00EEC10A57E010EE101A4900F7
:105160000916491C10EE101A09D149000816401CF6
:1051700002D1090240F083809FED480A7047490040
:1051800004D100287BD0B7EE000A704710EE902AB9
:105190004FF07C5102F00042114301EE101A70EE04
:1051A000810A10EE902A51000FD0090EC1F196012C
:1051B0001829A8BF02F0004205DA0129A4BF22FA8B
:1051C00001F303FA01F200EE902A10EE901A490062
:1051D00017D09FED331A20EE811ADFED2B1A01EE66
:1051E000610ADFED2A1A01EE610ADFED291A01EEEC
:1051F000610ADFED281A01EE610ADFED271A01EEE0
:10520000610AFDEEE00A10EE901A10EE102A22F06C
:10521000004200EE902A9FED231A01F00301F4EE04
:10522000410A0818F1EE10FA00F0010103D511B39C
:10523000B7EE000A1FE060EE000A71B19FED1A0A96
:105240009FED1A1A00EE801ADFED191A41EE201AAE
:10525000B7EE000A01EEA00A0DE0DFED161A9FED91
:10526000162A00EEA12ADFED152A20EE201A42EEC2
:10527000202A01EE220A800748BFB1EE400A70479B
:1052800083F9223F0000004F0000C94600A0FD4006
:105290000020A23A000034330030C22EFFFFFF7F0F
:1052A00000008038000080399349B2BA36A02A3D08
:1052B000DFFFFFBE6E8C4CB94283083CA1AA2ABE18
:1052C000012011E741EC100B01BD80B551EC100B32
:1052D00001F0A4FAF6E7000070B44FF0004591EA3F
:1052E000030F40F14D816B40841A71EB030604D229
:1052F0006E40001BB141121973414FF4001C1CEBAE
:10530000410F34BF7CEB430682E00C0DA4EB135637
:10531000362E7BDC012E45EAC32341DC43EA52539F
:1053200012BFD20292025B08240545EAC12141EA7C
:105330005051D2EBC020994125D407D1B0FA80F664
:1053400010FA06F162D00020203608E0B1FA81F6AA
:10535000B140C6F1200220FA02F21143B0404FEAF8
:10536000F474B4EB465434F001064FEA74040AD8DE
:10537000D6F50016760D04F00044F04061FA06F20E
:105380005040F1404840C00A40EA415021F00041FD
:1053900028BF5FEA500550F1000044EBD12135E011
:1053A000DB0A45EAC121C90AB6F120050EDD42EA51
:1053B0000242120CC5F1200603FA06F6EB4042EA5F
:1053C00006056D42984161F100010DE062FA06F5B3
:1053D000F240554063FA06FC82EA0C02F3405A4060
:1053E0006D42904161EB030111F4801F05D1641EF1
:1053F000620502D06D004041494121F4801143080B
:1054000075F1004350F1000041EB045170BC70474E
:105410001CEB410F15D223F0004352EA43060BD098
:105420004FEA4C0CBCEB410F04D80C0D661E342E19
:10543000B7DDEBE7801A994150EA410608BF002129
:10544000E4E708BF1CEB430F28BF6FF00001DDE766
:10545000014648B1B0FA80F18840C91CC1F58461A9
:10546000090501EBD02140057047000051EC100BFD
:1054700000B500F003F841EC100B00BD40F2FF7CDA
:105480000B0D4DD0634566D230B421EA035141F48F
:10549000801103F2FD3C5FEA5C0C01D30018494126
:1054A000890041EA907180004FF440140023E20229
:1054B000D50AB1F5100107D46D081DD2091B641976
:1054C00000184941491BF7D56D080AD20919641B18
:1054D00000184941491BEFD56D08F7D301E0520888
:1054E00017D0C01861419B1AAC4100184941801A7D
:1054F000A941F4D452080AD0C01AA1419B186C41AA
:1055000000184941801AA941E9D45208F4D15B1C22
:105510006C4161084FEA330001EB0C5130BC70471D
:1055200050EA0103FBD030B4B1FA81F311B9B0FAFB
:1055300080F41B190B3BB3F120042FBF00FA04F1D8
:105540009940C3F1200420FA04F438BF2143984065
:10555000D3F101039DE7634514BF50EA410CDEE738
:1055600011F5801FDBD8D943AFF3008070470000EE
:1055700070B44FF0004591EA030F7FF5B5AE6B4074
:10558000841A71EB030603D2001BB1411219734157
:105590004FF4001C1CEB410F34BF7CEB430442E092
:1055A0000C0DA4EB1356352E4FDC45EAC323DB0A62
:1055B00045EAC121C912B6F120050DDD63FA05F6F1
:1055C000EB4086EA0305124218BF45F00105C018FA
:1055D00051F100010CD213E062FA06F5F240554099
:1055E000F3415A40B340F3405A408018594107D321
:1055F00049085FEA30005FEA350528BF45F001053C
:1056000001F58011420875F1004250F1000041EBB4
:1056100004514E0016F5001F70BC38BF70470020C3
:10562000090D090570471CEB410F10D252EA4306E1
:105630000BD0BCEB410F05D80C0DAB43661E342ECE
:10564000B6DD02E0AB438018594170BC704770BCB6
:105650007047000001484068704700BF8801002083
:10566000DFF844110120087070472DE9F041002651
:10567000C0000FF244120FF24813DFF83081012509
:10568000C6F1070705FA07F70F407C1E00EB40073D
:10569000A441FF08E44318F807E0E40F00F0070C0A
:1056A00034B913F80C4044EA0E0408F807400BE044
:1056B00012F80C4044EA0E0408F80740BCF1050F4C
:1056C00002D1474480247C70761C401C082ED7DB16
:1056D000BDE8F081F8B5344908780028FDD0334C96
:1056E000334E00200870A2212046FEF729FE002537
:1056F00005EB450771783846FFF7B7FF3178781C1E
:10570000FFF7B3FFB178B81CFFF7AFFF6D1CF61CB5
:10571000102DEDD32146BDE8F840A2222548FEF722
:10572000DCBA1CB5102814460ED2009100EB4000E4
:105730001F4908446946032200F06CFBE4B2012CC7
:1057400002D1BDE81340C5E713BD2DE9FC41DFF8E8
:10575000608005460E4608F103070524F81E394609
:10576000032200F057FB3846F91C032200F052FBDD
:10577000F81CB91D032200F04DFB0937641EEDD162
:10578000009508F12D006946032200F043FBF6B2B4
:10579000012E00D101E0BDE8F381BDE8F34199E7B6
:1057A000014603480068D0E7980100202C440020FF
:1057B000AC480020A4410020C01803600C01300652
:1057C00080100240080120040248416802788918CC
:1057D000416070478801002018B5014687B000225B
:1057E0001A20FCF7AEFB1A20FCF7D4FB0020009037
:1057F000154C1648016841F48021016001A9006838
:1058000000F480200090009802A8FEF7B5FFFEF794
:10581000A9FF0F490F4A2160002340F2E731E16000
:105820002361A0FB0221C80C401E6060A3602046DB
:10583000FCF7C4FB20B92046FCF7D8FB08B010BD2C
:10584000012008B010BD000070480020443802401C
:105850000048014006BD3786704770477047704763
:10586000704770477CB50446FFF7F4FE06460CB956
:10587000012076BD04F134050020287002206870F4
:105880002068016849084900016021680868C2076A
:1058900020D5FFF7DFFE801B0628F6D320202862E4
:1058A000032015E0B0F5005F09D1032E42D8DFE8F0
:1058B00006F00C0A0C02B1F1C07F3BD105E0022ECC
:1058C00003D9F61E36D1C80134D540202862012004
:1058D000687076BD0A68DFF804030240606802431E
:1058E000A0680243E0680243206902436069024302
:1058F000A0690243E0690243206A0243606A042807
:1059000003D1E36A206B03431A430A6023685A6990
:10591000606AD208042840EAC2020BD1A66AE16A92
:10592000324339B1A0690028BCD1002E18BF022E25
:10593000C9D0C0D35A61204600F038F9A96A3F2285
:105940008A4082600020286201206870002076BDB5
:10595000F0B400F1340500242F786E6A012F08BFDF
:1059600002203AD001272F706F78012F32D1022701
:105970006F702C620768D7F800C02CF4802CC7F831
:1059800000C007687B608368402B04D10768BA6059
:105990000268D16003E0036899600168CA603F2231
:1059A000A96A8A40B26001680A6842F016020A6079
:1059B00001684A6942F080024A61E96821B10168E0
:1059C0000A6842F008020A600068016841F00101BB
:1059D000016001E02C7002242046F0BC704790F872
:1059E0003510022903D0802242650120704705212D
:1059F00080F83510006801684908490001600020FE
:105A000070472DE9FC41044604F134060020754935
:105A1000754B0090776A0A683D68A2FB03304FEA35
:105A20005038B06A082101FA00F005420ED0206813
:105A3000026853070AD5036823F004030360B06AC1
:105A40008140B960306A40F001003062B06A25FAE6
:105A500000F1C9070BD521684A69110607D5012154
:105A600001FA00F0B860306A40F0020030620421B0
:105A7000B06A01FA00F0054208D021680A6893076D
:105A800004D5B860306A40F0040030621021B06A7A
:105A900001FA00F005421BD021680A68130717D5E8
:105AA000B860206801684A0307D5006801030BD578
:105AB000716969B1204688470AE00168CA0503D4C4
:105AC000026822F008020260F16809B120468847A6
:105AD000B06A202101FA00F0054245D021680A6829
