:020000040800F2
:10000000104A0020B17F0008D57F0008D97F000882
:10001000DD7F0008E17F0008E57F000800000000A8
:10002000000000000000000000000000797A0008D5
:10003000E97F000800000000217A000865770008C9
:10004000ED7F0008F17F0008F57F0008F97F0008C8
:10005000FD7F0008018000089D7D0008A37D000849
:10006000A97D0008AF7D0008B57D00080580000867
:10007000098000080D800008BB7D00081180000881
:1000800015800008198000081D800008000000008D
:10009000000000000000000000000000C17D00081A
:1000A0002180000825800008E97D000829800008DB
:1000B0002D80000831800008358000083980000854
:1000C0003D80000841800008458000084980000804
:1000D0004D80000851800008558000080000000095
:1000E000598000085D800008618000080000000061
:1000F0000000000000000000000000006580000813
:1001000000000000698000086D8000087180000810
:1001100000000000000000000000000000000000DF
:1001200075800008798000087D80000881800008C3
:10013000FB7D00080000000000000000000000003F
:1001400000000000000000000000000085800008A2
:10015000017E0008898000088D800008077E000865
:100160009180000895800008000000000000000059
:10017000000000000000000000000000000000007F
:10018000000000009980000800000000000000004E
:100190009D800008A18000080068DFF8401B8842AD
:1001A0000DD1DFF8100D016881614168C16181687E
:1001B0000162C1684162016981624169C16270473F
:1001C0002DE9F84F9EB002F069FD00F069FB00F0E8
:1001D00083FC002000900024DFF8DC0C016841F46F
:1001E000800101600025026802F480020092002272
:1001F000009900920521036843F400130360002670
:10020000006800F40010009000980E2002F06DFDD0
:100210000E2002F093FD002205213C2002F065FD36
:100220003C2002F08BFD00220521442002F05DFD00
:10023000442002F083FD00F0E2FB0FF2CC5003A952
:10024000D0E90023CDE90123002071C131C1DFF8DD
:100250006C4C04F1AC05A865E8654FF080414FF4A3
:1002600096502866696504F5807000906E6602F00D
:10027000B4FD00B1FEE70190029601A9009803F0D9
:1002800004F800B1FEE760200390049605960796F7
:100290000022009803A902F090FE00B1FEE700984A
:1002A000082203A902F089FE00B1FEE7009803F0DE
:1002B000AAFADFF80C0CA06526666666E666266775
:1002C0006667A667DFF8FC0BE0654FF48040A06628
:1002D00004F1580003F0B8FB00B1FEE700F02BFB7F
:1002E00004F50F76DFF8E00BF06204F51A7004F005
:1002F00058F800B1FEE7DFF8D40BDFF8D41B01613A
:100300004FF4E131416100218161C16101620C2141
:10031000416200218162C162103004F055F800B1E1
:10032000FEE70FF2EC40DFF8AC8BD0E90023CDE91B
:10033000012303A90020002784468646A1E88150B6
:10034000A1E881105F2004F59E7744F6206978606B
:10035000C7F808C0C7F810C0C7F80080C7F80C90ED
:10036000384602F03AFD00B1FEE70021019002910B
:10037000384601A902F089FF00B1FEE760200021A4
:100380000390049105910791002203A9384602F0D9
:1003900014FE00B1FEE7042203A9384602F00DFE68
:1003A00000B1FEE7082203A9384602F006FE00B1BC
:1003B000FEE70C2203A9384602F0FFFD00B1FEE77C
:1003C000384603F020FA0FF2504203ABD2E90001A5
:1003D000CDE901010022944696469246A3E80454D2
:1003E000A3E80450DFF8F00BF8633A647720B864B0
:1003F0007A64FA6404F5BC7A504602F0EEFC00B16F
:10040000FEE7002101900291504601A902F03DFF54
:1004100000B1FEE76020002103900491059107914F
:10042000042203A9504602F0C8FD00B1FEE7504681
:1004300003F0E9F90FF2E83203ABD2E90001CDE9AC
:1004400001010022944696469246A3E80454A3E88C
:1004500004505F2004F5DE7BF867CBF80490CBF8FE
:100460000020CBF8082004F5DA79DFF870ABC7F884
:1004700078A0484602F0B1FC00B1FEE700210190EF
:100480000291484601A902F000FF00B1FEE760209A
:1004900000210390049105910791002203A9484689
:1004A00002F08BFD00B1FEE7042203A9484602F0EA
:1004B00084FD00B1FEE7484603F0A5F9DFF8200B04
:1004C0002860DFF8000A68600020A860E8604FF448
:1004D0008040286100206861A861E86128622846A0
:1004E00003F0B2FA00B1FEE702A8002100220023C7
:1004F00000252EC00EC04FF41660CBF8400004F566
:10050000F870DFF8E45ACBF83810CBF83C10CBF891
:1005100044100190CBF8345002F05FFC00B1FEE7CC
:100520006020029000210391049106910422019819
:1005300002A902F042FD00B1FEE7019803F063F961
:10054000DFF8AC0ACBF870004FF47070CBF8740091
:100550000020CBF878004FF6FF70CBF87C0004F554
:100560000B7B00203060584602F0FCFB00B1FEE738
:10057000DFF8840A20604FF4827060600020A06081
:10058000E060206160614FF40070A0612020E061B4
:10059000002020626062A0620A20E062204604F02F
:1005A0009DF900B1FEE7DFF8584A0021204602F02D
:1005B00023FC0021204602F053FE0421204602F0D5
:1005C0001BFC0421204602F04BFE0821204602F0CD
:1005D00013FC0821204602F043FE0C21204602F0C5
:1005E0000BFC0C21204602F03BFE0098DFF8144A79
:1005F000002102F001FC0098002102F031FE009879
:10060000082102F0F9FB0098082102F029FE0021E0
:10061000384602F0F1FB0021384602F021FE0421A9
:10062000384602F0E9FB0421384602F019FE0821A1
:10063000384602F0E1FB0821384602F011FE0C2199
:10064000384602F0D9FB0C21384602F009FE0021A1
:10065000484602F0D1FB0021484602F001FE042189
:10066000484602F0C9FB0421484602F0F9FD019812
:10067000DFF89479042102F0BFFB0198042102F015
:10068000EFFD584602F07DFBDFF880090021016094
:1006900041608160C1604FF0804000224163C163CE
:1006A0004FF47A70C8F83400C8F83800C8F83C0035
:1006B000C8F84000CAF83400CAF83800A9634FF4FB
:1006C0000041DFF84C09DFF84C5904F066FB0122C9
:1006D0004FF40061204604F060FB00224FF400510B
:1006E000284604F05AFB01224FF48041284604F0CA
:1006F00054FB00224FF48061284604F04EFB012297
:100700004FF40061284604F048FB0022402138469F
:1007100004F043FB01228021384604F03EFB002216
:100720004FF40071384604F038FB01224FF4806129
:10073000384604F032FB00224FF48051204604F08A
:100740002CFB01224FF40051204604F026FB00222E
:100750001021384604F021FB00222021384604F005
:100760001CFB00221021284604F017FB0022202148
:10077000284604F012FB04F035FB04F050FB0FF2A6
:10078000A80191E8BC0019A8002180E8BC0004F091
:10079000F8FB0FF2A801706314A891E8BC0080E890
:1007A000BC00002104F0EDFB0FF2A401B0630FA820
:1007B00091E8BC0080E8BC00002104F0E2FB0FF2ED
:1007C000A401F0630AA891E8BC0080E8BC00002105
:1007D00004F0D7FB0FF2A001306405A891E8BC003B
:1007E00080E8BC00002104F0CCFB0FF2A001706493
:1007F000684691E8BC0080E8BC00002104F0C1FB21
:10080000B06404F0B9FBFEE7000000000000000047
:1008100000000000000000000000000000000000D8
:100820000000000000000000D47700084D10000810
:10083000FDFF00000000000080000000E0770008DD
:1008400059100008000000000000000080000000B7
:10085000EC770008091F00080200000000000000FB
:1008600080000000F877000811280008010000004F
:10087000000000008000000004780008172900082C
:10088000FEFF00000000000080000000107800085B
:100890003D2900080000000000000000800000006A
:1008A000F8B592B006A8302104F08AFB01AC00250F
:1008B00000260027E0C460C4DFF85C0700950168EB
:1008C00041F0805101600121006800F080500090EB
:1008D0000098DFF848070095026842F44042026041
:1008E0004FF48032006800F4404000900098069178
:1008F00002204FF480010D910C90C0210F91042033
:100900000E90109008210792119106A804F05CFB4C
:1009100000B1FEE7022102910F204FF480510190B7
:10092000049103950595032101A804F0CBFC00B1C7
:10093000FEE713B0F0BD38B584B068460021002250
:100940000023002480E81E004FF48030DFF8D046FA
:10095000E24D6060A16001202061A0612162E1623E
:10096000E1602560DFF8BC06A0620620E06101209E
:1009700020636061204604F093FD00B1FEE7022091
:10098000009001210720019102906946204604F061
:1009900035FE00B1FEE703200221009001912046C0
:1009A000694604F02BFE00B1FEE70A200321009007
:1009B00001912046694604F021FE00B1FEE70B20BC
:1009C0000421009001912046694604F017FE00B111
:1009D000FEE70C200521009001912046694604F0B5
:1009E0000DFE00B1FEE70D2006210090019120468A
:1009F000694604F003FE00B1FEE705B030BDF8B56E
:100A00000FF2CC0090B0D0E90023CDE9002302A979
:100A1000002000240025002671C131C109AA00234D
:100A2000002784468646A2E88850A2E88810DFF8AE
:100A3000D045DFF8F405206063604FF49650E06025
:100A4000A36023616361204602F0C7F900B1FEE7AD
:100A5000009001956946204602F017FC00B1FEE7C0
:100A600060200290039504950595069507950895D5
:100A7000002202A9204602F0A0FA00B1FEE70422FB
:100A800002A9204602F099FA00B1FEE7082202A965
:100A9000204602F092FA00B1FEE70C2202A920469D
:100AA00002F08BFA00B1FEE74FF4005109900B9071
:100AB0000D900E910F900A950C9509A9204602F011
:100AC0000AFC00B1FEE7204602F09DFE11B0F0BD29
:100AD00000000000000000002DE9F04186B06846EB
:100AE0000021002200230EC006C0059146F63047C3
:100AF000DFF8C403DFF81C850168DFF80C45DFF878
:100B00001055DFF8006541F010010160026802F045
:100B100010020592002205990592036843F0040330
:100B20000360016801F004010591059905920368CD
:100B300043F080030360016801F08001059105998D
:100B40000592036843F001030360016801F00101AD
:100B5000059105990592036843F00203036001685B
:100B600001F002010591059905923946036843F0A9
:100B700008030360006800F00800059005984046EF
:100B800004F00BF900224FF4DE61204604F005F971
:100B900000224FF40041284604F0FFF800224FF4F1
:100BA0007841304604F0F9F80097012000210190C7
:100BB000029103914046694603F0A4FF4FF4DE60C2
:100BC0000090012100200191029003906946204687
:100BD00003F098FF4FF4C0700090002102200191B3
:100BE00002906946DFF8440403F08CFF4FF4E040C4
:100BF000009000210220019102906946284603F0EE
:100C000081FF4FF4004000900121002001910290EB
:100C100003906946284603F075FF4FF4707000900A
:100C2000DFF80C140191022002906946304603F06F
:100C300069FF4FF480600090002102200191029032
:100C40006946304603F05EFF4FF478400090012182
:100C500000200191029003906946304603F052FF54
:100C60003F2000900220DFF8CC13019102906946EA
:100C7000304603F047FF00220521062002F035F838
:100C8000062002F05BF800220521072002F02DF873
:100C9000072002F053F800220521082002F025F871
:100CA000082002F04BF800220521092002F01DF86F
:100CB000092002F043F8002205210A2002F015F86D
:100CC0000A2002F03BF800220521172002F00DF85F
:100CD000172002F033F806B0BDE8F0810020014093
:100CE00038B5012817D0022826D0042835D0082886
:100CF00044D0102852D020285FD040286CD08028C3
:100D000000F08580B0F5807F00F09C80B0F5007F1A
:100D100000F0B48031BD4FF48051DFF8F402DFF809
:100D2000184304F033F818B12188491C218031BDE3
:100D30002088421E228031BD4FF40051DFF8D002DE
:100D4000DFF8F44204F022F80028608802D0401C4A
:100D5000608031BD411E618031BD4FF48041DFF8BC
:100D6000B002DFF8D44204F011F80028A08802D0C5
:100D7000401CA08031BD411EA18031BD8021DFF823
:100D8000AC02DFF8B44204F001F80028E08802D099
:100D9000401CE08031BD411EE18031BD4FF48071C7
:100DA000A248A54C03F0F2FF0028208902D0401C85
:100DB000208131BD411E218131BD4FF480619148B8
:100DC0009D4C03F0E3FF0028608902D0401C608145
:100DD00031BD411E618131BD974C984D6069401C09
:100DE00060614021874803F0D1FF0028286801D0C6
:100DF000A06131BDE061A069E1698842E169A06953
:100E000024BF01F57F41FF31091A216231BD8A4CAF
:100E10008A4D606A401C606280217A4803F0B6FF08
:100E20000028286801D0A06231BDE062A06AE16AB2
:100E30008842E16AA06A24BF01F57F41FF31091AA7
:100E4000216331BD7C4C7D4D606B401C60634FF471
:100E500080716C4803F09AFF0028286801D0A063D5
:100E600031BDE063A06BE16B8842E16BA06B24BFF6
:100E700001F57F41FF31091A216431BD6E4C6F4D80
:100E8000606C401C60644FF400715E4803F07EFFAC
:100E90000028286801D0A06431BDE064A06CE16C3A
:100EA0008842E16CA06C24BF01F57F41FF31091A33
:100EB000216531BD9845002030380240783E002041
:100EC00000540040A086010000300240544300203E
:100ED000001401400004004010B52DED028BB0EE6F
:100EE000408A10EE900A04F0F1FC554A554B04F08C
:100EF00011FD0022544B04F0DFFD04F001FF00EE71
:100F0000100AB5EE400AF1EE10FADFED360A10DBFA
:100F1000B4EE600AF1EE10FA0BD5474CF0EE000A81
:100F200084ED1E8A20EE200A05F00AF828EE400A19
:100F30004CE0B4EE600AF1EE10FA9FED2C1A12DBD1
:100F4000B4EE410AF1EE10FA0DD5F0EE000A20EEF3
:100F5000200A04F0F5FF384C28EE400A84ED1E0A02
:100F600084ED1F8A34E0B4EE410AF1EE10FADFEDB1
:100F7000210A12DBB4EE600AF1EE10FA0DD52E4C08
:100F8000F1EE480AC4ED1E0AF0EE000A20EE200A37
:100F900004F0D6FF28EE000A18E0B4EE600AF1EE85
:100FA00010FA15DB9FED151AB4EE410AF1EE10FAB6
:100FB0000ED5F0EE000A20EE200A04F0C1FF1E4C10
:100FC00028EE000A84ED1E0AB1EE480A84ED1F0ADD
:100FD000BDEC028B10BD000000080040000C00407A
:100FE000005C0040D00FC93F00400140D00F494095
:100FF00000440140DCCB964000500140D00FC94076
:1010000020450020000C0240000002403400014056
:1010100000040240000802404038024000700040D6
:10102000D84400200100000F0000014000100240E1
:101030000000311000001110D04200202444014073
:101040006E861BF0F92109400080664080B50120C2
:1010500003F0AFFFFBE700002DE9F84F2DED108BFB
:1010600086B0684600210022002380E80E00062298
:10107000DFF85C1EDFF8740EDFF8746EDFF874AE14
:10108000DFF8747E04F034FA4FF0000B9FEDB48B60
:101090009FEDB5BA9FEDB5FBDFEDB6BA9FEDB69B00
:1010A0009FEDB7AB9FEDB8CA3DE0706D04F00EFC4C
:1010B00041EC100B04F049FF53EC102B51EC180BD2
:1010C00004F028FCDFF8342EDFF81C3E04F0F4FCBA
:1010D00053EC182B04F040FF04F012FE306496ED40
:1010E0000F0AB4EE4B0AF1EE10FA05DB96ED0F0A8B
:1010F0003BEE400A86ED0F0A96ED100AB4EE4B0A5D
:10110000F1EE10FA05DB96ED100A3BEE400A86ED93
:10111000100A03A803F096FE0398306703A84168FD
:1011200071678068B0674FF48051DFF8984D2046B2
:1011300003F02CFE30704FF40051204603F026FEE1
:1011400070704FF48041204603F020FEB070802183
:10115000DFF8744D204603F019FEF0704FF48071F3
:10116000204603F013FE30714FF48061DFF85C0D10
:1011700003F00CFE70719FED85DBDAF80000B063C0
:101180009FED84EBB08A03F014FF386A04F0A0FFEF
:1011900053EC1D2B04F0BEFB04F0B2FDB0610BF16B
:1011A000010B386B04F094FF53EC1D2B04F0B2FBE1
:1011B00004F0A6FD3062386C04F08AFF53EC1D2B5E
:1011C00004F0A8FB04F09CFDB062386D04F080FFD1
:1011D00053EC1D2B04F09EFB04F092FD30639FED59
:1011E0006FDB96ED060A20EE0C0A10EE100A04F0F2
:1011F0006DFB0446F0690D4604F068FB53EC1A2BB6
:1012000004F088FB22462B4604F0A6FE04F078FD8D
:10121000F06196ED080A20EE0C0A10EE100A04F0B8
:1012200055FB0446706A0D4604F050FB53EC1A2B34
:1012300004F070FB22462B4604F08EFE04F060FDA5
:10124000706296ED0A0A20EE0C0A10EE100A04F005
:101250003DFB0446F06A0D4604F038FB53EC1A2BB4
:1012600004F058FB22462B4604F076FE04F048FDBD
:10127000F06296ED0C0A20EE0C0A10EE100A04F053
:1012800025FB0446706B0D4604F020FB53EC1A2B33
:1012900004F040FB22462B4604F05EFE04F030FDD5
:1012A0007063DFF82C4CA06904F012FF53EC1E2B86
:1012B00004F030FB53EC1D2B04F02CFB0022DFF874
:1012C000143C04F0F9FB04F01BFD786506F184057D
:1012D000E06904F0FDFE53EC1E2B04F01BFB53EC05
:1012E0001D2B04F017FB0022DFF8E83B04F0E4FBC1
:1012F00004F006FDB86547F6015C206ADFF8D81BEC
:10130000DFF8D83BB8814FF4B472606AF881A06A04
:101310003882E06A7882B7F80080F088A8EB000491
:1013200064453FDB03EB080EAEEB000095ED1B0AB6
:10133000748A00EE900AF8EEE00A20EE800A00EED1
:10134000904AF8EE600A80EE200AD6ED1F0A30EED1
:10135000200A86ED1F0A5043748A90FBF4F059E08E
:1013600000000000008066400000B443000000D090
:10137000CCCCE43F3333B33E0000000000408F404C
:10138000000000989999E93FCDCC4C3EC3F5285C0C
:101390008FC2C53F000000000000084000000000B0
:1013A000000024408C4295ED1B0A1CDA4FF6FF79B1
:1013B000C144A9EB000000EE900A748AF8EEE00A3E
:1013C00020EE800A00EE904AF8EE600A80EE200AD5
:1013D000D6ED1F0A30EE200A86ED1F0A5043748AAC
:1013E00090FBF4F016E000EE904A708AF8EEE00A06
:1013F00020EE800A00EE900AF8EE600A80EE200AE5
:10140000D6ED1F0A30EE200A86ED1F0A5443708A7B
:1014100094FBF0F000EE100AB8EEC00AD5ED0A0A0F
:1014200030EE200A85ED0A0A3089B7F802E0AEEB0B
:10143000000464451CDB9E44AEEB000095ED1B0AE6
:10144000748A00EE900AF8EEE00A20EE800A00EEC0
:10145000904AF8EE600A80EE200AD5ED000A30EEE0
:10146000200A85ED000A5043748A90FBF4F037E0BF
:101470008C4295ED1B0A1CDA4FF6FF79F144A9EB7B
:10148000000000EE900A748AF8EEE00A20EE800A6E
:1014900000EE904AF8EE600A80EE200AD5ED000AD0
:1014A00030EE200A85ED000A5043748A90FBF4F078
:1014B00016E000EE904A708AF8EEE00A20EE800A0C
:1014C00000EE900AF8EE600A80EE200AD5ED000AE0
:1014D00030EE200A85ED000A5443708A94FBF0F048
:1014E00000EE100AB8EEC00AD5ED0B0A30EE200A65
:1014F00085ED0B0A7089B7F804E0AEEB0004644593
:101500001CDB9E44AEEB000095ED1B0A748A00EED6
:10151000900AF8EEE00A20EE800A00EE904AF8EE1B
:10152000600A80EE200AD5ED020A30EE200A85ED31
:10153000020A5043748A90FBF4F037E08C4295ED38
:101540001B0A1CDA4FF6FF79F144A9EB000000EE0C
:10155000900A748AF8EEE00A20EE800A00EE904AC3
:10156000F8EE600A80EE200AD5ED020A30EE200A7D
:1015700085ED020A5043748A90FBF4F016E000EE09
:10158000904A708AF8EEE00A20EE800A00EE900A97
:10159000F8EE600A80EE200AD5ED020A30EE200A4D
:1015A00085ED020A5443708A94FBF0F000EE100AB5
:1015B000B8EEC00AD7ED170A30EE200A87ED170AF9
:1015C000B089B7F806E0AEEB000464451CDB9E442E
:1015D000AEEB000095ED1B0A748A00EE900AF8EE5F
:1015E000E00A20EE800A00EE904AF8EE600A80EEF3
:1015F000200AD5ED040A30EE200A85ED040A504396
:10160000748A90FBF4F037E08C4295ED1B0A1CDAEB
:101610004FF6FF79F144A9EB000000EE900A748ABE
:10162000F8EEE00A20EE800A00EE904AF8EE600A3A
:1016300080EE200AD5ED040A30EE200A85ED040A7A
:101640005043748A90FBF4F016E000EE904A708AE2
:10165000F8EEE00A20EE800A00EE900AF8EE600A4A
:1016600080EE200AD5ED040A30EE200A85ED040A4A
:101670005443708A94FBF0F000EE100AB8EEC00AF2
:10168000D5ED0C0A30EE200A85ED0C0AF089B7F88A
:1016900008E0AEEB000464451CDB9E44AEEB0000AA
:1016A00095ED1B0A748A00EE900AF8EEE00A20EE2F
:1016B000800A00EE904AF8EE600A80EE200AD5ED2E
:1016C000060A30EE200A85ED060A5043748A90FB24
:1016D000F4F037E08C4295ED1B0A1CDA4FF6FF79E7
:1016E000F144A9EB000000EE900A748AF8EEE00ADB
:1016F00020EE800A00EE904AF8EE600A80EE200AA2
:10170000D5ED060A30EE200A85ED060A5043748AAC
:1017100090FBF4F016E000EE904A708AF8EEE00AD2
:1017200020EE800A00EE900AF8EE600A80EE200AB1
:10173000D5ED060A30EE200A85ED060A5443708A7C
:1017400094FBF0F000EE100AB8EEC00AD5ED0D0AD9
:1017500030EE200A85ED0D0A308AB7F80AE0AEEBCC
:101760000004644519DB73441B1A95ED1B0A718A4A
:1017700000EE903AF8EEE00A20EE800A00EE901AB1
:10178000F8EE600A80EE200AD5ED080A30EE200A55
:1017900085ED080A5A43708A34E08C4295ED1B0AA5
:1017A0001BDA4FF6FF717144091A00EE901A738A22
:1017B000F8EEE00A20EE800A00EE903AF8EE600AB9
:1017C00080EE200AD5ED080A30EE200A85ED080AE1
:1017D0005143708A91FBF0F016E000EE904A708A57
:1017E000F8EEE00A20EE800A00EE900AF8EE600AB9
:1017F00080EE200AD5ED080A30EE200A85ED080AB1
:101800006243708A92FBF0F0D5ED0E0A00EE100AEA
:10181000B8EEC00A30EE200A85ED0E0A96ED1F0ADA
:10182000D6ED200A30EE600A10EE100A04F04EF8F1
:1018300053EC192B04F06EF80446B08A894604F084
:1018400047FC02460B462046494604F035F904F0B1
:1018500057FAE86395ED000AD5ED010A30EE600A0B
:1018600010EE100A04F032F853EC192B04F052F881
:101870000446B08A894604F02BFC02460B462046FB
:10188000494604F019F904F03BFA686495ED020A40
:10189000D5ED030A30EE600A10EE100A04F016F8D7
:1018A00053EC192B04F036F80446B08A894604F04C
:1018B0000FFC02460B462046494604F0FDF804F0B2
:1018C0001FFAE86495ED040AD5ED050A30EE600ACA
:1018D00010EE100A03F0FAFF53EC192B04F01AF87B
:1018E0000446B08A894604F0F3FB02460B462046C4
:1018F000494604F0E1F804F003FA686595ED060A3C
:10190000D5ED070A30EE600A10EE100A03F0DEFF94
:1019100053EC192B03F0FEFF0446B08A894604F00D
:10192000D7FB02460B462046494604F0C5F804F0B2
:10193000E7F9E86595ED080AD5ED090A30EE600A89
:1019400010EE100A03F0C2FF53EC192B03F0E2FF74
:101950000446B08A894604F0BBFB02460B4620468B
:10196000494604F0A9F804F0CBF9686695ED0F0A32
:1019700020EE2B0A10EE100A03F0A8FF0446386E82
:10198000894603F0A3FF53EC1F2B03F0C3FF22464D
:101990004B4604F0E1FA04F0B3F9386695ED110A0C
:1019A00020EE2B0A10EE100A03F090FF0446786E2A
:1019B000894603F08BFF53EC1F2B03F0ABFF22464D
:1019C0004B4604F0C9FA04F09BF9786695ED130ACA
:1019D00020EE2B0A10EE100A03F078FF0446B86ED2
:1019E000894603F073FF53EC1F2B03F093FF22464D
:1019F0004B4604F0B1FA04F083F9B86695ED150A88
:101A000020EE2B0A10EE100A03F060FF0446F86E79
:101A1000894603F05BFF53EC1F2B03F07BFF22464C
:101A20004B4604F099FA04F06BF9F86695ED170A45
:101A300020EE2B0A10EE100A03F048FF0446386F20
:101A4000894603F043FF53EC1F2B03F063FF22464C
:101A50004B4604F081FA04F053F9386795ED190A02
:101A600020EE2B0A10EE100A03F030FF0446786FC8
:101A7000894603F02BFF53EC1F2B03F04BFF22464C
:101A80004B4604F069FA04F03BF9786797ED180AC1
:101A9000D5ED1B0ADFF8741D80EE200A20EE0B0A3C
:101AA000F1EE080A80EE200A85ED100A97ED190A7A
:101AB000D5ED1B0A80EE200A20EE0B0AF1EE080A93
:101AC00080EE200A85ED120A97ED1A0AD5ED1B0A61
:101AD00080EE200A20EE0B0AF1EE080A80EE200AC2
:101AE00085ED140A97ED1B0AD5ED1B0A80EE200A3E
:101AF00020EE0B0AF1EE080A80EE200A85ED160AA8
:101B000097ED1C0AD5ED1B0A80EE200A20EE0B0A89
:101B1000F1EE080A80EE200A85ED180A97ED1D0AFD
:101B2000D5ED1B0A80EE200A20EE0B0AF1EE080A22
:101B300080EE200A85ED1A0AF06FC6F8800028684A
:101B40006860A868E86028696861A869E861286A2F
:101B50006862A6F8068078883081B8887081F88835
:101B6000B0813889F08178893082ABFB0110C008E0
:101B700000EB8002BBEB420016D1DAF800104FF602
:101B8000FE7081424FD2DFF8A84D0122102120467D
:101B900003F003F9DAF80000401CDAF80020904264
:101BA000FBD2002210213BE0022808D1DAF8001015
:101BB0004FF6FE70814236D2DFF8744D22E00428E1
:101BC00016D1DAF800104FF6FE7081422BD2DFF802
:101BD000644D01221021204603F0DFF8DAF80000FE
:101BE000401CDAF800209042FBD20022102117E0BE
:101BF000062818D1DAF800104FF6FE70814212D292
:101C0000DFF8304D01222021204603F0C6F8DAF833
:101C10000000401CDAF800209042FBD20022202174
:101C2000204603F0BAF81BF0030F7FF47CAA684645
:101C300003F0ECF80098B0659FEDA9DB0199F16520
:101C40000298306696ED160A20EE0C0A10EE100A85
:101C500003F03CFE0446706E0D4603F037FE53EC75
:101C60001A2B03F057FE22462B4604F075F904F0B8
:101C700047F8706696ED170A20EE0C0A10EE100A6F
:101C800003F024FE0446B06E0D4603F01FFE53EC35
:101C90001A2B03F03FFE22462B4604F05DF904F0B8
:101CA0002FF8B06696ED180A20EE0C0A10EE100A16
:101CB00003F00CFE0446F06E0D4603F007FE53ECF5
:101CC0001A2B03F027FE22462B4604F045F904F0B8
:101CD00017F8F06696ED190AD6ED190A96ED1A1A5C
:101CE000D6ED1A1A96ED1B2A20EE200A01EE210AE3
:101CF000D6ED1B0A02EE200A10EE100A03F0E6FDF4
:101D000041EC100B04F0F2F951EC100B03F0F8FF6A
:101D1000706496ED1A0AD6ED110A80EE200A86ED5F
:101D2000120A96ED120AD6ED120A20EE200A10EEE3
:101D3000100A03F0CBFD02460B4651EC1D0B04F0DC
:101D400057FA41EC100B04F0D1F951EC100B03F0F1
:101D5000D7FFF06496ED190AD6ED110A80EE200A3D
:101D600086ED140A96ED140AD6ED140A20EE200A28
:101D700010EE100A03F0AAFD02460B4651EC1D0BB3
:101D800004F036FA41EC100B04F0B0F951EC100BF2
:101D900003F0B6FF706596ED120AB5EE400AF1EE5B
:101DA00010FA18DDD6ED130AF06CF5EE400AF1EEEC
:101DB00010FA2EDD03F08AFD41EC100B04F0C5F89B
:101DC00053EC102B51EC180B03F0A4FD4B4A464B7F
:101DD00003F072FE31E096ED130AB5EE400AF1EE23
:101DE00010FA15DDF06C03F071FD41EC100B04F0FE
:101DF000ACF853EC102B51EC180B03F08BFD3F4A61
:101E0000394B03F059FE9FED3EDB53EC1D2B12E0E6
:101E1000F06C03F05BFD41EC100B04F096F853EC12
:101E2000102B51EC180B03F075FD344A2E4B03F0C8
:101E300043FE53EC182B04F08FF803F061FFF063BE
:101E400096ED140AB5EE400AF1EE10FA1ADDD6ED61
:101E5000150A706DF5EE400AF1EE10FA7FF726A92B
:101E600003F034FD41EC100B04F06FF853EC102B31
:101E700051EC180B03F04EFD204A1B4B03F01CFEE7
:101E8000FFF72AB996ED150AB5EE400AF1EE10FA01
:101E90007FF70BA9706D03F019FD41EC100B04F0F6
:101EA00054F853EC102B51EC180B03F033FD134A8C
:101EB0000D4B03F001FE9FED12DB53EC1D2BFFF7E2
:101EC00009B900000004024000100240000C02406A
:101ED0009845002000FEAF400083FFFF0100FFFF98
:101EE000000000000000F03FF9210940D844002024
:101EF0002C00002024440140D04200206E861BF0BC
:101F000000000000008076402DE9F84F2DED048B95
:101F100082B0DFF8DC6CDFF8DC0CDFF814AADFF845
:101F2000149ADFF8D4BCDFF8D45C01904FF49651DA
:101F300006F1840700919FED018B59E07B14AE47B9
:101F4000E17A843F00224FF48051584602F025FF89
:101F500001222EE000224FF40071504602F01DFFD6
:101F600001224FF48061504602F017FF97ED020AFC
:101F70000099DFF8C82CDFF8884CBDEEC00A10EEDF
:101F8000100A002848BF4042484380FB02325011EB
:101F900000EBD070206097ED020AB5EE400AF1EE3A
:101FA00010FACFDB01224FF48051584602F0F5FEC3
:101FB00000224FF40051584602F0EFFE97ED080A58
:101FC0000099DFF8782CBDEEC00A10EE100A002848
:101FD00048BF4042484380FB0232501100EBD070B2
:101FE000A0603068306170687061142002F0E1FF19
:101FF00095ED1E0AB1EE400A86ED020AE86FF06028
:1020000096ED040AD6ED020AB4EE600AF1EE10FA7B
:1020100013D596ED040AD6ED060A30EE200AD6ED69
:10202000020AB4EE600AF1EE10FA25D596ED040A24
:10203000D6ED060A30EE200A1BE096ED020AD6ED38
:10204000040AB4EE600AF1EE10FA17D596ED020A12
:10205000D6ED040A96ED061A70EEC10AB4EE600AD7
:10206000F1EE10FA08D596ED040AD6ED060A30EE28
:10207000600A86ED000A01E0B068306096ED050A5E
:10208000D6ED030AB4EE600AF1EE10FA13D596ED20
:10209000050AD6ED060A30EE200AD6ED030AB4EEA4
:1020A000600AF1EE10FA25D596ED050AD6ED060A7E
:1020B00030EE200A1BE096ED030AD6ED050AB4EED9
:1020C000600AF1EE10FA17D596ED030AD6ED050A6F
:1020D00096ED061A70EEC10AB4EE600AF1EE10FA3F
:1020E00008D596ED050AD6ED060A30EE600A86EDB3
:1020F000010A01E0F0687060F069306296ED000A54
:10210000D5ED180A30EE600A86ED070A96ED090A49
:10211000D6ED070A97ED0B1AD6ED0B1A30EE200A12
:10212000D6ED0C0A71EEE00A00EE810A86ED090A8E
:1021300096ED070AD6ED080A30EE600A86ED0A0A27
:1021400097ED0C0AD6ED070A97ED0D1AD6ED091A90
:1021500097ED0E2A20EE200A01EE210AD6ED0A0A9A
:1021600002EE200ABDEEC00AB8EEC00A86ED0B0AE8
:10217000F06A3063706BB06396ED000AD5ED190A12
:1021800030EE600A86ED0D0A96ED0F0AD6ED0D0AC7
:1021900097ED0B1AD6ED111A30EE200AD6ED120A81
:1021A00071EEE00A00EE810A86ED0F0A96ED0D0A47
:1021B000D6ED0E0A30EE600A86ED100A97ED0C0A95
:1021C000D6ED0D0A97ED0D1AD6ED0F1A97ED0E2AE2
:1021D00020EE200A01EE210AD6ED100A02EE200AB6
:1021E000BDEEC00AB8EEC00A86ED110A706CB0648C
:1021F00095ED200AD5ED170A30EE600A87ED0F0A3B
:10220000F06C306597ED0F0AD7ED100A20EE200A2A
:10221000D5ED1A0A30EE600A86ED130A96ED150A1E
:10222000D6ED130A97ED0B1AD6ED171A30EE200AE9
:10223000D6ED180A71EEE00A00EE810A86ED150A65
:1022400096ED130AD6ED140A30EE600A86ED160AF2
:1022500097ED0C0AD6ED130A97ED0D1AD6ED151A67
:1022600097ED0E2A20EE200A01EE210AD6ED160A7D
:1022700002EE200ABDEEC00AB8EEC00A86ED170ACB
:10228000F06D3066706EB06696ED010AD5ED1B0AF2
:1022900030EE600A86ED190A96ED1B0AD6ED190A92
:1022A00097ED0B1AD6ED1D1A30EE200AD6ED1E0A58
:1022B00071EEE00A00EE810A86ED1B0A96ED190A1E
:1022C000D6ED1A0A30EE600A86ED1C0A97ED0C0A6C
:1022D000D6ED190A97ED0D1AD6ED1B1A97ED0E2AB9
:1022E00020EE200A01EE210AD6ED1C0A02EE200A99
:1022F000BDEEC00AB8EEC00A86ED1D0A706FB06769
:10230000F06FC6F8800096ED010AD5ED1C0A30EE9C
:10231000600A86ED1F0A97ED000AD6ED1F0A97EDB9
:102320000B1AD7ED021A30EE200AD7ED030A71EE30
:10233000E00A00EE810A87ED000A96ED1F0AD6ED4D
:10234000200A30EE600A87ED010A97ED0C0AD6EDFF
:102350001F0A97ED0D1AD7ED001A97ED0E2A20EE01
:10236000200A01EE210AD7ED010A02EE200ABDEE95
:10237000C00AB8EEC00A87ED020AB868F86038698A
:10238000786196ED010AD5ED1D0A30EE600A87ED01
:10239000040A97ED060AD7ED040A97ED0B1AD7ED5C
:1023A000081A30EE200AD7ED090A71EEE00A00EEB5
:1023B000810A87ED060A97ED040AD7ED050A30EE8B
:1023C000600A87ED070A97ED0C0AD7ED040A97ED2E
:1023D0000D1AD7ED061A97ED0E2A20EE200A01EE0F
:1023E000210AD7ED070A02EE200ABDEEC00AB8EEB8
:1023F000C00A87ED080A386A7862306803F066FA26
:1024000021F00041DFF8FC27DFF8FC3703F062FF22
:1024100047D296ED099A706A03F058FA0446884646
:1024200019EE100A03F052FA53EC182B03F072FA6B
:1024300002460B462046414603F0DAFE03F060FCFC
:10244000706296ED0F9AF06B03F040FA04468846EE
:1024500019EE100A03F03AFA53EC182B03F05AFA6B
:1024600002460B462046414603F0C2FE03F048FCFC
:10247000F06396ED159A706D03F028FA04468846CD
:1024800019EE100A03F022FA53EC182B03F042FA6B
:1024900002460B462046414603F0AAFE03F030FCFC
:1024A0007065706803F012FA21F00041DFF85427DC
:1024B000DFF8543703F00EFF47D296ED1B9AF06E0B
:1024C00003F004FA0446884619EE100A03F0FEF9F8
:1024D00053EC182B03F01EFA02460B4620464146E9
:1024E00003F086FE03F00CFCF06697ED009A386866
:1024F00003F0ECF90446884619EE100A03F0E6F9F9
:1025000053EC182B03F006FA02460B4620464146D0
:1025100003F06EFE03F0F4FB386097ED069AB8699D
:1025200003F0D4F90446884619EE100A03F0CEF9F8
:1025300053EC182B03F0EEF902460B4620464146B9
:1025400003F056FE03F0DCFBB86197ED0A0AD7ED05
:102550000A0A96ED0B1AF1EE600AB4EE601AF1EE7B
:1025600010FA48BFB0EE601A06D4B4EE410AF1EE9C
:1025700010FA48BFB0EE401A86ED0B1A97ED0A0A22
:10258000D7ED0A0A96ED111AF1EE600AB4EE601A60
:10259000F1EE10FA48BFB0EE601A06D4B4EE410A6C
:1025A000F1EE10FA48BFB0EE401A86ED111A97ED21
:1025B0000A0AD7ED0A0A96ED171AF1EE600AB4EE90
:1025C000601AF1EE10FA48BFB0EE601A06D4B4EE0D
:1025D000410AF1EE10FA48BFB0EE401A86ED171A24
:1025E00097ED0A0AD7ED0A0A96ED1D1AF1EE600A78
:1025F000B4EE601AF1EE10FA48BFB0EE601A06D4DD
:10260000B4EE410AF1EE10FA48BFB0EE401A86ED82
:102610001D1A97ED0A0AD7ED0A0A97ED021AF1EE94
:10262000600AB4EE601AF1EE10FA48BFB0EE601A1C
:1026300006D4B4EE410AF1EE10FA48BFB0EE401AEB
:1026400087ED021A97ED0A0AD7ED0A0A97ED081AE4
:10265000F1EE600AB4EE601AF1EE10FA48BFB0EE87
:10266000601A06D4B4EE410AF1EE10FA48BFB0EE9B
:10267000401A87ED081A96ED0B0ADFF89005B5EEC3
:10268000400AF1EE10FA06DB01224FF4004102F09D
:1026900084FB002205E000224FF4004102F07DFBA4
:1026A00001224FF40061584602F077FB96ED0B0AC9
:1026B0000099DFF88825019CBDEEC00A10EE100AD3
:1026C000002848BF4042484380FB0232501100EBD3
:1026D000D070206096ED110AB5EE400AF1EE10FAC6
:1026E00007DB01224FF40051484602F056FB00225E
:1026F00006E000224FF40051484602F04EFB012252
:102700004FF48041484602F048FB96ED110A0099CB
:10271000DFF82825019CBDEEC00A10EE100A002843
:1027200048BF4042484380FB0232501100EBD0705A
:10273000606096ED170AB5EE400AF1EE10FA07DB7D
:1027400001224FF48061484602F027FB002206E098
:1027500000224FF48061484602F01FFB01224FF433
:102760000061484602F019FB96ED170A0099DFF860
:10277000CC24019CBDEEC00A10EE100A002848BF10
:102780004042484380FB0232501100EBD070A06001
:1027900096ED1D0AB5EE400AF1EE10FA06DB0122B5
:1027A0004021504602F0F9FA002205E000224021C3
:1027B000504602F0F2FA01228021504602F0EDFA72
:1027C00096ED1D0A0099DFF87424019CBDEEC00A45
:1027D00010EE100A002848BF4042484380FB0232F6
:1027E000501100EBD070E06097ED020AB5EE400AA0
:1027F000F1EE10FAFFF6AEAB01224FF40071504635
:1028000002F0CBFA0022FFF7ACBB0000CDCCCCCC61
:1028100070B540F2E934DFF8E453DFF8F4630522E1
:10282000314606F1100001F0FEFD3178FF2940D15C
:1028300070786528BCBFB178B5293ADA00EE100A85
:10284000B8EE400ADFED3C0A80EE200A86ED170A5A
:1028500000EE101AB8EE400AF0EE000A20EE200A50
:1028600086ED180AD6ED180A96ED170AFEF734FB26
:10287000F078B073B07BC10707D595ED200AF7EE6D
:10288000000A70EE200AC5ED200A400707D595ED35
:10289000200AFFEE000A70EE200AC5ED200A717BC7
:1028A00030793073884204D003F02CFD3065307BE2
:1028B000707303F027FD316D401A7065B06D716D56
:1028C00088423CBF706DB065706DA0421FD3002080
:1028D000F0653066D6ED180A96ED170AFEF7FCFA99
:1028E0000020B073B07BC10707D595ED200AF7EE45
:1028F000000A70EE200AC5ED200A400707D595EDC5
:10290000200AFFEE000A70EE200AC5ED200A14200E
:1029100002F04FFB83E710B5B74C4FF47A7002F02A
:1029200048FB4FF40041204602F03DFAF5E7000075
:10293000000002400008024000C026442DE9F84F84
:102940000FF208330FF2183BAC4EDFF8ACA22DEDBE
:102950000A8B196882B00022002003F03EFD0FF2BE
:10296000F02109680022012003F037FD0FF2E42076
:1029700001680022022003F030FD0FF2DC20016824
:102980000022032003F029FD0FF2D020016801226C
:10299000042003F022FD4FF000080027002400254A
:1029A0009FED9C8B9FED9DAADFED9DAAB3EE0EBA25
:1029B0009FED9C9BDFED9DBA9FED9DCAF5EE00CA91
:1029C0004FF0FF3915E0042D0AD14D4608E0022DE5
:1029D000F9D10FF2BC2001680022032003F0FDFCB6
:1029E0006D1C6DB203F0CEFC4FF48041504602F0F6
:1029F000DAF9962002F0DDFA4FF48041504602F0F9
:102A0000D2F9B0896428BCBFF18964291FDA308A01
:102A10006428BCBF718A642919DADBF80000002140
:102A200003F0EFFC0FF23C20824B0168A8FB03305F
:102A3000C00800EB4003A8EB83000022001D03F058
:102A4000CCFC002003F001FD08F1010805E00FF2C5
:102A500018200068002103F0D4FC0FF21020016858
:102A60000022002003F0B9FC6949496D40F2E930C9
:102A7000814214D3022F98BF0FF2F41004D9F81E2C
:102A8000032806D80FF2EC1001680022012003F0A1
:102A9000A4FC062F08BF4F467F1C7FB206E00FF252
:102AA000D81001680022012003F097FC96ED150A6A
:102AB00020EE2C0AB4EE4C0AF1EE10FA04DB0FF211
:102AC000BC10016800222EE0B4EE6B0AF1EE10FAA1
:102AD0002DDB10EE100A02F0F9FE53EC192B03F077
:102AE0003BFA03F00DF900EE100ADFED530A0FF286
:102AF000A4100068009080EE200AF7EE000A70EE45
:102B0000C00A60EE8B0AFDEEE00A10EE900A8DF826
:102B1000000020EE0B0ABDEEC00A10EE100A8DF880
:102B2000010000220099022003F057FC12E014B9C2
:102B30000FF24C1003E0022C07D10FF2481001688D
:102B40000022022003F049FC02E0042C08BF4C469E
:102B5000641C64B296ED160A20EE2C0AB4EE6A0AE2
:102B6000F1EE10FA07DB0FF22010016800220320BB
:102B700003F033FC36E7B4EE4A0AF1EE10FA2ADB32
:102B800010EE100A02F0A2FE53EC182B03F0E4F949
:102B900003F0B6F800EE100ADFED290A0FF2F80094
:102BA0000068009080EE200AF7EE000A70EEC00A7E
:102BB00060EE8B0AFDEEE00A10EE900A8DF8000040
:102BC00020EE0B0ABDEEC00A10EE100A8DF80100CF
:102BD00000220099CBE7002D7FF4F9AE0FF2AC0094
:102BE000F9E600681749884208BF03F06DBC7047DA
:102BF0002001002034000140000C0240D04200209F
:102C0000340000407B14AE47E17A843F0004024068
:102C100054430020E17A14AE47E1F2BF3E0A973FE9
:102C20003433B33F9A9999999999E9BFCDCC4C3FE8
:102C3000CDCC8C3FABAAAAAA9A99993E1F85EB519D
:102C4000AE47613E00480140FEE70000000A000078
:102C50000A0A0A000A0000000A0A000000000A002E
:102C60000000000000000A000A0000001E1E1E00F6
:102C700000001E000000000000001E00001E0000FA
:102C80001E00000000000000001E00001E000000EA
:102C900000000000000000000000000080B50B48AC
:102CA000016841F400710160026842F480620260D0
:102CB000016841F480710160032000F009F80020F0
:102CC00003F00AFC00F036FB002002BD003C02408D
:102CD0001F4A13684FF6FF0100020B4000F4E0604A
:102CE00018431C4908431060704738B4184B1C68DF
:102CF000C4F30223C3F10704052C28BF04241D1DBF
:102D0000072D34BF0023DB1E012505FA04F4641EE1
:102D10002140994005FA03F35B1E1A401143090153
:102D2000002807D50C4A00F00F00104400F8041CDE
:102D300031BC7047094A115431BC7047012200F080
:102D40001F01074BFFE78A40400943F820207047E6
:102D50000CED00E00000FA0518ED00E000E400E0F2
:102D600000E100E038B5040001D1012032BD04F1DA
:102D70003805687820B900212970204600F030FD20
:102D800021E0022180F8391001680A6842F001024E
:102D90000A6013E00068C16841F00101C160026887
:102DA00042F0010202600020704707D1D1F800C054
:102DB0004FEA5C0C4FEA4C0CC1F800C0012180F8CE
:102DC00039100020704702206870211D206800F033
:102DD00061F901206870002032BD38B5040001D1CE
:102DE000012032BD04F13805687820B9002129702E
:102DF000204600F05CFCE6E71CE00A0006D004294F
:102E000009D008290CD00C290FD013E00268D36830
:102E100043F002030DE00268D36843F0040308E0C6
:102E20000268D36843F0080303E00268D36843F004
:102E30001003D3600068012202FA01F1026A8A439A
:102E40000262026A11430162DFF81C10884205D158
:102E5000DFF818100A6842F400420A60016841F085
:102E60000101016000207047000001404400014062
:102E700010B50446206801698A0716D5C1688A071B
:102E800013D56FF00202026101212176806910F0F2
:102E9000030F204602D003F05FFB04E003F05DFB6C
:102EA000204603F05BFB00202076206801694A077A
:102EB00016D5C1684A0713D56FF0040202610221DA
:102EC0002176806910F4407F204602D003F044FB55
:102ED00004E003F042FB204603F040FB0020207694
:102EE000206801690A0716D5C1680A0713D56FF073
:102EF0000802026104212176C06910F0030F204608
:102F000002D003F029FB04E003F027FB204603F086
:102F100025FB0020207620680169CA0616D5C16805
:102F2000CA0613D56FF01002026108212176C0692C
:102F300010F4407F204602D003F00EFB04E003F0C3
:102F40000CFB204603F00AFB002020762068016974
:102F5000CA0708D5C168CA0705D56FF0010202612A
:102F60002046FFF73EFE206801690A0608D5C168C1
:102F70000A0605D56FF080020261204603F0EFFAE1
:102F8000206801694A0608D5C1684A0605D56FF070
:102F900040020261204603F0E3FA206801698A06D4
:102FA0000AD5C1688A0607D56FF020020261204663
:102FB000BDE8104003F0D5BA10BD70B5064606F165
:102FC00038040D462078012801D1022070BD01216E
:102FD00021700220607032B1042A18D0082A2BD048
:102FE0000C2A3DD050E03068294600F0B8F830682F
:102FF000816941F0080181613068816921F0040133
:10300000816131688A69286902438A613CE03068DD
:10301000294600F07CF83068816941F400618161E3
:103020003068816921F480618161306881692A6931
:1030300041EA0221816127E03068294600F0B5F8B5
:103040003068C16941F00801C1613068C16921F08F
:103050000401C1613168CA6928690243CA6113E089
:103060003068294600F0CAF83068C16941F400614F
:10307000C1613068C16921F48061C1613068C16992
:103080002A6941EA0221C161FFE701206070002046
:10309000207070BD18B46A4B0468984218BFB0F134
:1030A000804F07D0674A90421FBF674A9042674AE5
:1030B00090420ED14A6824F070041443984218BF1D
:1030C000B0F1804F11D05F4A90421CBF5E4A9042DF
:1030D0000BD05E4A90421CBF5D4A904205D05D4ACB
:1030E00090421CBF5C4A904203D1CA6824F44074E9
:1030F0001443046098428A68C2620A68826202D1FC
:103100000969564A11600122426111BC704770B4CE
:10311000026A4B4E22F010020262B042056A436816
:1031200084690A6824F4E64444EA02248A6825F0A3
:10313000200545EA02150DD1CA684E6925F08005C3
:1031400045EA02158A6923F44063164325F04005D9
:1031500043EA860343608461496881634BE030B48D
:10316000026A520852000262056A436884690A686A
:1031700024F0730414438A6825F002051543304A8D
:1031800090420BD123F44073CA6825F0080515431B
:103190004A6913438A6925F0040513434360846137
:1031A00049684163056230BC704770B4026A244EBE
:1031B00022F480720262056A4368C4690A6824F0D6
:1031C000730414438A6825F40075B04245EA022569
:1031D0000DD1CA684E6925F4006545EA02258A6961
:1031E00023F44053164325F4806543EA06134360F5
:1031F000C4614968C163056270BC704770B4026AFB
:103200000F4E22F480520262B042046A4268C369DF
:103210000D6823F4E64343EA05238D6824F4005443
:1032200044EA053404D14D6922F4804242EA851211
:103230004260C36149680164046270BC7047000069
:10324000000001400004004000080040000C004065
:10325000004001400044014000480140300001406E
:103260000068042202FA01F1026AFFE78A4302625F
:10327000026A11430162416C41F4004141640268F9
:1032800042F0010202600020704730B400F13803C0
:103290001A78012A08BF02201BD001241C700222C8
:1032A0005A700268546824F07004546004686568B9
:1032B0000A68154365600268946824F0800494608D
:1032C00002689468486804439460012058700020A4
:1032D000187030BC704730B490F83820012A08BF0D
:1032E000022024D0012380F83830CD688B684A68EA
:1032F0008C6925F440751D4325F4806515430B68E2
:103300000A69496925F400651D4325F48055154374
:1033100025F400550D4325F480452543026825F426
:1033200000452C435464002180F83810002030BC44
:103330007047000082B0002000900022DFF8A40651
:10334000416841F480414160416801F4804100914D
:10335000009900920F21036843F0805303600068D6
:1033600000F08050009000986FF0010002B0FFF76D
:10337000BCBC38B586B0044601A800210022002359
:103380000EC006C02168DFF86026914256D1DFF8F2
:103390005C06DFF85C5600930022416941F48071BD
:1033A0004161416901F480710091009900920368C4
:1033B00043F004030360016801F0040100910099E7
:1033C00000920F21036843F00103036003220068A9
:1033D00000F00100009000980191002003900292FB
:1033E00001A9DFF8100601F08DFB032000210C225B
:1033F00002900391019201A9DFF8FC0501F082FB24
:10340000DFF8F805286000206860A860E8604FF4E5
:10341000806028614FF4805068614FF48040A8615B
:103420004FF48070E861002028626862284603F04B
:1034300099F808B1FFF708FCA563AC6307B030BD8D
:1034400081B00068DFF8BC1588420CD10021DFF89C
:103450009C050091026842F480520260006800F40A
:1034600080500090009801B0704738B586B069462A
:103470000022002300241CC10CC10068DFF888254D
:10348000904233D1DFF86445DFF88055059312226E
:10349000216841F0020121604021206800F0020013
:1034A000059005980091012002900192042004905B
:1034B00003936946284601F025FB4FF40070009005
:1034C0001221012001910290032104200391049014
:1034D0006946284601F016FB00200590216941F459
:1034E00000112161206900F4001042E0DFF820158E
:1034F000884240D1DFF8F4440593216841F004018B
:1035000021604FF40071206800F0040005900598D8
:103510000593226842F0010222601222206800F026
:1035200001000590059800910120029003210420DC
:103530000391049001926946DFF8B80401F0E2FAC1
:103540004FF480700090122101200191029003211C
:103550000420039104906946DFF89C0401F0D2FA3C
:1035600000200590216941F400012161206900F4E7
:1035700000000590059807B030BD80B50068DFF801
:10358000881488420AD1DFF85C04016821F4001134
:1035900001604FF41071DFF8740413E0DFF8702459
:1035A000904213D1DFF83C04016821F4000101606E
:1035B0004FF40071DFF83C0401F070FB4FF48071B0
:1035C000DFF83404BDE8044001F068BB01BD38B544
:1035D00086B0044601A80021002200230EC006C0C8
:1035E0002168DFF8302491425FD1DFF80004DFF872
:1035F000285400930022416941F4801141614169DE
:1036000001F48011009100990092036843F01003C7
:103610000360016801F010010091009900920421FB
:10362000036843F0020303600222006800F0020016
:10363000009000980191002003900321062004913E
:103640000590029201A9DFF8D40301F05BFA022091
:10365000002102900391032006214FF48072049010
:103660000591019201A9DFF8A40301F04BFADFF8FC
:10367000B00328604FF0206068604020A860002000
:10368000E8604FF48060286100206861A861E8610B
:103690004FF40030286200206862284602F062FF82
:1036A00008B1FFF7D1FAA564AC6307B030BD38B5F7
:1036B0000446DFF870132068884216D1002000907D
:1036C0000022DFF82003416841F001014160002140
:1036D000406800F00100009000981A20FFF705FBF9
:1036E000BDE832401A20FFF729BBB0F1804F0BD163
:1036F00000200090DFF8EC02016841F00101016058
:10370000006800F0010068E0DFF81C1388420BD16C
:1037100000200090DFF8CC02016841F00201016056
:10372000006800F0020058E0DFF80013884238D14A
:1037300000200090DFF8F852DFF8A802016841F09D
:10374000040101600068DFF8EC1200F00400009052
:10375000009829604020A8604FF080610020E86058
:1037600069604FF4806028614FF4006068614FF435
:103770000050A8610020E8614FF400302862042066
:1037800068620320A8624FF40000E862002028630A
:10379000284602F0E7FE08B1FFF756FA6562AC630F
:1037A00031BDDFF8941288420AD1002000908D4884
:1037B000016841F008010160006800F008000CE0B9
:1037C0009E4988420BD1002000908648416841F410
:1037D00080314160406800F480300090009831BD35
:1037E00081B00068964988420BD10021844800913D
:1037F000026842F400320260006800F40030009079
:10380000009801B0704710B586B0694600220023C9
:1038100000241CC10CC10068824A904213D1734835
:1038200005930222016841F0100101604FF4D44178
:10383000006800F010000590059800910192029335
:10384000039301208DE0B0F1804F2DD1674805939F
:10385000026842F0020202600222016801F00201E5
:103860000591059905934FF48061036843F00103C6
:103870000360006800F001000590059800910120A8
:1038800004900192029403946946604801F03AF969
:103890004FF4004000900221012001910490029415
:1038A0000394694654485FE05F49884214D14F4809
:1038B00005930222016841F0020101603321006892
:1038C00000F0020005900598504800910192029383
:1038D00003930492694647E05449884214D143480F
:1038E00005930222016841F0020101608021006815
:1038F00000F002000590059844480091019202935F
:103900000392049269462FE04B49884214D137480C
:1039100005930222016841F0010101600321006862
:1039200000F0010005900598334800910192029340
:1039300003930492694617E04049884216D12B4808
:1039400005930222016841F01001016040210068E6
:1039500000F01000059005980091019202930393E6
:103960000320049069462D4801F0CCF806B010BD44
:1039700010B586B001A90022002300241CC10CC18F
:103980000068304A90422AD11848009302224169C7
:1039900041F020014161416901F02001009100994D
:1039A0000093C021036843F004030360006800F043
:1039B0000400009000980191012003900321082049
:1039C00004910590029201A90A4801F09BF8002297
:1039D00005214720FFF789F94720FFF7AFF906B027
:1039E00010BD000040380240002001403038024045
:1039F000B84300200008024000000240706402400A
:103A000044380240003002400054004000040240AC
:103A1000005C0040005001401844002000100240AB
:103A2000886402400000014000040040000800409B
:103A30007844002058600240000C004000400140E3
:103A40000044014000140140F8B5040001D10120F8
:103A5000F2BD04F13C05687820B9002129702046A8
:103A6000FFF703FD242068702068016849084900B9
:103A7000016001F0AFFC0146DFF8EC20DFF8EC302C
:103A8000A1FB0220C20C206842606068984208D303
:103A90004FF4967010FB02F2DFF8D470A2FB0776A9
:103AA000720A2068521C026266689E4208D2760042
:103AB000B1FBF6F0C0F30B01042913D2042011E08E
:103AC000A06820B906EB4606B1FBF6F005E0192226
:103AD0005643B1FBF6F040F4804001050CBF0120D5
:103AE00040F400402168C861E269206A024320680E
:103AF00002602169E0680143206881606169A06912
:103B000001432068C1602068016841F00101016043
:103B1000002068602020687000202063A870F2BD3B
:103B200038B5040001D1012032BD04F13C05242048
:103B30006870206801684908490001602046FFF765
:103B40001CFD0020686068702063A870287032BD7A
:103B50000320BDE8F6870120BDE8F6870120BDE817
:103B6000F2830320BDE8F28306BD3786A1860100FB
:103B7000986E12832DE9FC470646884691469A4680
:103B800002F0C0FB06F13C070546787820280FD1EB
:103B9000306881698A0754D502F0B4FB401B1A28AB
:103BA000F6D300203063202078700020B870387081
:103BB000F8E17868042803D100213970FFF7CBBF02
:103BC00000203870FFF7C4BF716A4A1C726209781E
:103BD0000161308D411E3185708D411E7185308DA2
:103BE000002877D0306841690A0660D441694A05E7
:103BF00013D56FF480624261042078600020306346
:103C0000202078700020387078680428DAD1306875
:103C1000016841F400710160D0E714F1010FE1D0B7
:103C200024B102F06FFB401B8442DBD2786840F085
:103C30002000786000213163202078703970E3E73C
:103C40005CE039780129B3D001223A700268D107CB
:103C500003D4016841F0010101604146D6F800E05B
:103C60000C9C0B98DDF828C0DEF8008028F4006872
:103C7000CEF800804FF0210E87F801E053464FF058
:103C8000400E87F802E04A464FF0000EC7F804E005
:103C9000C6F824C070851848F062708D3085019593
:103CA0000094304600F08AF9002898D081E7716AC4
:103CB0004A1C726209780161308D411E3185708D18
:103CC000421E728530684269530788D589B200293F
:103CD0007FF47AAF2A462146304600F003FB0028E5
:103CE000AED0786804287FF46DAF3068016841F485
:103CF0000071016062E700000000FFFF30680168AA
:103D000041F400710160202078700020B870387094
:103D1000BDE8F6872DE9FC470646884691469A4657
:103D200002F0F0FA06F13C0705467878202810D119
:103D3000306881698A0740F1AA8002F0E3FA401BEB
:103D40001A28F5D300203063202078700020B87046
:103D5000387027E100203870FFF7FABE308D08B9BF
:103D6000009008E03168012810D1086820F48060D4
:103D700008600021009130684169009182690092D9
:103D80000099016841F40071016025E002280FD11B
:103D9000086820F4806008603068016841F40061C0
:103DA000016000200090306841690091806904E062
:103DB000002000904A6900928869009000990BE009
:103DC000706A411C716231680A690270308D411E4F
:103DD0003185708D411E7185308D002800F09680F0
:103DE000042837D201280BD12A462146304600F05C
:103DF000ABFA0028E4D078682028ADD0FFF7ABBE3E
:103E0000022840F08480306841694A0700F19380BD
:103E100014F1010FF7D024B102F074FA401B844270
:103E2000F1D200203063202078700020B87092E733
:103E300014F1010F00F0A0802CB102F063FA401BD6
:103E4000844280F099800020306320207870002028
:103E5000B87080E72A462146304600F075FA0028FF
:103E6000C9D1706A411C716231680A690270308D73
:103E7000411E3185708D411E7185306841694A0748
:103E8000AAD5716A4A1C7262006908709EE7397887
:103E900001293FF45EAF01223A700268D10703D4D2
:103EA000016841F0010101604146D6F800E00C9C38
:103EB0000B98DDF828C0DEF8008028F40068CEF802
:103EC00000804FF0220E87F801E053464FF0400E7D
:103ED00087F802E04A464FF0000EC7F804E0C6F843
:103EE00024C07085DFF8C800F062708D30850195C0
:103EF0000094304600F0E9F800283FF42FAF7868CE
:103F000004287FF427AF0021397077E7FBE630689B
:103F100041694A0720D414F1010FF8D024B102F00E
:103F2000F1F9401B8442F2D20020306320207870E7
:103F30000020B8700FE7016841F400710160706AF9
:103F4000411C716231680A690270308D411E3185F1
:103F5000708D411E718533E7016821F48061016035
:103F6000706A411C716231680A690270308D411EAD
:103F70003185708D411E7185306841694A077FF532
:103F800057AF026842F400720260706A411C7162AD
:103F900031680A690270308D411E3185708D411E75
:103FA00071850DE70220BDE8F68790F83D00704767
:103FB0000000FFFF41600020BDE8F2832DE9F843D7
:103FC00006463068089C099D0F46016841F48071DF
:103FD00091469846016030684169CA074CD414F193
:103FE000010FF8D024B102F08DF9401B8442F2D2C7
:103FF00000203063202106F13C00417000218170D7
:10400000017032E041694A0515D5026842F4007238
:1040100002606FF480603168486106F13C00042260
:10402000426000213163202141700021017041680C
:1040300004291AD117E014F1010F20D024B102F0A5
:1040400061F9401B84421AD20020306306F13C0023
:10405000E9E706F13C004168042906D130680268AE
:1040600042F400720260FFF779BDFFF77ABD306855
:104070005FFA89F707619EE707F0FE07076130687E
:1040800041698A07BED5002200922A464169009103
:104090008069009030460099214600F009F9002817
:1040A000D7D1B8F1010FE2D031684FEA1920086189
:1040B0002A462146304600F0FBF80028D7D006F10A
:1040C0003C0041680429D0D1C8E72DE9FE430646EB
:1040D00030680A9C0B9F0D46016841F480610160C5
:1040E00090463068026842F48072994602603068F7
:1040F0004169CA0700F1A08014F1010FF7D024B183
:1041000002F000F9C01B8442F1D20020306320216C
:1041100006F13C0041700021817001708AE0416924
:104120004A0515D5026842F4007202606FF480609F
:104130003168486106F13C0004224260002131638D
:1041400020214170002101704168042972D161E091
:1041500014F1010F73D024B102F0D4F8C01B8442D3
:104160006DD20020306306F13C00E9E706F13C0027
:10417000416804295ED13068026842F4007202602E
:1041800048E030685FFA88F101613A4621463046DE
:1041900000F08EF850B106F13C004168042949D185
:1041A0003068026842F40072026033E030680168EF
:1041B00041F48071016030684169CA076CD414F120
:1041C000010FF8D024B102F09DF8C01B8442F2D256
:1041D00000203063202106F13C00417000218170F5
:1041E000017027E041694A0516D5026842F4007261
:1041F00002606FF480603168486106F13C0004227F
:10420000426000213163202141700021017041682A
:1042100004290FD1012048E014F1010F40D024B14E
:1042200002F070F8C01B84423AD20020306306F1DD
:104230003C00E8E7032038E005F0FE01016130684A
:1042400041698A077FF56BAF002200923A464169C7
:1042500000918069009030460099214600F028F8CE
:10426000002883D1B9F1010F8BD031684FEA1820B3
:1042700008613A462146304600F01AF800283FF41B
:1042800080AF06F13C0041680429D3D13068026850
:1042900042F400720260BDE745F00105EDB2056130
:1042A000306841698A079DD5002003B0BDE8F083DE
:1042B000F8B506460C46174606F13C0530684169DC
:1042C0000A060DD441694A0500D530E014F1010F0A
:1042D000F4D024B102F016F8C01B8442EED21BE0E9
:1042E0000020F2BDF8B506460C46174606F13C051F
:1042F000306841694A070DD441694A0500D516E086
:1043000014F1010FF4D024B101F0FCFFC01B844272
:10431000EED201E00020F2BD686840F02000686045
:10432000002131632020687029700320F2BD6FF4F2
:104330008062426104206860002030632020687041
:10434000002028700120F2BD70B505460C461646C7
:10435000286841694A0622D44169CA0611D424B1A9
:1043600001F0D0FF801B8442F2D205F13C002022F4
:10437000416841F02001416042700021017003203A
:1043800070BD6FF01001416105F13C0000214160FA
:1043900029632021417000210170012070BD00209F
:1043A00070BD10B5040001D1012010BD607920B9A5
:1043B000002121712046FFF743F80220607101209F
:1043C0006071002010BD000038B5040001D101204B
:1043D00032BD04F13805687820B9002129702046E3
:1043E000FFF7C6FA242068702068C16821F40051E4
:1043F000C160204600F04AF92068016921F490412B
:1044000001612068416921F02A01FFE741612068CC
:10441000C16841F40051C1600020686020206870CC
:10442000A870002032BD30B400F138039C78202CF5
:104430001BD109B1140000D118E01C78012C14D054
:1044400001251D7081628285C2850021596022216B
:1044500099700021197001684A6942F001024A61AD
:104460000068C16841F4907106E002E030BC0120B0
:10447000704730BC02207047C160002030BC7047DC
:1044800038B5044625682968EA686B6911F00F00A1
:1044900007D1880660D590065ED52046BDE832403B
:1044A000AEE0D80702D412F4907F55D0C80705D5E6
:1044B000D00503D5E06B40F00100E063480705D567
:1044C000D80703D5E06B40F00200E063880705D50C
:1044D000D80703D5E06B40F00400E063080705D57A
:1044E000D80703D5E06B40F00800E063E06B0028DC
:1044F00071D0890604D5900644BF204600F080F8AC
:1045000020684069E16B0A0701D440061ED52046A9
:1045100000F062F8206841694A0612D5416921F02D
:1045200040014161606B60B10FF2C9010165606BD0
:1045300002F0D5F800284ED0606B016DBDE8344024
:1045400008472046BDE8324002F0D4B9204602F0C8
:10455000D1F90020E06331BD08062CD510062AD51C
:1045600094F83900212836D1A168206AB1F5805F1E
:104570000DD10188C1F308016960206918B9216A69
:10458000881C206207E0206A411C216203E0411C74
:10459000216200786860E08C401EE08480B2D0B96F
:1045A0002068C16821F08001C1602068C16841F0C5
:1045B0004001C16031BD48060DD550060BD5E868F5
:1045C00020F04000E860202184F839102046BDE842
:1045D000324002F090B931BD0168CA6822F490728D
:1045E000CA6001684A69520852004A61202180F875
:1045F0003A107047806B0021C185C18402F07AB9FE
:1046000080B590F83A1022293ED18268B2F5805FD9
:1046100014D1826A016941B903685968C1F308017C
:104620001180826A911C816218E001684B6803F076
:10463000FF031380816A4A1C82620FE0016900292E
:10464000816A04D14A1C82620268536805E04A1CF0
:1046500082620268536803F07F030B70C18D491EAC
:10466000C18589B271B90168CA6822F49072CA60C2
:1046700001684A69520852004A61202180F83A10C4
:1046800002F03AF9002002BD022002BD2DE9F047F8
:10469000044621680A69E06822F4405202430A6134
:1046A0008A48CA680240A0680243206902436069E0
:1046B0000243E0690243CA604A69A06922F4407279
:1046C00002434A618248E269B2F5004F40F09B80A4
:1046D00081421CBF7F4881424AD100F083FE0546DB
:1046E00000F080FE064600F07DFE074600F07AFEF0
:1046F000804600F077FE6168DFF8DCA1DFF8D8E1E2
:1047000019235F434900B7FBF1F75D435E43A7FB05
:104710000AA96422B5FBF1F5B6FBF1F64FEA991749
:10472000A5FB0EEC02FB17664FEA9C15F60032362D
:10473000DFF8A4C1A6FB0CC7BE09760006F4F87624
:1047400006EB051603FB08F74343B3FBF1F0B7FB99
:10475000F1F5614BA0FB0331880902FB1052D20036
:1047600032325D49A2FB0110800900F00700A7E08A
:1047700000F030FE054600F02DFE064600F02AFE51
:10478000074600F027FE804600F024FE6168DFF84F
:1047900048A1DFF844E119235F434900B7FBF1F773
:1047A0005D435E43A7FB0AA96422B5FBF1F5B6FBA6
:1047B000F1F64FEA9917A5FB0EEC02FB17664FEADC
:1047C0009C15F6003236DFF810C1A6FB0CC7BE09F7
:1047D000760006F4F87606EB051603FB08F743436C
:1047E000B3FBF1F0B7FBF1F53B4BA0FB03318809BC
:1047F00002FB1052D20032323749A2FB011080096D
:1048000000F007005CE081421CBF324881420ED1BB
:1048100000F0E8FD054600F0E5FD064600F0E2FD8B
:10482000074600F0DFFD804600F0DCFD0DE000F003
:10483000D1FD054600F0CEFD064600F0CBFD074653
:1048400000F0C8FD804600F0C5FD6168DFF888A073
:10485000DFF884E019235F438900B7FBF1F75D437C
:104860005E43A7FB0AA96422B5FBF1F5B6FBF1F69E
:104870004FEA9917A5FB0EEC02FB17664FEA9C1551
:1048800036013236DFF850C0A6FB0CC7BE0906F071
:10489000F00606EB051603FB08F74343B3FBF1F004
:1048A000B7FBF1F50C4BA0FB0331880902FB10525A
:1048B000120132320849A2FB0110800900F00F00FA
:1048C000226886199660BDE8F0870000F369FFFF53
:1048D00000100140001401403E0AD7A338B504007F
:1048E00001D1012032BD0020A06204F1500568789A
:1048F00020B9002129702046FEF769FE0220687069
:104900002068016821F0400101606268A068A16927
:104910000243E0680243206902436069024301F4F4
:104920000071E0690A430243206A0243A06A02431D
:1049300020680260A169606A090C01F0040101436A
:10494000206841602068C16921F40061C1610020D4
:10495000686001206870002032BD70B5064606F11F
:10496000500400252078012801D1022070BD0123C8
:1049700023706078012818BF022540D109B11000CA
:1049800001D101253BE00320607065603163B28690
:10499000F286B56375643564B587F587B068B0F5A0
:1049A000004F04D13068016841F480410160B16C6E
:1049B0000FF215100864B16C0FF24D00C863B16CB2
:1049C0000FF20D10C864B16C0D65F38E3068316B59
:1049D00000F10C02B06C01F03BFE306801684A0641
:1049E00003D4026842F0400202603068416841F03E
:1049F000200141603068416841F0020141600020BF
:104A00002070284670BD00007CB50646B46B01F0EE
:104A100079FC054630680168CA0552D420684168AF
:104A200021F00201416020688168080636D501F056
:104A300069FC401B6428F6D32068416821F0E0013E
:104A400041606068B0F5827F0BD1A068B0F5004F7F
:104A500018BFB0F5806F04D12068016821F04001D3
:104A60000160A06AB0F5005F0AD121680A684DF6BE
:104A7000FF7002400A602068016841F40051016043
:104A800004F150000122427000210170416841F0A0
:104A900020014160416841F020014160A06838B9BF
:104AA000002100912068C168009180680090009901
:104AB0000020E086012104F150004170406800B1FF
:104AC00016E0204619E00000806B01F016BF0000E0
:104AD000806B01684A68920892004A600122416D29
:104AE00041F01001416580F8512001F007BF00003E
:104AF0002046BDE8764001F001BFBDE8764001F0F8
:104B000007BC00002DE9F84F03460C464FF00008A3
:104B1000C146C246AA48AB490F22012505FA08FC46
:104B200025680CEA050EE64540F0AC806568022D6C
:104B300018BF122D10D14FEAD80503EB85050AF0F6
:104B40001C062F6A02FA06FB27EA0B07D4F810B0FE
:104B50000BFA06F63E432E6203251E68277905FAF6
:104B600009F5ED4307F003072E4007FA09F73E4326
:104B70001E606668012E18BF022E03D0112E18BFCA
:104B8000122E10D19E68E7682E4007FA09F73E43BF
:104B90009E605E6826EA0C076668C6F3001606FA91
:104BA00008F63E435E60DE683540A66806FA09F600
:104BB0003543DD606568ED0064D5002500954FEA5A
:104BC000980C0D6845F480450D600AF00C060D68E0
:104BD00005F48045009502FA06F7009D7A4D55F8D8
:104BE0002CB02BEA0707DFF8E4B15B4508BF4FF0B4
:104BF000000B1CD0DFF8D8B15B4508BF4FF0010BAC
:104C000015D0DFF8D0B15B4508BF4FF0020B0ED0D6
:104C1000DFF8C4B15B4508BF4FF0030B07D0DFF8E6
:104C2000BCB15B450CBF4FF0040B4FF0070B0BFA08
:104C300006F63E4345F82C606FEA0E0C0568666880
:104C40000CEA0505F70348BF4EEA0505056045680F
:104C500066680CEA0505B70348BF4EEA05054560DE
:104C6000856866680CEA0505F70248BF4EEA050547
:104C70008560C56866680CEA0505B60248BF4EEA5D
:104C80000505C56008F10108B8F10F0F0AF1040A23
:104C900009F102097FF641AFBDE8F18F2DE9F84F28
:104CA0000C464FF0000BDC464549474A00940F2361
:104CB0004FF001080546D946009808FA09FE0EEAA9
:104CC0000000704557D1032404FA0BF42E68E44326
:104CD00026402E600CF01C074FEAD90605EB86062D
:104CE00003FA07F7D6F820A02AEA07073762AE686A
:104CF0002640AE606E6826EA0E066E604FEA990E98
:104D0000EE683440EC600CF00C0452F82E7003FA9C
:104D100004F606EA070A2D4FBD4208BF002713D04C
:104D20002B4FBD4208BF01270ED02A4FBD4208BFFE
:104D3000022709D0284FBD4208BF032704D0274FC0
:104D4000BD420CBF0427072707FA04F4A24512D17D
:104D500052F82E4024EA060642F82E60C0430C6842
:104D600004400C604C6804404C608C6804408C60CB
:104D7000CC682040C86009F10109B9F10F0F0CF1AE
:104D8000040C0BF1020B97D9BDE8F18F00690140CB
:104D9000481E8041C043C00F704781B002B909046A
:104DA000816101B0704742695140416170470C4ACE
:104DB000136803421CBF1060FBF792BF70470000EE
:104DC000003C0140443802400838014000000240E5
:104DD0000004024000080240000C024000100240A3
:104DE000143C014038B5614D686880470124332880
:104DF0000AD15F4C256040F6470029688847216842
:104E00000A6A902090470024204632BD58490A681B
:104E100082B0916A09B102B0084702B0704780B50C
:104E2000942200213C2001F049FE802201213C20F7
:104E300001F044FEBDE808400022FFE702213C20CB
:104E400001F03CBE2DE9F041804601213C2001F0FB
:104E500036FE064604213C20464C01F030FE207010
:104E600003213C2001F02BFE607008213C2001F062
:104E700026FEA07007213C2001F021FEE0700621F3
:104E80003C2001F01CFE207105213C20002700255C
:104E900001F015FE06F0E006202E60710ED0402EC7
:104EA00011D0602E14D0802E17D0A02E1AD0C02E74
:104EB0001DD0E02E04BFE627CD251CE040F24C4774
:104EC0004FF4757517E040F257374FF43E7512E016
:104ED00040F29E274FF416750DE04FF4E1774FF442
:104EE000C87508E04FF4C87740F2631503E04FF44B
:104EF000A57740F227156178227802EB012212B2E1
:104F000000EE107A01EE102AB8EE400AB8EEC11A8F
:104F1000DFED150A81EE001A21EE201A88ED001A45
:104F2000E178A27802EB012212B201EE102AB8EE6B
:104F3000C11A81EE000A20EE200A88ED010A01EE76
:104F4000105A217901EB002000B200EE100AB8EEF1
:104F5000C00AB8EE411A80EE010A20EE200A88ED60
:104F6000020ABDE8F081000000007A440000002041
:104F700000460020F845002080B501F095FE002095
:104F800002BD00B583B00B46B0F908100022842999
:104F900018BFCA1C02A90092019101680269406809
:104FA00092B201F08DFD012814BF0020029803B0D9
:104FB00000BD80B500B9012001F055FE002002BD02
:104FC000002202F017B800002DE9FC41040019D0BE
:104FD0002078B84EC10740F1D080B06800F00C00D6
:104FE000042807D0B06800F00C0008280DD17068C4
:104FF00041020AD53168880340F1BF80606800280B
:1050000040F0BB800120BDE8F6816068B0F5803FCC
:1050100006D0B0F5A02F316807D141F4802131606E
:10502000306840F48030306006E021F48031316037
:10503000326822F480223260606870B101F062F957
:1050400005463168880300F1988001F05BF9401B48
:105050006528F6D30320BDE8F68101F053F9054633
:105060003068810340F1898001F04CF9401B6528CC
:10507000F6D3EFE701F046F9401B022840F2A98081
:10508000E8E7E0688C4970B101220A6001F03AF962
:1050900005463068810700F1C78001F033F9401BF5
:1050A0000228F6D9D6E7086001F02CF905463068E9
:1050B000810740F1818001F025F9401B0228F6D9D3
:1050C000C8E7086001F01EF90546706F810740F1DE
:1050D000848001F017F9401B0228F6D9BAE70528A9
:1050E000306F06D140F004003067306F40F00100AF
:1050F00005E0400840003067306F20F00400306762
:10510000A06870B101F0FEF8074641F28938306FAF
:10511000810700F1998001F0F5F8C01B4045F6D3F6
:1051200098E701F0EFF8074641F28938306F8107C0
:1051300040F18A8001F0E6F8C01B4045F6D389E7CC
:1051400001F0E0F8C01B022840F2948082E701F0F1
:10515000D9F8001B022840F2A5807BE700202866D2
:1051600001F0D0F804463068810140F19F8001F0E1
:10517000C9F8001B0228F6D96CE7207881071BD5F7
:10518000B06810F00C0F09D0B06800F00C000828CF
:105190007FF477AF706841023FF573AF31688807DD
:1051A00003D5E06801287FF42DAF3168206921F034
:1051B000F80141EAC0013160217808070DD5606926
:1051C0003E4900283FF47DAF01220A6001F09AF8C1
:1051D0000546706F81077FF54DAF2178480738D5B8
:1051E000306C0025C1000AD400950125306C40F0D8
:1051F00080503064306C00F0805000900098304F48
:105200003968C80518D4386840F48070386001F0F7
:1052100079F880463968C8050ED401F073F8A0EB20
:1052200008000228F6D915E73068216920F0F80057
:1052300040EAC1003060BFE7A06801287FF44FAFAB
:10524000306F40F001005AE71DB1306C20F0805003
:105250003064A06950B3B16801F00C0108293FF433
:10526000D1AE0228144D7FF479AF0020286601F0FA
:1052700049F80746306881013FF562AFE169206A6D
:10528000A26A0143606A520841EA8011521EE06A34
:1052900041EA024141EA006171600121296601F0A1
:1052A00031F80446306881017FF551AF0020BDE838
:1052B000F68100BF0038024000004742800E47429E
:1052C000007000402DE9F84304000F4600F07F8095
:1052D000574E306800F00F00B84205D23770316881
:1052E00001F00F01B94272D12068524D810712D5E9
:1052F000400703D5A86840F4E050A860217808076B
:1053000003D5A86840F46040A860A968A06821F0AF
:10531000F0010143A9602078C1074DD560680128DC
:1053200002D129688A0305E0022818BF032803D1A7
:1053300029688A0103D44AE02A68910747D5A968F9
:10534000890840EA8100A86041F2893900F0DAFF5B
:105350008046A868616800F00C00B0EB810F2BD08C
:1053600000F0D0FFA0EB08004845F2D30320BDE8D1
:10537000F2832078410705D5A968E06821F4E0515F
:105380000143A9602078010706D5A868216920F4A7
:10539000604040EAC100A86000F056F8AA682649BB
:1053A000C2F30312895C254AC8401060002001F056
:1053B00093F80020BDE8F283306800F00F008742C8
:1053C000D7D23770316801F00F01B942D1D0012036
:1053D000BDE8F28319481A4A006813681949C3F3F3
:1053E000822206E01548164A006813681549C3F37F
:1053F0004232895CC84070470F220260104A13682D
:1054000003F003034360D2F800C00CF0F00CC0F8C6
:1054100008C0136803F4E053C3601268D20802F4B2
:10542000E05202610248026802F00F020A6070470F
:10543000003C024000380240747E00085802002000
:1054400008380240CC7F000818B5124C606800F0A4
:105450000C00042802D0082802D019E00E4812BD22
:1054600000232268206841022068C0F388104CBFE6
:1054700009490A4902F03F02A1FB000101F0D4FDF5
:105480002168C1F30141491C4900B0FBF1F012BD94
:10549000024812BD0438024000127A000024F400D1
:1054A00070B5044600250CB9012070BD04F13C061E
:1054B000706820B9B56030702046FDF75AFF7068FB
:1054C000C10610D4706820F4885040F0020070606B
:1054D000204600F035F9B560706820F0020040F019
:1054E0000100706000E0012500203070284670BD8A
:1054F000F8B50446002004F13C0300901D78012D0E
:1055000001D10220F2BD0120187020688568EE07E5
:1055100015D48568DFF81C7345F001058560DFF858
:1055200018030568A5FB0776F60C06EB4606009601
:1055300002E00098401E009000980028F9D12568EC
:10554000A868C60758D55E68DFF8F002064046F442
:1055500080765E606868450505D5586820F400507F
:1055600040F4805058605868C50404D5986820F00D
:105570000600986001E000259D6000201870A36B74
:105580000FF2D120D863A36B0FF225301864A36B00
:105590000FF22530D8646FF022002568286020685B
:1055A000436843F0806343602068836843F48073FA
:1055B0008360134620680A4600F14C01A06B01F09D
:1055C00047F820689E490A6812F01F0F08D18168C9
:1055D00011F0405F10D1816841F0804181600BE0A3
:1055E000984A904202BF9848016811F0405F03D189
:1055F000026842F0804202600020F2BD78B40246A8
:105600000020009092F83C30012B08BF022000F0EF
:105610009580012082F83C0007240B6810680A2B53
:1056200012D30A3BC56803EB43039C4025EA0404FC
:10563000C460C3680D688C68A5F10A0606EB4606CF
:10564000B4402343C3600FE0056903EB430304FA4E
:1056500003F325EA0303036103690D688C6805EB16
:105660004505AC40234303611F244B68072B11D22F
:105670005B1E456B03EB83039C4025EA04044463F3
:10568000436B4D680C886E1E06EB8606B4402343C0
:10569000436325E00D2B11D2DB1F056B03EB830366
:1056A0009C4025EA04040463036B4D680C88EE1FDC
:1056B00006EB8606B4402343036311E00D3BC56A45
:1056C00003EB83039C4025EA0404C462C36A4D686B
:1056D0000C88A5F10D0606EB8606B4402343C36291
:1056E000584B984226D10868122804D154480368C0
:1056F00043F4800303600868544B984218BF112894
:1057000018D14F48046844F40004046008689842C3
:1057100010D14948474C0168A1FB0443DB0C03EB63
:1057200083056D00009502E00098401E00900098EF
:105730000028F9D1002182F83C10002072BC70478B
:105740003F4A116821F440311160136841680B43EE
:1057500013600268516821F48071516051680369D7
:1057600041EA03215160516821F040715160536852
:1057700081680B435360916821F4006191609368E4
:10578000C1680B439360816A314B994210D0936892
:1057900023F0706393609368816A0B439360916810
:1057A00021F0405191609368C16A0B43936007E018
:1057B000916821F070619160916821F04051916091
:1057C000916821F0020191609168836941EA430187
:1057D0009160016A69B1536843F400635360516892
:1057E00021F4604151605168436A5B1E41EA4331D4
:1057F00002E0516821F400615160D16A21F4700126
:10580000D162D16AC3695B1E41EA0351D1629168DA
:1058100021F4007191609168036B41EA432191602A
:10582000916821F4806191609168406941EA80212A
:105830009160704706BD378658020020FEF9FFFFD1
:105840000423014000200140082001401200001004
:105850000100000F816B0A6C12F0500F24D1086C0C
:1058600040F4007008640A68906810F0405F04BF5C
:105870008869002815D1D36A13F4700F02D090689C
:1058800043050ED4506820F020005060086C20F4CE
:1058900080700864086CC20403D4086C40F00100F6
:1058A00008640846FAF778BC896BCA6C1047000098
:1058B000806B01F0D0BC0000806B40210164416C22
:1058C00041F00401416401F0C7BC0000C0F3C751BE
:1058D00081B1FF2906D0C110400721F0E04101F15C
:1058E0006051704741020CBF40F4E0016FF000418D
:1058F0000020704700F0004100020AD0B0FA80FC9E
:1059000000FA0CF001F16051A1EB0C5101EBD02138
:1059100040057047B0B581EA030C0CF0004C40F232
:10592000FF7515EA11541DBF15EA1357AC42AF427B
:1059300039E0E41923EA455343F48013C90241F0E6
:10594000004141EA505EC7021100A7FB0202002895
:105950004FF00000EEFB01204FF00001E3FB0721B8
:1059600018BF42F00102401800214941E3FB0E013B
:10597000A4F580640F0302D252004041494154F122
:1059800001046CDD470872F1004250F1000051EB58
:105990000451A1F580115CBF41EA0C01B0BD4CEA95
:1059A00005510020B0BD05EA1357AC4214BFAF4209
:1059B00041E050EA410E1CBF52EA430E02E061464C
:1059C0000020B0BD24423C441BD15FEA070EF6D054
:1059D000090302BF01460020AEF1140EB1FA81F7AF
:1059E000AEEB070401FA07FE0C37C7F1200100FAFD
:1059F00007F7C8404EEA000E23EA455343F48013EC
:105A0000A2E733F00043B3FA83F704BFB2FA82FE91
:105A100077440B3FE41BB7F1200E2FBF02FA0EF3C1
:105A2000BB40C7F1200E22FA0EFE38BF43EA0E0338
:105A3000BA40641C82E750EA410E14BF52EA430E9A
:105A40006FF000014FF4001717EB430F8ABF1946A0
:105A500017EB410FB5E74CEA05510020B0BDD4F17A
:105A60000104B4F120070FDAC4F12007520828BF5F
:105A700042F0010210FA07F501FA07F7E1BF2A43E5
:105A8000E0403843E1400FE0352C98DCC7F12004BA
:105A900052EA400220FA07F218BF42F0010231FA3E
:105AA00007F0A1400A43002172F1004250F10000CA
:105AB00051EB0C01B0BD0000F0B540F2FF7581EA7A
:105AC000030C0CF0004C15EA11541DBF15EA1357D6
:105AD000AC42AF42E5E0BC41C1F31301C3F3130391
