:020000040800F2
:10000000404A002001840008258400082984000853
:100010002D840008318400083584000800000000A9
:10002000000000000000000000000000997E0008B1
:100030003984000800000000417E0008C97B0008E8
:100040003D84000841840008458400084984000874
:100050004D84000851840008998100089F810008A0
:10006000A5810008AB810008B18100085584000813
:10007000598400085D840008B78100086184000885
:1000800065840008698400086D8400080000000091
:10009000000000000000000000000000BD8100081A
:1000A0007184000875840008E581000879840008DF
:1000B0007D84000881840008858400088984000804
:1000C0008D840008918400089584000899840008B4
:1000D0009D840008A1840008A58400080000000099
:1000E000A9840008AD840008B18400080000000065
:1000F000000000000000000000000000B5840008BF
:1001000000000000B9840008BD840008C184000814
:1001100000000000000000000000000000000000DF
:10012000C5840008C9840008CD840008D184000873
:10013000F78100080000000000000000000000003F
:10014000000000000000000000000000D58400084E
:10015000FD810008D9840008DD84000803820008BE
:10016000E1840008E58400080000000000000000B1
:10017000000000000000000000000000000000007F
:1001800000000000E98400080000000000000000FA
:10019000ED840008F18400080068DFF86C1B8842D9
:1001A0000DD1DFF8540D016881614168C16181683A
:1001B0000162C1684162016981624169C16270473F
:1001C0002DE9F04FA3B002F089FF00F07FFB00F0B3
:1001D00099FC002000900024DFF8180D016841F41C
:1001E000800101600025026802F480020092002272
:1001F000009900920521036843F400130360002670
:10020000006800F40010009000980E2002F08DFFAE
:100210000E2002F0B3FF002205213C2002F085FFF2
:100220003C2002F0ABFF00220521442002F07DFFBC
:10023000442002F0A3FF00F0F8FB0FF2E45003A902
:10024000D0E90023CDE90123002071C131C1DFF8DD
:10025000AC4C04F1AC05A865E8654FF080414FF463
:1002600096502866696504F5807000906E6602F00D
:10027000D4FF00B1FEE70190029601A9009803F0B7
:1002800024FA00B1FEE760200390049605960796D5
:100290000022009803A903F0B0F800B1FEE700982F
:1002A000082203A903F0A9F800B1FEE7009803F0C3
:1002B000CAFCDFF84C0CA06526666666E666266713
:1002C0006667A667DFF83C0CE0654FF48040A066E7
:1002D00004F1580003F0D8FD00B1FEE700F041FB47
:1002E00004F50F76DFF8200CF06204F51A7004F0C4
:1002F00078FA00B1FEE7DFF8140CDFF8141C016196
:100300004FF4E131416100218161C16101620C2141
:10031000416200218162C162103004F075FA00B1BF
:10032000FEE70FF20450DFF8EC8BD0E90023CDE9B3
:10033000012303A90020002784468646A1E88150B6
:10034000A1E881105F2004F59E7744F6206978606B
:10035000C7F808C0C7F810C0C7F80080C7F80C90ED
:10036000384602F05AFF00B1FEE7002101900291E9
:10037000384601A903F0A9F900B1FEE76020002189
:100380000390049105910791002203A9384603F0D8
:1003900034F800B1FEE7042203A9384603F02DF833
:1003A00000B1FEE7082203A9384603F026F800B1A1
:1003B000FEE70C2203A9384603F01FF800B1FEE760
:1003C000384603F040FC0FF2684203ABD2E900016B
:1003D000CDE901010022944696469246A3E80454D2
:1003E000A3E80450DFF83C0CF8633A647720B86463
:1003F0007A64FA6404F5BC7A504602F00EFF00B14C
:10040000FEE7002101900291504601A903F05DF939
:1004100000B1FEE76020002103900491059107914F
:10042000042203A9504602F0E8FF00B1FEE750465F
:1004300003F009FC0FF2004203ABD2E90001CDE961
:1004400001010022944696469246A3E80454A3E88C
:1004500004505F2004F5DE7BF867CBF80490CBF8FE
:100460000020CBF8082004F5DA79DFF824ACC7F8CF
:1004700078A0484602F0D1FE00B1FEE700210190CD
:100480000291484601A903F020F900B1FEE760207F
:1004900000210390049105910791002203A9484689
:1004A00002F0ABFF00B1FEE7042203A9484602F0C8
:1004B000A4FF00B1FEE7484603F0C5FBDFF8D40B0C
:1004C0002860DFF8400A68600020A860E8604FF408
:1004D0008040286100206861A861E86128622846A0
:1004E00003F0D2FC00B1FEE702A8002100220023A5
:1004F00000252EC00EC04FF41660CBF8400004F566
:10050000F870DFF8945BCBF83810CBF83C10CBF8E0
:1005100044100190CBF8345002F07FFE00B1FEE7AA
:100520006020029000210391049106910422019819
:1005300002A902F062FF00B1FEE7019803F083FB1D
:10054000DFF85C0BCBF870004FF47070CBF87400E0
:100550000020CBF878004FF6FF70CBF87C0004F554
:100560000B7B00203060584602F01CFE00B1FEE715
:10057000DFF8340B20604FF4827060600020A060D0
:10058000E060206160614FF40070A0612020E061B4
:10059000002020626062A0620A20E062204604F02F
:1005A000BDFB00B1FEE7DFF8084B0021204602F05A
:1005B00043FE0021204603F073F80421204602F098
:1005C0003BFE0421204603F06BF80821204602F090
:1005D00033FE0821204603F063F80C21204602F088
:1005E0002BFE0C21204603F05BF80098DFF8C84A88
:1005F000002102F021FE0098002103F051F800983C
:10060000082102F019FE0098082103F049F80021A2
:10061000384602F011FE0021384603F041F804216B
:10062000384602F009FE0421384603F039F8082163
:10063000384602F001FE0821384603F031F80C215B
:10064000384602F0F9FD0C21384603F029F8002164
:10065000484602F0F1FD0021484603F021F804214C
:10066000484602F0E9FD0421484603F019F80198D4
:10067000DFF8487A042102F0DFFD0198042103F03D
:100680000FF8584602F09DFDDFF8340A00210160A2
:1006900041608160C1604FF0804000224163C163CE
:1006A0004FF47A70C8F83400C8F83800C8F83C0035
:1006B000C8F84000CAF83400CAF83800A9634FF4FB
:1006C0000041DFF8000ADFF8005A04F086FD01223D
:1006D0004FF40061204604F080FD00224FF40051E9
:1006E000284604F07AFD01224FF48041284604F0A8
:1006F00074FD00224FF48061284604F06EFD012253
:100700004FF40061284604F068FD0022402138467D
:1007100004F063FD01228021384604F05EFD0022D2
:100720004FF40071384604F058FD01224FF4806107
:10073000384604F052FD00224FF48051204604F068
:100740004CFD01224FF40051204604F046FD0022EA
:100750001021384604F041FD00222021384604F0E3
:100760003CFD00221021284604F037FD0022202104
:10077000284604F032FD04F055FD04F070FD0FF240
:10078000C00191E8BC001EA8002180E8BC0004F074
:1007900018FE0FF2C001706319A891E8BC0080E850
:1007A000BC00002104F00DFE0FF2BC01B06314A8E0
:1007B00091E8BC0080E8BC00002104F002FE0FF2CA
:1007C000BC01F0630FA891E8BC0080E8BC000021E8
:1007D00004F0F7FD0FF2B80130640AA891E8BC00FC
:1007E00080E8BC00002104F0ECFD0FF2B801706459
:1007F00005A891E8BC0080E8BC00002104F0E1FD00
:100800000FF2B401B064684691E8BC0080E8BC0017
:10081000002104F0D6FDF06404F0CEFDFEE70000F8
:1008200000000000000000000000000000000000C8
:1008300000000000000000000000000000000000B8
:10084000808200080D110008FDFF0000000000007C
:10085000800000008C8200081911000800000000D0
:100860000000000080000000988200089522000827
:10087000020000000000000080000000A4820008C8
:10088000B52B0008010000000000000080000000FF
:10089000B0820008592C0008FEFF00000000000094
:1008A00080000000BC820008812C000800000000CD
:1008B0000000000080000000C4820008512F0008E2
:1008C000000000000000000080000000F8B592B0B9
:1008D00006A8302104F094FD01AC00250026002775
:1008E000E0C460C4DFF8E4070095016841F080517E
:1008F00001600121006800F0805000900098DFF84E
:10090000D0070095026842F4404202604FF4803202
:10091000006800F4404000900098069102204FF4D7
:1009200080010D910C90C0210F9104200E90109029
:1009300008210792119106A804F066FD00B1FEE7B8
:10094000022102910F204FF48051019004910395F0
:100950000595032101A804F0D5FE00B1FEE713B010
:10096000F0BD38B584B06846002100220023002481
:1009700080E81E004FF48030DFF85847E24D606099
:10098000A16001202061A0612162E162E160256037
:10099000DFF84407A0620620E06101202063606167
:1009A000204604F09DFF00B1FEE7022000900121E7
:1009B0000720019102906946204605F03FF800B1FA
:1009C000FEE703200221009001912046694605F0D0
:1009D00035F800B1FEE70A2003210090019120467E
:1009E000694605F02BF800B1FEE70B2004210090CA
:1009F00001912046694605F021F800B1FEE70C2080
:100A00000521009001912046694605F017F800B1D4
:100A1000FEE70D200621009001912046694605F071
:100A20000DF800B1FEE705B030BDF8B50FF2CC000F
:100A300090B0D0E90023CDE9002302A900200024D2
:100A40000025002671C131C109AA00230027844670
:100A50008646A2E88850A2E88810DFF85446DFF8FE
:100A60007C06206063604FF49650E060A3602361D1
:100A70006361204602F0D1FB00B1FEE700900195D2
:100A80006946204602F021FE00B1FEE76020029098
:100A9000039504950595069507950895002202A9EA
:100AA000204602F0AAFC00B1FEE7042202A920467B
:100AB00002F0A3FC00B1FEE7082202A9204602F0E2
:100AC0009CFC00B1FEE70C2202A9204602F095FC36
:100AD00000B1FEE74FF4005109900B900D900E917C
:100AE0000F900A950C9509A9204602F014FE00B15A
:100AF000FEE7204603F0A7F811B0F0BD00000000AB
:100B0000000000002DE9F04186B068460021002277
:100B100000230EC006C0059146F63047DFF8D40327
:100B2000DFF8A4850168DFF89445DFF89855DFF811
:100B3000886541F010010160026802F01002059220
:100B4000002205990592036843F0040303600168DD
:100B500001F00401059105990592036843F08003B3
:100B60000360016801F08001059105990592036811
:100B700043F001030360016801F00101059105994B
:100B80000592036843F002030360016801F002016B
:100B90000591059905923946036843F008030360FF
:100BA000006800F0080005900598404604F015FB29
:100BB00000224FF4DE61204604F00FFB00224FF4C8
:100BC0000041284604F009FB00224FF478413046EA
:100BD00004F003FB00970120002101900291039192
:100BE0004046694604F0AEF94FF4DE600090012102
:100BF00000200191029003906946204604F0A2F97A
:100C00004FF4C070009000210220019102906946CB
:100C1000DFF8CC0404F096F94FF4E0400090002196
:100C20000220019102906946284604F08BF94FF4A6
:100C3000004000900121002001910290039069463C
:100C4000284604F07FF94FF470700090DFF8941498
:100C50000191022002906946304604F073F94FF486
:100C60008060009000210220019102906946304688
:100C700004F068F94FF478400090012100200191C0
:100C8000029003906946304604F05CF93F200090E2
:100C90000220DFF85414019102906946304604F0B6
:100CA00051F900220521062002F03FFA062002F049
:100CB00065FA00220521072002F037FA072002F02A
:100CC0005DFA00220521082002F02FFA082002F028
:100CD00055FA00220521092002F027FA092002F026
:100CE0004DFA002205210A2002F01FFA0A2002F024
:100CF00045FA00220521172002F017FA172002F00A
:100D00003DFA06B0BDE8F0810020014038B5012869
:100D100017D0022826D0042835D0082844D010281F
:100D200052D0202861D0402870D0802800F08C80DC
:100D3000B0F5807F00F0A480B0F5007F00F0BD80AA
:100D400031BD4FF48051DFF87C03DFF8A04304F09D
:100D50003DFA0028A08802D0401CA08031BD411E71
:100D6000A18031BD4FF40051DFF85803DFF87C4318
:100D700004F02CFA0028E08802D0401CE08031BD4D
:100D8000411EE18031BD4FF48041DFF83803DFF8C8
:100D90005C4304F01BFA0028208902D0401C20810B
:100DA00031BD411E218131BD8021DFF83403DFF8E0
:100DB0003C4304F00BFA0028608902D0401C60819B
:100DC00031BD411E618131BD4FF48071DFF81003E8
:100DD000DFF8184304F0FAF90028A08902D0401C7B
:100DE000A08131BD411EA18131BD4FF48061DFF88A
:100DF000C802DFF8F84204F0E9F90028E08902D0DF
:100E0000401CE08131BD411EE18131BDDFF8E0428F
:100E1000DFF8E0522068401C20604021A64804F022
:100E2000D5F90028286801D0606031BDA060AF49C5
:100E30006068A2689042A268606824BF02F57F42A1
:100E4000FF32121A4A6231BDA94CAA4DE068401C1B
:100E5000E0608021984804F0B9F90028286801D0A2
:100E6000206131BD6061A149206962699042626977
:100E7000206924BF02F57F42FF32121A8A6231BD17
:100E80009B4C9C4DA069401CA0614FF480718A4826
:100E900004F09CF90028286801D0E06131BD20628F
:100EA0009249E069226A9042226AE06924BF02F511
:100EB0007F42FF32121ACA6231BD8D4C8D4D606A7D
:100EC000401C60624FF400717B4804F07FF90028F9
:100ED000286801D0A06231BDE0628449A06AE26A5C
:100EE0009042E26AA06A24BF02F57F42FF32121AE2
:100EF0000A6331BD30380240984500205C3F002035
:100F000000540040A0860100003002402C00002068
:100F1000001401400004004080B52DED028BB0EEBE
:100F2000408A10EE900A04F0F1FE734A734B04F00D
:100F300011FF0022724B04F0DFFF05F001F900EE13
:100F4000100AB5EE400AF1EE10FADFED540A10DB9C
:100F5000B4EE600AF1EE10FA0BD56448F0EE000A28
:100F600080ED1B8A20EE200A05F00AFA28EE400ADE
:100F700033E0B4EE600AF1EE10FA9FED4A1A13DB8B
:100F8000B4EE410AF1EE10FA0ED5F0EE000A20EEB2
:100F9000200A05F0F5F955485A4928EE400A80ED37
:100FA0001B0A81ED008A39E0B4EE410AF1EE10FA35
:100FB000DFED3E0A15DBB4EE600AF1EE10FA10D553
:100FC0004A48F1EE480AC0ED1B0AF0EE000A20EE96
:100FD000200A05F0D5F928EE000A4A4880ED000AFB
:100FE0001CE0B4EE600AF1EE10FA16DB9FED311A48
:100FF000B4EE410AF1EE10FA0FD5F0EE000A20EE41
:10100000200A05F0BDF939483E4928EE000A80ED76
:101010001B0AB1EE480A81ED000A00BFBDEC028B4D
:1010200001BD000000080040C20781B02F4908D56B
:10103000354A92ED000AD1ED1E0A30EE800A81EDAC
:101040001E0A420708D5304A92ED000AD1ED1E0A69
:1010500030EEC00A81ED1E0A820708D52A4A92EDB9
:10106000000AD1ED1F0A30EE800A81ED1F0A020747
:1010700008D5254A92ED000AD1ED1F0A30EEC00ACC
:1010800081ED1F0A000900F00100C87001B070472F
:10109000000C0040005C004000400140D00FC93F00
:1010A00000440140D00F494000500140DCCB964045
:1010B00020450020D00FC940000C02400000024033
:1010C0003400014000040240000802404038024061
:1010D00000700040D84400200100000F00000140D3
:1010E0000010024000003110000011108C000020A0
:1010F000C8450020244401406E861BF0F9210940B8
:101100000080664030460020C802002080B50120E3
:1011100004F06FF9FBE700002DE9F84F2DED108B7F
:101120008CB006A800210022002380E80E000622D1
:10113000DFF83C1EDFF83C0EDFF83C6EDFF83C7E4B
:1011400004F0F6FBDFF8300EDFF8341E8430029036
:1011500000244FF05040CDE904019FED098B9FED35
:101160000ABADFED0ABA9FED0AFB9FED0B9B9FEDDC
:101170000CAB9FED02CA039453E000BFCDCC4C3EB4
:1011800000000000008066400000B4433333B33EEB
:101190000000000000408F4000000000008076400A
:1011A000000000989999E93F04F0B0FD41EC100B64
:1011B00005F0EBF853EC102B51EC180B04F0CAFDC2
:1011C000DFF8C02DDFF8C03D04F096FE53EC182B7D
:1011D00005F0E2F804F0B4FF306496ED0F0AB4EEC7
:1011E0004B0AF1EE10FA05DB96ED0F0A3BEE400AD2
:1011F00086ED0F0A96ED100AB4EE4B0AF1EE10FAE6
:1012000005DB96ED100A3BEE400A86ED100A09A8B0
:1012100004F038F80998306709A841687167806858
:10122000B0674FF48051DFF8644D204603F0CEFFE5
:1012300030704FF40051204603F0C8FF70704FF437
:101240008041204603F0C2FFB0708021DFF8404D9E
:10125000204603F0BBFFF0704FF48071204603F08E
:10126000B5FF30714FF48061DFF8280D03F0AEFF59
:1012700070719FED8EDBDFF8200D0068B063B08ADF
:1012800004F0B7F80398401C0390786A05F040F921
:1012900053EC1D2B04F05EFD04F052FFB061B86A00
:1012A00005F036F953EC1D2B04F054FD04F048FF13
:1012B0003062F86A05F02CF953EC1D2B04F04AFD5E
:1012C00004F03EFFB062386B05F022F953EC1D2BA1
:1012D00004F040FD04F034FF306396ED060AD6EDCD
:1012E000070AB4EE600AF1EE10FA0AD1388A401CFF
:1012F000388240F2E930398A814204DB4FF47A7057
:1013000000E00020388296ED080AD6ED090AB4EE16
:10131000600AF1EE10FA0AD1788A401C788240F215
:10132000E930798A814204DB4FF47A7000E00020D2
:10133000788296ED0A0AD6ED0B0AB4EE600AF1EE59
:1013400010FA0AD1B88A401CB88240F2E930B98A52
:10135000814204DB4FF47A7000E00020B88296ED01
:101360000C0AD6ED0D0AB4EE600AF1EE10FA0AD1BD
:10137000F88A401CF88240F2E930F98A814204DBA5
:101380004FF47A7000E00020F882B069F0619FEDC0
:1013900049EB306A70629FED49DBB06AF062306BF6
:1013A000706396ED060A20EE0C0A10EE100A04F0A7
:1013B000ADFC0446786B0D4604F0A8FC53EC1A2BE8
:1013C00004F0C8FC22462B4604F0E6FF04F0B8FE09
:1013D000786396ED080A20EE0C0A10EE100A04F06D
:1013E00095FC0446B86B0D4604F090FC53EC1A2BA8
:1013F00004F0B0FC22462B4604F0CEFF04F0A0FE21
:10140000B86396ED0A0A20EE0C0A10EE100A04F0FA
:101410007DFC0446F86B0D4604F078FC53EC1A2B67
:1014200004F098FC22462B4604F0B6FF04F088FE38
:10143000F86396ED0C0A20EE0C0A10EE100A04F088
:1014400065FC0446386C0D4604F060FC53EC1A2B26
:1014500004F080FC22462B4604F09EFF04F070FE50
:101460003864DFF80C4BA06905F052F853EC1E2BE2
:1014700004F070FC53EC1D2B04F06CFC0022DFF830
:10148000003E04F039FD04F05BFE7864E06905F08D
:101490003FF853EC1E2B04F05DFC53EC1D2B04F0C5
:1014A00059FC0022DFF8D83D0CE000BFC3F5285CF2
:1014B0008FC2C53F0000000000000840000000008F
:1014C0000000244004F018FD04F03AFEB86447F62A
:1014D0000152206A3883606A7883A06AB883E06A20
:1014E000F883B988F0880C1A944223DB029ADFF85B
:1014F000943D92ED1A0A728A5918081A0CEE900A55
:10150000F8EEEC0A20EE800A00EE902AF8EE600A6F
:1015100080EE200AD6ED1F0A30EE200A86ED1F0A63
:10152000758A0298806A04F0F1FB82468B461CEEB5
:10153000900A45E0DFF8502D944223DA029A92EDAA
:101540001A0A728A4FF6FF735918081A0CEE900A9D
:10155000F8EEEC0A20EE800A00EE902AF8EE600A1F
:1015600080EE200AD6ED1F0A30EE200A86ED1F0A13
:10157000758A0298806A04F0C9FB82468B461CEE8D
:10158000900A1DE0029890ED1A0A708A00EE904AC7
:10159000F8EEE00A20EE800A00EE900AF8EE600A0B
:1015A00080EE200AD6ED1F0A30EE200A86ED1F0AD3
:1015B000758A0298806A04F0A9FB82468B46204611
:1015C00004F0B4FF53EC192B04F0C4FB0446884626
:1015D000284604F09DFF02460B462046414604F093
:1015E0008BFC52465B4604F0D7FE04F0A9FD02993D
:1015F00088623089F9880C1A47F60152944224DB3C
:10160000029ADFF8803C92ED1A0A728A5918081A79
:101610000CEE900AF8EEEC0A20EE800A00EE902A1A
:101620000298F8EE600A80EE200AD0ED000A30EE53
:10163000200A80ED000A758A0298C06A04F066FBF1
:1016400082468B461CEE900A47E0DFF83C2C944221
:1016500024DA029A92ED1A0A728A4FF6FF73591829
:10166000081A0CEE900AF8EEEC0A20EE800A00EE62
:10167000902A0298F8EE600A80EE200AD0ED000A67
:1016800030EE200A80ED000A758A0298C06A04F0E4
:101690003DFB82468B461CEE900A1EE0029890EDC0
:1016A0001A0A708A00EE904AF8EEE00A20EE800AEC
:1016B00000EE900A0298F8EE600A80EE200AD0ED63
:1016C000000A30EE200A80ED000A758A0298C06A8E
:1016D00004F01CFB82468B46204604F027FF53ECA7
:1016E000192B04F037FB04468846284604F010FF07
:1016F00002460B462046414604F0FEFB52465B463E
:1017000004F04AFE04F01CFD0299C8627089398910
:101710000C1A47F60152944223DB029ADFF8643B2D
:1017200092ED1A0A728A5918081A0CEE900AF8EE0D
:10173000EC0A20EE800A00EE902A0298F8EE600A89
:1017400080EE200AD0ED020A30EE200A80ED020A77
:10175000758AF86C04F0DAFA82468B461CEE900A21
:1017600045E0DFF8242B944223DA029A92ED1A0A1C
:10177000728A4FF6FF735918081A0CEE900AF8EEA9
:10178000EC0A20EE800A00EE902A0298F8EE600A39
:1017900080EE200AD0ED020A30EE200A80ED020A27
:1017A000758AF86C04F0B2FA82468B461CEE900AF9
:1017B0001DE0029890ED1A0A708A00EE904AF8EE49
:1017C000E00A20EE800A00EE900A0298F8EE600A25
:1017D00080EE200AD0ED020A30EE200A80ED020AE7
:1017E000758AF86C04F092FA82468B46204604F023
:1017F0009DFE53EC192B04F0ADFA044688462846AA
:1018000004F086FE02460B462046414604F074FB77
:1018100052465B4604F0C0FD04F092FCF86447F6C3
:101820000154B08979890D1AA54225DB029ADFF8A7
:10183000543A92ED1A0A728A5918081A0CEE900A54
:10184000F8EEEC0A20EE800A00EE902A0298F8EEFC
:10185000600A80EE200AD0ED040A30EE200A80ED06
:10186000040AB6F812800298006B04F04FFA824620
:101870008B461CEE900A49E0DFF80C2A954225DAE7
:10188000029A92ED1A0A728A4FF6FF735918081AD3
:101890000CEE900AF8EEEC0A20EE800A00EE902A98
:1018A0000298F8EE600A80EE200AD0ED040A30EECD
:1018B000200A80ED040AB6F812800298006B04F04A
:1018C00025FA82468B461CEE900A1FE0029890EDA6
:1018D0001A0A708A00EE905AF8EEE00A20EE800AAA
:1018E00000EE900A0298F8EE600A80EE200AD0ED31
:1018F000040A30EE200A80ED040AB6F8128002983D
:10190000006B04F003FA82468B46284604F00EFE74
:1019100053EC192B04F01EFA05468946404604F0A4
:10192000F7FD02460B462846494604F0E5FA5246C2
:101930005B4604F031FD04F003FC02990863F08972
:10194000B9890D1AA54225DB029ADFF8383992EDE4
:101950001A0A728A5918081A0CEE900AF8EEEC0A64
:1019600020EE800A00EE902A0298F8EE600A80EEDF
:10197000200AD0ED060A30EE200A80ED060AB6F8FD
:1019800012800298406B04F0C1F982468B461CEE2F
:10199000900A49E0DFF8F028954225DA029A92EDA4
:1019A0001A0A728A4FF6FF735918081A0CEE900A39
:1019B000F8EEEC0A20EE800A00EE902A0298F8EE8B
:1019C000600A80EE200AD0ED060A30EE200A80ED93
:1019D000060AB6F812800298406B04F097F9824626
:1019E0008B461CEE900A1FE0029890ED1A0A708A4E
:1019F00000EE905AF8EEE00A20EE800A00EE900A1F
:101A00000298F8EE600A80EE200AD0ED060A30EE69
:101A1000200A80ED060AB6F812800298406B04F0A6
:101A200075F982468B46284604F080FD53EC192B4D
:101A300004F090F905468946404604F069FD0246E7
:101A40000B462846494604F057FA52465B4604F0D6
:101A5000A3FC04F075FB02994863318AFD89A5EB6C
:101A60000108A04523DB0298DFF8183890ED1A0A28
:101A7000708A5A19511A0CEE901AF8EEEC0A20EE00
:101A8000800A00EE900A0298F8EE600A80EE200AC2
:101A9000D0ED080A30EE200A80ED080A748A386D0D
:101AA00004F034F9CDE900011CEE900A42E0DFF8C1
:101AB000D8078045029890ED1A0A20DA4FF6FF7099
:101AC0004019401A0CEE900A738A0298F8EEEC0A5C
:101AD00020EE800A00EE903AF8EE600A80EE200ACE
:101AE000D0ED080A30EE200A80ED080A748A386DBD
:101AF00004F00CF9CDE900011CEE900A1AE000EEAA
:101B0000908A708AF8EEE00A20EE800A00EE900AD1
:101B10000298F8EE600A80EE200AD0ED080A30EE56
:101B2000200A80ED080A748A386D04F0EFF8CDE9D8
:101B30000001404604F0FAFC53EC192B04F00AF9BA
:101B400082468B46204604F0E3FC02460B46504694
:101B5000594604F0D1F9DDE9002304F01DFC04F03E
:101B6000EFFA386596ED1F0AD6ED200A30EE600ACE
:101B700010EE100A04F0CAF853EC1F2B04F0EAF838
:101B80000446B08A884604F0C3FC02460B46204651
:101B9000414604F0B1F904F0D3FA0299886302983F
:101BA00090ED000AD0ED010A30EE600A10EE100A46
:101BB00004F0ACF853EC1F2B04F0CCF80446B08AC8
:101BC000884604F0A5FC02460B462046414604F038
:101BD00093F904F0B5FA02990864029890ED020AAC
:101BE000D0ED030A30EE600A10EE100A04F08EF811
:101BF00053EC1F2B04F0AEF80446B08A884604F07C
:101C000087FC02460B462046414604F075F904F075
:101C100097FA02998864029890ED040AD0ED050ABB
:101C200030EE600A10EE100A04F070F853EC1F2B2F
:101C300004F090F80446B08A884604F069FC024635
:101C40000B462046414604F057F904F079FA029910
:101C50000865029890ED060AD0ED070A30EE600A9A
:101C600010EE100A04F052F853EC1F2B04F072F837
:101C70000446B08A884604F04BFC02460B462046D8
:101C8000414604F039F904F05BFA0299886502983C
:101C900090ED080AD0ED090A30EE600A10EE100A45
:101CA00004F034F853EC1F2B04F054F80446B08AC7
:101CB000884604F02DFC02460B462046414604F0BF
:101CC0001BF904F03DFA02990866029890ED0E0A9D
:101CD00020EE2B0A10EE100A04F018F80446786D76
:101CE000884604F013F8DDE9042304F033F82246B3
:101CF000434604F051FB04F023FA7865029890ED16
:101D0000100A20EE2B0A10EE100A03F0FFFF044623
:101D1000B86D884603F0FAFFDDE9042304F01AF8F1
:101D20002246434604F038FB04F00AFAB8650298EC
:101D300090ED120A20EE2B0A10EE100A03F0E6FFD7
:101D40000446F86D884603F0E1FFDDE9042304F062
:101D500001F82246434604F01FFB04F0F1F9F86550
:101D6000029890ED140A20EE2B0A10EE100A03F0F0
:101D7000CDFF0446386E884603F0C8FFDDE9042332
:101D800003F0E8FF2246434604F006FB04F0D8F9CE
:101D90003866029890ED160A20EE2B0A10EE100A13
:101DA00003F0B4FF0446786E884603F0AFFFDDE928
:101DB000042303F0CFFF2246434604F0EDFA04F07B
:101DC000BFF97866029890ED180A20EE2B0A10EE03
:101DD000100A03F09BFF0446B86E884603F096FF96
:101DE000DDE9042303F0B6FF2246434604F0D4FAAB
:101DF00004F0A6F9B86697ED150A0298D0ED1A0A14
:101E000080EE200A20EE0B0AF1EE080A80EE200A8E
:101E100080ED0F0A97ED160A0298D0ED1A0A80EEAF
:101E2000200A20EE0B0AF1EE080A80EE200A80ED6F
:101E3000110A97ED170A0298D0ED1A0A80EE200ACF
:101E400020EE0B0AF1EE080A80EE200A80ED130A5C
:101E500097ED180A0298DFF8FC3DD0ED1A0A80EEE3
:101E6000200A20EE0B0AF1EE080A80EE200A80ED2F
:101E7000150A97ED190A0298D0ED1A0A80EE200A89
:101E800020EE0B0AF1EE080A80EE200A80ED170A18
:101E900097ED1A0A0298D0ED1A0A80EE200A20EE79
:101EA0000B0AF1EE080A80EE200A80ED190AF06FA5
:101EB000C6F8800002980268426002988268C26098
:101EC00002980269426102988269C2610298026ABC
:101ED0004262B888F080F8883081388970817889CA
:101EE000B081B889F081358203980146A1FB0332A5
:101EF000D20802EB8204B0EB440015D126490968F0
:101F00004FF6FE70814265D2DFF8684D0122102144
:101F1000204603F062F920490868401C0A68904294
:101F2000FCD20022102152E0022808D11A49096887
:101F30004FF6FE7081424DD2DFF8384D39E004286B
:101F40002CD1154909684FF6FE70814242D2DFF864
:101F5000284D01221021204603F03FF90E49086860
:101F6000401C0A689042FCD2002210212FE000BFE2
:101F700098450020D84400200C0100208C0000204F
:101F8000CCCCE43F6E861BF0F921094000040240EE
:101F900000100240000C024024440140062819D1E0
:101FA000DFF8D81C09684FF6FE70814212D2DFF8C4
:101FB000C84C01222021204603F00FF9DFF8BC1C99
:101FC0000868401C0A689042FCD20022202120466A
:101FD00003F003F9039810F0030F7FF422A906A879
:101FE00003F034F90698B0659FEDA8DB06A84168B8
:101FF000F1658068306696ED160A20EE0C0A10EE48
:10200000100A03F083FE0446706E0D4603F07EFE58
:1020100053EC1A2B03F09EFE22462B4604F0BCF92B
:1020200004F08EF8706696ED170A20EE0C0A10EE9A
:10203000100A03F06BFE0446B06E0D4603F066FE18
:1020400053EC1A2B03F086FE22462B4604F0A4F92B
:1020500004F076F8B06696ED180A20EE0C0A10EE41
:10206000100A03F053FE0446F06E0D4603F04EFED8
:1020700053EC1A2B03F06EFE22462B4604F08CF92B
:1020800004F05EF8F06696ED190AD6ED190A96EDA1
:102090001A1AD6ED1A1A96ED1B2A20EE200A01EE26
:1020A000210AD6ED1B0A02EE200A10EE100A03F0F8
:1020B0002DFE41EC100B04F04BFA51EC100B04F028
:1020C0003FF8706496ED1A0AD6ED110A80EE200AE8
:1020D00086ED120A96ED120AD6ED120A20EE200ABB
:1020E00010EE100A03F012FE02460B4651EC1D0BD7
:1020F00004F0B0FA41EC100B04F02AFA51EC100B8A
:1021000004F01EF8F06496ED190AD6ED110A80EE7F
:10211000200A86ED140A96ED140AD6ED140A20EE74
:10212000200A10EE100A03F0F1FD02460B4651ECB6
:102130001D0B04F08FFA41EC100B04F009FA51EC7E
:10214000100B03F0FDFF706596ED120AB5EE400A24
:10215000F1EE10FA1ADDD6ED130AF06CF5EE400A36
:10216000F1EE10FA2FDD03F0D1FD41EC100B04F07D
:102170000CF953EC102B51EC180B03F0EBFDDFF8CE
:10218000A42DDFF8C43D03F0B7FE32E096ED130A4C
:10219000F06CB5EE400AF1EE10FA14DD03F0B6FD76
:1021A00041EC100B04F0F1F853EC102B51EC180B30
:1021B00003F0D0FDDFF86C2DDFF88C3D03F09CFEC2
:1021C00053EC192B13E003F0A1FD41EC100B04F0CC
:1021D000DCF853EC102B51EC180B03F0BBFDDFF8CF
:1021E000442DDFF8643D03F087FE53EC182B04F018
:1021F000D3F803F0A5FFF06396ED140AB5EE400A9C
:10220000F1EE10FA1CDDD6ED150A706DF5EE400A00
:10221000F1EE10FA7EF7C8AF03F078FD41EC100B39
:1022200004F0B3F853EC102B51EC180B03F092FDB3
:10223000DFF8F02CDFF8103D03F05EFEFEF7CABFBA
:1022400096ED150A706DB5EE400AF1EE10FA7EF7C4
:10225000ABAF03F05BFD41EC100B04F096F853ECD0
:10226000102B51EC180B03F075FDDFF8B82CDFF8DC
:10227000D83C03F041FE53EC192BFEF7A9BF000038
:1022800000FEAF400100FFFF0083FFFF00000000E1
:102290000000F03F2DE9F84F2DED048B82B0DFF800
:1022A000886DDFF8880DDFF8CCA9DFF8CC99DFF86E
:1022B00090BDDFF8908D01904FF4965106F18407A0
:1022C00000919FED408B55E000224FF4805158461D
:1022D00002F083FF01222EE000224FF400715046ED
:1022E00002F07BFF01224FF48061504602F075FF3F
:1022F00097ED020A0099DFF8502DDFF8504DBDEE42
:10230000C00A10EE100A002848BF4042484380FB34
:102310000232501100EBD070206097ED080AB5EE44
:10232000400AF1EE10FACFDB01224FF480515846FB
:1023300002F053FF00224FF40051584602F04DFFC7
:1023400097ED080A0099DFF8002DBDEEC00A10EEE7
:10235000100A002848BF4042484380FB0232501117
:1023600000EBD070A060306830617068706114203C
:1023700003F03FF898ED1B0ADFF8D80CB1EE400AE5
:1023800086ED020A0068F06096ED040AD6ED020AB6
:10239000B4EE600AF1EE10FA18D596ED040AD6ED07
:1023A000060A30EE200AD6ED020AB4EE600AF1EE1B
:1023B00010FA2AD596ED040AD6ED060A30EE200A68
:1023C00020E000BF7B14AE47E17A843F96ED020A1D
:1023D000D6ED040AB4EE600AF1EE10FA17D596EDC8
:1023E000020AD6ED040A96ED061A70EEC10AB4EEA2
:1023F000600AF1EE10FA08D596ED040AD6ED060A49
:1024000030EE600A86ED000A01E0B068306096EDBB
:10241000050AD6ED030AB4EE600AF1EE10FA13D500
:1024200096ED050AD6ED060A30EE200AD6ED030A2F
:10243000B4EE600AF1EE10FA25D596ED050AD6ED58
:10244000060A30EE200A1BE096ED030AD6ED050AD7
:10245000B4EE600AF1EE10FA17D596ED030AD6ED48
:10246000050A96ED061A70EEC10AB4EE600AF1EEA6
:1024700010FA08D596ED050AD6ED060A30EE600A88
:1024800086ED010A01E0F0687060F069306296ED57
:10249000000AD8ED150A30EE600A86ED070A96EDBF
:1024A000090AD6ED070A97ED0B1AD6ED0B1A30EE96
:1024B000200AD6ED0C0A71EEE00A00EE810A86EDE4
:1024C000090A96ED070AD6ED080A30EE600A86ED95
:1024D0000A0A97ED0C0AD6ED070A97ED0D1AD6ED0C
:1024E000091A97ED0E2A20EE200A01EE210AD6EDF8
:1024F0000A0A02EE200ABDEEC00AB8EEC00A86ED56
:102500000B0AF06A3063706BB06396ED000AD8ED89
:10251000160A30EE600A86ED0D0A96ED0F0AD6ED2A
:102520000D0A97ED0B1AD6ED111A30EE200AD6EDF2
:10253000120A71EEE00A00EE810A86ED0F0A96EDAE
:102540000D0AD6ED0E0A30EE600A86ED100A97ED00
:102550000C0AD6ED0D0A97ED0D1AD6ED0F1A97ED70
:102560000E2A20EE200A01EE210AD6ED100A02EE14
:10257000200ABDEEC00AB8EEC00A86ED110A706CE2
:10258000B06498ED1E0AD8ED130A30EE600A87EDAC
:102590000F0AF06C306597ED0F0AD7ED110A20EEA7
:1025A000200AD8ED170A30EE600A86ED130A96ED80
:1025B000150AD6ED130A97ED0B1AD6ED171A30EE61
:1025C000200AD6ED180A71EEE00A00EE810A86EDC7
:1025D000150A96ED130AD6ED140A30EE600A86ED60
:1025E000160A97ED0C0AD6ED130A97ED0D1AD6EDE3
:1025F000151A97ED0E2A20EE200A01EE210AD6EDDB
:10260000160A02EE200ABDEEC00AB8EEC00A86ED38
:10261000170AF06D3066706EB06696ED010AD8ED5F
:10262000180A30EE600A86ED190A96ED1B0AD6EDFF
:10263000190A97ED0B1AD6ED1D1A30EE200AD6EDC9
:102640001E0A71EEE00A00EE810A86ED1B0A96ED85
:10265000190AD6ED1A0A30EE600A86ED1C0A97EDCB
:102660000C0AD6ED190A97ED0D1AD6ED1B1A97ED47
:102670000E2A20EE200A01EE210AD6ED1C0A02EEF7
:10268000200ABDEEC00AB8EEC00A86ED1D0A706FC2
:10269000B067F06FC6F8800096ED010AD8ED190A10
:1026A00030EE600A86ED1F0A97ED000AD6ED1F0A8C
:1026B00097ED0B1AD7ED021A30EE200AD7ED030A78
:1026C00071EEE00A00EE810A87ED000A96ED1F0A1E
:1026D000D6ED200A30EE600A87ED010A97ED0C0A6C
:1026E000D6ED1F0A97ED0D1AD7ED001A97ED0E2AB9
:1026F00020EE200A01EE210AD7ED010A02EE200A9F
:10270000BDEEC00AB8EEC00A87ED020AB868F860EC
:1027100098ED1F0AD8ED140A30EE600A87ED100A12
:102720003869786197ED100AD7ED110A20EE200A7A
:10273000D8ED1A0A30EE600A87ED040A97ED060A12
:10274000D7ED040A97ED0B1AD7ED081A30EE200AE0
:10275000D7ED090A71EEE00A00EE810A87ED060A5C
:1027600097ED040AD7ED050A30EE600A87ED070AF7
:1027700097ED0C0AD7ED040A97ED0D1AD7ED061A5E
:1027800097ED0E2A20EE200A01EE210AD7ED070A66
:1027900002EE200ABDEEC00AB8EEC00A87ED080AB4
:1027A000386A7862306803F0B1FA21F00041DFF84E
:1027B000BC28DFF8BC3803F0BFFF47D296ED099A7A
:1027C000706A03F0A3FA04460D4619EE100A03F0EE
:1027D0009DFA53EC182B03F0BDFA02460B46204637
:1027E000294603F037FF03F0ABFC706296ED0F9AB9
:1027F000F06B03F08BFA04460D4619EE100A03F055
:1028000085FA53EC182B03F0A5FA02460B46204636
:10281000294603F01FFF03F093FCF06396ED159A31
:10282000706D03F073FA04460D4619EE100A03F0BA
:102830006DFA53EC182B03F08DFA02460B46204636
:10284000294603F007FF03F07BFC7065706803F016
:102850005DFA21F00041DFF81428DFF8143803F0A6
:102860006BFF47D296ED1B9AF06E03F04FFA0446C9
:102870000D4619EE100A03F049FA53EC182B03F039
:1028800069FA02460B462046294603F0E3FE03F0B0
:1028900057FCF06697ED009A386803F037FA044663
:1028A0000D4619EE100A03F031FA53EC182B03F021
:1028B00051FA02460B462046294603F0CBFE03F0B0
:1028C0003FFC386097ED069AB86903F01FFA04469A
:1028D0000D4619EE100A03F019FA53EC182B03F009
:1028E00039FA02460B462046294603F0B3FE03F0B0
:1028F00027FCB86197ED0A0AD7ED0A0A96ED0B1A84
:10290000F1EE600AB4EE601AF1EE10FA48BFB0EED4
:10291000601A06D4B4EE410AF1EE10FA48BFB0EEE8
:10292000401A86ED0B1A97ED0A0AD7ED0A0A96EDC2
:10293000111AF1EE600AB4EE601AF1EE10FA48BF17
:10294000B0EE601A06D4B4EE410AF1EE10FA48BFB8
:10295000B0EE401A86ED111A97ED0A0AD7ED0A0A71
:1029600096ED171AF1EE600AB4EE601AF1EE10FA65
:1029700048BFB0EE601A06D4B4EE410AF1EE10FA88
:1029800048BFB0EE401A86ED171A97ED0A0AD7ED48
:102990000A0A96ED1D1AF1EE600AB4EE601AF1EE25
:1029A00010FA48BFB0EE601A06D4B4EE410AF1EE58
:1029B00010FA48BFB0EE401A86ED1D1A97ED0A0ACC
:1029C000D7ED0A0A97ED021AF1EE600AB4EE601A2A
:1029D000F1EE10FA48BFB0EE601A06D4B4EE410A28
:1029E000F1EE10FA48BFB0EE401A87ED021A97EDEB
:1029F0000A0AD7ED0A0A97ED081AF1EE600AB4EE5A
:102A0000601AF1EE10FA48BFB0EE601A06D4B4EEC8
:102A1000410AF1EE10FA48BFB0EE401A87ED081AED
:102A200096ED0B0ADFF84C06B5EE400AF1EE10FA0F
:102A300006DB01224FF4004102F0CFFB002205E04B
:102A400000224FF4004102F0C8FB01224FF4006164
:102A5000584602F0C2FB96ED0B0A0099DFF8E82514
:102A6000019CBDEEC00A10EE100A002848BF40428B
:102A7000484380FB0232501100EBD070206096ED8D
:102A8000110AB5EE400AF1EE10FA07DB01224FF40D
:102A90000051484602F0A1FB002206E000224FF45C
:102AA0000051484602F099FB01224FF4804148460C
:102AB00002F093FB96ED110A0099DFF88C25019C3A
:102AC000BDEEC00A10EE100A002848BF404248433D
:102AD00080FB0232501100EBD070606096ED170A57
:102AE000B5EE400AF1EE10FA07DB01224FF48061E7
:102AF000484602F072FB002206E000224FF480619B
:102B0000484602F06AFB01224FF40061484602F099
:102B100064FB96ED170A0099DFF82C25019CBDEEA9
:102B2000C00A10EE100A002848BF4042484380FB0C
:102B30000232501100EBD070A06096ED1D0AB5EE88
:102B4000400AF1EE10FA06DB01224021504602F065
:102B500044FB002205E000224021504602F03DFBEC
:102B600001228021504602F038FB96ED1D0A0099A3
:102B7000DFF8D424019CBDEEC00A10EE100A002834
:102B800048BF4042484380FB0232501100EBD070F6
:102B9000E06097ED020AB5EE400AF1EE10FAFFF69A
:102BA0009BAB01224FF40071504602F016FB00224D
:102BB000FFF799BB70B540F2E934DFF88854DFF8CD
:102BC000B8640522314606F1100001F04CFE317860
:102BD000FF2929D170786528BCBFB178B52923DADF
:102BE00000EE100ADFEDD90A96ED141AB8EE400A8D
:102BF000C0EE810A80EE200A85ED1C0A00EE101A54
:102C0000B8EE400AF0EE000A20EE200A85ED1D0A1B
:102C1000F0782870717B30793073884204D003F0EB
:102C2000A3FD7065307B707303F09EFD716D401ADB
:102C3000B065F06DB16D88423CBFB06DF065B06DB0
:102C4000A04203D30020286768672870142002F090
:102C5000D0FBB6E7CDCCCCCC10B5DFF8E4434FF4D5
:102C60007A7002F0C6FB4FF40041204602F0BBFA36
:102C7000F5E7000000000240000802402444014043
:102C80002DE9F84F0FF200430FF2104BDFF8B48339
:102C9000DFF8ACA32DED0A8B196882B0002200206A
:102CA00003F0CDFD0FF2E43109680022012003F0AA
:102CB000C6FD0FF2DC3001680022022003F0BFFDE8
:102CC0000FF2D03001680022032003F0B8FD0FF2AC
:102CD000C83001680122042003F0B1FD002600275E
:102CE000002400259FED908B9FED91AADFED91AA26
:102CF000B3EE0EBA9FED909BDFED91BA9FED91CAB6
:102D0000F5EE00CA4FF0FF3915E0042D0AD14D460B
:102D100008E0022DF9D10FF2B8300168002203203B
:102D200003F08DFD6D1C6DB203F05EFD4FF480412C
:102D3000504602F058FA962002F05BFB4FF48041B7
:102D4000504602F050FA98F8020018B1DBF8000083
:102D5000002106E098F8010030B10FF2443000681D
:102D6000002103F080FD18E00FF2383000680021E8
:102D700003F079FD0FF23030C04B0168A6FB033041
:102D8000C00800EB4003A6EB83000022001D03F007
:102D900056FD002003F08BFD761C0FF21030016809
:102DA0000022002003F04BFDB349896D40F2E93069
:102DB000814214D3022F98BF0FF2F42004D9F81ED9
:102DC000032806D80FF2EC2001680022012003F04E
:102DD00036FD062F08BF4F467F1C7FB206E00FF27C
:102DE000D82001680022012003F029FD98ED110A86
:102DF00020EE2C0AB4EE4C0AF1EE10FA04DB0FF2CE
:102E0000BC20016800222EE0B4EE6B0AF1EE10FA4D
:102E10002DDB10EE100A02F079FF53EC192B03F0B2
:102E2000BBFA03F08DF900EE100ADFED890A0FF20C
:102E3000A4200068009080EE200AF7EE000A70EEF1
:102E4000C00A60EE8B0AFDEEE00A10EE900A8DF8E3
:102E5000000020EE0B0ABDEEC00A10EE100A8DF83D
:102E6000010000220099022003F0E9FC12E014B9ED
:102E70000FF24C2003E0022C07D10FF2482001682A
:102E80000022022003F0DBFC02E0042C08BF4C46C9
:102E9000641C64B298ED120A20EE2C0AB4EE6A0AA1
:102EA000F1EE10FA07DB0FF2202001680022032068
:102EB00003F0C5FC38E7B4EE4A0AF1EE10FA2ADB5B
:102EC00010EE100A02F022FF53EC182B03F064FA04
:102ED00003F036F900EE100ADFED5F0A0FF2F8108A
:102EE0000068009080EE200AF7EE000A70EEC00A3B
:102EF00060EE8B0AFDEEE00A10EE900A8DF80000FD
:102F000020EE0B0ABDEEC00A10EE100A8DF801008B
:102F100000220099CBE7002D7FF4FBAE0FF2AC103E
:102F2000FBE600006E861BF0E17A14AE47E1F2BFCB
:102F30003E0A973F3433B33F9A9999999999E9BFDB
:102F4000CDCC4C3FCDCC8C3FF92109400000C8428C
:102F500010B52DED068B9FED418ADFED418AB3EE72
:102F6000049ADFED409A9FED40AA364C22E0002003
:102F7000A07013E000206070208B6528BCBF618BBF
:102F8000652905DAA08B6528BCBFE18B6529EEDBDE
:102F90000120A07084ED1DAAC4ED1C9AD4ED1D0A79
:102FA00094ED1C0AFDF7B8FF2078FEF73DF80A20E3
:102FB00002F01FFAE07818B184ED1DAAC4ED1C9A46
:102FC00094ED0D0AB4EE490AF1EE10FA03D5208A09
:102FD000218C884220D394ED0E0AB4EE490AF1EE1A
:102FE00010FA03D5608A218C884215D394ED0F0A1C
:102FF000B4EE490AF1EE10FA03D5A08A218C88427A
:103000000AD394ED100AB4EE490AF1EE10FAB1D5E4
:10301000E08A218C8842ADD201206070C4ED1D8A07
:1030200084ED1C8AA8E70000FC0100203400014068
:1030300000681349884208BF03F078BC704700005D
:10304000000C02408C0000201F85EB513400004032
:103050009A99993E30460020AE47613ECDCCCC3D9A
:1030600000003443CDCC4C3E0000B4427B14AE474C
:10307000E17A843F000402402C000020ABAAAAAAF7
:1030800000480140FEE70000000A00000A0A0A00AA
:103090000A0000000A0A000000000A000A000000FE
:1030A000000A00000000000000000A001E1E1E00B2
:1030B00000001E000000000000001E00001E0000B6
:1030C0001E00000000000000001E00001E000000A6
:1030D00000000000000000000000000080B50B4868
:1030E000016841F400710160026842F4806202608C
:1030F000016841F480710160032000F009F80020AC
:1031000003F01CFC00F036FB002002BD003C024036
:103110001F4A13684FF6FF0100020B4000F4E06005
:1031200018431C4908431060704738B4184B1C689A
:10313000C4F30223C3F10704052C28BF04241D1D7A
:10314000072D34BF0023DB1E012505FA04F4641E9D
:103150002140994005FA03F35B1E1A40114309010F
:10316000002807D50C4A00F00F00104400F8041C9A
:1031700031BC7047094A115431BC7047012200F03C
:103180001F01074BFFE78A40400943F820207047A2
:103190000CED00E00000FA0518ED00E000E400E0AE
:1031A00000E100E038B5040001D1012032BD04F196
:1031B0003805687820B900212970204600F030FDDC
:1031C00021E0022180F8391001680A6842F001020A
:1031D0000A6013E00068C16841F00101C160026843
:1031E00042F0010202600020704707D1D1F800C010
:1031F0004FEA5C0C4FEA4C0CC1F800C0012180F88A
:1032000039100020704702206870211D206800F0EE
:1032100061F901206870002032BD38B5040001D189
:10322000012032BD04F13805687820B900212970E9
:10323000204600F05CFCE6E71CE00A0006D004290A
:1032400009D008290CD00C290FD013E00268D368EC
:1032500043F002030DE00268D36843F0040308E082
:103260000268D36843F0080303E00268D36843F0C0
:103270001003D3600068012202FA01F1026A8A4356
:103280000262026A11430162DFF81C10884205D114
:10329000DFF818100A6842F400420A60016841F041
:1032A000010101600020704700000140440001401E
:1032B00010B50446206801698A0716D5C1688A07D7
:1032C00013D56FF00202026101212176806910F0AE
:1032D000030F204602D003F071FB04E003F06FFB04
:1032E000204603F06DFB00202076206801694A0724
:1032F00016D5C1684A0713D56FF004020261022196
:103300002176806910F4407F204602D003F056FBFE
:1033100004E003F054FB204603F052FB002020762B
:10332000206801690A0716D5C1680A0713D56FF02E
:103330000802026104212176C06910F0030F2046C3
:1033400002D003F03BFB04E003F039FB204603F01E
:1033500037FB0020207620680169CA0616D5C168AF
:10336000CA0613D56FF01002026108212176C069E8
:1033700010F4407F204602D003F020FB04E003F06D
:103380001EFB204603F01CFB00202076206801690C
:10339000CA0708D5C168CA0705D56FF001020261E6
:1033A0002046FFF745FE206801690A0608D5C16876
:1033B0000A0605D56FF080020261204603F001FB8A
:1033C000206801694A0608D5C1684A0605D56FF02C
:1033D00040020261204603F0F5FA206801698A067E
:1033E0000AD5C1688A0607D56FF02002026120461F
:1033F000BDE8104003F0E7BA10BD70B5064606F10F
:1034000038040D462078012801D1022070BD012129
:1034100021700220607032B1042A18D0082A2BD003
:103420000C2A3DD050E03068294600F0B8F83068EA
:10343000816941F0080181613068816921F00401EE
:10344000816131688A69286902438A613CE0306899
:10345000294600F07CF83068816941F4006181619F
:103460003068816921F480618161306881692A69ED
:1034700041EA0221816127E03068294600F0B5F871
:103480003068C16941F00801C1613068C16921F04B
:103490000401C1613168CA6928690243CA6113E045
:1034A0003068294600F0CAF83068C16941F400610B
:1034B000C1613068C16921F48061C1613068C1694E
:1034C0002A6941EA0221C161FFE701206070002002
:1034D000207070BD18B46A4B0468984218BFB0F1F0
:1034E000804F07D0674A90421FBF674A9042674AA1
:1034F00090420ED14A6824F070041443984218BFD9
:10350000B0F1804F11D05F4A90421CBF5E4A90429A
:103510000BD05E4A90421CBF5D4A904205D05D4A86
:1035200090421CBF5C4A904203D1CA6824F44074A4
:103530001443046098428A68C2620A68826202D1B7
:103540000969564A11600122426111BC704770B48A
:10355000026A4B4E22F010020262B042056A4368D2
:1035600084690A6824F4E64444EA02248A6825F05F
:10357000200545EA02150DD1CA684E6925F080057F
:1035800045EA02158A6923F44063164325F0400595
:1035900043EA860343608461496881634BE030B449
:1035A000026A520852000262056A436884690A6826
:1035B00024F0730414438A6825F002051543304A49
:1035C00090420BD123F44073CA6825F008051543D7
:1035D0004A6913438A6925F00405134343608461F3
:1035E00049684163056230BC704770B4026A244E7A
:1035F00022F480720262056A4368C4690A6824F092
:10360000730414438A6825F40075B04245EA022524
:103610000DD1CA684E6925F4006545EA02258A691C
:1036200023F44053164325F4806543EA06134360B0
:10363000C4614968C163056270BC704770B4026AB6
:103640000F4E22F480520262B042046A4268C3699B
:103650000D6823F4E64343EA05238D6824F40054FF
:1036600044EA053404D14D6922F4804242EA8512CD
:103670004260C36149680164046270BC7047000025
:10368000000001400004004000080040000C004021
:10369000004001400044014000480140300001402A
:1036A0000068042202FA01F1026AFFE78A4302621B
:1036B000026A11430162416C41F4004141640268B5
:1036C00042F0010202600020704730B400F138037C
:1036D0001A78012A08BF02201BD001241C70022284
:1036E0005A700268546824F0700454600468656875
:1036F0000A68154365600268946824F08004946049
:10370000026894684868044394600120587000205F
:10371000187030BC704730B490F83820012A08BFC8
:10372000022024D0012380F83830CD688B684A68A5
:103730008C6925F440751D4325F4806515430B689D
:103740000A69496925F400651D4325F48055154330
:1037500025F400550D4325F480452543026825F4E2
:1037600000452C435464002180F83810002030BC00
:103770007047000082B0002000900022DFF8A4060D
:10378000416841F480414160416801F48041009109
:10379000009900920F21036843F080530360006892
:1037A00000F08050009000986FF0010002B0FFF729
:1037B000BCBC38B586B0044601A800210022002315
:1037C0000EC006C02168DFF86026914256D1DFF8AE
:1037D0005C06DFF85C5600930022416941F4807179
:1037E0004161416901F48071009100990092036880
:1037F00043F004030360016801F0040100910099A3
:1038000000920F21036843F0010303600322006864
:1038100000F00100009000980191002003900292B6
:1038200001A9DFF8100601F08DFB032000210C2216
:1038300002900391019201A9DFF8FC0501F082FBDF
:10384000DFF8F805286000206860A860E8604FF4A1
:10385000806028614FF4805068614FF48040A86117
:103860004FF48070E861002028626862284603F007
:10387000ABF808B1FFF706FCA563AC6307B030BD39
:1038800081B00068DFF8BC1588420CD10021DFF858
:103890009C050091026842F480520260006800F4C6
:1038A00080500090009801B0704738B586B06946E6
:1038B0000022002300241CC10CC10068DFF8882509
:1038C000904233D1DFF86445DFF88055059312222A
:1038D000216841F0020121604021206800F00200CF
:1038E0000590059800910120029001920420049017
:1038F00003936946284601F025FB4FF400700090C1
:1039000012210120019102900321042003910490CF
:103910006946284601F016FB00200590216941F414
:1039200000112161206900F4001042E0DFF8201549
:10393000884240D1DFF8F4440593216841F0040146
:1039400021604FF40071206800F004000590059894
:103950000593226842F0010222601222206800F0E2
:103960000100059005980091012002900321042098
:103970000391049001926946DFF8B80401F0E2FA7D
:103980004FF48070009012210120019102900321D8
:103990000420039104906946DFF89C0401F0D2FAF8
:1039A00000200590216941F400012161206900F4A3
:1039B00000000590059807B030BD80B50068DFF8BD
:1039C000881488420AD1DFF85C04016821F40011F0
:1039D00001604FF41071DFF8740413E0DFF8702415
:1039E000904213D1DFF83C04016821F4000101602A
:1039F0004FF40071DFF83C0401F070FB4FF480716C
:103A0000DFF83404BDE8044001F068BB01BD38B5FF
:103A100086B0044601A80021002200230EC006C083
:103A20002168DFF8302491425FD1DFF80004DFF82D
:103A3000285400930022416941F480114161416999
:103A400001F48011009100990092036843F0100383
:103A50000360016801F010010091009900920421B7
:103A6000036843F0020303600222006800F00200D2
:103A700000900098019100200390032106200491FA
:103A80000590029201A9DFF8D40301F05BFA12203D
:103A9000002102900391032006214FF480720490CC
:103AA0000591019201A9DFF8A40301F04BFADFF8B8
:103AB000B00328604FF0206068604020A8600020BC
:103AC000E8604FF48060286100206861A861E861C7
:103AD0004FF40030286200206862284602F074FF2C
:103AE00008B1FFF7CFFAA564AC6307B030BD38B5B5
:103AF0000446DFF870132068884216D10020009039
:103B00000022DFF82003416841F0010141600021FB
:103B1000406800F00100009000981A20FFF705FBB4
:103B2000BDE832401A20FFF729BBB0F1804F0BD11E
:103B300000200090DFF8EC02016841F00101016013
:103B4000006800F0010068E0DFF81C1388420BD128
:103B500000200090DFF8CC02016841F00201016012
:103B6000006800F0020058E0DFF80013884238D106
:103B700000200090DFF8F852DFF8A802016841F059
:103B8000040101600068DFF8EC1200F0040000900E
:103B9000009829604020A8604FF080610020E86014
:103BA00069604FF4806028614FF4006068614FF4F1
:103BB0000050A8610020E8614FF400302862042022
:103BC00068620320A8624FF40000E86200202863C6
:103BD000284602F0F9FE08B1FFF754FA6562AC63BB
:103BE00031BDDFF8941288420AD1002000908D4840
:103BF000016841F008010160006800F008000CE075
:103C00009E4988420BD1002000908648416841F4CB
:103C100080314160406800F480300090009831BDF0
:103C200081B00068964988420BD1002184480091F8
:103C3000026842F400320260006800F40030009034
:103C4000009801B0704710B586B069460022002385
:103C500000241CC10CC10068824A904213D17348F1
:103C600005930222016841F0100101604FF4D44134
:103C7000006800F0100005900598009101920293F1
:103C8000039301208DE0B0F1804F2DD1674805935B
:103C9000026842F0020202600222016801F00201A1
:103CA0000591059905934FF48061036843F0010382
:103CB0000360006800F00100059005980091012064
:103CC00004900192029403946946604801F03AF925
:103CD0004FF40040009002210120019104900294D1
:103CE0000394694654485FE05F49884214D14F48C5
:103CF00005930222016841F002010160332100684E
:103D000000F002000590059850480091019202933E
:103D100003930492694647E05449884214D14348CA
:103D200005930222016841F00201016080210068D0
:103D300000F002000590059844480091019202931A
:103D40000392049269462FE04B49884214D13748C8
:103D500005930222016841F001010160032100681E
:103D600000F00100059005983348009101920293FC
:103D700003930492694617E04049884216D12B48C4
:103D800005930222016841F01001016040210068A2
:103D900000F01000059005980091019202930393A2
:103DA0000320049069462D4801F0CCF806B010BD00
:103DB00010B586B001A90022002300241CC10CC14B
:103DC0000068304A90422AD1184800930222416983
:103DD00041F020014161416901F020010091009909
:103DE0000093C021036843F004030360006800F0FF
:103DF0000400009000980191012003900321082005
:103E000004910590029201A90A4801F09BF8002252
:103E100005214720FFF789F94720FFF7AFF906B0E2
:103E200010BD000040380240002001403038024000
:103E3000B8430020000802400000024070640240C5
:103E40004438024000300240005400400004024068
:103E5000005C004000500140184400200010024067
:103E60008864024000000140000400400008004057
:103E70007844002058600240000C0040004001409F
:103E80000044014000140140F8B5040001D10120B4
:103E9000F2BD04F13C05687820B900212970204664
:103EA000FFF703FD24206870206801684908490075
:103EB000016001F0AFFC0146DFF8EC20DFF8EC30E8
:103EC000A1FB0220C20C206842606068984208D3BF
:103ED0004FF4967010FB02F2DFF8D470A2FB077665
:103EE000720A2068521C026266689E4208D27600FE
:103EF000B1FBF6F0C0F30B01042913D2042011E04A
:103F0000A06820B906EB4606B1FBF6F005E01922E1
:103F10005643B1FBF6F040F4804001050CBF012090
:103F200040F400402168C861E269206A02432068C9
:103F300002602169E0680143206881606169A069CD
:103F400001432068C1602068016841F001010160FF
:103F5000002068602020687000202063A870F2BDF7
:103F600038B5040001D1012032BD04F13C05242004
:103F70006870206801684908490001602046FFF721
:103F80001CFD0020686068702063A870287032BD36
:103F90000320BDE8F6870120BDE8F6870120BDE8D3
:103FA000F2830320BDE8F28306BD3786A1860100B7
:103FB000986E12832DE9FC470646884691469A463C
:103FC00002F0D2FB06F13C070546787820280FD195
:103FD000306881698A0754D502F0C6FB401B1A2855
:103FE000F6D300203063202078700020B87038703D
:103FF000F8E17868042803D100213970FFF7CBBFBE
:1040000000203870FFF7C4BF716A4A1C72620978D9
:104010000161308D411E3185708D411E7185308D5D
:10402000002877D0306841690A0660D441694A05A2
:1040300013D56FF480624261042078600020306301
:10404000202078700020387078680428DAD1306831
:10405000016841F400710160D0E714F1010FE1D073
:1040600024B102F081FB401B8442DBD2786840F02F
:104070002000786000213163202078703970E3E7F8
:104080005CE039780129B3D001223A700268D10787
:1040900003D4016841F0010101604146D6F800E017
:1040A0000C9C0B98DDF828C0DEF8008028F400682E
:1040B000CEF800804FF0210E87F801E053464FF014
:1040C000400E87F802E04A464FF0000EC7F804E0C1
:1040D000C6F824C070851848F062708D308501954F
:1040E0000094304600F08AF9002898D081E7716A80
:1040F0004A1C726209780161308D411E3185708DD4
:10410000421E728530684269530788D589B20029FA
:104110007FF47AAF2A462146304600F003FB0028A0
:10412000AED0786804287FF46DAF3068016841F440
:104130000071016062E700000000FFFF3068016865
:1041400041F400710160202078700020B870387050
:10415000BDE8F6872DE9FC470646884691469A4613
:1041600002F002FB06F13C0705467878202810D1C2
:10417000306881698A0740F1AA8002F0F5FA401B95
:104180001A28F5D300203063202078700020B87002
:10419000387027E100203870FFF7FABE308D08B97B
:1041A000009008E03168012810D1086820F4806090
:1041B0000860002100913068416900918269009295
:1041C0000099016841F40071016025E002280FD1D7
:1041D000086820F4806008603068016841F400617C
:1041E000016000200090306841690091806904E01E
:1041F000002000904A6900928869009000990BE0C5
:10420000706A411C716231680A690270308D411E0A
:104210003185708D411E7185308D002800F09680AB
:10422000042837D201280BD12A462146304600F017
:10423000ABFA0028E4D078682028ADD0FFF7ABBEF9
:10424000022840F08480306841694A0700F1938079
:1042500014F1010FF7D024B102F086FA401B84421A
:10426000F1D200203063202078700020B87092E7EF
:1042700014F1010F00F0A0802CB102F075FA401B80
:10428000844280F0998000203063202078700020E4
:10429000B87080E72A462146304600F075FA0028BB
:1042A000C9D1706A411C716231680A690270308D2F
:1042B000411E3185708D411E7185306841694A0704
:1042C000AAD5716A4A1C7262006908709EE7397843
:1042D00001293FF45EAF01223A700268D10703D48E
:1042E000016841F0010101604146D6F800E00C9CF4
:1042F0000B98DDF828C0DEF8008028F40068CEF8BE
:1043000000804FF0220E87F801E053464FF0400E38
:1043100087F802E04A464FF0000EC7F804E0C6F8FE
:1043200024C07085DFF8C800F062708D308501957B
:104330000094304600F0E9F800283FF42FAF786889
:1043400004287FF427AF0021397077E7FBE6306857
:1043500041694A0720D414F1010FF8D024B102F0CA
:1043600003FA401B8442F2D2002030632020787090
:104370000020B8700FE7016841F400710160706AB5
:10438000411C716231680A690270308D411E3185AD
:10439000708D411E718533E7016821F480610160F1
:1043A000706A411C716231680A690270308D411E69
:1043B0003185708D411E7185306841694A077FF5EE
:1043C00057AF026842F400720260706A411C716269
:1043D00031680A690270308D411E3185708D411E31
:1043E00071850DE70220BDE8F68790F83D00704723
:1043F0000000FFFF41600020BDE8F2832DE9F84393
:1044000006463068089C099D0F46016841F480719A
:1044100091469846016030684169CA074CD414F14E
:10442000010FF8D024B102F09FF9401B8442F2D270
:1044300000203063202106F13C0041700021817092
:10444000017032E041694A0515D5026842F40072F4
:1044500002606FF480603168486106F13C0004221C
:1044600042600021316320214170002101704168C8
:1044700004291AD117E014F1010F20D024B102F061
:1044800073F9401B84421AD20020306306F13C00CD
:10449000E9E706F13C004168042906D1306802686A
:1044A00042F400720260FFF779BDFFF77ABD306811
:1044B0005FFA89F707619EE707F0FE07076130683A
:1044C00041698A07BED5002200922A4641690091BF
:1044D0008069009030460099214600F009F90028D3
:1044E000D7D1B8F1010FE2D031684FEA1920086145
:1044F0002A462146304600F0FBF80028D7D006F1C6
:104500003C0041680429D0D1C8E72DE9FE430646A6
:1045100030680A9C0B9F0D46016841F48061016080
:1045200090463068026842F48072994602603068B2
:104530004169CA0700F1A08014F1010FF7D024B13E
:1045400002F012F9C01B8442F1D200203063202116
:1045500006F13C0041700021817001708AE04169E0
:104560004A0515D5026842F4007202606FF480605B
:104570003168486106F13C00042242600021316349
:1045800020214170002101704168042972D161E04D
:1045900014F1010F73D024B102F0E6F8C01B84427D
:1045A0006DD20020306306F13C00E9E706F13C00E3
:1045B000416804295ED13068026842F400720260EA
:1045C00048E030685FFA88F101613A46214630469A
:1045D00000F08EF850B106F13C004168042949D141
:1045E0003068026842F40072026033E030680168AB
:1045F00041F48071016030684169CA076CD414F1DC
:10460000010FF8D024B102F0AFF8C01B8442F2D2FF
:1046100000203063202106F13C00417000218170B0
:10462000017027E041694A0516D5026842F400721C
:1046300002606FF480603168486106F13C0004223A
:1046400042600021316320214170002101704168E6
:1046500004290FD1012048E014F1010F40D024B10A
:1046600002F082F8C01B84423AD20020306306F187
:104670003C00E8E7032038E005F0FE010161306806
:1046800041698A077FF56BAF002200923A46416983
:1046900000918069009030460099214600F028F88A
:1046A000002883D1B9F1010F8BD031684FEA18206F
:1046B00008613A462146304600F01AF800283FF4D7
:1046C00080AF06F13C0041680429D3D1306802680C
:1046D00042F400720260BDE745F00105EDB20561EC
:1046E000306841698A079DD5002003B0BDE8F0839A
:1046F000F8B506460C46174606F13C053068416998
:104700000A060DD441694A0500D530E014F1010FC5
:10471000F4D024B102F028F8C01B8442EED21BE092
:104720000020F2BDF8B506460C46174606F13C05DA
:10473000306841694A070DD441694A0500D516E041
:1047400014F1010FF4D024B102F00EF8C01B844222
:10475000EED201E00020F2BD686840F02000686001
:10476000002131632020687029700320F2BD6FF4AE
:1047700080624261042068600020306320206870FD
:10478000002028700120F2BD70B505460C46164683
:10479000286841694A0622D44169CA0611D424B165
:1047A00001F0E2FF801B8442F2D205F13C0020229E
:1047B000416841F0200141604270002101700320F6
:1047C00070BD6FF01001416105F13C0000214160B6
:1047D00029632021417000210170012070BD00205B
:1047E00070BD10B5040001D1012010BD607920B961
:1047F000002121712046FFF743F80220607101205B
:104800006071002010BD000038B5040001D1012006
:1048100032BD04F13805687820B90021297020469E
:10482000FFF7C6FA242068702068C16821F400519F
:10483000C160204600F04AF92068016921F49041E6
:1048400001612068416921F02A01FFE74161206888
:10485000C16841F40051C160002068602020687088
:10486000A870002032BD30B400F138039C78202CB1
:104870001BD109B1140000D118E01C78012C14D010
:1048800001251D7081628285C28500215960222127
:1048900099700021197001684A6942F001024A6169
:1048A0000068C16841F4907106E002E030BC01206C
:1048B000704730BC02207047C160002030BC704798
:1048C00038B5044625682968EA686B6911F00F005D
:1048D00007D1880660D590065ED52046BDE83240F7
:1048E000AEE0D80702D412F4907F55D0C80705D5A2
:1048F000D00503D5E06B40F00100E063480705D523
:10490000D80703D5E06B40F00200E063880705D5C7
:10491000D80703D5E06B40F00400E063080705D535
:10492000D80703D5E06B40F00800E063E06B002897
:1049300071D0890604D5900644BF204600F080F867
:1049400020684069E16B0A0701D440061ED5204665
:1049500000F062F8206841694A0612D5416921F0E9
:1049600040014161606B60B10FF2C9010165606B8C
:1049700002F0E7F800284ED0606B016DBDE83440CE
:1049800008472046BDE8324002F0E6B9204602F072
:10499000E3F90020E06331BD08062CD510062AD5C6
:1049A00094F83900212836D1A168206AB1F5805FDA
:1049B0000DD10188C1F308016960206918B9216A25
:1049C000881C206207E0206A411C216203E0411C30
:1049D000216200786860E08C401EE08480B2D0B92B
:1049E0002068C16821F08001C1602068C16841F081
:1049F0004001C16031BD48060DD550060BD5E868B1
:104A000020F04000E860202184F839102046BDE8FD
:104A1000324002F0A2B931BD0168CA6822F4907236
:104A2000CA6001684A69520852004A61202180F830
:104A30003A107047806B0021C185C18402F08CB9A7
:104A400080B590F83A1022293ED18268B2F5805F95
:104A500014D1826A016941B903685968C1F3080138
:104A60001180826A911C816218E001684B6803F032
:104A7000FF031380816A4A1C82620FE001690029EA
:104A8000816A04D14A1C82620268536805E04A1CAC
:104A900082620268536803F07F030B70C18D491E68
:104AA000C18589B271B90168CA6822F49072CA607E
:104AB00001684A69520852004A61202180F83A1080
:104AC00002F04CF9002002BD022002BD2DE9F047A2
:104AD000044621680A69E06822F4405202430A61F0
:104AE0008A48CA680240A06802432069024360699C
:104AF0000243E0690243CA604A69A06922F4407235
:104B000002434A618248E269B2F5004F40F09B805F
:104B100081421CBF7F4881424AD100F083FE054696
:104B200000F080FE064600F07DFE074600F07AFEAB
:104B3000804600F077FE6168DFF8DCA1DFF8D8E19D
:104B400019235F434900B7FBF1F75D435E43A7FBC1
:104B50000AA96422B5FBF1F5B6FBF1F64FEA991705
:104B6000A5FB0EEC02FB17664FEA9C15F6003236E9
:104B7000DFF8A4C1A6FB0CC7BE09760006F4F876E0
:104B800006EB051603FB08F74343B3FBF1F0B7FB55
:104B9000F1F5614BA0FB0331880902FB1052D200F2
:104BA00032325D49A2FB0110800900F00700A7E046
:104BB00000F030FE054600F02DFE064600F02AFE0D
:104BC000074600F027FE804600F024FE6168DFF80B
:104BD00048A1DFF844E119235F434900B7FBF1F72F
:104BE0005D435E43A7FB0AA96422B5FBF1F5B6FB62
:104BF000F1F64FEA9917A5FB0EEC02FB17664FEA98
:104C00009C15F6003236DFF810C1A6FB0CC7BE09B2
:104C1000760006F4F87606EB051603FB08F7434327
:104C2000B3FBF1F0B7FBF1F53B4BA0FB0331880977
:104C300002FB1052D20032323749A2FB0110800928
:104C400000F007005CE081421CBF324881420ED177
:104C500000F0E8FD054600F0E5FD064600F0E2FD47
:104C6000074600F0DFFD804600F0DCFD0DE000F0BF
:104C7000D1FD054600F0CEFD064600F0CBFD07460F
:104C800000F0C8FD804600F0C5FD6168DFF888A02F
:104C9000DFF884E019235F438900B7FBF1F75D4338
:104CA0005E43A7FB0AA96422B5FBF1F5B6FBF1F65A
:104CB0004FEA9917A5FB0EEC02FB17664FEA9C150D
:104CC00036013236DFF850C0A6FB0CC7BE0906F02D
:104CD000F00606EB051603FB08F74343B3FBF1F0C0
:104CE000B7FBF1F50C4BA0FB0331880902FB105216
:104CF000120132320849A2FB0110800900F00F00B6
:104D0000226886199660BDE8F0870000F369FFFF0E
:104D100000100140001401403E0AD7A338B504003A
:104D200001D1012032BD0020A06204F15005687855
:104D300020B9002129702046FEF769FE0220687024
:104D40002068016821F0400101606268A068A169E3
:104D50000243E0680243206902436069024301F4B0
:104D60000071E0690A430243206A0243A06A0243D9
:104D700020680260A169606A090C01F00401014326
:104D8000206841602068C16921F40061C161002090
:104D9000686001206870002032BD70B5064606F1DB
:104DA000500400252078012801D1022070BD012384
:104DB00023706078012818BF022540D109B1100086
:104DC00001D101253BE00320607065603163B2864C
:104DD000F286B56375643564B587F587B068B0F55C
:104DE000004F04D13068016841F480410160B16C2A
:104DF0000FF215100864B16C0FF24D00C863B16C6E
:104E00000FF20D10C864B16C0D65F38E3068316B14
:104E100000F10C02B06C01F04DFE306801684A06EA
:104E200003D4026842F0400202603068416841F0F9
:104E3000200141603068416841F00201416000207A
:104E40002070284670BD00007CB50646B46B01F0AA
:104E50008BFC054630680168CA0552D42068416859
:104E600021F00201416020688168080636D501F012
:104E70007BFC401B6428F6D32068416821F0E001E8
:104E800041606068B0F5827F0BD1A068B0F5004F3B
:104E900018BFB0F5806F04D12068016821F040018F
:104EA0000160A06AB0F5005F0AD121680A684DF67A
:104EB000FF7002400A602068016841F400510160FF
:104EC00004F150000122427000210170416841F05C
:104ED00020014160416841F020014160A06838B97B
:104EE000002100912068C1680091806800900099BD
:104EF0000020E086012104F150004170406800B1BB
:104F000016E0204619E00000806B01F028BF000089
:104F1000806B01684A68920892004A600122416DE4
:104F200041F01001416580F8512001F019BF0000E7
:104F30002046BDE8764001F013BFBDE8764001F0A1
:104F400019BC00002DE9F84F03460C464FF000084D
:104F5000C146C246AA48AB490F22012505FA08FC02
:104F600025680CEA050EE64540F0AC806568022D28
:104F700018BF122D10D14FEAD80503EB85050AF0B2
:104F80001C062F6A02FA06FB27EA0B07D4F810B0BA
:104F90000BFA06F63E432E6203251E68277905FAB2
:104FA00009F5ED4307F003072E4007FA09F73E43E2
:104FB0001E606668012E18BF022E03D0112E18BF86
:104FC000122E10D19E68E7682E4007FA09F73E437B
:104FD0009E605E6826EA0C076668C6F3001606FA4D
:104FE00008F63E435E60DE683540A66806FA09F6BC
:104FF0003543DD606568ED0064D5002500954FEA16
:10500000980C0D6845F480450D600AF00C060D689B
:1050100005F48045009502FA06F7009D7A4D55F893
:105020002CB02BEA0707DFF8E4B15B4508BF4FF06F
:10503000000B1CD0DFF8D8B15B4508BF4FF0010B67
:1050400015D0DFF8D0B15B4508BF4FF0020B0ED092
:10505000DFF8C4B15B4508BF4FF0030B07D0DFF8A2
:10506000BCB15B450CBF4FF0040B4FF0070B0BFAC4
:1050700006F63E4345F82C606FEA0E0C056866683C
:105080000CEA0505F70348BF4EEA050505604568CB
:1050900066680CEA0505B70348BF4EEA050545609A
:1050A000856866680CEA0505F70248BF4EEA050503
:1050B0008560C56866680CEA0505B60248BF4EEA19
:1050C0000505C56008F10108B8F10F0F0AF1040ADF
:1050D00009F102097FF641AFBDE8F18F2DE9F84FE4
:1050E0000C464FF0000BDC464549474A00940F231D
:1050F0004FF001080546D946009808FA09FE0EEA65
:105100000000704557D1032404FA0BF42E68E443E1
:1051100026402E600CF01C074FEAD90605EB8606E8
:1051200003FA07F7D6F820A02AEA07073762AE6825
:105130002640AE606E6826EA0E066E604FEA990E53
:10514000EE683440EC600CF00C0452F82E7003FA58
:1051500004F606EA070A2D4FBD4208BF002713D008
:105160002B4FBD4208BF01270ED02A4FBD4208BFBA
:10517000022709D0284FBD4208BF032704D0274F7C
:10518000BD420CBF0427072707FA04F4A24512D139
:1051900052F82E4024EA060642F82E60C0430C68FE
:1051A00004400C604C6804404C608C6804408C6087
:1051B000CC682040C86009F10109B9F10F0F0CF16A
:1051C000040C0BF1020B97D9BDE8F18F0069014087
:1051D000481E8041C043C00F704781B002B9090426
:1051E000816101B0704742695140416170470C4A8A
:1051F000136803421CBF1060FBF788BD70470000B6
:10520000003C0140443802400838014000000240A0
:105210000004024000080240000C0240001002405E
:10522000143C014038B5614D68688047012433283B
:105230000AD15F4C256040F64700296888472168FD
:105240000A6A902090470024204632BD58490A68D7
:1052500082B0916A09B102B0084702B0704780B5C8
:10526000942200213C2001F05BFE802201213C20A1
:1052700001F056FEBDE808400022FFE702213C2075
:1052800001F04EBE2DE9F041804601213C2001F0A5
:1052900048FE064604213C20464C01F042FE2070A8
:1052A00003213C2001F03DFE607008213C2001F00C
:1052B00038FEA07007213C2001F033FEE07006218B
:1052C0003C2001F02EFE207105213C200027002506
:1052D00001F027FE06F0E006202E60710ED0402E71
:1052E00011D0602E14D0802E17D0A02E1AD0C02E30
:1052F0001DD0E02E04BFE627CD251CE040F24C4730
:105300004FF4757517E040F257374FF43E7512E0D1
:1053100040F29E274FF416750DE04FF4E1774FF4FD
:10532000C87508E04FF4C87740F2631503E04FF406
:10533000A57740F227156178227802EB012212B29C
:1053400000EE107A01EE102AB8EE400AB8EEC11A4B
:10535000DFED150A81EE001A21EE201A88ED001A01
:10536000E178A27802EB012212B201EE102AB8EE27
:10537000C11A81EE000A20EE200A88ED010A01EE32
:10538000105A217901EB002000B200EE100AB8EEAD
:10539000C00AB8EE411A80EE010A20EE200A88ED1C
:1053A000020ABDE8F081000000007A4400000020FD
:1053B000344600202846002080B501F0A7FE0020DA
:1053C00002BD00B583B00B46B0F908100022842955
:1053D00018BFCA1C02A900920191016802694068C5
:1053E00092B201F09FFD012814BF0020029803B083
:1053F00000BD80B500B9012001F067FE002002BDAC
:10540000002202F029B800002DE9FC41040019D067
:105410002078B84EC10740F1D080B06800F00C0091
:10542000042807D0B06800F00C0008280DD170687F
:1054300041020AD53168880340F1BF8060680028C6
:1054400040F0BB800120BDE8F6816068B0F5803F88
:1054500006D0B0F5A02F316807D141F4802131602A
:10546000306840F48030306006E021F480313160F3
:10547000326822F480223260606870B101F074F901
:1054800005463168880300F1988001F06DF9401BF2
:105490006528F6D30320BDE8F68101F065F90546DD
:1054A0003068810340F1898001F05EF9401B652876
:1054B000F6D3EFE701F058F9401B022840F2A9802B
:1054C000E8E7E0688C4970B101220A6001F04CF90C
:1054D00005463068810700F1C78001F045F9401B9F
:1054E0000228F6D9D6E7086001F03EF90546306893
:1054F000810740F1818001F037F9401B0228F6D97D
:10550000C8E7086001F030F90546706F810740F187
:10551000848001F029F9401B0228F6D9BAE7052852
:10552000306F06D140F004003067306F40F001006A
:1055300005E0400840003067306F20F0040030671D
:10554000A06870B101F010F9074641F28938306F58
:10555000810700F1998001F007F9C01B4045F6D39F
:1055600098E701F001F9074641F28938306F810769
:1055700040F18A8001F0F8F8C01B4045F6D389E776
:1055800001F0F2F8C01B022840F2948082E701F09B
:10559000EBF8001B022840F2A5807BE7002028667C
:1055A00001F0E2F804463068810140F19F8001F08B
:1055B000DBF8001B0228F6D96CE7207881071BD5A1
:1055C000B06810F00C0F09D0B06800F00C0008288B
:1055D0007FF477AF706841023FF573AF3168880799
:1055E00003D5E06801287FF42DAF3168206921F0F0
:1055F000F80141EAC0013160217808070DD56069E2
:105600003E4900283FF47DAF01220A6001F0ACF86A
:105610000546706F81077FF54DAF2178480738D573
:10562000306C0025C1000AD400950125306C40F093
:1056300080503064306C00F0805000900098304F03
:105640003968C80518D4386840F48070386001F0B3
:105650008BF880463968C8050ED401F085F8A0EBB8
:1056600008000228F6D915E73068216920F0F80013
:1056700040EAC1003060BFE7A06801287FF44FAF67
:10568000306F40F001005AE71DB1306C20F08050BF
:105690003064A06950B3B16801F00C0108293FF4EF
:1056A000D1AE0228144D7FF479AF0020286601F0B6
:1056B0005BF80746306881013FF562AFE169206A17
:1056C000A26A0143606A520841EA8011521EE06AF0
:1056D00041EA024141EA006171600121296601F05D
:1056E00043F80446306881017FF551AF0020BDE8E2
:1056F000F68100BF0038024000004742800E47425A
:10570000007000402DE9F84304000F4600F07F8050
:10571000574E306800F00F00B84205D2377031683C
:1057200001F00F01B94272D12068524D810712D5A4
:10573000400703D5A86840F4E050A8602178080726
:1057400003D5A86840F46040A860A968A06821F06B
:10575000F0010143A9602078C1074DD56068012898
:1057600002D129688A0305E0022818BF032803D163
:1057700029688A0103D44AE02A68910747D5A968B5
:10578000890840EA8100A86041F2893900F0ECFF05
:105790008046A868616800F00C00B0EB810F2BD048
:1057A00000F0E2FFA0EB08004845F2D30320BDE87B
:1057B000F2832078410705D5A968E06821F4E0511B
:1057C0000143A9602078010706D5A868216920F463
:1057D000604040EAC100A86000F056F8AA68264977
:1057E000C2F30312895C254AC8401060002001F012
:1057F000A5F80020BDE8F283306800F00F00874272
:10580000D7D23770316801F00F01B942D1D00120F1
:10581000BDE8F28319481A4A006813681949C3F3AE
:10582000822206E01548164A006813681549C3F33A
:105830004232895CC84070470F220260104A1368E8
:1058400003F003034360D2F800C00CF0F00CC0F882
:1058500008C0136803F4E053C3601268D20802F46E
:10586000E05202610248026802F00F020A607047CB
:10587000003C024000380240708200083C030020D7
:10588000083802401C84000818B5124C606800F00B
:105890000C00042802D0082802D019E00E4812BDDE
:1058A00000232268206841022068C0F388104CBFA2
:1058B00009490A4902F03F02A1FB000101F0E6FD9F
:1058C0002168C1F30141491C4900B0FBF1F012BD50
:1058D000024812BD0438024000127A000024F4008D
:1058E00070B5044600250CB9012070BD04F13C06DA
:1058F000706820B9B56030702046FDF75AFF7068B7
:10590000C10610D4706820F4885040F00200706026
:10591000204600F035F9B560706820F0020040F0D4
:105920000100706000E0012500203070284670BD45
:10593000F8B50446002004F13C0300901D78012DC9
:1059400001D10220F2BD0120187020688568EE07A1
:1059500015D48568DFF81C7345F001058560DFF814
:1059600018030568A5FB0776F60C06EB46060096BD
:1059700002E00098401E009000980028F9D12568A8
:10598000A868C60758D55E68DFF8F002064046F4FE
:1059900080765E606868450505D5586820F400503B
:1059A00040F4805058605868C50404D5986820F0C9
:1059B0000600986001E000259D6000201870A36B30
:1059C0000FF2D120D863A36B0FF225301864A36BBC
:1059D0000FF22530D8646FF0220025682860206817
:1059E000436843F0806343602068836843F48073B6
:1059F0008360134620680A4600F14C01A06B01F059
:105A000059F820689E490A6812F01F0F08D1816872
:105A100011F0405F10D1816841F0804181600BE05E
:105A2000984A904202BF9848016811F0405F03D144
:105A3000026842F0804202600020F2BD78B4024663
:105A40000020009092F83C30012B08BF022000F0AB
:105A50009580012082F83C0007240B6810680A2B0F
:105A600012D30A3BC56803EB43039C4025EA0404B8
:105A7000C460C3680D688C68A5F10A0606EB46068B
:105A8000B4402343C3600FE0056903EB430304FA0A
:105A900003F325EA0303036103690D688C6805EBD2
:105AA0004505AC40234303611F244B68072B11D2EB
:105AB0005B1E456B03EB83039C4025EA04044463AF
:105AC000436B4D680C886E1E06EB8606B44023437C
:105AD000436325E00D2B11D2DB1F056B03EB830322
