:020000040800F2
:10000000304A0020398200085D82000861820008C1
:1000100065820008698200086D8200080000000007
:10002000000000000000000000000000017D00084A
:100030007182000800000000A97C0008DD7900083A
:1000400075820008798200087D820008818200089C
:100050008582000889820008258000082B8000081E
:1000600031800008378000083D8000088D8200083C
:100070009182000895820008438000089982000858
:100080009D820008A1820008A582000800000000EF
:10009000000000000000000000000000498000088F
:1000A000A9820008AD82000871800008B1820008B2
:1000B000B5820008B9820008BD820008C18200082C
:1000C000C5820008C9820008CD820008D1820008DC
:1000D000D5820008D9820008DD82000800000000F7
:1000E000E1820008E5820008E982000800000000C3
:1000F000000000000000000000000000ED82000889
:1001000000000000F1820008F5820008F982000872
:1001100000000000000000000000000000000000DF
:10012000FD82000801830008058300080983000898
:1001300083800008000000000000000000000000B4
:100140000000000000000000000000000D83000817
:100150008980000811830008158300088F8000083B
:10016000198300081D830008000000000000000043
:10017000000000000000000000000000000000007F
:1001800000000000218300080000000000000000C3
:1001900025830008298300080068DFF86C1B88426B
:1001A0000DD1DFF84C0D016881614168C161816842
:1001B0000162C1684162016981624169C16270473F
:1001C0002DE9F04FA3B002F0A5FE00F07FFB00F098
:1001D00099FC002000900024DFF8100D016841F424
:1001E000800101600025026802F480020092002272
:1001F000009900920521036843F400130360002670
:10020000006800F40010009000980E2002F0A9FE93
:100210000E2002F0CFFE002205213C2002F0A1FEBC
:100220003C2002F0C7FE00220521442002F099FE86
:10023000442002F0BFFE00F0F8FB0FF2E45003A9E7
:10024000D0E90023CDE90123002071C131C1DFF8DD
:10025000A44C04F1AC05A865E8654FF080414FF46B
:1002600096502866696504F5807000906E6602F00D
:10027000F0FE00B1FEE70190029601A9009803F09C
:1002800040F900B1FEE760200390049605960796BA
:100290000022009803A902F0CCFF00B1FEE700980D
:1002A000082203A902F0C5FF00B1FEE7009803F0A1
:1002B000E6FBDFF8440CA06526666666E666266700
:1002C0006667A667DFF8340CE0654FF48040A066EF
:1002D00004F1580003F0F4FC00B1FEE700F041FB2C
:1002E00004F50F76DFF8180CF06204F51A7004F0CC
:1002F00094F900B1FEE7DFF80C0CDFF80C1C01618B
:100300004FF4E131416100218161C16101620C2141
:10031000416200218162C162103004F091F900B1A4
:10032000FEE70FF20450DFF8E48BD0E90023CDE9BB
:10033000012303A90020002784468646A1E88150B6
:10034000A1E881105F2004F59E7744F6206978606B
:10035000C7F808C0C7F810C0C7F80080C7F80C90ED
:10036000384602F076FE00B1FEE7002101900291CE
:10037000384601A903F0C5F800B1FEE7602000216E
:100380000390049105910791002203A9384602F0D9
:1003900050FF00B1FEE7042203A9384602F049FFEE
:1003A00000B1FEE7082203A9384602F042FF00B17F
:1003B000FEE70C2203A9384602F03BFF00B1FEE73E
:1003C000384603F05CFB0FF2684203ABD2E9000150
:1003D000CDE901010022944696469246A3E80454D2
:1003E000A3E80450DFF8280CF8633A647720B86477
:1003F0007A64FA6404F5BC7A504602F02AFE00B131
:10040000FEE7002101900291504601A903F079F81E
:1004100000B1FEE76020002103900491059107914F
:10042000042203A9504602F004FF00B1FEE7504643
:1004300003F025FB0FF2004203ABD2E90001CDE946
:1004400001010022944696469246A3E80454A3E88C
:1004500004505F2004F5DE7BF867CBF80490CBF8FE
:100460000020CBF8082004F5DA79DFF8DCABC7F818
:1004700078A0484602F0EDFD00B1FEE700210190B2
:100480000291484601A903F03CF800B1FEE7602064
:1004900000210390049105910791002203A9484689
:1004A00002F0C7FE00B1FEE7042203A9484602F0AD
:1004B000C0FE00B1FEE7484603F0E1FADFF88C0B1E
:1004C0002860DFF8380A68600020A860E8604FF410
:1004D0008040286100206861A861E86128622846A0
:1004E00003F0EEFB00B1FEE702A80021002200238A
:1004F00000252EC00EC04FF41660CBF8400004F566
:10050000F870DFF84C5BCBF83810CBF83C10CBF828
:1005100044100190CBF8345002F09BFD00B1FEE78F
:100520006020029000210391049106910422019819
:1005300002A902F07EFE00B1FEE7019803F09FFAE7
:10054000DFF8140BCBF870004FF47070CBF8740028
:100550000020CBF878004FF6FF70CBF87C0004F554
:100560000B7B00203060584602F038FD00B1FEE7FA
:10057000DFF8EC0A20604FF4827060600020A06019
:10058000E060206160614FF40070A0612020E061B4
:10059000002020626062A0620A20E062204604F02F
:1005A000D9FA00B1FEE7DFF8C04A0021204602F088
:1005B0005FFD0021204602F08FFF0421204602F05B
:1005C00057FD0421204602F087FF0821204602F053
:1005D0004FFD0821204602F07FFF0C21204602F04B
:1005E00047FD0C21204602F077FF0098DFF8804A93
:1005F000002102F03DFD0098002102F06DFF0098FF
:10060000082102F035FD0098082102F065FF002165
:10061000384602F02DFD0021384602F05DFF04212E
:10062000384602F025FD0421384602F055FF082126
:10063000384602F01DFD0821384602F04DFF0C211E
:10064000384602F015FD0C21384602F045FF002126
:10065000484602F00DFD0021484602F03DFF04210E
:10066000484602F005FD0421484602F035FF019896
:10067000DFF8007A042102F0FBFC0198042102F06B
:100680002BFF584602F0B9FCDFF8EC0900210160AD
:1006900041608160C1604FF0804000224163C163CE
:1006A0004FF47A70C8F83400C8F83800C8F83C0035
:1006B000C8F84000CAF83400CAF83800A9634FF4FB
:1006C0000041DFF8B809DFF8B85904F0A2FC0122B4
:1006D0004FF40061204604F09CFC00224FF40051CE
:1006E000284604F096FC01224FF48041284604F08D
:1006F00090FC00224FF48061284604F08AFC01221D
:100700004FF40061284604F084FC00224021384662
:1007100004F07FFC01228021384604F07AFC00229C
:100720004FF40071384604F074FC01224FF48061EC
:10073000384604F06EFC00224FF48051204604F04D
:1007400068FC01224FF40051204604F062FC0022B4
:100750001021384604F05DFC00222021384604F0C8
:1007600058FC00221021284604F053FC00222021CE
:10077000284604F04EFC04F071FC04F08CFC0FF2EF
:10078000C00191E8BC001EA8002180E8BC0004F074
:1007900034FD0FF2C001706319A891E8BC0080E835
:1007A000BC00002104F029FD0FF2BC01B06314A8C5
:1007B00091E8BC0080E8BC00002104F01EFD0FF2AF
:1007C000BC01F0630FA891E8BC0080E8BC000021E8
:1007D00004F013FD0FF2B80130640AA891E8BC00E0
:1007E00080E8BC00002104F008FD0FF2B80170643D
:1007F00005A891E8BC0080E8BC00002104F0FDFCE5
:100800000FF2B401B064684691E8BC0080E8BC0017
:10081000002104F0F2FCF06404F0EAFCFEE70000C2
:1008200000000000000000000000000000000000C8
:1008300000000000000000000000000000000000B8
:100840004C7A0008BD100008FDFF00000000000009
:1008500080000000587A0008C9100008000000005D
:100860000000000080000000647A0008F920000801
:10087000020000000000000080000000707A000804
:10088000FD290008010000000000000080000000B9
:100890007C7A0008952A0008FEFF00000000000096
:1008A00080000000887A0008BD2A000800000000CF
:1008B0000000000080000000907A0008892D0008E8
:1008C000000000000000000080000000F8B592B0B9
:1008D00006A8302104F0B0FC01AC0025002600275A
:1008E000E0C460C4DFF89C070095016841F08051C6
:1008F00001600121006800F0805000900098DFF84E
:1009000088070095026842F4404202604FF480324A
:10091000006800F4404000900098069102204FF4D7
:1009200080010D910C90C0210F9104200E90109029
:1009300008210792119106A804F082FC00B1FEE79D
:10094000022102910F204FF48051019004910395F0
:100950000595032101A804F0F1FD00B1FEE713B0F5
:10096000F0BD38B584B06846002100220023002481
:1009700080E81E004FF48030DFF81047E24D6060E1
:10098000A16001202061A0612162E162E160256037
:10099000DFF8FC06A0620620E061012020636061B0
:1009A000204604F0B9FE00B1FEE7022000900121CC
:1009B0000720019102906946204604F05BFF00B1D8
:1009C000FEE703200221009001912046694604F0D1
:1009D00051FF00B1FEE70A2003210090019120465B
:1009E000694604F047FF00B1FEE70B2004210090A8
:1009F00001912046694604F03DFF00B1FEE70C205E
:100A00000521009001912046694604F033FF00B1B2
:100A1000FEE70D200621009001912046694604F072
:100A200029FF00B1FEE705B030BDF8B50FF2CC00EC
:100A300090B0D0E90023CDE9002302A900200024D2
:100A40000025002671C131C109AA00230027844670
:100A50008646A2E88850A2E88810DFF80C46DFF846
:100A60003406206063604FF49650E060A360236119
:100A70006361204602F0EDFA00B1FEE700900195B7
:100A80006946204602F03DFD00B1FEE7602002907D
:100A9000039504950595069507950895002202A9EA
:100AA000204602F0C6FB00B1FEE7042202A9204660
:100AB00002F0BFFB00B1FEE7082202A9204602F0C7
:100AC000B8FB00B1FEE70C2202A9204602F0B1FB00
:100AD00000B1FEE74FF4005109900B900D900E917C
:100AE0000F900A950C9509A9204602F030FD00B13F
:100AF000FEE7204602F0C3FF11B0F0BD0000000089
:100B0000000000002DE9F04186B068460021002277
:100B100000230EC006C0059146F63047DFF8CC032F
:100B2000DFF85C850168DFF84C45DFF85055DFF8E9
:100B3000406541F010010160026802F01002059268
:100B4000002205990592036843F0040303600168DD
:100B500001F00401059105990592036843F08003B3
:100B60000360016801F08001059105990592036811
:100B700043F001030360016801F00101059105994B
:100B80000592036843F002030360016801F002016B
:100B90000591059905923946036843F008030360FF
:100BA000006800F0080005900598404604F031FA0E
:100BB00000224FF4DE61204604F02BFA00224FF4AD
:100BC0000041284604F025FA00224FF478413046CF
:100BD00004F01FFA00970120002101900291039177
:100BE0004046694604F0CAF84FF4DE6000900121E7
:100BF00000200191029003906946204604F0BEF85F
:100C00004FF4C070009000210220019102906946CB
:100C1000DFF8840404F0B2F84FF4E04000900021C3
:100C20000220019102906946284604F0A7F84FF48B
:100C3000004000900121002001910290039069463C
:100C4000284604F09BF84FF470700090DFF84C14C5
:100C50000191022002906946304604F08FF84FF46B
:100C60008060009000210220019102906946304688
:100C700004F084F84FF478400090012100200191A5
:100C8000029003906946304604F078F83F200090C7
:100C90000220DFF80C14019102906946304604F0FE
:100CA0006DF800220521062002F05BF9062002F013
:100CB00081F900220521072002F053F9072002F0F4
:100CC00079F900220521082002F04BF9082002F0F2
:100CD00071F900220521092002F043F9092002F0F0
:100CE00069F9002205210A2002F03BF90A2002F0EE
:100CF00061F900220521172002F033F9172002F0D4
:100D000059F906B0BDE8F0810020014038B501284E
:100D100017D0022826D0042835D0082844D010281F
:100D200052D0202861D040286ED0802800F08880E2
:100D3000B0F5807F00F0A080B0F5007F00F0B980B2
:100D400031BD4FF48051DFF83403DFF8584304F02D
:100D500059F90028A08802D0401CA08031BD411E56
:100D6000A18031BD4FF40051DFF81003DFF83443A8
:100D700004F048F90028E08802D0401CE08031BD32
:100D8000411EE18031BD4FF48041DFF8F002DFF811
:100D9000144304F037F90028208902D0401C208138
:100DA00031BD411E218131BD8021DFF8EC02DFF829
:100DB000F44204F027F90028608902D0401C6081C9
:100DC00031BD411E618131BD4FF48071DFF8C80231
:100DD000DFF8D04204F016F90028A08902D0401CA8
:100DE000A08131BD411EA18131BD4FF48061A04879
:100DF000AC4C04F007F90028E08902D0401CE081E7
:100E000031BD411EE18131BDA74CA84D2068401C79
:100E100020604021964804F0F5F80028286801D0A9
:100E2000606031BDA0609F496068A2689042A2687E
:100E3000606824BF02F57F42FF32121A4A6231BD58
:100E4000994C9A4DE068401CE0608021884804F08D
:100E5000D9F80028286801D0206131BD606191492E
:100E60002069626990426269206924BF02F57F426D
:100E7000FF32121A8A6231BD8B4C8C4DA069401C26
:100E8000A0614FF480717A4804F0BCF8002828680B
:100E900001D0E06131BD20628249E069226A90425E
:100EA000226AE06924BF02F57F42FF32121ACA6249
:100EB00031BD7D4C7D4D606A401C60624FF4007115
:100EC0006B4804F09FF80028286801D0A06231BD6B
:100ED000E0627449A06AE26A9042E26AA06A24BFB2
:100EE00002F57F42FF32121A0A6331BD30380240E8
:100EF0008C450020F83E002000540040A0860100F0
:100F000000300240744400200014014000040040FE
:100F100010B52DED028BB0EE408A10EE900A04F071
:100F200011FE634A634B04F031FE0022624B04F071
:100F3000FFFE05F021F800EE100AB5EE400AF1EED2
:100F400010FADFED440A10DBB4EE600AF1EE10FA9D
:100F50000BD5544CF0EE000A84ED1A8A20EE200ADC
:100F600005F02AF928EE400A4CE0B4EE600AF1EEF2
:100F700010FA9FED3A1A12DBB4EE410AF1EE10FAC4
:100F80000DD5F0EE000A20EE200A05F015F9454CCB
:100F900028EE400A84ED1A0A84ED1B8A34E0B4EE90
:100FA000410AF1EE10FADFED2F0A12DBB4EE600A0F
:100FB000F1EE10FA0DD53B4CF1EE480AC4ED1A0AD9
:100FC000F0EE000A20EE200A05F0F6F828EE000AFE
:100FD00018E0B4EE600AF1EE10FA15DB9FED231A6B
:100FE000B4EE410AF1EE10FA0ED5F0EE000A20EE52
:100FF000200A05F0E1F82B4C28EE000A84ED1A0ACD
:10100000B1EE480A84ED1B0ABDEC028B10BD000056
:1010100000080040C207234907D591ED1F0AF7EEEB
:10102000000A70EE200AC1ED1F0A420707D591EDB4
:101030001F0AFFEE000A70EE200AC1ED1F0A000928
:1010400000F00100C8707047000C0040005C0040D8
:1010500000400140D00FC93F00440140D00F49403B
:1010600000500140DCCB964014450020D00FC94011
:10107000000C024000000240340001400004024025
:10108000000802404038024000700040CC4400207C
:101090000100000F0000014000100240000031106C
:1010A000000011102C000020BC4500202444014009
:1010B0006E861BF0F92109400080664080B5012052
:1010C00004F0B3F8FBE700002DE9F84F2DED108B8D
:1010D0008AB003A800210022002380E80E00062227
:1010E000DFF8E81CDFF8E80CDFF8E86CDFF8E88CE4
:1010F000DFF8E87C04F038FBDFF8D80C843000908F
:1011000000244FF4B4709FED638B9FED65BA9FEDA3
:1011100065FBDFED66BA9FED049B01909FED04AB8C
:101120009FED5ECA029445E00000000000408F4041
:10113000000000989999E93F706D04F003FD41ECBF
:10114000100B05F03EF853EC102B51EC180B04F08B
:101150001DFDDFF8782EDFF8783E04F0E9FD53EC52
:10116000182B05F035F804F007FF306496ED0F0AF0
:10117000B4EE4B0AF1EE10FA05DB96ED0F0A3BEEEA
:10118000400A86ED0F0A96ED100AB4EE4B0AF1EE16
:1011900010FA05DB96ED100A3BEE400A86ED100AC8
:1011A00006A803F08BFF0698306706A841687167B0
:1011B0008068B0674FF48051DFF8184E204603F086
:1011C00021FF30704FF40051204603F01BFF707078
:1011D0004FF48041204603F015FFB0708021DFF806
:1011E000F84D204603F00EFFF0704FF4807120465A
:1011F00003F008FF30714FF48061DFF8E00D03F079
:1012000001FF70719FEDAFDBD8F80000B063B08ACA
:1012100004F00BF80298401C0290786A05F094F8EC
:1012200053EC1D2B04F0B2FC04F0A6FEB061B86ACA
:1012300005F08AF853EC1D2B04F0A8FC04F09CFE8A
:101240003062F86A05F080F853EC1D2B04F09EFC28
:1012500004F092FEB062386B05F076F853EC1D2B6B
:1012600004F094FC04F088FE306396ED060AD6ED97
:10127000070AB4EE600AF1EE10FA19D1388A401C60
:10128000388240F2E930398A814213DB4FF47A70B8
:101290000FE000BF0000000000806640CDCC4C3E57
:1012A0000000B443000000D0CCCCE43F3333B33E65
:1012B0000020388296ED080AD6ED090AB4EE600ADD
:1012C000F1EE10FA0AD1788A401C788240F2E930B7
:1012D000798A814204DB4FF47A7000E00020788242
:1012E00096ED0A0AD6ED0B0AB4EE600AF1EE10FA9A
:1012F0000AD1B88A401CB88240F2E930B98A8142EA
:1013000004DB4FF47A7000E00020B88296ED0C0AFE
:10131000D6ED0D0AB4EE600AF1EE10FA0AD1F88AA1
:10132000401CF88240F2E930F98A814204DB4FF434
:101330007A7000E00020F882B069F0619FED63EB05
:10134000306A70629FED63DBB06AF062306B70638D
:1013500096ED060A20EE0C0A10EE100A04F0F2FBDD
:101360000446786B0D4604F0EDFB53EC1A2B04F0A9
:101370000DFC22462B4604F02BFF04F0FDFD7863A4
:1013800096ED080A20EE0C0A10EE100A04F0DAFBC3
:101390000446B86B0D4604F0D5FB53EC1A2B04F051
:1013A000F5FB22462B4604F013FF04F0E5FDB8637D
:1013B00096ED0A0A20EE0C0A10EE100A04F0C2FBA9
:1013C0000446F86B0D4604F0BDFB53EC1A2B04F0F9
:1013D000DDFB22462B4604F0FBFE04F0CDFDF86356
:1013E00096ED0C0A20EE0C0A10EE100A04F0AAFB8F
:1013F0000446386C0D4604F0A5FB53EC1A2B04F0A0
:10140000C5FB22462B4604F0E3FE04F0B5FD38642C
:10141000DFF8B849A06904F097FF53EC1E2B04F0E5
:10142000B5FB53EC1D2B04F0B1FB0022DFF8AC3C04
:1014300004F07EFC04F0A0FD7864E06904F084FF11
:1014400053EC1E2B04F0A2FB53EC1D2B04F09EFB6F
:101450000022DFF8883C04F06BFC04F08DFDB864DA
:1014600047F60152206ADFF8781C3883606A788377
:10147000A06AB883E06AF883F388BC88DFF8640C5C
:10148000E51A95422ADB009D95ED1B0A758A041921
:10149000E31A00EE903AF8EEE00A20EE800A00EE41
:1014A000905AF8EE600A80EE200AD6ED1F0A30EE60
:1014B000200A86ED1F0A748A019D6B4393FBF4F3A7
:1014C00049E000BFC3F5285C8FC2C53F00000000A3
:1014D0000000084000000000000024408D421FDA98
:1014E000009D95ED1B0A758A4FF6FF7C6444E31A54
:1014F00000EE903AF8EEE00A20EE800A00EE905AF4
:10150000F8EE600A80EE200AD6ED1F0A30EE200ABF
:1015100086ED1F0A748A019D6B4393FBF4F31AE076
:10152000009C94ED1B0A738A00EE905AF8EEE00AD4
:1015300020EE800A00EE903AF8EE600A80EE200A73
:10154000D6ED1F0A30EE200A86ED1F0A738A019C31
:10155000654395FBF3F300EE103A009BD3ED0A0AC6
:10156000B8EEC00A30EE200A83ED0A0A3389FC88FF
:10157000E51A95421EDB009D95ED1B0A758A04193C
:10158000E31A00EE903AF8EEE00A20EE800A00EE50
:10159000905A009CF8EE600A80EE200AD4ED000A12
:1015A00030EE200A84ED000A748A019D6B4393FBA0
:1015B000F4F33DE08D4220DA009D95ED1B0A758A1B
:1015C0004FF6FF7C6444E31A00EE903AF8EEE00A2E
:1015D00020EE800A00EE905A009CF8EE600A80EE41
:1015E000200AD4ED000A30EE200A84ED000A748A45
:1015F000019D6B4393FBF4F31AE0009C94ED1B0AEE
:10160000738A00EE905AF8EEE00A20EE800A00EEAF
:10161000903AF8EE600A80EE200AD4ED000A30EE2F
:10162000200A84ED000A738A019C654395FBF3F35D
:1016300000EE103A009BD3ED0B0AB8EEC00A30EE74
:10164000200A83ED0B0A73893C89E51A95421EDB5B
:10165000009D95ED1B0A758A0419E31A00EE903A75
:10166000F8EEE00A20EE800A00EE905A009CF8EEB8
:10167000600A80EE200AD4ED020A30EE200A84EDE2
:10168000020A748A019D6B4393FBF4F33EE08D42A2
:1016900020DA009D95ED1B0A758A4FF6FF7C6444A5
:1016A000E31A00EE903AF8EEE00A20EE800A00EE2F
:1016B000905A009CF8EE600A80EE200AD4ED020AEF
:1016C00030EE200A84ED020A748A019D6B4393FB7D
:1016D000F4F31BE0009B93ED1B0A738A00EE905A13
:1016E000F8EEE00A20EE800A00EE903A009BF8EE59
:1016F000600A80EE200AD3ED020A30EE200A83ED64
:10170000020A738A019C654395FBF3F300EE103ADD
:10171000B8EEC00AD7ED130A30EE200A87ED130A9F
:10172000B389B7F80AB0ABEB030595421FDB009D08
:1017300095ED1B0A758A00EB0B04E31A00EE903A54
:10174000F8EEE00A20EE800A00EE905A009CF8EED7
:10175000600A80EE200AD4ED040A30EE200A84EDFF
:10176000040A748A019D6B4393FBF4F33EE08D42BF
:1017700021DA009D95ED1B0A758A4FF6FF7C0CEB74
:101780000B04E31A00EE903AF8EEE00A20EE800A2D
:1017900000EE905A009CF8EE600A80EE200AD4ED2C
:1017A000040A30EE200A84ED040A748A019D6B431A
:1017B00093FBF4F31AE0009C94ED1B0A738A00EE8D
:1017C000905AF8EEE00A20EE800A00EE903AF8EE29
:1017D000600A80EE200AD4ED040A30EE200A84ED7F
:1017E000040A738A019C654395FBF3F300EE103AFB
:1017F000009BD3ED0C0AB8EEC00A30EE200A83ED50
:101800000C0AF389B7F80CA0AAEB030595421FDB7D
:10181000009D95ED1B0A758A00EB0A04E31A00EEA1
:10182000903AF8EEE00A20EE800A00EE905A009C12
:10183000F8EE600A80EE200AD4ED060A30EE200AA7
:1018400084ED060A748A019D6B4393FBF4F33EE03A
:101850008D4221DA009D95ED1B0A758A4FF6FF7CBB
:101860000CEB0A04E31A00EE903AF8EEE00A20EEE0
:10187000800A00EE905A009CF8EE600A80EE200A82
:10188000D4ED060A30EE200A84ED060A748A019D22
:101890006B4393FBF4F31AE0009C94ED1B0A738AEC
:1018A00000EE905AF8EEE00A20EE800A00EE903A40
:1018B000F8EE600A80EE200AD4ED060A30EE200A27
:1018C00084ED060A738A019C654395FBF3F300EEF1
:1018D000103A009BD3ED0D0AB8EEC00A30EE200A94
:1018E00083ED0D0A338AB7F80E90A9EB03059542F4
:1018F0001EDB009991ED1B0A718A4844C01A00EE64
:10190000900AF8EEE00A20EE800A00EE901A0099A4
:10191000F8EE600A80EE200AD1ED080A30EE200AC7
:1019200081ED080A718A019A504390FBF1F03AE088
:101930008D42009991ED1B0A1DDA4FF6FF70484465
:10194000C01A00EE900A718AF8EEE00A20EE800AD2
:1019500000EE901A0099F8EE600A80EE200AD1EDB0
:10196000080A30EE200A81ED080A718A019A504374
:1019700090FBF1F017E000EE905A708AF8EEE00A62
:1019800020EE800A00EE900AF8EE600A80EE200A4F
:10199000D1ED080A30EE200A81ED080A708A01991B
:1019A0004D4395FBF0F000EE100A0098D0ED0E0AC2
:1019B000B8EEC00A30EE200A80ED0E0A96ED1F0A3E
:1019C000D6ED200A30EE600A10EE100A04F0BAF8E4
:1019D00053EC192B04F0DAF80446B08A0D4604F0F3
:1019E000B3FC02460B462046294604F0A1F904F058
:1019F000C3FA0099C863009890ED000AD0ED010A7F
:101A000030EE600A10EE100A04F09CF853EC192B2B
:101A100004F0BCF80446B08A0D4604F095FC02467A
:101A20000B462046294604F083F904F0A5FA0099F4
:101A30004864009890ED020AD0ED030A30EE600A87
:101A400010EE100A04F07EF853EC192B04F09EF807
:101A50000446B08A0D4604F077FC02460B46204649
:101A6000294604F065F904F087FA0099C8640098E3
:101A700090ED040AD0ED050A30EE600A10EE100A6F
:101A800004F060F853EC192B04F080F80446B08A97
:101A90000D4604F059FC02460B462046294604F048
:101AA00047F904F069FA00994865009890ED060A34
:101AB000D0ED070A30EE600A10EE100A04F042F88A
:101AC00053EC192B04F062F80446B08A0D4604F07A
:101AD0003BFC02460B462046294604F029F904F057
:101AE0004BFA0099C865009890ED080AD0ED090AF4
:101AF00030EE600A10EE100A04F024F853EC192BB3
:101B000004F044F80446B08A0D4604F01DFC024679
:101B10000B462046294604F00BF904F02DFA0099F3
:101B20004866009890ED0F0A20EE2B0A10EE100A7E
:101B300004F008F80446386D0D4604F003F853EC41
:101B40001F2B04F023F822462B4604F041FB04F03F
:101B500013FA3865009890ED110A20EE2B0A10EE6A
:101B6000100A03F0EFFF0446786D0D4603F0EAFF1C
:101B700053EC1F2B04F00AF822462B4604F028FBF6
:101B800004F0FAF97865009890ED130A20EE2B0A1C
:101B900010EE100A03F0D6FF0446B86D0D4603F0B0
:101BA000D1FF53EC1F2B03F0F1FF22462B4604F02C
:101BB0000FFB04F0E1F9B865009890ED150A20EEEE
:101BC0002B0A10EE100A03F0BDFF0446F86D0D4617
:101BD00003F0B8FF53EC1F2B03F0D8FF22462B462F
:101BE00004F0F6FA04F0C8F9F865009890ED170AC9
:101BF00020EE2B0A10EE100A03F0A4FF0446386E04
:101C00000D4603F09FFF53EC1F2B03F0BFFF22464E
:101C10002B4604F0DDFA04F0AFF93866009890ED39
:101C2000190A20EE2B0A10EE100A03F08BFF04466F
:101C3000786E0D4603F086FF53EC1F2B03F0A6FFD2
:101C400022462B4604F0C4FA04F096F9786697ED24
:101C5000140A0098D0ED1B0A80EE200A20EE0B0A31
:101C6000F1EE080A80EE200A80ED100A97ED150AC1
:101C70000098D0ED1B0A80EE200A20EE0B0AF1EE50
:101C8000080A80EE200A80ED120A97ED160A0098E5
:101C9000D0ED1B0A80EE200A20EE0B0AF1EE080AB6
:101CA00080EE200A80ED140A97ED170A0098D0ED17
:101CB0001B0A80EE200A20EE0B0AF1EE080A80EEE5
:101CC000200A80ED160A97ED180A0098D0ED1B0A3D
:101CD000DFF8DC3D80EE200A20EE0B0AF1EE080A68
:101CE00080EE200A80ED180A97ED190A0098D0EDD1
:101CF0001B0A80EE200A20EE0B0AF1EE080A80EEA5
:101D0000200A80ED1A0AF06FC6F880000098026879
:101D1000426000988268C26000980269426100983F
:101D20008269C2610098026A4262B888F080F888CD
:101D3000308138897081A6F80CB0A6F80EA0A6F8FC
:101D4000109002980146A1FB0332D20802EB8204F4
:101D5000B0EB440016D1D8F800104FF6FE70814267
:101D600059D2DFF8504D01221021204603F051F9DD
:101D7000D8F80000401CD8F800209042FBD2002286
:101D8000102145E0022808D1D8F800104FF6FE7067
:101D9000814240D2DFF81C4D2CE0042820D1D8F835
:101DA00000104FF6FE70814235D2DFF80C4D012253
:101DB0001021204603F02DF9D8F80000401CD8F877
:101DC00000209042FBD20022102121E08C4500200F
:101DD000CC440020AC000020244401402C00002012
:101DE000062818D1D8F800104FF6FE70814212D2A2
:101DF000DFF8C44C01222021204603F00AF9D8F86C
:101E00000000401CD8F800209042FBD20022202184
:101E1000204603F0FEF8029810F0030F7FF4CAA9E1
:101E200003A803F02FF90398B0659FEDAFDB03A87B
:101E30004168F1658068306696ED160A20EE0C0A5E
:101E400010EE100A03F07EFE0446706E0D4603F09D
:101E500079FE53EC1A2B03F099FE22462B4604F030
:101E6000B7F904F089F8706696ED170A20EE0C0AAF
:101E700010EE100A03F066FE0446B06E0D4603F045
:101E800061FE53EC1A2B03F081FE22462B4604F030
:101E90009FF904F071F8B06696ED180A20EE0C0A6E
:101EA00010EE100A03F04EFE0446F06E0D4603F0ED
:101EB00049FE53EC1A2B03F069FE22462B4604F030
:101EC00087F904F059F8F06696ED190AD6ED190A6B
:101ED00096ED1A1AD6ED1A1A96ED1B2A20EE200A54
:101EE00001EE210AD6ED1B0A02EE200A10EE100ABE
:101EF00003F028FE41EC100B04F034FA51EC100B07
:101F000004F03AF8706496ED1A0AD6ED110A80EEE4
:101F1000200A86ED120A96ED120AD6ED120A20EE7C
:101F2000200A10EE100A03F00DFE02460B4651EC9B
:101F30001D0B04F099FA41EC100B04F013FA51EC6C
:101F4000100B04F019F8F06496ED190AD6ED110A99
:101F500080EE200A86ED140A96ED140AD6ED140AD6
:101F600020EE200A10EE100A03F0ECFD02460B46AC
:101F700051EC1D0B04F078FA41EC100B04F0F2F96F
:101F800051EC100B03F0F8FF706596ED120AB5EEF8
:101F9000400AF1EE10FA23DDD6ED130AF06CF5EEEF
:101FA000400AF1EE10FA3BDD03F0CCFD41EC100BE2
:101FB00004F007F953EC102B51EC180B03F0E6FD7D
:101FC000024A034B03F0B4FE40E000BF6E861BF0F4
:101FD000F92109400004024000100240000C0240B8
:101FE00096ED130AB5EE400AF1EE10FA17DDF06C2B
:101FF00003F0A8FD41EC100B04F0E3F853EC102BB8
:1020000051EC180B03F0C2FDDFF8542DDFF84C3D06
:1020100003F08EFE9FED36DB53EC1D2B14E0F06CCD
:1020200003F090FD41EC100B04F0CBF853EC102BB7
:1020300051EC180B03F0AAFDDFF8242DDFF81C3D4E
:1020400003F076FE53EC182B04F0C2F803F094FF73
:10205000F06396ED140AB5EE400AF1EE10FA1CDDBD
:10206000D6ED150A706DF5EE400AF1EE10FA7FF725
:1020700064A803F067FD41EC100B04F0A2F853ECE8
:10208000102B51EC180B03F081FDDFF8D42CDFF896
:10209000CC3C03F04DFEFFF766B896ED150AB5EEA1
:1020A000400AF1EE10FA7FF747A8706D03F04AFD81
:1020B00041EC100B04F085F853EC102B51EC180B8D
:1020C00003F064FDDFF8982CDFF8903C03F030FE5D
:1020D0009FED07DB53EC1D2BFFF743B800FEAF402D
:1020E0000083FFFF0100FFFF000000000000F03F41
:1020F00000000000008076402DE9F84F2DED048BA4
:1021000082B0DFF86C6DDFF86C0DDFF8A8A9DFF89E
:10211000A899DFF864BDDFF8645D01904FF4965133
:1021200006F1840700919FED018B59E07B14AE47C7
:10213000E17A843F00224FF48051584602F069FF53
:1021400001222EE000224FF40071504602F061FFA0
:1021500001224FF48061504602F05BFF97ED020AC6
:102160000099DFF8202DDFF8204DBDEEC00A10EEFB
:10217000100A002848BF4042484380FB02325011F9
:1021800000EBD070206097ED020AB5EE400AF1EE48
:1021900010FACFDB01224FF48051584602F039FF8C
:1021A00000224FF40051584602F033FF97ED080A21
:1021B0000099DFF8D02CBDEEC00A10EE100A0028FE
:1021C00048BF4042484380FB0232501100EBD070C0
:1021D000A0603068306170687061142003F025F8E9
:1021E00095ED1A0AB1EE400A86ED020AE86EF0603B
:1021F00096ED040AD6ED020AB4EE600AF1EE10FA8A
:1022000013D596ED040AD6ED060A30EE200AD6ED77
:10221000020AB4EE600AF1EE10FA25D596ED040A32
:10222000D6ED060A30EE200A1BE096ED020AD6ED46
:10223000040AB4EE600AF1EE10FA17D596ED020A20
:10224000D6ED040A96ED061A70EEC10AB4EE600AE5
:10225000F1EE10FA08D596ED040AD6ED060A30EE36
:10226000600A86ED000A01E0B068306096ED050A6C
:10227000D6ED030AB4EE600AF1EE10FA13D596ED2E
:10228000050AD6ED060A30EE200AD6ED030AB4EEB2
:10229000600AF1EE10FA25D596ED050AD6ED060A8C
:1022A00030EE200A1BE096ED030AD6ED050AB4EEE7
:1022B000600AF1EE10FA17D596ED030AD6ED050A7D
:1022C00096ED061A70EEC10AB4EE600AF1EE10FA4D
:1022D00008D596ED050AD6ED060A30EE600A86EDC1
:1022E000010A01E0F0687060F069306296ED000A62
:1022F000D5ED140A30EE600A86ED070A96ED090A5C
:10230000D6ED070A97ED0B1AD6ED0B1A30EE200A20
:10231000D6ED0C0A71EEE00A00EE810A86ED090A9C
:1023200096ED070AD6ED080A30EE600A86ED0A0A35
:1023300097ED0C0AD6ED070A97ED0D1AD6ED091A9E
:1023400097ED0E2A20EE200A01EE210AD6ED0A0AA8
:1023500002EE200ABDEEC00AB8EEC00A86ED0B0AF6
:10236000F06A3063706BB06396ED000AD5ED150A24
:1023700030EE600A86ED0D0A96ED0F0AD6ED0D0AD5
:1023800097ED0B1AD6ED111A30EE200AD6ED120A8F
:1023900071EEE00A00EE810A86ED0F0A96ED0D0A55
:1023A000D6ED0E0A30EE600A86ED100A97ED0C0AA3
:1023B000D6ED0D0A97ED0D1AD6ED0F1A97ED0E2AF0
:1023C00020EE200A01EE210AD6ED100A02EE200AC4
:1023D000BDEEC00AB8EEC00A86ED110A706CB0649A
:1023E00095ED1F0AD5ED130A30EE600A87ED0F0A4E
:1023F000F06C306597ED0F0AD7ED100A20EE200A39
:10240000D5ED160A30EE600A86ED130A96ED150A30
:10241000D6ED130A97ED0B1AD6ED171A30EE200AF7
:10242000D6ED180A71EEE00A00EE810A86ED150A73
:1024300096ED130AD6ED140A30EE600A86ED160A00
:1024400097ED0C0AD6ED130A97ED0D1AD6ED151A75
:1024500097ED0E2A20EE200A01EE210AD6ED160A8B
:1024600002EE200ABDEEC00AB8EEC00A86ED170AD9
:10247000F06D3066706EB06696ED010AD5ED170A04
:1024800030EE600A86ED190A96ED1B0AD6ED190AA0
:1024900097ED0B1AD6ED1D1A30EE200AD6ED1E0A66
:1024A00071EEE00A00EE810A86ED1B0A96ED190A2C
:1024B000D6ED1A0A30EE600A86ED1C0A97ED0C0A7A
:1024C000D6ED190A97ED0D1AD6ED1B1A97ED0E2AC7
:1024D00020EE200A01EE210AD6ED1C0A02EE200AA7
:1024E000BDEEC00AB8EEC00A86ED1D0A706FB06777
:1024F000F06FC6F8800096ED010AD5ED180A30EEAF
:10250000600A86ED1F0A97ED000AD6ED1F0A97EDC7
:102510000B1AD7ED021A30EE200AD7ED030A71EE3E
:10252000E00A00EE810A87ED000A96ED1F0AD6ED5B
:10253000200A30EE600A87ED010A97ED0C0AD6ED0D
:102540001F0A97ED0D1AD7ED001A97ED0E2A20EE0F
:10255000200A01EE210AD7ED010A02EE200ABDEEA3
:10256000C00AB8EEC00A87ED020AB868F860386998
:10257000786196ED010AD5ED190A30EE600A87ED13
:10258000040A97ED060AD7ED040A97ED0B1AD7ED6A
:10259000081A30EE200AD7ED090A71EEE00A00EEC3
:1025A000810A87ED060A97ED040AD7ED050A30EE99
:1025B000600A87ED070A97ED0C0AD7ED040A97ED3C
:1025C0000D1AD7ED061A97ED0E2A20EE200A01EE1D
:1025D000210AD7ED070A02EE200ABDEEC00AB8EEC6
:1025E000C00A87ED080A386A7862306803F0AAFAF0
:1025F00021F00041DFF8AC28DFF8AC3803F0A6FF8B
:1026000047D296ED099A706A03F09CFA0446884610
:1026100019EE100A03F096FA53EC182B03F0B6FAF1
:1026200002460B462046414603F01EFF03F0A4FC81
:10263000706296ED0F9AF06B03F084FA04468846B8
:1026400019EE100A03F07EFA53EC182B03F09EFAF1
:1026500002460B462046414603F006FF03F08CFC81
:10266000F06396ED159A706D03F06CFA0446884697
:1026700019EE100A03F066FA53EC182B03F086FAF1
:1026800002460B462046414603F0EEFE03F074FC82
:102690007065706803F056FA21F00041DFF80428F5
:1026A000DFF8043803F052FF47D296ED1B9AF06E24
:1026B00003F048FA0446884619EE100A03F042FA7D
:1026C00053EC182B03F062FA02460B4620464146B3
:1026D00003F0CAFE03F050FCF06697ED009A3868EC
:1026E00003F030FA0446884619EE100A03F02AFA7D
:1026F00053EC182B03F04AFA02460B46204641469B
:1027000003F0B2FE03F038FC386097ED069AB86922
:1027100003F018FA0446884619EE100A03F012FA7C
:1027200053EC182B03F032FA02460B462046414682
:1027300003F09AFE03F020FCB86197ED0A0AD7ED8A
:102740000A0A96ED0B1AF1EE600AB4EE601AF1EE89
:1027500010FA48BFB0EE601A06D4B4EE410AF1EEAA
:1027600010FA48BFB0EE401A86ED0B1A97ED0A0A30
:10277000D7ED0A0A96ED111AF1EE600AB4EE601A6E
:10278000F1EE10FA48BFB0EE601A06D4B4EE410A7A
:10279000F1EE10FA48BFB0EE401A86ED111A97ED2F
:1027A0000A0AD7ED0A0A96ED171AF1EE600AB4EE9E
:1027B000601AF1EE10FA48BFB0EE601A06D4B4EE1B
:1027C000410AF1EE10FA48BFB0EE401A86ED171A32
:1027D00097ED0A0AD7ED0A0A96ED1D1AF1EE600A86
:1027E000B4EE601AF1EE10FA48BFB0EE601A06D4EB
:1027F000B4EE410AF1EE10FA48BFB0EE401A86ED91
:102800001D1A97ED0A0AD7ED0A0A97ED021AF1EEA2
:10281000600AB4EE601AF1EE10FA48BFB0EE601A2A
:1028200006D4B4EE410AF1EE10FA48BFB0EE401AF9
:1028300087ED021A97ED0A0AD7ED0A0A97ED081AF2
:10284000F1EE600AB4EE601AF1EE10FA48BFB0EE95
:10285000601A06D4B4EE410AF1EE10FA48BFB0EEA9
:10286000401A87ED081A96ED0B0ADFF84006B5EE20
:10287000400AF1EE10FA06DB01224FF4004102F0AB
:10288000C8FB002205E000224FF4004102F0C1FB2A
:1028900001224FF40061584602F0BBFB96ED0B0A93
:1028A0000099DFF8E025019CBDEEC00A10EE100A89
:1028B000002848BF4042484380FB0232501100EBE1
:1028C000D070206096ED110AB5EE400AF1EE10FAD4
:1028D00007DB01224FF40051484602F09AFB002228
:1028E00006E000224FF40051484602F092FB01221C
:1028F0004FF48041484602F08CFB96ED110A009996
:10290000DFF88025019CBDEEC00A10EE100A0028F9
:1029100048BF4042484380FB0232501100EBD07068
:10292000606096ED170AB5EE400AF1EE10FA07DB8B
:1029300001224FF48061484602F06BFB002206E062
:1029400000224FF48061484602F063FB01224FF4FD
:102950000061484602F05DFB96ED170A0099DFF82A
:102960002425019CBDEEC00A10EE100A002848BFC5
:102970004042484380FB0232501100EBD070A0600F
:1029800096ED1D0AB5EE400AF1EE10FA06DB0122C3
:102990004021504602F03DFB002205E0002240218C
:1029A000504602F036FB01228021504602F031FBF6
:1029B00096ED1D0A0099DFF8CC24019CBDEEC00AFB
:1029C00010EE100A002848BF4042484380FB023204
:1029D000501100EBD070E06097ED020AB5EE400AAE
:1029E000F1EE10FAFFF6AEAB01224FF40071504643
:1029F00002F00FFB0022FFF7ACBB000070B540F205
:102A0000E934DFF87854DFF8A8640522314606F18E
:102A1000100001F044FE3178FF2925D17078652837
:102A2000BCBFB178B5291FDA00EE100AB8EE400A33
:102A3000DFEDD40A80EE200A85ED1D0A00EE101AA3
:102A4000B8EE400AF0EE000A20EE200A85ED1E0ADC
:102A5000F0782870717B30793073884204D003F0AD
:102A60008DFD3065307B707303F088FD316D401A49
:102A70002867706D296F88423CBF286F7065286F8A
:102A8000A04203D300206867A8672870142002F0D2
:102A9000CCFBBAE710B5DFF8E0434FF47A7002F0F0
:102AA000C4FB4FF40041204602F0B9FAF5E70000FC
:102AB000CDCCCCCC00000240000802402DE9F84FFC
:102AC0000FF2FC330FF20C4BDFF8B063DFF8A8A372
:102AD0002DED0A8B196882B00022002003F0B9FDA9
:102AE0000FF2E03109680022012003F0B2FD0FF27D
:102AF000D83001680022022003F0ABFD0FF2CC3089
:102B000001680022032003F0A4FD0FF2C430016825
:102B10000122042003F09DFD4FF00008002700244F
:102B200000259FED908B9FED91AADFED91AAB3EE6A
:102B30000EBA9FED909BDFED91BA9FED91CAF5EE35
:102B400000CA4FF0FF3915E0042D0AD14D4608E0C8
:102B5000022DF9D10FF2B03001680022032003F0FA
:102B600078FD6D1C6DB203F049FD4FF48041504675
:102B700002F055FA962002F058FB4FF4804150467F
:102B800002F04DFAB07818B1DBF80000002105E042
:102B9000707830B10FF240300068002103F06DFD15
:102BA00019E00FF238300068002103F066FD0FF2E3
:102BB0003030C04B0168A8FB0330C00800EB400375
:102BC000A8EB83000022001D03F043FD002003F06A
:102BD00078FD08F101080FF20C3001680022002096
:102BE00003F037FD316F40F2E930814214D3022FF8
:102BF00098BF0FF2F42004D9F81E032806D80FF26C
:102C0000EC2001680022012003F023FD062F08BFFD
:102C10004F467F1C7FB206E00FF2D42001680022ED
:102C2000012003F016FD96ED110A20EE2C0AB4EEF9
:102C30004C0AF1EE10FA04DB0FF2B8200168002212
:102C40002EE0B4EE6B0AF1EE10FA2DDB10EE100A56
:102C500002F078FF53EC192B03F0BAFA03F08CF969
:102C600000EE100ADFED860A0FF2A0200068009047
:102C700080EE200AF7EE000A70EEC00A60EE8B0AC2
:102C8000FDEEE00A10EE900A8DF8000020EE0B0A2F
:102C9000BDEEC00A10EE100A8DF801000022009966
:102CA000022003F0D6FC12E014B90FF24C2003E02E
:102CB000022C07D10FF2442001680022022003F009
:102CC000C8FC02E0042C08BF4C46641C64B296EDBC
:102CD000120A20EE2C0AB4EE6A0AF1EE10FA07DBB3
:102CE0000FF21C2001680022032003F0B2FC3AE737
:102CF000B4EE4A0AF1EE10FA2ADB10EE100A02F0E6
:102D000021FF53EC182B03F063FA03F035F900EEC2
:102D1000100ADFED5E0A0FF2F8100068009080EEF6
:102D2000200AF7EE000A70EEC00A60EE8B0AFDEE94
:102D3000E00A10EE900A8DF8000020EE0B0ABDEEBE
:102D4000C00A10EE100A8DF8010000220099CBE7AE
:102D5000002D7FF4FDAE0FF2AC10FDE6F921094025
:102D60006E861BF0E17A14AE47E1F2BF3E0A973F50
:102D70003433B33F9A9999999999E9BFCDCC4C3F97
:102D8000CDCC8C3F00C0264410B52DED068B9FEDB9
:102D9000408ADFED408A9FED409AF3EE049A9FED62
:102DA0003FAADFED3FAA354C22E00020A07013E0DF
:102DB00000206070208B6528BCBF618B652905DA17
:102DC000A08B6528BCBFE18B6529EEDB0120A070DC
:102DD000C4ED1EAA84ED1D8AD4ED1E0A94ED1D0AD1
:102DE000FEF796F82078FEF715F90A2002F01DFA92
:102DF000E07818B1C4ED1EAA84ED1DAA94ED0D0A69
:102E0000B4EE690AF1EE10FA03D5208A218C8842CB
:102E100020D394ED0E0AB4EE690AF1EE10FA03D550
:102E2000608A218C884215D394ED0F0AB4EE690AAA
:102E3000F1EE10FA03D5A08A218C88420AD394EDD2
:102E4000100AB4EE690AF1EE10FAB1D5E08A218CCD
:102E50008842ADD20120607084ED1E9AC4ED1D8AB7
:102E6000A8E700681449884208BF03F069BC7047AE
:102E7000A001002034000140000C02402C00002082
:102E80009A99993E1F85EB5134000040AE47613E50
:102E9000CDCC4C3DCDCCCC3D000034430AD7A33D36
:102EA0000000B4427B14AE47E17A843F0004024044
:102EB00074440020ABAAAAAA00480140FEE7000023
:102EC000000A00000A0A0A000A0000000A0A0000BC
:102ED00000000A000A000000000A000000000000D4
:102EE00000000A001E1E1E0000001E000000000060
:102EF00000001E00001E00001E0000000000000078
:102F0000001E00001E000000000000000000000085
:102F10000000000080B50B48016841F400710160B9
:102F2000026842F480620260016841F480710160CD
:102F3000032000F009F8002003F00AFC00F036FB43
:102F4000002002BD003C02401F4A13684FF6FF01FB
:102F500000020B4000F4E06018431C490843106075
:102F6000704738B4184B1C68C4F30223C3F107043C
:102F7000052C28BF04241D1D072D34BF0023DB1E94
:102F8000012505FA04F4641E2140994005FA03F373
:102F90005B1E1A4011430901002807D50C4A00F0B6
:102FA0000F00104400F8041C31BC7047094A11544A
:102FB00031BC7047012200F01F01074BFFE78A4038
:102FC000400943F8202070470CED00E00000FA05AE
:102FD00018ED00E000E400E000E100E038B5040096
:102FE00001D1012032BD04F13805687820B90021F3
:102FF0002970204600F030FD21E0022180F83910D0
:1030000001680A6842F001020A6013E00068C168C2
:1030100041F00101C160026842F00102026000203B
:10302000704707D1D1F800C04FEA5C0C4FEA4C0C56
:10303000C1F800C0012180F839100020704702203B
:103040006870211D206800F061F90120687000207F
:1030500032BD38B5040001D1012032BD04F138057C
:10306000687820B900212970204600F05CFCE6E772
:103070001CE00A0006D0042909D008290CD00C292C
:103080000FD013E00268D36843F002030DE002683A
:10309000D36843F0040308E00268D36843F00803F0
:1030A00003E00268D36843F01003D3600068012294
:1030B00002FA01F1026A8A430262026A1143016262
:1030C000DFF81C10884205D1DFF818100A6842F4B6
:1030D00000420A60016841F0010101600020704770
:1030E000000001404400014010B504462068016919
:1030F0008A0716D5C1688A0713D56FF002020261EC
:1031000001212176806910F0030F204602D003F0E0
:103110005FFB04E003F05DFB204603F05BFB002057
:103120002076206801694A0716D5C1684A0713D579
:103130006FF00402026102212176806910F4407F61
:10314000204602D003F044FB04E003F042FB20469B
:1031500003F040FB00202076206801690A0716D59D
:10316000C1680A0713D56FF00802026104212176B5
:10317000C06910F0030F204602D003F029FB04E0E1
:1031800003F027FB204603F025FB00202076206873
:103190000169CA0616D5C168CA0613D56FF01002B8
:1031A000026108212176C06910F4407F204602D0D8
:1031B00003F00EFB04E003F00CFB204603F00AFBD7
:1031C0000020207620680169CA0708D5C168CA07AF
:1031D00005D56FF0010202612046FFF742FE20682C
:1031E00001690A0608D5C1680A0605D56FF0800294
:1031F0000261204603F0EFFA206801694A0608D50B
:10320000C1684A0605D56FF040020261204603F00E
:10321000E3FA206801698A060AD5C1688A0607D5DB
:103220006FF0200202612046BDE8104003F0D5BADD
:1032300010BD70B5064606F138040D462078012809
:1032400001D1022070BD012121700220607032B1D5
:10325000042A18D0082A2BD00C2A3DD050E0306820
:10326000294600F0B8F83068816941F008018161B1
:103270003068816921F00401816131688A692869B7
:1032800002438A613CE03068294600F07CF83068EF
:10329000816941F4006181613068816921F4806154
:1032A0008161306881692A6941EA0221816127E0F0
:1032B0003068294600F0B5F83068C16941F008016E
:1032C000C1613068C16921F00401C1613168CA6916
:1032D00028690243CA6113E03068294600F0CAF841
:1032E0003068C16941F40061C1613068C16921F48D
:1032F0008061C1613068C1692A6941EA0221C16106
:10330000FFE7012060700020207070BD18B46A4B88
:103310000468984218BFB0F1804F07D0674A9042C6
:103320001FBF674A9042674A90420ED14A6824F014
:1033300070041443984218BFB0F1804F11D05F4A17
:1033400090421CBF5E4A90420BD05E4A90421CBF26
:103350005D4A904205D05D4A90421CBF5C4A904253
:1033600003D1CA6824F440741443046098428A6804
:10337000C2620A68826202D10969564A116001225A
:10338000426111BC704770B4026A4B4E22F01002C9
:103390000262B042056A436884690A6824F4E6441C
:1033A00044EA02248A6825F0200545EA02150DD179
:1033B000CA684E6925F0800545EA02158A6923F43A
:1033C0004063164325F0400543EA86034360846169
:1033D000496881634BE030B4026A520852000262CD
:1033E000056A436884690A6824F0730414438A6890
:1033F00025F002051543304A90420BD123F4407367
:10340000CA6825F0080515434A6913438A6925F0FF
:10341000040513434360846149684163056230BC1D
:10342000704770B4026A244E22F480720262056A08
:103430004368C4690A6824F0730414438A6825F455
:103440000075B04245EA02250DD1CA684E6925F4DF
:10345000006545EA02258A6923F44053164325F4A2
:10346000806543EA06134360C4614968C16305622D
:1034700070BC704770B4026A0F4E22F48052026230
:10348000B042046A4268C3690D6823F4E64343EA24
:1034900005238D6824F4005444EA053404D14D69B1
:1034A00022F4804242EA85124260C36149680164A5
:1034B000046270BC7047000000000140000400403E
:1034C00000080040000C0040004001400044014062
:1034D00000480140300001400068042202FA01F176
:1034E000026AFFE78A430262026A11430162416C89
:1034F00041F400414164026842F001020260002090
:10350000704730B400F138031A78012A08BF02204E
:103510001BD001241C7002225A700268546824F0E7
:1035200070045460046865680A6815436560026841
:10353000946824F0800494600268946848680443A6
:103540009460012058700020187030BC704730B46F
:1035500090F83820012A08BF022024D0012380F8E7
:103560003830CD688B684A688C6925F440751D43F6
:1035700025F4806515430B680A69496925F40065DF
:103580001D4325F48055154325F400550D4325F4BE
:1035900080452543026825F400452C4354640021EE
:1035A00080F83810002030BC7047000082B0002046
:1035B00000900022DFF8A406416841F48041416098
:1035C000416801F480410091009900920F21036845
:1035D00043F080530360006800F080500090009832
:1035E0006FF0010002B0FFF7BCBC38B586B00446EE
:1035F00001A80021002200230EC006C02168DFF8C8
:103600006026914256D1DFF85C06DFF85C560093E5
:103610000022416941F480714161416901F4807186
:10362000009100990092036843F00403036001686D
:1036300001F004010091009900920F21036843F00A
:10364000010303600322006800F00100009000986D
:10365000019100200390029201A9DFF8100601F009
:103660008DFB032000210C2202900391019201A9FD
:10367000DFF8FC0501F082FBDFF8F8052860002088
:103680006860A860E8604FF4806028614FF4805063
:1036900068614FF48040A8614FF48070E8610020B9
:1036A00028626862284603F099F808B1FFF706FC23
:1036B000A563AC6307B030BD81B00068DFF8BC150E
:1036C00088420CD10021DFF89C050091026842F489
:1036D00080520260006800F480500090009801B0B1
:1036E000704738B586B069460022002300241CC10B
:1036F0000CC10068DFF88825904233D1DFF86445BB
:10370000DFF8805505931222216841F00201216003
:103710004021206800F002000590059800910120EA
:10372000029001920420049003936946284601F018
:1037300025FB4FF4007000901221012001910290AE
:1037400003210420039104906946284601F016FBEA
:1037500000200590216941F400112161206900F4E5
:10376000001042E0DFF82015884240D1DFF8F44431
:103770000593216841F0040121604FF40071206835
:1037800000F00400059005980593226842F00102BC
:1037900022601222206800F0010005900598009137
:1037A00001200290032104200391049001926946B4
:1037B000DFF8B80401F0E2FA4FF4807000901221B3
:1037C0000120019102900321042003910490694695
:1037D000DFF89C0401F0D2FA00200590216941F441
:1037E00000012161206900F400000590059807B0F0
:1037F00030BD80B50068DFF8881488420AD1DFF850
:103800005C04016821F4001101604FF41071DFF8CD
:10381000740413E0DFF87024904213D1DFF83C0405
:10382000016821F4000101604FF40071DFF83C04ED
:1038300001F070FB4FF48071DFF83404BDE8044000
:1038400001F068BB01BD38B586B0044601A800216F
:10385000002200230EC006C02168DFF83024914208
:103860005FD1DFF80004DFF828540093002241699B
:1038700041F480114161416901F480110091009986
:103880000092036843F010030360016801F0100127
:103890000091009900920421036843F00203036041
:1038A0000222006800F002000090009801910020C0
:1038B00003900321062004910590029201A9DFF8EC
:1038C000D40301F05BFA022000210290039103204F
:1038D00006214FF4807204900591019201A9DFF84E
:1038E000A40301F04BFADFF8B00328604FF020602A
:1038F00068604020A8600020E8604FF48060286184
:1039000000206861A861E8614FF40030286200205F
:103910006862284602F062FF08B1FFF7CFFAA5649B
:10392000AC6307B030BD38B50446DFF870132068CB
:10393000884216D1002000900022DFF82003416861
:1039400041F0010141600021406800F00100009059
:1039500000981A20FFF705FBBDE832401A20FFF758
:1039600029BBB0F1804F0BD100200090DFF8EC02B2
:10397000016841F001010160006800F0010068E0A9
:10398000DFF81C1388420BD100200090DFF8CC0236
:10399000016841F002010160006800F0020058E097
:1039A000DFF80013884238D100200090DFF8F85289
:1039B000DFF8A802016841F0040101600068DFF847
:1039C000EC1200F004000090009829604020A860EC
:1039D0004FF080610020E86069604FF480602861EA
:1039E0004FF4006068614FF40050A8610020E86166
:1039F0004FF400302862042068620320A8624FF46C
:103A00000000E86200202863284602F0E7FE08B1C3
:103A1000FFF754FA6562AC6331BDDFF89412884257
:103A20000AD1002000908D48016841F00801016032
:103A3000006800F008000CE09E4988420BD100208D
:103A400000908648416841F480314160406800F44C
:103A500080300090009831BD81B00068964988425E
:103A60000BD1002184480091026842F400320260C8
:103A7000006800F400300090009801B0704710B565
:103A800086B069460022002300241CC10CC10068D6
:103A9000824A904213D1734805930222016841F093
:103AA000100101604FF4D441006800F0100005904F
:103AB0000598009101920293039301208DE0B0F1EB
:103AC000804F2DD167480593026842F002020260E0
:103AD0000222016801F002010591059905934FF456
:103AE0008061036843F001030360006800F0010097
:103AF000059005980091012004900192029403948E
:103B00006946604801F03AF94FF400400090022104
:103B100001200191049002940394694654485FE0A7
:103B20005F49884214D14F4805930222016841F051
:103B3000020101603321006800F002000590059841
:103B4000504800910192029303930492694647E022
:103B50005449884214D1434805930222016841F038
:103B6000020101608021006800F0020005900598C4
:103B700044480091019202930392049269462FE017
:103B80004B49884214D1374805930222016841F01D
:103B9000010101600321006800F001000590059813
:103BA000334800910192029303930492694617E00F
:103BB0004049884216D12B4805930222016841F002
:103BC000100101604021006800F010000590059888
:103BD00000910192029303930320049069462D48BB
:103BE00001F0CCF806B010BD10B586B001A90022D6
:103BF000002300241CC10CC10068304A90422AD125
:103C0000184800930222416941F020014161416955
:103C100001F02001009100990093C021036843F056
:103C200004030360006800F0040000900098019114
:103C3000012003900321082004910590029201A91C
:103C40000A4801F09BF8002205214720FFF789F977
:103C50004720FFF7AFF906B010BD00004038024022
:103C60000020014030380240544300200008024048
:103C700000000240706402404438024000300240BC
:103C80000054004000040240005C0040005001402D
:103C9000B44300200010024088640240000001404C
:103CA0000004004000080040144400205860024016
:103CB000000C00400040014000440140001401405D
:103CC000F8B5040001D10120F2BD04F13C0568788B
:103CD00020B9002129702046FFF703FD24206870D9
:103CE0002068016849084900016001F0AFFC014605
:103CF000DFF8EC20DFF8EC30A1FB0220C20C2068DA
:103D000042606068984208D34FF4967010FB02F24C
:103D1000DFF8D470A2FB0776720A2068521C026298
:103D200066689E4208D27600B1FBF6F0C0F30B0144
:103D3000042913D2042011E0A06820B906EB46063E
:103D4000B1FBF6F005E019225643B1FBF6F040F462
:103D5000804001050CBF012040F400402168C8618B
:103D6000E269206A0243206802602169E068014339
:103D7000206881606169A06901432068C160206892
:103D8000016841F001010160002068602020687036
:103D900000202063A870F2BD38B5040001D10120D5
:103DA00032BD04F13C052420687020680168490890
:103DB000490001602046FFF71CFD00206860687024
:103DC0002063A870287032BD0320BDE8F68701206B
:103DD000BDE8F6870120BDE8F2830320BDE8F28349
:103DE00006BD3786A1860100986E12832DE9FC4737
:103DF0000646884691469A4602F0C0FB06F13C070B
:103E00000546787820280FD1306881698A0754D513
:103E100002F0B4FB401B1A28F6D3002030632020A8
:103E200078700020B8703870F8E17868042803D101
:103E300000213970FFF7CBBF00203870FFF7C4BFF7
:103E4000716A4A1C726209780161308D411E3185A8
:103E5000708D411E7185308D002877D030684169A2
:103E60000A0660D441694A0513D56FF48062426145
:103E700004207860002030632020787000203870A3
:103E800078680428DAD13068016841F40071016073
:103E9000D0E714F1010FE1D024B102F06FFB401B19
:103EA0008442DBD2786840F02000786000213163E2
:103EB000202078703970E3E75CE039780129B3D0CD
:103EC00001223A700268D10703D4016841F0010170
:103ED00001604146D6F800E00C9C0B98DDF828C044
:103EE000DEF8008028F40068CEF800804FF0210E44
:103EF00087F801E053464FF0400E87F802E04A464B
:103F00004FF0000EC7F804E0C6F824C070851848CA
:103F1000F062708D308501950094304600F08AF98A
:103F2000002898D081E7716A4A1C726209780161A1
:103F3000308D411E3185708D421E72853068426918
:103F4000530788D589B200297FF47AAF2A462146E3
:103F5000304600F003FB0028AED0786804287FF4D8
:103F60006DAF3068016841F40071016062E70000E4
:103F70000000FFFF3068016841F4007101602020FB
:103F800078700020B8703870BDE8F6872DE9FC47DE
:103F90000646884691469A4602F0F0FA06F13C073A
:103FA00005467878202810D1306881698A0740F169
:103FB000AA8002F0E3FA401B1A28F5D300203063F0
:103FC000202078700020B870387027E10020387009
:103FD000FFF7FABE308D08B9009008E0316801287B
:103FE00010D1086820F480600860002100913068DA
:103FF00041690091826900920099016841F4007161
:10400000016025E002280FD1086820F48060086074
:104010003068016841F40061016000200090306860
:1040200041690091806904E0002000904A69009293
:104030008869009000990BE0706A411C71623168D8
:104040000A690270308D411E3185708D411E718567
:10405000308D002800F09680042837D201280BD13B
:104060002A462146304600F0ABFA0028E4D07868B2
:104070002028ADD0FFF7ABBE022840F08480306826
:1040800041694A0700F1938014F1010FF7D024B180
:1040900002F074FA401B8442F1D2002030632020E9
:1040A00078700020B87092E714F1010F00F0A08042
:1040B0002CB102F063FA401B844280F0998000200A
:1040C0003063202078700020B87080E72A462146AF
:1040D000304600F075FA0028C9D1706A411C71623F
:1040E00031680A690270308D411E3185708D411E24
:1040F0007185306841694A07AAD5716A4A1C7262A3
:10410000006908709EE7397801293FF45EAF01220B
:104110003A700268D10703D4016841F001010160DF
:104120004146D6F800E00C9C0B98DDF828C0DEF87C
:10413000008028F40068CEF800804FF0220E87F847
:1041400001E053464FF0400E87F802E04A464FF038
:10415000000EC7F804E0C6F824C07085DFF8C80078
:10416000F062708D308501950094304600F0E9F8DA
:1041700000283FF42FAF786804287FF427AF002190
:10418000397077E7FBE6306841694A0720D414F1BB
:10419000010FF8D024B102F0F1F9401B8442F2D2B1
:1041A00000203063202078700020B8700FE701688D
:1041B00041F400710160706A411C716231680A69E2
:1041C0000270308D411E3185708D411E718533E73F
:1041D000016821F480610160706A411C716231687C
:1041E0000A690270308D411E3185708D411E7185C6
:1041F000306841694A077FF557AF026842F40072A0
:104200000260706A411C716231680A690270308D07
:10421000411E3185708D411E71850DE70220BDE87C
:10422000F68790F83D0070470000FFFF41600020D6
:10423000BDE8F2832DE9F84306463068089C099DE5
:104240000F46016841F480719146984601603068DC
:104250004169CA074CD414F1010FF8D024B102F01F
:104260008DF9401B8442F2D200203063202106F1F8
:104270003C00417000218170017032E041694A05C3
:1042800015D5026842F4007202606FF480603168F4
:10429000486106F13C000422426000213163202184
:1042A000417000210170416804291AD117E014F10E
:1042B000010F20D024B102F061F9401B84421AD2D0
:1042C0000020306306F13C00E9E706F13C0041685C
:1042D000042906D13068026842F400720260FFF7D8
:1042E00079BDFFF77ABD30685FFA89F707619EE70D
:1042F00007F0FE070761306841698A07BED50022D2
:1043000000922A46416900918069009030460099E8
:10431000214600F009F90028D7D1B8F1010FE2D009
:1043200031684FEA192008612A462146304600F0DC
:10433000FBF80028D7D006F13C0041680429D0D111
:10434000C8E72DE9FE43064630680A9C0B9F0D46E0
:10435000016841F48061016090463068026842F46F
:1043600080729946026030684169CA0700F1A080F6
:1043700014F1010FF7D024B102F000F9C01B844200
:10438000F1D200203063202106F13C004170002171
:10439000817001708AE041694A0515D5026842F4CE
:1043A000007202606FF480603168486106F13C0081
:1043B00004224260002131632021417000210170FC
:1043C0004168042972D161E014F1010F73D024B166
:1043D00002F0D4F8C01B84426DD20020306306F195
:1043E0003C00E9E706F13C00416804295ED13068F1
:1043F000026842F40072026048E030685FFA88F1B7
:1044000001613A462146304600F08EF850B106F17F
:104410003C004168042949D13068026842F40072C6
:10442000026033E03068016841F4807101603068F7
:104430004169CA076CD414F1010FF8D024B102F01D
:104440009DF8C01B8442F2D200203063202106F187
:104450003C00417000218170017027E041694A05EC
:1044600016D5026842F4007202606FF48060316811
:10447000486106F13C0004224260002131632021A2
:10448000417000210170416804290FD1012048E0EA
:1044900014F1010F40D024B102F070F8C01B844227
:1044A0003AD20020306306F13C00E8E7032038E010
:1044B00005F0FE010161306841698A077FF56BAF45
:1044C000002200923A46416900918069009030468E
:1044D0000099214600F028F8002883D1B9F1010F96
:1044E0008BD031684FEA182008613A4621463046A1
:1044F00000F01AF800283FF480AF06F13C00416854
:104500000429D3D13068026842F400720260BDE72A
:1045100045F00105EDB20561306841698A079DD516
:10452000002003B0BDE8F083F8B506460C461746F8
:1045300006F13C05306841690A060DD441694A0517
:1045400000D530E014F1010FF4D024B102F016F8D8
:10455000C01B8442EED21BE00020F2BDF8B5064637
:104560000C46174606F13C05306841694A070DD4F0
:1045700041694A0500D516E014F1010FF4D024B1C9
:1045800001F0FCFFC01B8442EED201E00020F2BD2E
:10459000686840F020006860002131632020687066
:1045A00029700320F2BD6FF48062426104206860CC
:1045B0000020306320206870002028700120F2BDA8
:1045C00070B505460C461646286841694A0622D44D
:1045D0004169CA0611D424B101F0D0FF801B844286
:1045E000F2D205F13C002022416841F020014160F7
:1045F000427000210170032070BD6FF01001416115
:1046000005F13C0000214160296320214170002117
:104610000170012070BD002070BD10B5040001D1F3
:10462000012010BD607920B9002121712046FFF7DB
:1046300043F80220607101206071002010BD00006D
:1046400038B5040001D1012032BD04F13805687885
:1046500020B9002129702046FFF7C6FA242068708F
:104660002068C16821F40051C160204600F04AF979
:104670002068016921F4904101612068416921F0BD
:104680002A01FFE741612068C16841F40051C1601F
:104690000020686020206870A870002032BD30B40F
:1046A00000F138039C78202C1BD109B1140000D1F3
:1046B00018E01C78012C14D001251D7081628285C0
:1046C000C28500215960222199700021197001686A
:1046D0004A6942F001024A610068C16841F4907180
:1046E00006E002E030BC0120704730BC0220704779
:1046F000C160002030BC704738B504462568296881
:10470000EA686B6911F00F0007D1880660D5900642
:104710005ED52046BDE83240AEE0D80702D412F4A0
:10472000907F55D0C80705D5D00503D5E06B40F084
:104730000100E063480705D5D80703D5E06B40F0DA
:104740000200E063880705D5D80703D5E06B40F089
:104750000400E063080705D5D80703D5E06B40F0F7
:104760000800E063E06B002871D0890604D590064C
:1047700044BF204600F080F820684069E16B0A07DA
:1047800001D440061ED5204600F062F82068416939
:104790004A0612D5416921F040014161606B60B168
:1047A0000FF2C9010165606B02F0D5F800284ED008
:1047B000606B016DBDE8344008472046BDE83240DB
:1047C00002F0D4B9204602F0D1F90020E06331BDF7
:1047D00008062CD510062AD594F83900212836D1A0
:1047E000A168206AB1F5805F0DD10188C1F308018D
:1047F0006960206918B9216A881C206207E0206A74
:10480000411C216203E0411C216200786860E08C59
:10481000401EE08480B2D0B92068C16821F08001D8
:10482000C1602068C16841F04001C16031BD4806E7
:104830000DD550060BD5E86820F04000E860202137
:1048400084F839102046BDE8324002F090B931BDFD
:104850000168CA6822F49072CA6001684A69520805
:1048600052004A61202180F83A107047806B002185
:10487000C185C18402F07AB980B590F83A10222936
:104880003ED18268B2F5805F14D1826A016941B974
:1048900003685968C1F308011180826A911C816222
:1048A00018E001684B6803F0FF031380816A4A1C1B
:1048B00082620FE001690029816A04D14A1C826288
:1048C0000268536805E04A1C82620268536803F07C
:1048D0007F030B70C18D491EC18589B271B9016812
:1048E000CA6822F49072CA6001684A69520852008C
:1048F0004A61202180F83A1002F03AF9002002BD06
:10490000022002BD2DE9F047044621680A69E068EB
:1049100022F4405202430A618A48CA680240A068F1
:1049200002432069024360690243E0690243CA60AE
:104930004A69A06922F4407202434A618248E269EE
:10494000B2F5004F40F09B8081421CBF7F488142FE
:104950004AD100F083FE054600F080FE064600F0D6
:104960007DFE074600F07AFE804600F077FE616823
:10497000DFF8DCA1DFF8D8E119235F434900B7FB7A
:10498000F1F75D435E43A7FB0AA96422B5FBF1F58D
:10499000B6FBF1F64FEA9917A5FB0EEC02FB176682
:1049A0004FEA9C15F6003236DFF8A4C1A6FB0CC70F
:1049B000BE09760006F4F87606EB051603FB08F749
:1049C0004343B3FBF1F0B7FBF1F5614BA0FB0331BF
:1049D000880902FB1052D20032325D49A2FB01105D
:1049E000800900F00700A7E000F030FE054600F067
:1049F0002DFE064600F02AFE074600F027FE804600
:104A000000F024FE6168DFF848A1DFF844E11923D3
:104A10005F434900B7FBF1F75D435E43A7FB0AA97B
:104A20006422B5FBF1F5B6FBF1F64FEA9917A5FB49
:104A30000EEC02FB17664FEA9C15F6003236DFF8E3
:104A400010C1A6FB0CC7BE09760006F4F87606EB8B
:104A5000051603FB08F74343B3FBF1F0B7FBF1F591
:104A60003B4BA0FB0331880902FB1052D2003232CB
:104A70003749A2FB0110800900F007005CE0814289
:104A80001CBF324881420ED100F0E8FD054600F01F
:104A9000E5FD064600F0E2FD074600F0DFFD80463A
:104AA00000F0DCFD0DE000F0D1FD054600F0CEFD8C
:104AB000064600F0CBFD074600F0C8FD804600F03A
:104AC000C5FD6168DFF888A0DFF884E019235F4343
:104AD0008900B7FBF1F75D435E43A7FB0AA9642297
:104AE000B5FBF1F5B6FBF1F64FEA9917A5FB0EEC15
:104AF00002FB17664FEA9C1536013236DFF850C0CC
:104B0000A6FB0CC7BE0906F0F00606EB051603FB74
:104B100008F74343B3FBF1F0B7FBF1F50C4BA0FBF7
:104B20000331880902FB1052120132320849A2FBFC
:104B30000110800900F00F00226886199660BDE818
:104B4000F0870000F369FFFF0010014000140140EE
:104B50003E0AD7A338B5040001D1012032BD0020A0
:104B6000A06204F15005687820B900212970204620
:104B7000FEF769FE022068702068016821F040019C
:104B800001606268A068A1690243E068024320698D
:104B900002436069024301F40071E0690A43024381
:104BA000206A0243A06A024320680260A169606A29
:104BB000090C01F004010143206841602068C169CB
:104BC00021F40061C161002068600120687000204C
:104BD00032BD70B5064606F1500400252078012844
:104BE00001D1022070BD012323706078012818BF15
:104BF000022540D109B1100001D101253BE003207D
:104C0000607065603163B286F286B5637564356441
:104C1000B587F587B068B0F5004F04D130680168FA
:104C200041F480410160B16C0FF215100864B16C61
:104C30000FF24D00C863B16C0FF20D10C864B16C77
:104C40000D65F38E3068316B00F10C02B06C01F031
:104C50003BFE306801684A0603D4026842F0400215
:104C600002603068416841F020014160306841686D
:104C700041F00201416000202070284670BD000014
:104C80007CB50646B46B01F079FC054630680168D6
:104C9000CA0552D42068416821F0020141602068B1
:104CA0008168080636D501F069FC401B6428F6D3FC
:104CB0002068416821F0E00141606068B0F5827FC2
:104CC0000BD1A068B0F5004F18BFB0F5806F04D1CC
:104CD0002068016821F040010160A06AB0F5005F22
:104CE0000AD121680A684DF6FF7002400A60206808
:104CF000016841F40051016004F15000012242704A
:104D000000210170416841F020014160416841F09B
:104D100020014160A06838B9002100912068C16875
:104D200000918068009000990020E086012104F144
:104D300050004170406800B116E0204619E00000C4
:104D4000806B01F016BF0000806B01684A68920812
:104D500092004A600122416D41F01001416580F8E6
:104D6000512001F007BF00002046BDE8764001F069
:104D700001BFBDE8764001F007BC00002DE9F84F07
:104D800003460C464FF00008C146C246AA48AB494C
:104D90000F22012505FA08FC25680CEA050EE645F8
:104DA00040F0AC806568022D18BF122D10D14FEA7B
:104DB000D80503EB85050AF01C062F6A02FA06FBEC
:104DC00027EA0B07D4F810B00BFA06F63E432E6222
:104DD00003251E68277905FA09F5ED4307F0030757
:104DE0002E4007FA09F73E431E606668012E18BF81
:104DF000022E03D0112E18BF122E10D19E68E76824
:104E00002E4007FA09F73E439E605E6826EA0C07CB
:104E10006668C6F3001606FA08F63E435E60DE6872
:104E20003540A66806FA09F63543DD606568ED0091
:104E300064D5002500954FEA980C0D6845F480452F
:104E40000D600AF00C060D6805F48045009502FA25
:104E500006F7009D7A4D55F82CB02BEA0707DFF8CE
:104E6000E4B15B4508BF4FF0000B1CD0DFF8D8B1B0
:104E70005B4508BF4FF0010B15D0DFF8D0B15B45A3
:104E800008BF4FF0020B0ED0DFF8C4B15B4508BF7E
:104E90004FF0030B07D0DFF8BCB15B450CBF4FF000
:104EA000040B4FF0070B0BFA06F63E4345F82C6057
:104EB0006FEA0E0C056866680CEA0505F70348BF43
:104EC0004EEA05050560456866680CEA0505B70306
:104ED00048BF4EEA05054560856866680CEA050529
:104EE000F70248BF4EEA05058560C56866680CEAAA
:104EF0000505B60248BF4EEA0505C56008F1010880
:104F0000B8F10F0F0AF1040A09F102097FF641AF67
:104F1000BDE8F18F2DE9F84F0C464FF0000BDC4651
:104F20004549474A00940F234FF001080546D946EA
:104F3000009808FA09FE0EEA0000704557D10324D4
:104F400004FA0BF42E68E44326402E600CF01C0794
:104F50004FEAD90605EB860603FA07F7D6F820A034
:104F60002AEA07073762AE682640AE606E6826EA16
:104F70000E066E604FEA990EEE683440EC600CF05D
:104F80000C0452F82E7003FA04F606EA070A2D4FB5
:104F9000BD4208BF002713D02B4FBD4208BF0127D9
:104FA0000ED02A4FBD4208BF022709D0284FBD426C
:104FB00008BF032704D0274FBD420CBF0427072793
:104FC00007FA04F4A24512D152F82E4024EA06064C
:104FD00042F82E60C0430C6804400C604C680440EA
:104FE0004C608C6804408C60CC682040C86009F13B
:104FF0000109B9F10F0F0CF1040C0BF1020B97D959
:10500000BDE8F18F00690140481E8041C043C00FD8
:10501000704781B002B90904816101B070474269EB
:105020005140416170470C4A136803421CBF106035
:10503000FBF76CBE70470000003C01404438024062
:10504000083801400000024000040240000802400D
:10505000000C024000100240143C014038B5614D84
:1050600068688047012433280AD15F4C256040F6E8
:1050700047002968884721680A6A902090470024E1
:10508000204632BD58490A6882B0916A09B102B01F
:10509000084702B0704780B5942200213C2001F0FF
:1050A00049FE802201213C2001F044FEBDE8084079
:1050B0000022FFE702213C2001F03CBE2DE9F04137
:1050C000804601213C2001F036FE064604213C20AA
:1050D000464C01F030FE207003213C2001F02BFEF5
:1050E000607008213C2001F026FEA07007213C20C2
:1050F00001F021FEE07006213C2001F01CFE207131
:1051000005213C200027002501F015FE06F0E006F1
:10511000202E60710ED0402E11D0602E14D0802E23
:1051200017D0A02E1AD0C02E1DD0E02E04BFE62727
:10513000CD251CE040F24C474FF4757517E040F266
:1051400057374FF43E7512E040F29E274FF4167524
:105150000DE04FF4E1774FF4C87508E04FF4C877DD
:1051600040F2631503E04FF4A57740F2271561780C
:10517000227802EB012212B200EE107A01EE102A20
:10518000B8EE400AB8EEC11ADFED150A81EE001A3A
:1051900021EE201A88ED001AE178A27802EB0122B4
:1051A00012B201EE102AB8EEC11A81EE000A20EE0A
:1051B000200A88ED010A01EE105A217901EB002046
:1051C00000B200EE100AB8EEC00AB8EE411A80EE46
:1051D000010A20EE200A88ED020ABDE8F0810000F5
:1051E00000007A4400000020244600201C460020D5
:1051F00080B501F095FE002002BD00B583B00B46DE
:10520000B0F908100022842918BFCA1C02A9009214
:10521000019101680269406892B201F08DFD012898
:1052200014BF0020029803B000BD80B500B9012072
:1052300001F055FE002002BD002202F017B8000068
:105240002DE9FC41040019D02078B84EC10740F187
:10525000D080B06800F00C00042807D0B06800F0DF
:105260000C0008280DD1706841020AD53168880306
:1052700040F1BF806068002840F0BB800120BDE89D
:10528000F6816068B0F5803F06D0B0F5A02F316898
:1052900007D141F480213160306840F480303060C3
:1052A00006E021F480313160326822F480223260DD
:1052B000606870B101F062F905463168880300F159
:1052C000988001F05BF9401B6528F6D30320BDE808
:1052D000F68101F053F905463068810340F1898079
:1052E00001F04CF9401B6528F6D3EFE701F046F9D1
:1052F000401B022840F2A980E8E7E0688C4970B1C1
:1053000001220A6001F03AF905463068810700F190
:10531000C78001F033F9401B0228F6D9D6E70860B0
:1053200001F02CF905463068810740F1818001F0D9
:1053300025F9401B0228F6D9C8E7086001F01EF9DC
:105340000546706F810740F1848001F017F9401B1A
:105350000228F6D9BAE70528306F06D140F00400DC
:105360003067306F40F0010005E0400840003067D2
:10537000306F20F004003067A06870B101F0FEF8D3
:10538000074641F28938306F810700F1998001F0BA
:10539000F5F8C01B4045F6D398E701F0EFF8074653
:1053A00041F28938306F810740F18A8001F0E6F8D8
:1053B000C01B4045F6D389E701F0E0F8C01B022886
:1053C00040F2948082E701F0D9F8001B022840F2F5
:1053D000A5807BE70020286601F0D0F804463068FD
:1053E000810140F19F8001F0C9F8001B0228F6D925
:1053F0006CE7207881071BD5B06810F00C0F09D03E
:10540000B06800F00C0008287FF477AF70684102A4
:105410003FF573AF3168880703D5E06801287FF452
:105420002DAF3168206921F0F80141EAC0013160F7
:10543000217808070DD560693E4900283FF47DAF0B
:1054400001220A6001F09AF80546706F81077FF526
:105450004DAF2178480738D5306C0025C1000AD4FB
:1054600000950125306C40F080503064306C00F0C5
:10547000805000900098304F3968C80518D43868BB
:1054800040F48070386001F079F880463968C805CA
:105490000ED401F073F8A0EB08000228F6D915E746
:1054A0003068216920F0F80040EAC1003060BFE7B1
:1054B000A06801287FF44FAF306F40F001005AE739
:1054C0001DB1306C20F080503064A06950B3B168D9
:1054D00001F00C0108293FF4D1AE0228144D7FF4ED
:1054E00079AF0020286601F049F80746306881014D
:1054F0003FF562AFE169206AA26A0143606A52081F
:1055000041EA8011521EE06A41EA024141EA00612B
:1055100071600121296601F031F80446306881018B
:105520007FF551AF0020BDE8F68100BF0038024092
:1055300000004742800E4742007000402DE9F843CA
:1055400004000F4600F07F80574E306800F00F00D7
:10555000B84205D23770316801F00F01B94272D1FB
:105560002068524D810712D5400703D5A86840F442
:10557000E050A8602178080703D5A86840F460408F
:10558000A860A968A06821F0F0010143A960207813
:10559000C1074DD56068012802D129688A0305E05A
:1055A000022818BF032803D129688A0103D44AE0DE
:1055B0002A68910747D5A968890840EA8100A86050
:1055C00041F2893900F0DAFF8046A868616800F08E
:1055D0000C00B0EB810F2BD000F0D0FFA0EB080047
:1055E0004845F2D30320BDE8F2832078410705D572
:1055F000A968E06821F4E0510143A960207801071F
:1056000006D5A868216920F4604040EAC100A8607E
:1056100000F056F8AA682649C2F30312895C254AAD
:10562000C8401060002001F093F80020BDE8F2832C
:10563000306800F00F008742D7D23770316801F030
:105640000F01B942D1D00120BDE8F28319481A4AAE
:10565000006813681949C3F3822206E01548164A08
:10566000006813681549C3F34232895CC84070472B
:105670000F220260104A136803F003034360D2F85C
:1056800000C00CF0F00CC0F808C0136803F4E0533D
:10569000C3601268D20802F4E05202610248026854
:1056A00002F00F020A607047003C024000380240DE
:1056B000FC800008D802002008380240548200080C
:1056C00018B5124C606800F00C00042802D00828BD
:1056D00002D019E00E4812BD002322682068410262
:1056E0002068C0F388104CBF09490A4902F03F0204
:1056F000A1FB000101F0D4FD2168C1F30141491C67
:105700004900B0FBF1F012BD024812BD043802405E
:1057100000127A000024F40070B5044600250CB98C
:10572000012070BD04F13C06706820B9B56030708E
:105730002046FDF75AFF7068C10610D4706820F447
:10574000885040F002007060204600F035F9B560E6
:10575000706820F0020040F00100706000E0012558
:1057600000203070284670BDF8B50446002004F1D2
:105770003C0300901D78012D01D10220F2BD0120D3
:10578000187020688568EE0715D48568DFF81C73EB
:1057900045F001058560DFF818030568A5FB07766D
:1057A000F60C06EB4606009602E00098401E0090BC
:1057B00000980028F9D12568A868C60758D55E6802
:1057C000DFF8F002064046F480765E6068684505C2
:1057D00005D5586820F4005040F48050586058684F
:1057E000C50404D5986820F00600986001E0002503
:1057F0009D6000201870A36B0FF2D120D863A36BBB
:105800000FF225301864A36B0FF22530D8646FF0C7
:105810002200256828602068436843F08063436065
:105820002068836843F480738360134620680A46C7
:1058300000F14C01A06B01F047F820689E490A680E
:1058400012F01F0F08D1816811F0405F10D18168FC
:1058500041F0804181600BE0984A904202BF984835
:10586000016811F0405F03D1026842F0804202609B
:105870000020F2BD78B402460020009092F83C303F
:10588000012B08BF022000F09580012082F83C0027
:1058900007240B6810680A2B12D30A3BC56803EB78
:1058A00043039C4025EA0404C460C3680D688C6807
:1058B000A5F10A0606EB4606B4402343C3600FE099
:1058C000056903EB430304FA03F325EA03030361C9
:1058D00003690D688C6805EB4505AC402343036103
:1058E0001F244B68072B11D25B1E456B03EB830310
:1058F0009C4025EA04044463436B4D680C886E1E8B
:1059000006EB8606B4402343436325E00D2B11D2FA
:10591000DB1F056B03EB83039C4025EA040404634F
:10592000036B4D680C88EE1F06EB8606B4402343DC
:10593000036311E00D3BC56A03EB83039C4025EA3A
:105940000404C462C36A4D680C88A5F10D0606EB19
:105950008606B4402343C362584B984226D1086858
:10596000122804D15448036843F480030360086894
:10597000544B984218BF112818D14F48046844F47A
:10598000000404600868984210D14948474C0168F7
:10599000A1FB0443DB0C03EB83056D00009502E0E3
:1059A0000098401E009000980028F9D1002182F84C
:1059B0003C10002072BC70473F4A116821F440310E
:1059C0001160136841680B4313600268516821F449
:1059D000807151605168036941EA03215160516847
:1059E00021F040715160536881680B4353609168A6
:1059F00021F4006191609368C1680B439360816AF0
:105A0000314B994210D0936823F070639360936890
:105A1000816A0B439360916821F0405191609368D3
:105A2000C16A0B43936007E0916821F07061916057
:105A3000916821F040519160916821F002019160DC
:105A40009168836941EA43019160016A69B15368D1
:105A500043F400635360516821F460415160516820
:105A6000436A5B1E41EA433102E0516821F4006160
:105A70005160D16A21F47001D162D16AC3695B1EA1
:105A800041EA0351D162916821F4007191609168FB
:105A9000036B41EA43219160916821F48061916038
:105AA0009168406941EA80219160704706BD378660
:105AB000D8020020FEF9FFFF04230140002001402E
:105AC00008200140120000100100000F816B0A6CD9
:105AD00012F0500F24D1086C40F4007008640A687A
