:020000040800F2
:10000000084B0020E15B0008055C0008095C000863
:100010000D5C0008115C0008155C00080000000081
:100020000000000000000000000000004D56000825
:10003000195C000800000000F5550008855900080B
:100040001D5C0008215C0008255C0008295C000894
:100050002D5C0008315C0008895900088F590008A0
:10006000955900089B590008A1590008355C000803
:10007000395C00083D5C0008A7590008415C000895
:10008000455C0008495C00084D5C00080000000069
:10009000000000000000000000000000B759000848
:1000A000515C0008555C0008DF590008595C0008E5
:1000B0005D5C0008615C0008655C0008695C000824
:1000C0006D5C0008715C0008755C0008795C0008D4
:1000D0007D5C0008815C0008855C00080000000071
:1000E000895C00088D5C0008915C0008000000003D
:1000F000000000000000000000000000955C000807
:1001000000000000995C00089D5C0008A15C0008EC
:1001100000000000000000000000000000000000DF
:10012000A55C0008A95C0008AD5C0008B15C000893
:10013000F15900080000000000000000000000006D
:10014000000000000000000000000000B55C000896
:10015000B95C0008BD5C0008C15C0008F7590008E4
:10016000C55C0008C95C0008000000000000000039
:10017000000000000000000000000000000000007F
:1001800000000000CD5C000800000000000000003E
:10019000D15C0008D55C00080068DFF88C1B884241
:1001A0000FD1DFF8881BDFF8A00C0A6D02604A6DE2
:1001B00042608A6D8260CA6DC2600A6E0261496ED9
:1001C000416170472DE9F84F9EB000F0D9FE00F074
:1001D00091FA00F0A4FB002000904FF08048DFF877
:1001E0004C0CDFF8BC4B016841F40011016004F5D0
:1001F0009365026802F400120092002200990092B6
:100200000521036843F480030360006800F4800064
:10021000009000980E2000F0DAFE0E2000F000FFA3
:10022000002205213C2000F0D2FE3C2000F0F8FE28
:1002300000F01DFB00206860A860C5F800804FF446
:100240009650E86000202861284600F045FF00B184
:10025000FEE70021009001912846694601F047FA27
:1002600000B1FEE760200021029003910491069105
:10027000002202A9284601F0A8F800B1FEE70822F2
:1002800002A9284601F0A1F800B1FEE7284601F0D6
:100290003AFC04F57C77DFF8E40B3860DFF8E00B1C
:1002A00078600020B860F8604FF48040386100202A
:1002B0007861B861F8613862384601F01BFD00B121
:1002C000FEE700F06DFA04F5A366DFF8BC0B3067BB
:1002D00004F5B16002F0BBF900B1FEE7DFF8B00B46
:1002E000DFF8B01B41604FF4E13181600021C16053
:1002F000016141610C2181610021C1610162001D28
:1003000002F0B8F900B1FEE75F20286400206864BD
:1003100044F62060A8640020E86404F2D44ADFF8C0
:100320007C9BC5F83C90504600F0D6FE00B1FEE73D
:100330000021009001915046694601F0D8F900B1C2
:10034000FEE76020002102900391049106910022B3
:1003500002A9504601F039F800B1FEE7042202A9D3
:10036000504601F032F800B1FEE7082202A95046DB
:1003700001F02BF800B1FEE70C2202A9504601F073
:1003800024F800B1FEE7504601F0BDFBDFF8100B8A
:10039000A86704F5A26B0020E867306077207060E2
:1003A0000020B060584600F097FE00B1FEE7002143
:1003B000009001915846694601F099F900B1FEE7B5
:1003C000602000210290039104910691042202A969
:1003D000584600F0FAFF00B1FEE7584601F093FBE3
:1003E000DFF8C0BAC6F834B05F20B0630020F06315
:1003F00044F6206030640020706404F24C50009099
:1004000000F06AFE00B1FEE701900021029101A90F
:10041000009801F06CF900B1FEE760200390002124
:100420000491059107910022009803A900F0CDFFE7
:1004300000B1FEE70098042203A900F0C6FF00B156
:10044000FEE7009801F05FFBDFF85C0A7865DFF8F3
:10045000300AB8650020F86538664FF48040786649
:100460000020B866F8663867786704F2444001F007
:1004700041FC00B1FEE74FF0A04020600420606026
:100480000220E0600020206160610220A061002065
:10049000E06120626062E0622063204602F074FB4B
:1004A00000B1FEE7DFF8047A0021384600F023FEB1
:1004B0000021384601F006F90421384600F01BFE01
:1004C0000421384601F0FEF80821384600F013FEFA
:1004D0000821384601F0F6F80C21384600F00BFEF2
:1004E0000C21384601F0EEF80021284600F003FE0A
:1004F0000021284601F0E6F80821284600F0FBFD1F
:100500000821284601F0DEF80021504600F0F3FDF6
:100510000021504601F0D6F80421504600F0EBFDD2
:100520000421504601F0CEF80821504600F0E3FDCA
:100530000821504601F0C6F80C21504600F0DBFDC2
:100540000C21504601F0BEF80098DFF86459DFF83E
:100550006479002100F0CFFD0098002101F0B2F88D
:100560000098042100F0C7FD0098042101F0AAF8CA
:10057000DFF844094FF4F071016041608160C160AF
:10058000C8F83410C8F83C104FF47A70C9F8340039
:10059000C9F83800C9F83C00C9F84000CBF834006D
:1005A000CBF8380000224FF40041DFF81009DFF8E3
:1005B000108902F08CFC00224FF40061284602F002
:1005C00086FC00224FF40051404602F080FC0022DD
:1005D0004FF48041404602F07AFC00224FF48061E3
:1005E000404602F074FC00224FF40061404602F0E5
:1005F0006EFC00224021384602F069FC0022802176
:10060000384602F064FC00224FF40071384602F0D4
:100610005EFC00224FF48061384602F058FC002254
:100620004FF48051284602F052FC00224FF4005152
:10063000284602F04CFC00221021384602F047FC0C
:1006400000222021384602F042FC002210214046C0
:1006500002F03DFC00222021404602F038FC02F06E
:100660005BFC02F06DFC0FF6A00191E8AC0119A84B
:10067000002180E8AC0102F080FC0FF6A001B06719
:1006800014A891E8AC0180E8AC01002102F075FCEF
:100690000FF69C01F0670FA891E8AC0180E8AC016F
:1006A000002104F5B36402F068FC0FF698012060A5
:1006B0000AA891E8AC0180E8AC01002102F05DFCE1
:1006C0000FF69401606005A891E8AC0180E8AC01E8
:1006D000002102F052FC0FF69401A060684691E8F8
:1006E000AC0180E8AC01002102F047FCE06002F0C0
:1006F0003FFCFEE780B592B000200090DFF8C40711
:10070000016841F0805101600021006800F08050D4
:1007100000900098DFF8B00700910121026842F4D0
:10072000404202604FF48032006800F44040009084
:100730000098069102204FF480010D910C90C02189
:100740000F9104200E90109008210792119106A895
:1007500002F03CFC00B1FEE70F2102200191029063
:1007600000214FF4805003910490059101A80321CA
:1007700002F0AAFD00B1FEE702F02EFEDFF84C27E2
:10078000A0FB0221480A00F055FC042000F063FCA5
:1007900000220F214FF0FF3000F019FC13B000BD14
:1007A000DFF8840510B5DFF88445A0604FF4803091
:1007B000E06084B0002020610120A0612062002060
:1007C000A0626063DFF808072063002060610620F4
:1007D00060620120A063E06104F1080002F066FE9F
:1007E00000B1FEE7022101200091019002906946CC
:1007F00004F1080002F008FF00B1FEE70320022127
:100800000090019104F10800694602F0FDFE00B17C
:10081000FEE70A2003210090019104F108006946D7
:1008200002F0F2FE00B1FEE70B20042100900191DE
:1008300004F10800694602F0E7FE00B1FEE70C2073
:1008400005210090019104F10800694602F0DCFEE8
:1008500000B1FEE70D2006210090019104F108008F
:10086000694602F0D1FE00B1FEE704B010BDDFF82A
:10087000640610B5DFF83446206000206060A06098
:1008800090B04FF49650E0600020206160612046F7
:1008900000F022FC00B1FEE700210090019120460B
:1008A000694600F024FF00B1FEE7602000210290BD
:1008B000039104910591069107910891002202A9E4
:1008C000204600F082FD00B1FEE7042202A9204686
:1008D00000F07BFD00B1FEE7082202A9204600F0EF
:1008E00074FD00B1FEE70C2202A9204600F06DFD68
:1008F00000B1FEE700210A910C9109904FF40051DC
:100900000B900D900E910F9009A9204600F015FF55
:1009100000B1FEE7204601F0F6F810B010BD2DE959
:10092000F04186B00020059046F63047DFF8FC0421
:10093000DFF88C850168DFF87C45DFF88055DFF84B
:10094000706541F004010160026802F00402059242
:10095000002205990592036843F080030360016853
:1009600001F08001059105990592036843F00103A8
:100970000360016801F00101059105990592036882
:1009800043F002030360016801F00201059105993B
:100990000592036843F010030360016801F0100141
:1009A0000591059905923946036843F008030360F1
:1009B000006800F0080005900598404602F087FAAC
:1009C00000224FF4DE61204602F081FA00224FF44B
:1009D0000041284602F07BFA00224FF4784130466D
:1009E00002F075FA00970120002101900291039115
:1009F0004046694602F020F94FF4DE600090012184
:100A000000200191029003906946204602F014F9FB
:100A10004FF4C070009000210220019102906946BD
:100A2000DFF8B40402F008F94FF4E0400090002130
:100A30000220019102906946284602F0FDF84FF429
:100A4000004000900121002001910290039069462E
:100A5000284602F0F1F84FF4707000900220DFF8A1
:100A60007C14019102906946304602F0E5F84FF49B
:100A7000806000900021022001910290694630467A
:100A800002F0DAF84FF47840009001210020019143
:100A9000029003906946304602F0CEF83F20009065
:100AA0000220DFF83C14019102906946304602F0C2
:100AB000C3F800220521062000F089FA062000F084
:100AC000AFFA00220521072000F081FA072000F08C
:100AD000A7FA00220521082000F079FA082000F08A
:100AE0009FFA00220521092000F071FA092000F088
:100AF00097FA002205210A2000F069FA0A2000F086
:100B00008FFA00220521172000F061FA172000F06B
:100B100087FA06B0BDE8F08110B5012814D002288C
:100B200023D0042830D008283DD0102849D02028D0
:100B300056D0402862D0802866D0B0F5807F68D03B
:100B4000B0F5007F6AD010BD4FF48051DFF86C0320
:100B5000DFF8904302F0B4F918B12168491E216012
:100B600010BD2068401C206010BD4FF40051DFF81C
:100B70004C03DFF8704302F0A3F90028606814BF4B
:100B8000401E401C606010BD4FF48041DFF82C0314
:100B9000DFF8504302F094F90028A06814BF401E0B
:100BA000401CA06010BD8021DFF82C03DFF8344327
:100BB00002F086F90028E06814BF401E401CE06087
:100BC00010BD4FF48071DFF81003DFF8184302F016
:100BD00077F90028206914BF401E401C206110BD19
:100BE0004FF48061B248DFF8FC4202F069F9002856
:100BF000606914BF401E401C606110BDDFF8E40254
:100C00008169491C816110BDB648C169491CC16137
:100C100010BDB448016A491C016210BDB148416A67
:100C2000491C416210BD000010B52DED028BB0EEE5
:100C3000408A10EE900A02F04FFEAB4AAB4B02F036
:100C40006FFE0022AA4B02F03DFF03F05FF800EEBA
:100C5000100AB5EE400AF1EE10FADFED870A10DB5C
:100C6000B4EE600AF1EE10FA0BD5A24CF0EE000AD9
:100C700084ED008A20EE200A03F068F928EE400A8D
:100C80004CE0B4EE600AF1EE10FA9FED7E1A12DB32
:100C9000B4EE410AF1EE10FA0DD5F0EE000A20EEA6
:100CA000200A03F053F9934C28EE400A84ED000A21
:100CB00084ED018A34E0B4EE410AF1EE10FADFED82
:100CC000730A12DBB4EE600AF1EE10FA0DD5894C0E
:100CD000F1EE480AC4ED000AF0EE000A20EE200A08
:100CE00003F034F928EE000A18E0B4EE600AF1EEE1
:100CF00010FA15DB9FED681AB4EE410AF1EE10FA16
:100D00000ED5F0EE000A20EE200A03F01FF9794C10
:100D100028EE000A84ED000AB1EE480A84ED010ACB
:100D2000BDEC028B10BD000000200140BC4400203F
:100D300080B5012002F039F9FBE7F8B56E4C0622C8
:100D400004F1500104F1080002F0D8FB584D624E46
:100D50005A4F4FF48051384602F0B2F820704FF4E9
:100D60000051384602F0ACF860704FF480413846CC
:100D700002F0A6F8A0708021304602F0A1F8E070E1
:100D80004FF48071304602F09BF820714FF480617F
:100D9000284602F095F86071642002F006F9D8E761
:100DA000C83C002080B5012002F0FFF8FBE738B511
:100DB00040F6B934364D03222946281D01F089FC3E
:100DC0002978FF2922D168786528BCBFA978B52980
:100DD0001CDA00EE100AB8EE400AF3EE090A80EEC3
:100DE000200A85ED130A00EE101AB8EE400AF0EE64
:100DF000000A20EE200A85ED140AD5ED140A95EDBF
:100E0000130AFFF711FF03F0A3F8686403F0A0F8DA
:100E1000696C401AA864A86CA04202D30020E86460
:100E20002865142002F0C1F8C5E700003038024000
:100E300010B51F4C4FF47A7002F0B7F84FF4004130
:100E4000204602F04AF8F5E7D846002080B50FF2B8
:100E5000B40001680122032003F059F9FA2002F0DE
:100E6000A4F8012003F068F9F8E7006823498842F4
:100E700008BF03F089B97047D00FC93F0054004044
:100E8000A0860100D00F494000300240DCCB9640E4
:100E9000E445002000140140D00FC9400004004088
:100EA00000080040000C0040005C00403846002074
:100EB000000C0240000002403400014000040240E7
:100EC000000802404038024000700040986E1283D3
:100ED0000100000F0000014000100240000031102E
:100EE00000001110B04600206E861BF0F921094069
:100EF00000806640F0460020BC44002000480140CD
:100F0000FEE7000000000A00705A0008310D0008DA
:100F1000FDFF000000000000800000007C5A000877
:100F20003B0D0008000000000000000080000000F1
:100F3000885A0008A50D000802000000000000000B
:100F400080000000945A0008AF0D00080100000066
:100F50000000000080000000A05A0008310E0008C8
:100F6000FEFF00000000000080000000AC5A0008F6
:100F70004D0E00080000000000000000800000008E
:100F800080B50B48016841F400710160026842F4C9
:100F900080620260016841F480710160032000F00A
:100FA00009F8002003F0F8F800F0F6FB002002BD7D
:100FB000003C02402F4A13684FF6FF0100020B402D
:100FC00000F4E06018432C4908431060704738B4BF
:100FD000284B1C68C4F30223C3F10704052C28BF67
:100FE00004241D1D072D34BF0023DB1E012505FA37
:100FF00004F4641E2140994005FA03F35B1E1A4075
:1010000011430901002807D51C4A00F00F001044C5
:1010100000F8041C31BC7047194A115431BC7047A8
:10102000012200F01F01174BFFE78A40400943F8F7
:1010300020207047401EB0F1807F01D3012070470F
:101040001149124A4860F020107000228A6007207F
:1010500008600020704704280B4904D1086840F05C
:101060000400086070470A6822F004020A607047B2
:10107000000000000CED00E00000FA0518ED00E0B3
:1010800000E400E000E100E010E000E023ED00E01B
:1010900038B5040001D1012032BD04F1380568786B
:1010A00020B900212970204600F00AFB0AE0006800
:1010B000C16841F00101C160026842F001020260B2
:1010C0000020704702206870211D206800F0EAF9B6
:1010D00001206870002032BD38B5040001D1012024
:1010E00032BD04F13805687820B900212970204606
:1010F00000F08BFCE6E71CE00A0006D0042909D0CA
:1011000008290CD00C290FD013E00268D36843F0F3
:1011100002030DE00268D36843F0040308E00268AC
:10112000D36843F0080303E00268D36843F0100378
:10113000D3600068012202FA01F1026A8A43026266
:10114000026A11430162DFF82C11884205D1DFF8F1
:101150002C110A6842F400420A60016841F0010162
:101160000160002070477CB504460D4694F83900B4
:10117000022811467BD094F83900012807D119B90B
:10118000180001D0012076BD022084F83900280023
:1011900006D0042D17D0082D28D00C2D39D04BE0C7
:1011A000226ADFF8D400D063266ADFF8C400F06456
:1011B000206800F13402206A03F0A4F82068C168B6
:1011C00041F4007137E0626ADFF8AC00D063626A14
:1011D000DFF89C00D064206800F13802606A03F0F8
:1011E00091F82068C16841F4806124E0A26ADFF8C8
:1011F0008800D063A26ADFF87800D064206800F12C
:101200003C02A06A03F07EF82068C16841F40061E6
:1012100011E0E26ADFF86000D063E26ADFF85000B4
:10122000D064206800F14002E06A03F06BF82068A7
:10123000C16841F48051C1602068012101FA05F5BF
:10124000016AA9430162016A0D4305622068DFF863
:101250002410884205D1DFF82400016841F40041E0
:1012600001602068026842F001020260002076BD41
:10127000AD15000800000140711500084400014050
:1012800010B50446206801698A0716D5C1688A0727
:1012900013D56FF00202026101212176806910F0FE
:1012A000030F204602D003F07FF904E003F07DF93C
:1012B000204603F07BF900202076206801694A0768
:1012C00016D5C1684A0713D56FF0040202610221E6
:1012D0002176806910F4407F204602D003F064F943
:1012E00004E003F062F9204603F060F90020207664
:1012F000206801690A0716D5C1680A0713D56FF07F
:101300000802026104212176C06910F0030F204613
:1013100002D003F049F904E003F047F9204603F056
:1013200045F90020207620680169CA0616D5C168F3
:10133000CA0613D56FF01002026108212176C06938
:1013400010F4407F204602D003F02EF904E003F0B1
:101350002CF9204603F02AF9002020762068016944
:10136000CA0708D5C168CA0705D56FF00102026136
:101370002046FFF77AFD206801690A0608D5C16892
:101380000A0605D56FF080020261204603F00FF9CE
:10139000206801694A0608D5C1684A0605D56FF07C
:1013A00040020261204603F003F9206801698A06C1
:1013B0000AD5C1688A0607D56FF02002026120466F
:1013C000BDE8104003F0F5B810BD70B5064606F153
:1013D00038040D462078012801D1022070BD01217A
:1013E00021700220607032B1042A18D0082A2BD054
:1013F0000C2A3DD050E03068294600F0E0F8306813
:10140000816941F0080181613068816921F004013E
:10141000816131688A69286902438A613CE03068E9
:10142000294600F07CF83068816941F400618161EF
:101430003068816921F480618161306881692A693D
:1014400041EA0221816127E03068294600F0DDF899
:101450003068C16941F00801C1613068C16921F09B
:101460000401C1613168CA6928690243CA6113E095
:101470003068294600F0F2F83068C16941F4006133
:10148000C1613068C16921F48061C1613068C1699E
:101490002A6941EA0221C161FFE701206070002052
:1014A000207070BD18B47E4B0468984218BFB0F12C
:1014B000804F07D07B4A90421FBF7B4A90427B4AB5
:1014C00090420ED14A6824F070041443984218BF29
:1014D000B0F1804F11D0734A90421CBF724A9042C3
:1014E0000BD0724A90421CBF714A904205D0714A9B
:1014F00090421CBF704A904203D1CA6824F44074E1
:101500001443046098428A68C2620A68826202D107
:1015100009696A4A11600122426111BC704770B4C6
:10152000026A5F4E22F010020262B042056A43680E
:1015300084690A6824F4E64444EA02248A6825F0AF
:10154000200545EA02150DD1CA684E6925F08005CF
:1015500045EA02158A6923F44063164325F04005E5
:1015600043EA8603436084614968816373E0000055
:1015700010B5846B012184F83910216A884208BFB4
:1015800001200DD0616A884208BF022008D0A16AFC
:10159000884208BF042003D0E16A884201D10820B4
:1015A0002076204603F002F806E00000806B01215F
:1015B00080F8391002F0FEBF0020207610BD30B454
:1015C000026A520852000262056A436884690A6826
:1015D00024F0730414438A6825F002051543304A49
:1015E00090420BD123F44073CA6825F008051543D7
:1015F0004A6913438A6925F00405134343608461F3
:1016000049684163056230BC704770B4026A244E79
:1016100022F480720262056A4368C4690A6824F091
:10162000730414438A6825F40075B04245EA022524
:101630000DD1CA684E6925F4006545EA02258A691C
:1016400023F44053164325F4806543EA06134360B0
:10165000C4614968C163056270BC704770B4026AB6
:101660000F4E22F480520262B042046A4268C3699B
:101670000D6823F4E64343EA05238D6824F40054FF
:1016800044EA053404D14D6922F4804242EA8512CD
:101690004260C36149680164046270BC7047000025
:1016A000000001400004004000080040000C004021
:1016B000004001400044014000480140300001402A
:1016C000704700000068042202FA01F1026AFFE795
:1016D0008A430262026A11430162416C41F4004193
:1016E0004164026842F0010202600020704730B499
:1016F00000F138031A78012A08BF02201BD0012408
:101700001C7002225A700268546824F070045460FD
:10171000046865680A68154365600268946824F087
:1017200080049460026894684868044394600120CF
:1017300058700020187030BC704730B490F83820D2
:10174000012A08BF022024D0012380F83830CD6858
:101750008B684A688C6925F440751D4325F48065C3
:1017600015430B680A69496925F400651D4325F492
:101770008055154325F400550D4325F48045254338
:10178000026825F400452C435464002180F8381089
:10179000002030BC7047000080B50020009000227F
:1017A000DFF8C404416841F480414160416801F4BC
:1017B0008041009100990092036843F080530360D8
:1017C000006800F08050009000980320FFF7F2FBC3
:1017D000002200216FF00B00FFF7F9FB002200212F
:1017E0006FF00A00FFF7F3FB002200216FF0090001
:1017F000FFF7EDFB002200216FF00400FFF7E7FB8D
:10180000002200216FF00300FFF7E1FB00220F210F
:101810006FF00100FFF7DBFBBDE8084000220F215D
:101820004FF0FF30FFF7D3BB38B5044686B02068D1
:10183000DFF83814884245D10021DFF83404DFF89E
:10184000345400910F21026842F480720260032236
:10185000006800F4807000900098019100200390CF
:10186000029201A9DFF8100401F0E6F9032000213B
:101870000C2202900391019201A9DFF8000401F00B
:10188000DBF9DFF8FC03286000206860A860E860EE
:101890004FF4806028614FF4805068614FF48040BD
:1018A000A8614FF48070E8610020286268622846D1
:1018B00002F0B2FC20B18C210FF20040FFF720FBB8
:1018C000A563AC6307B030BD81B00068DFF8B41326
:1018D00088420CD10021DFF8B0030091026842F485
:1018E00080520260006800F480500090009801B0BF
:1018F000704710B586B00068DFF8901388422AD18F
:10190000402000901221012001910290002104202A
:10191000039104906946DFF87843204601F08CF982
:101920004FF40070009012210120019102900321D8
:101930000420039104906946204601F07DF90020BF
:101940000590DFF82403016841F40011016000688C
:1019500000F400102EE0DFF83C1388422CD14FF445
:1019600000700090122101200191029003210420B7
:10197000039104906946DFF8000301F05DF94FF42C
:101980008070009012210120019102900321042017
:10199000039104906946DFF8E40201F04DF900205C
:1019A0000590DFF8C402016841F40001016000689D
:1019B00000F400000590059806B010BD80B50068E1
:1019C000DFF8C81288420AD1DFF89C02016821F4CE
:1019D000001101604FF41071DFF8B40210E0DFF87D
:1019E000B422904210D1A048016821F400010160A6
:1019F0004FF40071A04801F0EBF94FF480719F485B
:101A0000BDE8044001F0E4B901BD38B50446A2497F
:101A10002068884215D10020009000229248416839
:101A200041F0010141600021406800F00100009098
:101A300000981A20FFF7CBFABDE832401A20FFF7D2
:101A4000EFBAB0F1804F0AD10020009086480168BB
:101A500041F001010160006800F0010050E08F4991
:101A600088420AD1002000907F48016841F00201BD
:101A70000160006800F0020042E08949884232D1EA
:101A800000200090874D7848016841F00401016012
:101A90000068854900F0040000900098296040200B
:101AA000A8604FF080610020E86069604FF48060BA
:101AB00028614FF4006068614FF40050A861002075
:101AC000E8614FF40030286200206862284602F086
:101AD000A3FB28B14FF4C3710FF2E010FFF710FA27
:101AE0006562AC6331BD714988420BD10020009022
:101AF0005D48016841F008010160006800F00800DD
:101B00000090009831BD00B585B0006862498842F8
:101B10000CD14FF4D4400090022100200290039099
:101B20000191012004906946614846E0B0F1804F80
:101B300017D14FF48061009102200021029103919E
:101B40000190012104916946514801F075F84FF464
:101B5000004000900221002002900390019101209A
:101B600028E04E4988420BD133200090022100200A
:101B700002900390019102200490694644481CE0C1
:101B8000474988420BD1802000900221002002901A
:101B9000039001910220049069463D480DE04349BD
:101BA00088420CD103200090022100200290039073
:101BB0000191022004906946304801F03DF805B0DB
:101BC00000BD00683B49884200D0704780B586B0B0
:101BD000002127480091C021026842F020020260E3
:101BE0000222006800F0200000900098019101207E
:101BF00003900321082004910590029201A91E4838
:101C000001F01AF8002205214720FFF7E0F94720EC
:101C1000FFF706FA07B000BD0068B0F1A04F00D092
:101C2000704780B586B04FF4C05101910220002169
:101C30000290039103200A210490059101A90F4805
:101C400000F0FAFF1C48016841F0800101600022A9
:101C50000092016941F480410161006900F4804013
:101C60000090009807B000BD4038024000200140BD
:101C70004438024024450020000802400000024091
:101C8000706402400030024030380240005400408E
:101C900000040240005C00400000014000040040DD
:101CA000000800408445002058600240000C0040BD
:101CB000001002400014014034380240433A5C47AF
:101CC00049545C526576767944656D6F4B69745CF6
:101CD00053544D3332463431315C5372635C737408
:101CE0006D3332663478785F68616C5F6D73702E27
:101CF00063000000F8B5040001D10120F2BD04F139
:101D00003C05687820B9002129702046FFF7F1FDD5
:101D1000242068702068016849084900016001F0CA
:101D20005EFB0146DFF8EC20DFF8EC30A1FB02207F
:101D3000C20C206842606068984208D34FF49670E5
:101D400010FB02F2DFF8D470A2FB0776720A20685B
:101D5000521C026266689E4208D27600B1FBF6F021
:101D6000C0F30B01042913D2042011E0A06820B9AC
:101D700006EB4606B1FBF6F005E019225643B1FB2F
:101D8000F6F040F4804001050CBF012040F4004013
:101D90002168C861E269206A024320680260216903
:101DA000E0680143206881606169A069014320689F
:101DB000C1602068016841F0010101600020686095
:101DC0002020687000202063A870F2BD38B50400A0
:101DD00001D1012032BD04F13C0524206870206847
:101DE00001684908490001602046FFF7E7FD00202F
:101DF000686068702063A870287032BD0320BDE859
:101E0000F6870120BDE8F6870120BDE8F2830320B4
:101E1000BDE8F28306BD3786A1860100986E128365
:101E20002DE9FC470646884691469A4602F090F80E
:101E300006F13C070546787820280FD13068816983
:101E40008A0754D502F084F8401B1A28F6D30020E4
:101E50003063202078700020B8703870F8E178681E
:101E6000042803D100213970FFF7CBBF0020387060
:101E7000FFF7C4BF716A4A1C726209780161308D34
:101E8000411E3185708D411E7185308D002877D0BF
:101E9000306841690A0660D441694A0513D56FF478
:101EA00080624261042078600020306320207870D6
:101EB0000020387078680428DAD13068016841F46D
:101EC00000710160D0E714F1010FE1D024B102F0FC
:101ED0003FF8401B8442DBD2786840F020007860F5
:101EE00000213163202078703970E3E75CE03978B5
:101EF0000129B3D001223A700268D10703D40168E6
:101F000041F0010101604146D6F800E00C9C0B98BD
:101F1000DDF828C0DEF8008028F40068CEF80080E4
:101F20004FF0210E87F801E053464FF0400E87F83E
:101F300002E04A464FF0000EC7F804E0C6F824C09D
:101F400070851848F062708D308501950094304698
:101F500000F08AF9002898D081E7716A4A1C726201
:101F600009780161308D411E3185708D421E728568
:101F700030684269530788D589B200297FF47AAF67
:101F80002A462146304600F003FB0028AED0786890
:101F900004287FF46DAF3068016841F4007101607E
:101FA00062E700000000FFFF3068016841F4007143
:101FB0000160202078700020B8703870BDE8F68786
:101FC0002DE9FC470646884691469A4601F0C0FF37
:101FD00006F13C0705467878202810D130688169E1
:101FE0008A0740F1AA8001F0B3FF401B1A28F5D3FD
:101FF00000203063202078700020B870387027E10E
:1020000000203870FFF7FABE308D08B9009008E064
:102010003168012810D1086820F480600860002130
:1020200000913068416900918269009200990168CD
:1020300041F40071016025E002280FD1086820F406
:10204000806008603068016841F400610160002030
:102050000090306841690091806904E000200090A0
:102060004A6900928869009000990BE0706A411CEF
:10207000716231680A690270308D411E3185708D40
:10208000411E7185308D002800F09680042837D2DB
:1020900001280BD12A462146304600F0ABFA002831
:1020A000E4D078682028ADD0FFF7ABBE022840F01E
:1020B0008480306841694A0700F1938014F1010F70
:1020C000F7D024B101F044FF401B8442F1D200203C
:1020D0003063202078700020B87092E714F1010F6F
:1020E00000F0A0802CB101F033FF401B844280F04F
:1020F000998000203063202078700020B87080E73D
:102100002A462146304600F075FA0028C9D1706A87
:10211000411C716231680A690270308D411E31853F
:10212000708D411E7185306841694A07AAD5716A70
:102130004A1C7262006908709EE7397801293FF4F1
:102140005EAF01223A700268D10703D4016841F002
:10215000010101604146D6F800E00C9C0B98DDF8C7
:1021600028C0DEF8008028F40068CEF800804FF028
:10217000220E87F801E053464FF0400E87F802E048
:102180004A464FF0000EC7F804E0C6F824C0708538
:10219000DFF8C800F062708D3085019500943046FC
:1021A00000F0E9F800283FF42FAF786804287FF4A6
:1021B00027AF0021397077E7FBE6306841694A07AD
:1021C00020D414F1010FF8D024B101F0C1FE401B5E
:1021D0008442F2D200203063202078700020B87052
:1021E0000FE7016841F400710160706A411C71627F
:1021F00031680A690270308D411E3185708D411E33
:10220000718533E7016821F480610160706A411CC7
:10221000716231680A690270308D411E3185708D9E
:10222000411E7185306841694A077FF557AF0268E2
:1022300042F400720260706A411C716231680A697E
:102240000270308D411E3185708D411E71850DE704
:102250000220BDE8F68790F83D0070470000FFFFC0
:1022600041600020BDE8F2832DE9F843064630685E
:10227000089C099D0F46016841F48071914698467B
:10228000016030684169CA074CD414F1010FF8D0DD
:1022900024B101F05DFE401B8442F2D20020306385
:1022A000202106F13C00417000218170017032E074
:1022B00041694A0515D5026842F4007202606FF464
:1022C00080603168486106F13C00042242600021D0
:1022D00031632021417000210170416804291AD125
:1022E00017E014F1010F20D024B101F031FE401BA2
:1022F00084421AD20020306306F13C00E9E706F17F
:102300003C004168042906D13068026842F400723A
:102310000260FFF779BDFFF77ABD30685FFA89F791
:1023200007619EE707F0FE070761306841698A0789
:10233000BED5002200922A46416900918069009032
:1023400030460099214600F009F90028D7D1B8F1AC
:10235000010FE2D031684FEA192008612A46214670
:10236000304600F0FBF80028D7D006F13C00416869
:102370000429D0D1C8E72DE9FE43064630680A9CFF
:102380000B9F0D46016841F4806101609046306802
:10239000026842F480729946026030684169CA0757
:1023A00000F1A08014F1010FF7D024B101F0D0FDAD
:1023B000C01B8442F1D200203063202106F13C0092
:1023C00041700021817001708AE041694A0515D58C
:1023D000026842F4007202606FF480603168486104
:1023E00006F13C000422426000213163202141704B
:1023F000002101704168042972D161E014F1010FDC
:1024000073D024B101F0A4FDC01B84426DD2002022
:10241000306306F13C00E9E706F13C00416804291D
:102420005ED13068026842F40072026048E03068B1
:102430005FFA88F101613A462146304600F08EF895
:1024400050B106F13C004168042949D13068026866
:1024500042F40072026033E03068016841F4807138
:10246000016030684169CA076CD414F1010FF8D0DB
:1024700024B101F06DFDC01B8442F2D20020306314
:10248000202106F13C00417000218170017027E09D
:1024900041694A0516D5026842F4007202606FF481
:1024A00080603168486106F13C00042242600021EE
:1024B00031632021417000210170416804290FD14E
:1024C000012048E014F1010F40D024B101F040FD9B
:1024D000C01B84423AD20020306306F13C00E8E79A
:1024E000032038E005F0FE010161306841698A0788
:1024F0007FF56BAF002200923A46416900918069F6
:10250000009030460099214600F028F8002883D139
:10251000B9F1010F8BD031684FEA182008613A46B3
:102520002146304600F01AF800283FF480AF06F14B
:102530003C0041680429D3D13068026842F400723B
:102540000260BDE745F00105EDB205613068416903
:102550008A079DD5002003B0BDE8F083F8B5064694
:102560000C46174606F13C05306841690A060DD451
:1025700041694A0500D530E014F1010FF4D024B1CF
:1025800001F0E6FCC01B8442EED21BE00020F2BD4D
:10259000F8B506460C46174606F13C053068416919
:1025A0004A070DD441694A0500D516E014F1010F20
:1025B000F4D024B101F0CCFCC01B8442EED201E087
:1025C0000020F2BD686840F020006860002131639F
:1025D0002020687029700320F2BD6FF48062426190
:1025E000042068600020306320206870002028707C
:1025F0000120F2BD70B505460C46164628684169B3
:102600004A0622D44169CA0611D424B101F0A0FCC3
:10261000801B8442F2D205F13C002022416841F047
:1026200020014160427000210170032070BD6FF0F5
:102630001001416105F13C00002141602963202126
:10264000417000210170012070BD002070BD10B5E7
:10265000040001D1012010BD607920B90021217151
:102660002046FFF731F902206071012060710020DF
:1026700010BD000038B5040001D1012032BD04F1C5
:102680003805687820B9002129702046FFF799FAAB
:10269000242068702068C16821F40051C160204680
:1026A00000F04AF92068016921F490410161206835
:1026B000416921F02A01FFE741612068C16841F4C6
:1026C0000051C1600020686020206870A870002060
:1026D00032BD30B400F138039C78202C1BD109B1F5
:1026E000140000D118E01C78012C14D001251D70B5
:1026F00081628285C2850021596022219970002162
:10270000197001684A6942F001024A610068C168B3
:1027100041F4907106E002E030BC0120704730BC0B
:1027200002207047C160002030BC704738B50446B5
:1027300025682968EA686B6911F00F0007D18806DF
:1027400060D590065ED52046BDE83240AEE0D807A1
:1027500002D412F4907F55D0C80705D5D00503D513
:10276000E06B40F00100E063480705D5D80703D5CA
:10277000E06B40F00200E063880705D5D80703D579
:10278000E06B40F00400E063080705D5D80703D5E7
:10279000E06B40F00800E063E06B002871D0890630
:1027A00004D5900644BF204600F080F820684069B8
:1027B000E16B0A0701D440061ED5204600F062F8FE
:1027C000206841694A0612D5416921F04001416102
:1027D000606B60B10FF2C9010165606B01F0D9FD5A
:1027E00000284ED0606B016DBDE83440084720469C
:1027F000BDE8324001F0DFBE204601F0DCFE0020E3
:10280000E06331BD08062CD510062AD594F83900AE
:10281000212836D1A168206AB1F5805F0DD10188E9
:10282000C1F308016960206918B9216A881C206217
:1028300007E0206A411C216203E0411C216200780C
:102840006860E08C401EE08480B2D0B92068C16826
:1028500021F08001C1602068C16841F04001C16081
:1028600031BD48060DD550060BD5E86820F0400074
:10287000E860202184F839102046BDE8324001F09C
:102880009BBE31BD0168CA6822F49072CA600168BB
:102890004A69520852004A61202180F83A10704774
:1028A000806B0021C185C18401F085BE80B590F8A0
:1028B0003A1022293ED18268B2F5805F14D1826A33
:1028C000016941B903685968C1F308011180826A3E
:1028D000911C816218E001684B6803F0FF031380CC
:1028E000816A4A1C82620FE001690029816A04D171
:1028F0004A1C82620268536805E04A1C82620268D0
:10290000536803F07F030B70C18D491EC18589B2E6
:1029100071B90168CA6822F49072CA6001684A6994
:10292000520852004A61202180F83A1001F045FE19
:10293000002002BD022002BD2DE9F04704462168B7
:102940000A69E06822F4405202430A618A48CA6870
:102950000240A06802432069024360690243E069C3
:102960000243CA604A69A06922F4407202434A6184
:102970008248E269B2F5004F40F09B8081421CBF63
:102980007F4881424AD100F032FD054600F02FFD1C
:10299000064600F02CFD074600F029FD804600F0B9
:1029A00026FD6168DFF8DCA1DFF8D8E119235F4379
:1029B0004900B7FBF1F75D435E43A7FB0AA9642218
:1029C000B5FBF1F5B6FBF1F64FEA9917A5FB0EEC56
:1029D00002FB17664FEA9C15F6003236DFF8A4C1F9
:1029E000A6FB0CC7BE09760006F4F87606EB0516C2
:1029F00003FB08F74343B3FBF1F0B7FBF1F5614B81
:102A0000A0FB0331880902FB1052D20032325D492B
:102A1000A2FB0110800900F00700A7E000F0DFFC36
:102A2000054600F0DCFC064600F0D9FC074600F045
:102A3000D6FC804600F0D3FC6168DFF848A1DFF8DF
:102A400044E119235F434900B7FBF1F75D435E435F
:102A5000A7FB0AA96422B5FBF1F5B6FBF1F64FEA34
:102A60009917A5FB0EEC02FB17664FEA9C15F600C2
:102A70003236DFF810C1A6FB0CC7BE09760006F49B
:102A8000F87606EB051603FB08F74343B3FBF1F0BA
:102A9000B7FBF1F53B4BA0FB0331880902FB105259
:102AA000D20032323749A2FB0110800900F0070042
:102AB0005CE081421CBF324881420ED100F097FC9D
:102AC000054600F094FC064600F091FC074600F035
:102AD0008EFC804600F08BFC0DE000F080FC05468B
:102AE00000F07DFC064600F07AFC074600F077FC1B
:102AF000804600F074FC6168DFF888A0DFF884E0AD
:102B000019235F438900B7FBF1F75D435E43A7FBE1
:102B10000AA96422B5FBF1F5B6FBF1F64FEA991765
:102B2000A5FB0EEC02FB17664FEA9C153601323608
:102B3000DFF850C0A6FB0CC7BE0906F0F00606EB96
:102B4000051603FB08F74343B3FBF1F0B7FBF1F5C0
:102B50000C4BA0FB0331880902FB105212013232E8
:102B60000849A2FB0110800900F00F0022688619B5
:102B70009660BDE8F0870000F369FFFF0010014098
:102B8000001401403E0AD7A338B58AB00446002598
:102B900014B901200BB030BD032084F8B9032046DE
:102BA000FFF73AF8206801F040FD83B0211D684628
:102BB000342201F01FFE0EBC206801F0FFFC2068EB
:102BC000002101F038FD04F1380001214170057049
:102BD000C5800021C1708160C16041616D1C1C30E5
:102BE0000F2DF2D3002004F5FC72002353701070F7
:102BF000A2F5DD7318800023D3709360D360536116
:102C0000401C25680D441C32091D0F28C5F80431ED
:102C1000EBD383B0211D6846342201F0EBFD0EBCDE
:102C2000206801F01BFD012084F8B903206801F041
:102C3000A9FD00200BB030BD2DE9F84F03460C462E
:102C40004FF00008C146C246AA48AB490F220125F1
:102C500005FA08FC25680CEA050EE64540F0AC8054
:102C60006568022D18BF122D10D14FEAD80503EB6D
:102C700085050AF01C062F6A02FA06FB27EA0B07F5
:102C8000D4F810B00BFA06F63E432E6203251E68F8
:102C9000277905FA09F5ED4307F003072E4007FAF7
:102CA00009F73E431E606668012E18BF022E03D04E
:102CB000112E18BF122E10D19E68E7682E4007FA19
:102CC00009F73E439E605E6826EA0C076668C6F315
:102CD000001606FA08F63E435E60DE683540A668D8
:102CE00006FA09F63543DD606568ED0064D5002518
:102CF00000954FEA980C0D6845F480450D600AF088
:102D00000C060D6805F48045009502FA06F7009D53
:102D10007A4D55F82CB02BEA0707DFF8E4B15B4594
:102D200008BF4FF0000B1CD0DFF8D8B15B4508BFDF
:102D30004FF0010B15D0DFF8D0B15B4508BF4FF065
:102D4000020B0ED0DFF8C4B15B4508BF4FF0030B98
:102D500007D0DFF8BCB15B450CBF4FF0040B4FF060
:102D6000070B0BFA06F63E4345F82C606FEA0E0C93
:102D7000056866680CEA0505F70348BF4EEA0505D5
:102D80000560456866680CEA0505B70348BF4EEA6A
:102D900005054560856866680CEA0505F70248BFC9
:102DA0004EEA05058560C56866680CEA0505B60249
:102DB00048BF4EEA0505C56008F10108B8F10F0FDC
:102DC0000AF1040A09F102097FF641AFBDE8F18F6B
:102DD0002DE9F84F0C464FF0000BDC464549474AB9
:102DE00000940F234FF001080546D946009808FAD1
:102DF00009FE0EEA0000704557D1032404FA0BF4D3
:102E00002E68E44326402E600CF01C074FEAD906DA
:102E100005EB860603FA07F7D6F820A02AEA07078B
:102E20003762AE682640AE606E6826EA0E066E60B7
:102E30004FEA990EEE683440EC600CF00C0452F846
:102E40002E7003FA04F606EA070A2D4FBD4208BFAA
:102E5000002713D02B4FBD4208BF01270ED02A4FA9
:102E6000BD4208BF022709D0284FBD4208BF032733
:102E700004D0274FBD420CBF0427072707FA04F4EC
:102E8000A24512D152F82E4024EA060642F82E60DE
:102E9000C0430C6804400C604C6804404C608C6873
:102EA00004408C60CC682040C86009F10109B9F188
:102EB0000F0F0CF1040C0BF1020B97D9BDE8F18F49
:102EC00000690140481E8041C043C00F704781B077
:102ED00002B90904816101B0704742695140416102
:102EE00070470C4A136803421CBF1060FDF714BE04
:102EF00070470000003C014044380240083801405F
:102F0000000002400004024000080240000C0240A1
:102F100000100240143C014038B5134D68688047EA
:102F2000012433280AD1114C256040F64700296856
:102F3000884721680A6A902090470024204632BDC5
:102F400080B5942200213C2001F076FD80220121F1
:102F50003C2001F071FDBDE808400022FFE702219E
:102F60003C2001F069BD000000000020F846002070
:102F700080B501F057FE002002BD00B583B00B46BE
:102F8000B0F908100022842918BFCA1C02A90092B7
:102F9000019101680269406892B201F04FFD012879
:102FA00014BF0020029803B000BD80B500B9012015
:102FB00001F017FE002002BD80B501F095FF012849
:102FC00003D0BDE8014002F083B801BD2DE9FC410A
:102FD000040019D02078B84EC10740F1D080B06805
:102FE00000F00C00042807D0B06800F00C0008289E
:102FF0000DD1706841020AD53168880340F1BF8065
:103000006068002840F0BB800120BDE8F681606860
:10301000B0F5803F06D0B0F5A02F316807D141F45C
:1030200080213160306840F48030306006E021F467
:1030300080313160326822F480223260606870B181
:1030400000F086FF05463168880300F1988000F0A3
:103050007FFF401B6528F6D30320BDE8F68100F012
:1030600077FF05463068810340F1898000F070FFEA
:10307000401B6528F6D3EFE700F06AFF401B0228EB
:1030800040F2A980E8E7E0688C4970B101220A604B
:1030900000F05EFF05463068810700F1C78000F050
:1030A00057FF401B0228F6D9D6E7086000F050FF12
:1030B00005463068810740F1818000F049FF401BE0
:1030C0000228F6D9C8E7086000F042FF0546706F95
:1030D000810740F1848000F03BFF401B0228F6D9B5
:1030E000BAE70528306F06D140F004003067306F32
:1030F00040F0010005E0400840003067306F20F0EC
:1031000004003067A06870B100F022FF074641F26A
:103110008938306F810700F1998000F019FFC01BDA
:103120004045F6D398E700F013FF074641F289388F
:10313000306F810740F18A8000F00AFFC01B4045D4
:10314000F6D389E700F004FFC01B022840F2948008
:1031500082E700F0FDFE001B022840F2A5807BE71D
:103160000020286600F0F4FE04463068810140F13A
:103170009F8000F0EDFE001B0228F6D96CE7207856
:1031800081071BD5B06810F00C0F09D0B06800F0B3
:103190000C0008287FF477AF706841023FF573AFE9
:1031A0003168880703D5E06801287FF42DAF3168C6
:1031B000206921F0F80141EAC00131602178080757
:1031C0000DD560693E4900283FF47DAF01220A60B9
:1031D00000F0BEFE0546706F81077FF54DAF217888
:1031E000480738D5306C0025C1000AD40095012568
:1031F000306C40F080503064306C00F080500090B3
:103200000098304F3968C80518D4386840F4807089
:10321000386000F09DFE80463968C8050ED400F085
:1032200097FEA0EB08000228F6D915E7306821695F
:1032300020F0F80040EAC1003060BFE7A068012834
:103240007FF44FAF306F40F001005AE71DB1306C92
:1032500020F080503064A06950B3B16801F00C01D7
:1032600008293FF4D1AE0228144D7FF479AF002035
:10327000286600F06DFE0746306881013FF562AFB9
:10328000E169206AA26A0143606A520841EA80113A
:10329000521EE06A41EA024141EA00617160012187
:1032A000296600F055FE0446306881017FF551AF74
:1032B0000020BDE8F68100BF003802400000474210
:1032C000800E4742007000402DE9F84304000F468D
:1032D00000F07F80594E306800F00F00B84205D2F0
:1032E0003770316801F00F01B94272D12068544D36
:1032F000810712D5400703D5A86840F4E050A860C4
:103300002178080703D5A86840F46040A860A96840
:10331000A06821F0F0010143A9602078C1074DD5D4
:103320006068012802D129688A0305E0022818BFD5
:10333000032803D129688A0103D44AE02A68910747
:1033400047D5A968890840EA8100A86041F2893917
:1033500000F0FEFD8046A868616800F00C00B0EB4C
:10336000810F2BD000F0F4FDA0EB08004845F2D30C
:103370000320BDE8F2832078410705D5A968E068FD
:1033800021F4E0510143A9602078010706D5A8681F
:10339000216920F4604040EAC100A86000F05AF8BA
:1033A000AA682849C2F30312895C274AC840106002
:1033B000002000F0F1FE0020BDE8F283306800F04C
:1033C0000F008742D7D23770316801F00F01B94240
:1033D000D1D00120BDE8F2831B48006870471A482D
:1033E0001A4A006813681A49C3F3822206E0164895
:1033F000164A006813681649C3F34232895CC84014
:1034000070470F220260114A136803F00303436000
:10341000D2F800C00CF0F00CC0F808C0136803F438
:10342000E053C3601268D20802F4E052026103481C
:10343000026802F00F020A6070470000003C024080
:1034400000380240605A00089C0000200838024002
:10345000FC5B000818B5124C606800F00C000428F2
:1034600002D0082802D019E00E4812BD00232268BD
:10347000206841022068C0F388104CBF09490A49FE
:1034800002F03F02A1FB000101F058FE2168C1F3E8
:103490000141491C4900B0FBF1F012BD024812BDC8
:1034A0000438024000127A000024F40070B504468B
:1034B00000250CB9012070BD04F13C06706820B9EC
:1034C000B56030702046FEF7AFF97068C10610D4C1
:1034D000706820F4885040F002007060204600F0D0
:1034E00035F9B560706820F0020040F001007060AE
:1034F00000E0012500203070284670BDF8B5044674
:10350000002004F13C0300901D78012D01D1022020
:10351000F2BD0120187020688568EE0715D4856813
:10352000DFF81C7345F001058560DFF818030568B6
:10353000A5FB0776F60C06EB4606009602E000981F
:10354000401E009000980028F9D12568A868C60799
:1035500058D55E68DFF8F002064046F480765E607B
:103560006868450505D5586820F4005040F480503F
:1035700058605868C50404D5986820F00600986023
:1035800001E000259D6000201870A36B0FF2D12090
:10359000D863A36B0FF225301864A36B0FF22530AC
:1035A000D8646FF02200256828602068436843F0E3
:1035B000806343602068836843F4807383601346AC
:1035C00020680A4600F14C01A06B00F09BFE2068C9
:1035D0009E490A6812F01F0F08D1816811F0405F00
:1035E00010D1816841F0804181600BE0984A90429F
:1035F00002BF9848016811F0405F03D1026842F0B1
:10360000804202600020F2BD78B4024600200090A3
:1036100092F83C30012B08BF022000F09580012079
:1036200082F83C0007240B6810680A2B12D30A3B6F
:10363000C56803EB43039C4025EA0404C460C368E7
:103640000D688C68A5F10A0606EB4606B4402343D4
:10365000C3600FE0056903EB430304FA03F325EAB3
:103660000303036103690D688C6805EB4505AC40F5
:10367000234303611F244B68072B11D25B1E456B4C
:1036800003EB83039C4025EA04044463436B4D68C9
:103690000C886E1E06EB8606B4402343436325E088
:1036A0000D2B11D2DB1F056B03EB83039C4025EA36
:1036B00004040463036B4D680C88EE1F06EB86065A
:1036C000B4402343036311E00D3BC56A03EB83035E
:1036D0009C4025EA0404C462C36A4D680C88A5F1C5
:1036E0000D0606EB8606B4402343C362584B98424E
:1036F00026D10868122804D15448036843F4800393
:1037000003600868544B984218BF112818D14F48DD
:10371000046844F4000404600868984210D14948E1
:10372000474C0168A1FB0443DB0C03EB83056D00F0
:10373000009502E00098401E009000980028F9D102
:10374000002182F83C10002072BC70473F4A11688B
:1037500021F440311160136841680B431360026823
:10376000516821F4807151605168036941EA032175
:103770005160516821F040715160536881680B437A
:103780005360916821F4006191609368C1680B43B4
:103790009360816A314B994210D0936823F0706333
:1037A00093609368816A0B439360916821F0405164
:1037B00091609368C16A0B43936007E0916821F0C0
:1037C00070619160916821F040519160916821F0A1
:1037D000020191609168836941EA43019160016A45
:1037E00069B1536843F400635360516821F4604148
:1037F00051605168436A5B1E41EA433102E05168FF
:1038000021F400615160D16A21F47001D162D16A62
:10381000C3695B1E41EA0351D162916821F40071D2
:1038200091609168036B41EA43219160916821F4B2
:10383000806191609168406941EA802191607047A0
:1038400006BD37869C000020FEF9FFFF04230140DF
:103850000020014008200140120000100100000F6C
:10386000816B0A6C12F0500F24D1086C40F4007088
:1038700008640A68906810F0405F04BF88690028F7
:1038800015D1D36A13F4700F02D0906843050ED49B
:10389000506820F020005060086C20F480700864AC
:1038A000086CC20403D4086C40F0010008640846A8
:1038B000FCF772BC896BCA6C10470000806B01F08A
:1038C00054BD0000806B40210164416C41F0040153
:1038D000416401F04BBD0000C0F3C75181B1FF2925
:1038E00006D0C110400721F0E04101F1605170475E
:1038F00041020CBF40F4E0016FF00041002070472E
:1039000000F0004100020AD0B0FA80FC00FA0CF08E
:1039100001F16051A1EB0C5101EBD0214005704742
:10392000B0B581EA030C0CF0004C40F2FF7515EACB
:1039300011541DBF15EA1357AC42AF4239E0E419E8
:1039400023EA455343F48013C90241F0004141EAA0
:10395000505EC7021100A7FB020200284FF00000D2
:10396000EEFB01204FF00001E3FB072118BF42F0FE
:103970000102401800214941E3FB0E01A4F58064D7
:103980000F0302D252004041494154F101046CDD61
:10399000470872F1004250F1000051EB0451A1F5CB
:1039A00080115CBF41EA0C01B0BD4CEA055100201A
:1039B000B0BD05EA1357AC4214BFAF4241E050EA34
:1039C000410E1CBF52EA430E02E061460020B0BD2A
:1039D00024423C441BD15FEA070EF6D0090302BF24
:1039E00001460020AEF1140EB1FA81F7AEEB0704E8
:1039F00001FA07FE0C37C7F1200100FA07F7C840AB
:103A00004EEA000E23EA455343F48013A2E733F055
:103A10000043B3FA83F704BFB2FA82FE77440B3F48
:103A2000E41BB7F1200E2FBF02FA0EF3BB40C7F123
:103A3000200E22FA0EFE38BF43EA0E03BA40641C81
:103A400082E750EA410E14BF52EA430E6FF00001C4
:103A50004FF4001717EB430F8ABF194617EB410FBE
:103A6000B5E74CEA05510020B0BDD4F10104B4F132
:103A700020070FDAC4F12007520828BF42F00102E4
:103A800010FA07F501FA07F7E1BF2A43E04038438F
:103A9000E1400FE0352C98DCC7F1200452EA4002E7
:103AA00020FA07F218BF42F0010231FA07F0A140F4
:103AB0000A43002172F1004250F1000051EB0C0169
:103AC000B0BD0000F0B540F2FF7581EA030C0CF0C8
:103AD000004C15EA11541DBF15EA1357AC42AF4212
:103AE000E5E0BC41C1F31301C3F31303801A99410C
:103AF00043F4801304D2641E4000494180185941A8
:103B0000C90241EA5051B1FBF3F603FB1611A2FBC7
:103B10000675D7EBC020A94102D2761E8018594104
:103B2000C90241EA5051B1FBF3FE03FB1E11A2FB97
:103B30000E75D7EBC020A94103D2AEF1010E80185B
:103B40005941890241EA9051760546EA8E2EB1FB31
:103B5000F3F603FB1611A2FB0675D7EB8020A941F3
:103B600002D2761E80185941C90241EA50514EEAEC
:103B7000060EB1FBF3F603FB1611A2FB0675D7EB9D
:103B8000C020A94102D2761E80185941C90241EADB
:103B90005051B1FBF3F703FB1711A2FB0735D3EB31
:103BA000C020A94167F100070CBF004247F00107A0
:103BB00066F3D5274FEA1E31B80814F5806412DD8C
:103BC000BD0775F1004250EB0E5051EB045111F559
:103BD000801F5CBF41EA0C01F0BD4CF07F6141F0F9
:103BE000E0410020F0BDBD076D0840EA0E5041F4F1
:103BF0008011D4F10104B4F120060ADAC4F12006E0
:103C00000200E04001FA06F3E1401843B2401543D8
:103C10000EE0342C13DCC6F1200445EA40056D08A3
:103C200020FA06F2154321FA06F0A1400D430021C7
:103C300075F1004250F1000051EB0C01F0BD002085
:103C40005FEA0C01F0BDCFB992185B41B3FA83F77C
:103C500004BFB2FA82F6BF190B3FB7F120062FBF9F
:103C600002FA06F3BB40C7F1200622FA06F638BF77
:103C70003343BA401CB1E419641E33E77F4231F08C
:103C80000041B1FA81F404BFB0FA80F6A4190B3CEC
:103C9000B4F120062FBF00FA06F1A140C4F12006BE
:103CA00020FA06F638BF3143A0403C1B1AE7AC426D
:103CB0001ABF05EA1357AF4212E050EA41061CBF93
:103CC00052EA4306BFE750EA4107304661461CBF4F
:103CD00041EA0551F0BD52EA430C08BFC143F0BDB3
:103CE00000204FF4001616EB410F98BF16EB430F60
:103CF00008BF16EB410F24BFC14305E016EB430F8D
:103D00000CBF61464CEA0551F0BD000001F00042D5
:103D10008B1AA3F16051B1F5801F0ADBB1F17F6FFF
:103D20001FD242EAC102C10071F1004142EB507062
:103D300070470B15C3F10903212B10D2890241EA08
:103D4000905180020128494141F0004121FA03F0DD
:103D5000C3F12003994071F10041504170471000B8
:103D600070476FF0000013EB103F5CBF000E42EA9B
:103D7000C0507047DFED650A60EE200A10EE901A21
:103D800021F0004101EE101ADFED611AB4EE611A64
:103D9000F1EE10FA27D510EE902A4FF07C5102F088
:103DA0000042114301EE101A70EE810AFDEEE00AA6
:103DB00010EE901A00296ED0FAEEC90A9FED551A3E
:103DC00000EEC10A9FED541A00EEC10A9FED531A8E
:103DD00000EEC10A9FED521A00EEC10A9FED511A82
:103DE00000EEC10A57E010EE101A49000916491CEE
:103DF00010EE101A09D149000816401C02D1090220
:103E000040F083809FED480A7047490004D10028A4
:103E10007BD0B7EE000A704710EE902A4FF07C512D
:103E200002F00042114301EE101A70EE810A10EE0A
:103E3000902A51000FD0090EC1F196011829A8BF90
:103E400002F0004205DA0129A4BF22FA01F303FAC5
:103E500001F200EE902A10EE901A490017D09FED63
:103E6000331A20EE811ADFED2B1A01EE610ADFED25
:103E70002A1A01EE610ADFED291A01EE610ADFED6F
:103E8000281A01EE610ADFED271A01EE610AFDEE44
:103E9000E00A10EE901A10EE102A22F0004200EE16
:103EA000902A9FED231A01F00301F4EE410A08184D
:103EB000F1EE10FA00F0010103D511B3B7EE000ADC
:103EC0001FE060EE000A71B19FED1A0A9FED1A1A09
:103ED00000EE801ADFED191A41EE201AB7EE000A43
:103EE00001EEA00A0DE0DFED161A9FED162A00EE96
:103EF000A12ADFED152A20EE201A42EE202A01EE3B
:103F0000220A800748BFB1EE400A704783F9223F7A
:103F10000000004F0000C94600A0FD400020A23A6A
:103F2000000034330030C22EFFFFFF7F00008038D6
:103F3000000080399349B2BA36A02A3DDFFFFFBEA8
:103F40006E8C4CB94283083CA1AA2ABE012011E71D
:103F500001484068704700BF90000020DFF81C1245
:103F6000012008737047F0B4DFF81442DFF80C62E8
:103F700000252746042371783078B2786D1C5FEAFB
:103F8000016C4CBF4FF0410C4FF0220CA7F800C061
:103F90006D1C5FEA416C4CBF4FF0410C4FF0220C9E
:103FA000A7F802C06D1C5FEA816C4CBF4FF0410C5A
:103FB0004FF0220CA7F804C06D1C5FEAC16C4CBF27
:103FC0004FF0410C4FF0220CA7F806C06D1C5FEAC1
:103FD000017C4CBF4FF0410C4FF0220CA7F808C0F9
:103FE0006D1C5FEA417C4CBF4FF0410C4FF0220C3E
:103FF000A7F80AC06D1C5FEA817C4CBF4FF0410CF2
:104000004FF0220C6D1CC9074CBF41212221F981C0
:104010006D1C01064CBF4121222139826D1C4106D5
:104020004CBF4121222179826D1C81064CBF412168
:104030002221B9826D1CC1064CBF41212221F98287
:104040006D1C01074CBF4121222139836D1C4107A2
:104050004CBF4121222179836D1C81074CBF412136
:1040600022216D1CC0074CBF41202220F8836D1C0B
:1040700010064CBF4120222038846D1C50064CBFD6
:104080004120222078846D1C90064CBF41202220C4
:10409000B8846D1CD0064CBF41202220F8846D1CD2
:1040A00010074CBF4120222038856D1C50074CBFA3
:1040B0004120222078856D1C90074CBF4120222092
:1040C000B8856D1CD0074CBF41202220A7F80CC03A
:1040D000B983F8853037F61C5B1E7FF44CAF04EBD8
:1040E0004500F0BC602101F043B9287B0028FCD0DA
:1040F000FFF739FF01B0002129739023BDE830405C
:10410000DFF87C20DFF87C000421FDF72CB838B5FF
:10411000042814460FD2009100EB4000174D2844AC
:104120006946032200F056FBE4B2012C287B02D141
:104130000028FDD0DCE731BD38B504460F4D684698
:104140002946032200F046FB2846E91C032200F022
:1041500041FBE81CA91D032200F03CFBA81D05F152
:104160000901032200F036FB05F10900694603222C
:1041700000F030FB012C00D1B7E731BDA0000020DA
:1041800070420020D8410020024841680278891816
:10419000416070479000002018B5014687B00022AA
:1041A0001A20FCF714FF1A20FCF73AFF00200090B9
:1041B000154C1648016841F48021016001A900688E
:1041C00000F480200090009802A8FFF71AF9FFF78A
:1041D0000EF90F490F4A2160002340F2E731E160F8
:1041E0002361A0FB0221C80C401E6060A360204632
:1041F000FCF74EFF20B92046FCF759FF08B010BD70
:10420000012008B010BD0000744600204438024070
:104210000048014006BD37867CB50446FFF798FE8E
:1042200006460CB9012076BD04F134050020287043
:10423000022068702068016849084900016021680F
:104240000868C20720D5FFF783FE801B0628F6D337
:1042500020202862032015E0B0F5005F09D1032E6D
:1042600042D8DFE806F00C0A0C02B1F1C07F3BD166
:1042700005E0022E03D9F61E36D1C80134D5402000
:1042800028620120687076BD0A68DFF804030240E6
:1042900060680243A0680243E06802432069024369
:1042A00060690243A0690243E0690243206A024355
:1042B000606A042803D1E36A206B03431A430A604F
:1042C00023685A69606AD208042840EAC2020BD106
:1042D000A66AE16A324339B1A0690028BCD1002E38
:1042E00018BF022EC9D0C0D35A61204600F038F959
:1042F000A96A3F228A4082600020286201206870FB
:10430000002076BDF0B400F1340500242F786E6AE9
:10431000012F08BF02203AD001272F706F78012F9C
:1043200032D102276F702C620768D7F800C02CF4D6
:10433000802CC7F800C007687B608368402B04D1DD
:104340000768BA600268D16003E003689960016899
:10435000CA603F22A96A8A40B26001680A6842F0D6
:1043600016020A6001684A6942F080024A61E968FF
:1043700021B101680A6842F008020A600068016819
:1043800041F00101016001E02C7002242046F0BCE4
:10439000704790F83510022903D080224265012031
:1043A0007047052180F83510006801684908490008
:1043B0000160002070472DE9FC41044604F13406F9
:1043C00000207549754B0090776A0A683D68A2FB2A
:1043D00003304FEA5038B06A082101FA00F0054274
:1043E0000ED02068026853070AD5036823F004033F
:1043F0000360B06A8140B960306A40F00100306209
:10440000B06A25FA00F1C9070BD521684A6911067F
:1044100007D5012101FA00F0B860306A40F00200CF
:1044200030620421B06A01FA00F0054208D0216828
:104430000A68930704D5B860306A40F0040030621F
:104440001021B06A01FA00F005421BD021680A6809
:10445000130717D5B860206801684A0307D50068BC
:1044600001030BD5716969B1204688470AE00168EC
:10447000CA0503D4026822F008020260F16809B19B
:1044800020468847B06A202101FA00F0054245D055
:1044900021680A68D30641D5B8602068717805297B
:1044A00022D1026822F0160202602068416921F0E0
:1044B00080014161F168002904BF7069002804D0BF
:1044C0002068016821F0080101603F22B06A824043
:1044D000BA600020307001207070F16900293CD072
:1044E0002046BDE8FC41084701684A0307D500683B
:1044F00001030FD4316989B1204688470EE0016875
:10450000CA0507D4026822F0100202600020307051
:1045100001207070B16809B120468847306AE0B167
:10452000316AC80713D505207070206801684908F2
:104530004900016020680099491C8845009102D318
:104540000168CA07F7D40020307001207070B1698B
:1045500019B12046BDE8FC410847BDE8F3810000E1
:1045600081B00168DFF82CC001F0FF02103AA2FB15
:104570000CC31A090FF228039B5CC365890A8902E0
:10458000042A28BF091D8165084601B07047000054
:104590003F8010F0ABAAAAAA9C000020A80D74DAF4
:1045A00000061016000610167047704770477047D7
:1045B0007047704770477047704770470EB418B522
:1045C00004460898012817D1A16BDFF8F80121F4FF
:1045D0008031A163E1680140E160E06820F44010AF
:1045E000E0600F98012803D1E16841F48011E16097
:1045F000204600F0D3F809E0E06840F04000E060B9
:10460000204600F0CBF84FF48030A06306980128D4
:1046100007D1A16841F00601A160A06840F0200028
:10462000A060002012BC5DF810FB816849084900B9
:1046300081600020704780B5C26822F0C042012925
:10464000C26003D1C16841F0005103E019B9C168EB
:1046500041F08041C160322000F09CB80EB42DE9D9
:10466000FC010246119B906B002B0CBF40F4001024
:1046700040F400209063002102F5606002F50064C0
:104680000160206820600C98012807D109982168F2
:10469000002818BF41F00101216003E0206840F0CC
:1046A000030020604FF484611161DFF81C1108469B
:1046B000401E02D01669B706FAD410201061491EB8
:1046C00002D01069C606FAD40021216161614FF061
:1046D000FF30A061E161079808B302F51067FF2180
:1046E0004FF090464FF000083D68002D4CBF3E60F3
:1046F000C7F80080C7F81080B9602037401EF3D19A
:10470000079802F530652F68002F4CBF2E60C5F862
:104710000080C5F81080A9602035401EF3D12069C3
:1047200020F4807020610A98012809D1DFF89C10DC
:104730002163216B41F4803141F003012163216B3E
:10474000002191616FF08041516118B9906940F08A
:10475000100090619169DFF87800014391610D9834
:1047600018B1916941F008019161012B05D190695F
:1047700040F0804040F0040090610020BDE8F60168
:1047800003B0704780B500F50060416841F0020158
:104790004160032000F0F0FD002002BD0A4A1146EE
:1047A000491E0DD00369002BFAD5016941F00101C2
:1047B0000161521E04D00169CB07FAD40020704772
:1047C00003207047BFFFBDFF410D030000018000C3
:1047D00000383C8062B38B0708D0521E11F8013BB1
:1047E00000F8013B00F024808B07F6D1830740F0EE
:1047F000208000BF103A07D330B4B1E83810103A27
:10480000A0E83810F9D230BC530724BFB1E8081033
:10481000A0E8081044BF51F8043B40F8043BD2071D
:1048200024BF31F8022B20F8022B44BF0B78037011
:104830007047121F17D35B0009D151F8043B20F8D1
:10484000023B1B0C121F20F8023BF6D20BE051F882
:10485000043B00F8013B1B0A20F8023B1B0C121F13
:1048600000F8013BF3D238BF121D521E24BF11F8CD
:10487000013B00F8013BF8D87047000038B5684CA0
:1048800086B02046FDF7E7FC00284FD16548664D0D
:10489000206000214320E060122264486060002014
:1048A000A0604FF48040206100206061A061E06161
:1048B00020620090286A40F400102862286A00F400
:1048C00000100090009800914FF41071286940F09A
:1048D00002002861286900F0020000900098019110
:1048E000002003900221042004910590029201A966
:1048F0004F48FEF7A1F9286840F400102860002214
:10490000296821F4001129601F200F21FCF75FFBAB
:104910001F20FCF785FB00220F212020FCF757FB0E
:104920002020FCF77DFB2046FDF7E4F907B030BD01
:1049300074B53B4C626D83B00125029203AE0A460A
:1049400001460195009601232046FDF769FA20B142
:104950002046FDF73BFAFFF791FF04B070BD70B53C
:1049600084B00A4600218DF80C1001252C4C616D95
:10497000029103AE01460195009601232046FDF702
:104980001FFB20B12046FDF721FAFFF777FF9DF8C6
:104990000C0004B070BD80B586B0002000900022ED
:1049A0001D48016841F0100101600421006800F019
:1049B0001000009000981F4801910292022104917A
:1049C000039201A9FEF738F9FFF758FF07B000BDC1
:1049D00080B586B000200090104A0F48016841F071
:1049E000100101603021006800F010000090009874
:1049F00001910220002104900391029201A90D4827
:104A0000FEF71AF900220F210A20FCF7E0FA0A202B
:104A1000FCF706FB07B000BD303802400000111063
:104A2000380000200054004020380240A0860100D9
:104A300000040240001002407AE790E72DE9F047B9
:104A4000814690460D469A464FEA880000F0A8FC41
:104A5000060050D0542000F0A3FC040048D006EB20
:104A60008801089F2663081FC0084FEAC00800217C
:104A700004F1340228781070287880B16B78537074
:104A8000687860B1AB789370A87840B1EB78D37058
:104A9000E87820B1091D2D1D121D1029EAD3002030
:104AA00084F84300062F099D88BF062704F14406B9
:104AB000E76237607060C7F10707201D00F05FFDF7
:104AC00004F1180000F05BFD2461A761646200201E
:104AD000B060307352464946404600F055FA2060B7
:104AE00005B12C60204600F00AF80120BDE8F087EF
:104AF000304600F0E4FC4FF0FF30BDE8F08770B5C1
:104B0000044600F0BBFADFF80054E86C401CE8648F
:104B1000A86AC8BBAC62E86C01283DD1DFF8EC6341
:104B2000304600F01FFD06F1140000F01BFD06F1F9
:104B3000280000F017FD06F13C0000F013FD06F11F
:104B4000500000F00FFD06F1640000F00BFD06F1CF
:104B5000780000F007FD05F1740000F003FD05F199
:104B60008806304600F0FEFC284600F0FBFC05F10C
:104B7000140000F0F7FC05F1380000F0F3FC05F13B
:104B80007400E8622E6307E0A86D28B9E16AA86A9C
:104B9000C26A914228BFAC62A86E401CA86601227E
:104BA000E06A696D82401143696500EB8003DFF8BC
:104BB0005C23211D02EB830000F0E4FC00F077FA97
:104BC000A86D68B1A96AC86AE16A884208D2DFF8AC
:104BD00040134FF080500860BFF34F8FBFF36F8FCB
:104BE00070BD80B5A0B1DFF82023116F39B150201E
:104BF00080F31188BFF34F8FBFF36F8FFEE7116F04
:104C0000491C1167002100F085F900F042F840B915
:104C1000DFF8FC124FF080500860BFF34F8FBFF3F6
:104C20006F8F01BD3EB5DFF854430FF2543104F1EC
:104C30009C00019000250095002380220FF2212086
:104C4000FFF7FCFE012813D1502181F31188BFF337
:104C50004F8FBFF36F8F4FF0FF30E0660120A065EC
:104C6000256503B0BDE8304000F0B6B903B030BDF3
:104C700010F1010FFAD1502080F31188BFF34F8F4C
:104C8000BFF36F8FFEE7DFF8F402016F491C016785
:104C9000704770B5DFF87062306F0024002538B9B6
:104CA000502181F31188BFF34F8FBFF36F8FFEE761
:104CB00000F0E4F9306F401E3067316F00293DD1BC
:104CC000F06CF8B93AE0F168CC6804F1180000F033
:104CD0007FFC201D00F07CFCE06A716D01228240A7
:104CE0001143716500EB8003DFF88C22211D02EB7C
:104CF000830000F047FCE16AB06AC26A914224BFB7
:104D00000121316630680028DDD10CB100F0DEF8F9
:104D1000F46D3CB100F013F808B101203066641E58
:104D2000F8D1F565306E48B1DFF8E4014FF08051FD
:104D300001250160BFF34F8FBFF36F8FE0E0F8B53F
:104D4000DFF8C471386F0026002853D13C6D641C15
:104D50003C6513D1F96A086838B1502282F3118892
:104D6000BFF34F8FBFF36F8FFEE7F86A396BF962BD
:104D70003863786E401C786600F0A8F8F86E8442BC
:104D800028D31DE0281D00F023FCA86A18B105F106
:104D9000180000F01DFCE86A796D01228240114381
:104DA000796500EB8003DFF8D021291D02EB830039
:104DB00000F0E8FBE96AB86AC26A914228BF01269E
:104DC000F96A086890B1F96AC868C5686868844279
:104DD000D8D2F866B96ADFF8A001CA6A02EB82038A
:104DE0009B00C058022808D3012606E04FF0FF318F
:104DF000F966EFE7F86D401CF865386E00B10126E2
:104E00003046F2BDDFF8001181B0086F18B1012201
:104E10000A6601B070470866DFF85C31486DB0FA89
:104E200080F0C0F11F0000EB80029200985838B962
:104E3000502181F31188BFF34F8FBFF36F8FFEE7CF
:104E4000981800F108034268526842609A4204BF11
:104E5000526842604068C2688A6201B070470000D0
:104E60002DE9F041DFF8A850DFF8A080264F4FF081
:104E700080561EE0386F401C38677869441EA44194
:104E8000FFF707FFE40FA4B900F0F8F8386AC46828
:104E9000201D00F09DFBF86C401EF864786B401EEE
:104EA000786300F004F9206B00F009FB204600F065
:104EB00006FB786B0028DDD1D8F800100129F8D95D
:104EC0002E60BFF34F8FBFF36F8FF2E70E49CA6AB0
:104ED000106818B94FF0FF33CB667047C86AC268D4
:104EE000D0684268CA667047DFF89010886D08B9CC
:104EF00001207047086F08B90220704700207047F2
:104F000000F0D5F8284670BD9043002030440020C2
:104F100004ED00E0F8B5194D2F6D0C46A96A064660
:104F2000081D00F055FB30B9A86A696DC06A0122FE
:104F300082409143696516F1010F08D13CB1A86A1E
:104F4000011D05F13800BDE8F44000F01BBBA86A64
:104F5000F6194660BE42A86A05D2011D286BBDE85D
:104F6000F44000F01BBB011DE86A00F017FBE86E7F
:104F7000864238BFEE66F1BD3044002090430020E9
:104F800049444C450000000049084900A0F12003B5
:104F90004FF0807C9961C3F81CC01A600FF21101B8
:104FA00059616FF0020140F8241D2038704700005D
:104FB00051494A68502012F1010F06D080F3118840
:104FC000BFF34F8FBFF36F8FFEE780F31188BFF3FE
:104FD0004F8FBFF36F8FFEE73EB54848484A0168E0
:104FE000914207D1502080F31188BFF34F8FBFF358
:104FF0006F8FFEE7026843498A4207D1502080F351
:105000001188BFF34F8FBFF36F8FFEE73E493A4CD5
:105010000A780192FF230B700B788DF800309DF811
:10502000002002F050022270072205E09DF80030B7
:105030005B00521E8DF800309DF800301D06F5D43F
:10504000120202F4E062A260019A0A70016A41F45D
:1050500070010162016A41F07041016200F05AF88A
:105060000020606000F00CFB2848016841F04041DE
:10507000016000F0F9FA002003B030BD502080F349
:105080001188BFF34F8FBFF36F8F1B494A68521CC3
:10509000012A4A600AD11E490A68130606D080F325
:1050A0001188BFF34F8FBFF36F8FFEE77047124930
:1050B000486838B9502080F31188BFF34F8FBFF391
:1050C0006F8FFEE7401E486008BF80F3118870476D
:1050D00080B5502080F31188BFF34F8FBFF36F8FDF
:1050E000FFF72DFE18B10A494FF0805008600021EB
:1050F00081F3118801BD00002C00002000ED00E0CC
:1051000071C20F4170C20F4100E400E034EF00E0D3
:1051100004ED00E00649DFF81CC00A680648A2FB5F
:105120000CC35B0A5B1E436007210160704700BF30
:105130009C000020986E128310E000E0B3BBD9B150
:10514000B2F5803F7DD2022A1ED98C46B1FBF2F126
:1051500002FB11C31B0443EA1043B3FBF2FC02FB46
:105160001C3380B240EA0343B3FBF2F002FB10327F
:1051700040EA0C4000237047022A05D98446B0FB60
:10518000F2F002FB10C270474AB105D100F00102F3
:1051900049085FEA3000704700220023704700F0A2
:1051A0007DBA0B000200002100207047904271EB95
:1051B000030CF6D3B3F5803F2FD2F0B5B3FA83F7E3
:1051C000B1FA81F4A7F10F0E3D1B5340CEF120063A
:1051D00002FA0EF2F3415340B5F10F0746D80F3CE7
:1051E0002C444140C4F12006A040F1414140B1FBB4
:1051F000F3F603FB1611A2FB0645001BA94102D2E0
:10520000761E8018594180EA010221FA0EF362FAF3
:105210000EF200215A403046F0BD30B4B1FBF3FC31
:1052200003FB1C11A2FB0C45001BA94103D2ACF1EE
:10523000010C8018594130BC02460B4660460021E3
:105240007047B2F1807F65D3F0B5B2FA82F7B1FA58
:1052500081F4C7F10F063D1B22FA06F307F1110E88
:10526000F24120355A40B5F10F07B8D94140C4F199
:105270002006A040F1414140B1FBF3FC03FB1C11AF
:10528000A2FB0C45001BA94103D2BCF1010C801804
:1052900059410F2F12D30F3FC90341EA5041B1FBCF
:1052A000F3F603FB1611A2FB0645D4EBC030A9416F
:1052B00002D2761E8018594146EACC3C07B34140E1
:1052C000C7F12006B840F1414140B1FBF3F603FBC2
:1052D0001611A2FB0645001BA94102D2761E8018BA
:1052E000594180EA010221FA0EF3C7F1200462FA63
:1052F0000EF20CFA07F05A402CFA04F13043F0BDDC
:1053000080EA010221FA0EF3002162FA0EF26046F1
:105310005A40F0BD8C46B1FBF2F102FB11C31B02F7
:1053200043EA1063B3FBF2FC02FB1C331B024CEAA2
:10533000002043EA1063B3FBF2FC02FB1C331B02A8
:105340004CEA002043EA1063B3FBF2FC02FB1C337F
:105350001B024CEA002043EA1063B3FBF2FC02FBA1
:105360001C324CEA00200023704770477047000051
:10537000002200F095B9000038B50446FEF7E8FDBC
:1053800014F1010F054602D0044801786418FEF7B5
:10539000DFFD401BA042FAD331BD00BF90000020CA
:1053A0002DE9F0410446FFF76EFC6D4FB8684FF0F1
:1053B0000008002508BB07F1180307F1180113F0D6
:1053C000070F4FF470500A4605D0CA1DD208D2000C
:1053D000C2F57050081880180838C008C0003A603C
:1053E0007D60B86045600560811A5160106050684A
:1053F0003861F8604FF0004078617869044238D134
:10540000BCB3083414F0070F1FBF04F1080004F008
:105410000704041B14F0070F07D0502080F31188F5
:10542000BFF34F8FBFF36F8FFEE714B3F868A0424E
:105430001FD33E6839467068A04228D230680028E1
:105440001CBF31460646F6D121E0301D0251746082
:10545000084600F060F87168F8683A69401AF86028
:10546000904238BF3861786901437160356008F057
:105470000705FFF70EFC3DB1502080F31188BFF304
:105480004F8FBFF36F8FFEE74046BDE8F081B868ED
:105490008642EED0326808680A6000F10808726837
:1054A000121B112AD7D3311911F00700CDD050218A
:1054B00081F31188BFF34F8FBFF36F8FFEE7002892
:1054C00000D1704738B5A0F10804254D61686A69BC
:1054D000114207D1502080F31188BFF34F8FBFF3E3
:1054E0006F8FFEE7206838B1502181F31188BFF338
:1054F0004F8FBFF36F8FFEE791436160FFF7C3FBF0
:10550000E96860684118E960204600F004F8BDE8E9
:105510003140FFF7BEBB30B411490A4600E02246D5
:1055200014688442FBD35368D418844203D1406882
:10553000C3185360104643681468C518A54208D1C3
:1055400089688C4204D06168CB184360246800E00D
:105550000C460460824218BF106030BC70470000E7
:10556000B000002000F1080141604FF0FF31816080
:1055700000F10801C1600161002101607047002154
:105580000161704742684A6093688B609368596014
:10559000916008610168491C0160704730B40A6875
:1055A00012F1010F08BF036907D000F1080300E002
:1055B00023465C682568AA42FAD25A684A6091601C
:1055C0008B60596008610168491C016030BC7047FC
:1055D0004368016982689A60836842685A604A68D1
:1055E000824204BF82684A60002202610868401E4D
:1055F00008607047EFF30980BFF36F8F244B1A6880
:105600001EF0100F08BF20ED108A20E9F04F106047
:1056100008B44FF0500080F31188BFF34F8FBFF3F1
:105620006F8FFFF7EFFB4FF0000080F3118808BC8D
:1056300019680868B0E8F04F1EF0100F08BFB0EC12
:10564000108A80F30988BFF36F8F7047104B196879
:105650000868B0E8F04F80F30988BFF36F8F4FF010
:10566000000080F3118870470A480068006880F3E2
:10567000088862B661B6BFF34F8FBFF36F8F00DF4C
:10568000DFF81400016841F4700101607047000008
:10569000B843002008ED00E088ED00E0704700000E
:1056A000401810F0030308D0C91A1FD3DB0748BF06
:1056B00000F8012D28BF20F8022D130030B4144645
:1056C0001546103928BF20E93C00FAD8490728BF01
:1056D00020E90C0048BF40F8042D890028BF20F8BD
:1056E000022D48BF00F8012D30BC7047C91818BF03
:1056F00000F8012DCB0728BF00F8012D70470000EE
:1057000038B50446FFF747F96C4D2C7020212A78F4
:105710003220FFF791F9240A6C7023216A78BDE8E2
:105720003840E0E080B5FFF736F9BDE804400F21CE
:105730003220FFF782B980B524213220FFF77DF9AE
:10574000BDE8084040F080022421CCE038B5044692
:10575000212132205A4DFFF770F9287021212A7833
:1057600002F00C022A70287804432C7032202A7828
:10577000BDE83840FFF760B910B50446212132205A
:10578000FFF75BF900F0F700A8E000002DE9F04713
:1057900006462DED028B23213220474FFFF74DF9AE
:1057A000387024213220FFF748F978702821322000
:1057B000FFF743F9814629213220FFF73EF982465F
:1057C0002A213220FFF739F905462B213220FFF735
:1057D00034F980462C213220FFF72FF904462D2181
:1057E0003220FFF72AF93A78014650060ED44FEAE4
:1057F0000A60031443FA89F04FEA086309061B1490
:10580000091443FA85F541FA84F40CE04FEA096083
:105810002D06240603142D14241443FA8AF045FAA5
:1058200088F544FA81F4B97812F0300207D0102AD2
:1058300007D0202A07D0302A08BF0C2104E001211C
:1058400002E0022100E00421B97000B2BF7817FB2A
:1058500000F0C21000EB1270001100F081F89FED13
:10586000198B53EC182BFEF75BF8FEF74FFA2DB2AD
:10587000306017FB05F5E91005EB1170001100F021
:105880006FF853EC182BFEF74BF8FEF73FFA24B2F3
:10589000706017FB04F4E11004EB1170001100F0CC
:1058A0005FF853EC182BFEF73BF8FEF72FFAB060C9
:1058B000BDEC028BBDE8F087FC460020FF460020CF
:1058C00001470020703C44488215843F10B50446CF
:1058D00021213220FFF7B1F800F0FB0044EA00027A
:1058E000BDE8104021213220FFF7A6B810B50446CC
:1058F00022213220FFF7A1F844EA0002BDE810405F
:105900002221F0E710B5044638213220FFF795F840
:1059100044EA000238213220FFF78EF80A223A21A9
:105920003220FFF789F805223B213220FFF784F867
:1059300005223C213220FFF77FF8BDE810403222DB
:105940003D21D0E780B5FFF743F88020FFF7CEFF79
:105950000420FFF7BBFFBDE802401020D2E70000A3
:10596000C11768B14840401AB0FA80F29040D21C8A
:10597000C907C2F5846241EA025202EBD021400518
:1059800070470000FDF718BB0120FDF7AABA0220FE
:10599000FDF7A7BA0420FDF7A4BA0820FDF7A1BAC5
:1059A0001020FDF79EBA80B5FEF7D8FABDE8024098
:1059B0001248FEF700BD80B52020FDF792FA402086
:1059C000FDF78FFA8020FDF78CFA4FF48070FDF719
:1059D00088FABDE802404FF40070FDF782BA80B546
:1059E0000748FBF74DFCBDE802400648FBF748BC02
:1059F0000548FEF7E0BC0548FCF798BE844500204A
:105A0000384600207446002024450020E845002048
:105A10000E48016841F47001016000220C490868D9
:105A200040F0010008608A600A480A6802400A6083
:105A3000002209484860086820F480200860CA6095
:105A40004FF00060054908607047000088ED00E0F5
:105A500000380240FFFFF6FE1030002408ED00E0A1
:105A6000000000000000000001020304060708090E
:105A700064656661756C745461736B0073656E73F5
:105A80006F725461736B0000636F6E74726F6C544D
:105A900061736B00636F6D6D5461736B0000000088
:105AA00069646C655461736B000000006C6564543C
:105AB00061736B0019E050F8042BD30744BFA9F1C0
:105AC00001039A18091F0023042942F8043BF9D264
:105AD0005FEA817C134604D54FF0000CA2F800C0A9
