:020000040800F2
:10000000C854002025760008497600084D7600087F
:100010005176000855760008597600080000000067
:10002000000000000000000000000000696E0008F1
:100030005D76000800000000116E00080D740008D5
:100040006176000865760008697600086D7600081C
:10005000717600087576000811740008177400089E
:100060001D740008237400082974000879760008BC
:100070007D760008817600082F74000885760008D8
:10008000897600088D76000891760008000000004F
:1000900000000000000000000000000035740008AF
:1000A00095760008997600085D7400089D76000832
:1000B000A1760008A5760008A9760008AD760008AC
:1000C000B1760008B5760008B9760008BD7600085C
:1000D000C1760008C5760008C97600080000000057
:1000E000CD760008D1760008D57600080000000023
:1000F000000000000000000000000000D9760008A9
:1001000000000000DD760008E1760008E5760008D2
:1001100000000000000000000000000000000000DF
:10012000E9760008ED760008F1760008F57600081B
:100130006F740008000000000000000000000000D4
:10014000000000000000000000000000F976000838
:1001500075740008FD760008017700087B740008BC
:100160000577000809770008000000000000000083
:10017000000000000000000000000000000000007F
:10018000000000000D7700080000000000000000E3
:1001900011770008157700080068DFF8941C884282
:1001A0000DD1DFF8900CC16841620169816241693B
:1001B000C16281690163C1694163016A81637047FA
:1001C0002DE9F84F9EB001F01FFE00F043FB00F058
:1001D00050FC00200090DFF8604CDFF8600C0168F4
:1001E00041F48001016004F29C45026802F480023F
:1001F00000920022009900920521036843F4001345
:100200000360006800F40010009000980E2001F0D8
:1002100022FE0E2001F048FE002205213C2001F0C4
:100220001AFE3C2001F040FE00220521442001F08E
:1002300012FE442001F038FE00F0C3FB4FF0804076
:1002400068650020A865E8654FF496502866002090
:10025000686604F59E60019001F099FE00B1FEE72A
:1002600002900021039102A9019802F09AF900B1CD
:10027000FEE760200490002105910691089100227C
:10028000019804A901F0FDFF00B1FEE701980822E2
:1002900004A901F0F6FF00B1FEE7019802F01AFC94
:1002A00004F57C76DFF8980BB065DFF8980BF06505
:1002B0000020306670664FF48040B0660020F06623
:1002C00030677067B06704F5896002F013FD00B114
:1002D000FEE700F015FB04F22C68DFF86C0BC8F8A1
:1002E0002C0004F5CB6003F0B2F900B1FEE7DFF8B3
:1002F0005C0BDFF85C1B41604FF4E1318160002151
:10030000C160016141610C2181610021C161016213
:10031000001D03F0AFF900B1FEE704F22C57DFF83F
:10032000349BC7F800905F20786044F6206A002074
:10033000B860C7F80CA03861384601F028FE00B15B
:10034000FEE7002102900391384602A902F029F944
:1003500000B1FEE76020002104900591069108910C
:10036000002204A9384601F08CFF00B1FEE7042208
:1003700004A9384601F085FF00B1FEE7082204A970
:10038000384601F07EFF00B1FEE70C2204A9384692
:1003900001F077FF00B1FEE7384602F09BFBDFF883
:1003A000B80BF86304F5AD6B0020386478647720EF
:1003B000B8640020F864584601F0E9FD00B1FEE79A
:1003C000002102900391584602A902F0EAF800B118
:1003D000FEE7602000210490059106910891042217
:1003E00004A9584601F04DFF00B1FEE7584602F05F
:1003F00071FBDFF8680BB86704F2AC5B5F20F8674D
:10040000CBF804A00020CBF80000CBF8080004F2E1
:10041000A450009001F0BBFD00B1FEE70290002166
:10042000039102A9009802F0BCF800B1FEE7602039
:10043000049000210591069108910022009804A9DA
:1004400001F01FFF00B1FEE70098042204A901F0AB
:1004500018FF00B1FEE7009802F03CFBDFF8000B4C
:100460002860DFF8E00968600020A860E8604FF4C9
:100470008040286100206861A861E8612862284600
:1004800002F038FC00B1FEE74FF0A04020600420ED
:1004900060600220E0600020206160610220A061B5
:1004A0000020E06120626062E0622063204603F089
:1004B0006BFB00B1FEE7CBF83800CBF83C004FF403
:1004C0001660CBF840000020CBF8440004F5BC6077
:1004D000DFF8985A0290CBF8345001F058FD00B183
:1004E000FEE760200390002104910591079104220A
:1004F000029803A901F0C5FE00B1FEE7029802F0E0
:10050000E9FADFF8700ACBF870004FF4707A002037
:10051000CBF8780004F21C644FF6FF70CBF87C0037
:10052000CBF874A00020C8F80000204601F0F4FCCD
:1005300000B1FEE7DFF8440A30604FF4827070606B
:100540000020B060F060306170614FF40070B06105
:100550000820F061002030627062B0620A20F06210
:10056000304603F069FB00B1FEE7DFF8146A0021B2
:10057000304601F01BFD0021304601F0FDFF042153
:10058000304601F013FD0421304601F0F5FF08214B
:10059000304601F00BFD0821304601F0EDFF0C2143
:1005A000304601F003FD0C21304601F0E5FF0198D3
:1005B000DFF8D069002101F0F9FC0198002101F079
:1005C000DBFF0198082101F0F1FC0198082101F0FE
:1005D000D3FF0021384601F0E9FC0021384601F044
:1005E000CBFF0421384601F0E1FC0421384601F03C
:1005F000C3FF0821384601F0D9FC0821384601F034
:10060000BBFF0C21384601F0D1FC0C21384601F02B
:10061000B3FF0098002101F0C9FC0098002101F00F
:10062000ABFF0098042101F0C1FC0098042101F007
:10063000A3FF0298042101F0B9FC0298042101F003
:100640009BFF204601F077FCDFF83C09DFF83C49CE
:100650004FF4F071016041608160C1604FF08040F3
:1006600000224163C1634FF47A70C9F83400C9F8BD
:100670003800C9F83C00C9F84000DFF8E0184863CA
:100680008863C5F838A04FF40041DFF80409DFF8AB
:10069000045903F030FD00224FF40061204603F0BE
:1006A0002AFD00224FF40051284603F024FD0022C9
:1006B0004FF48041284603F01EFD00224FF4806174
:1006C000284603F018FD00224FF40061284603F08D
:1006D00012FD00224021304603F00DFD0022802152
:1006E000304603F008FD00224FF40071304603F05D
:1006F00002FD00224FF48061304603F0FCFC002232
:100700004FF48051204603F0F6FC00224FF40051D4
:10071000204603F0F0FC00221021304603F0EBFCF1
:1007200000222021304603F0E6FC0022102128465A
:1007300003F0E1FC00222021284603F0DCFC03F05A
:10074000FFFC03F01AFD0FF2940191E87C0019A858
:10075000002180E87C0003F0C2FD0FF29401C8F88C
:10076000340014A891E87C0080E87C00002103F0AC
:10077000B6FD0FF29001C8F838000FA891E87C0090
:1007800080E87C00002103F0AAFD0FF28C01C8F87C
:100790003C000AA891E87C0080E87C00002103F07E
:1007A0009EFD0FF28801C8F8400005A891E87C0082
:1007B00080E87C00002103F092FD0FF28401C8F86C
:1007C0004400684691E87C0080E87C00002103F04A
:1007D00086FDC8F8480003F07DFDFEE7EC6E0008DA
:1007E000D10F0008FDFF00000000000080000000A5
:1007F000F86E0008DD0F0008000000000000000097
:1008000080000000046F0008AB1C0008020000001C
:100810000000000080000000106F0008B51C0008F8
:100820000100000000000000800000001C6F0008B4
:10083000311D0008FEFF00000000000080000000E5
:10084000286F0008511D0008000000000000000093
:100850008000000080B592B000200090DFF83807DB
:10086000016841F0805101600021006800F0805073
:1008700000900098DFF8240700910121026842F4FB
:10088000404202604FF48032006800F44040009023
:100890000098069102204FF480010D910C90C02128
:1008A0000F9104200E90109008210792119106A834
:1008B00003F03EFD00B1FEE70F21022001910290FE
:1008C00000214FF4805003910490059101A8032169
:1008D00003F0ACFE00B1FEE703F030FFDFF8C02606
:1008E000A0FB0221480A01F0E9FA042001F0F7FA1E
:1008F00000220F214FF0FF3001F0ADFA13B000BD20
:10090000DFF82C0510B5DFF89C4620604FF48030EE
:10091000606084B00020A06001202061A061002000
:100920002062E062DFF88006A0620020E06006201E
:10093000E061012020636061204603F069FF00B19F
:10094000FEE70220009001210720019102906946F4
:10095000204604F00BF800B1FEE7032002210090CE
:1009600001912046694604F001F800B1FEE70A2033
:100970000321009001912046694603F0F7FF00B182
:10098000FEE70B200421009001912046694603F008
:10099000EDFF00B1FEE70C200521009001912046FB
:1009A000694603F0E3FF00B1FEE70D200621009049
:1009B00001912046694603F0D9FF00B1FEE704B07B
:1009C00010BDDFF8E80510B5DFF8B4452060002061
:1009D0006060A06090B04FF49650E060002020610D
:1009E0006061204601F0D3FA00B1FEE700210090DB
:1009F00001912046694601F0D4FD00B1FEE7602078
:100A000000210290039104910591069107910891AC
:100A1000002202A9204601F034FC00B1FEE70422C6
:100A200002A9204601F02DFC00B1FEE7082202A930
:100A3000204601F026FC00B1FEE70C2202A9204668
:100A400001F01FFC00B1FEE700210A910C91099012
:100A50004FF400510B900D900E910F9009A9204674
:100A600001F0C5FD00B1FEE7204602F033F810B0FA
:100A700010BD2DE9F04186B00020059046F63047C4
:100A8000DFF8B803DFF80C850168DFF8F844DFF819
:100A90000055DFF8F86441F010010160026802F0CF
:100AA00010020592002205990592036843F00403A1
:100AB0000360016801F0040105910599059203683E
:100AC00043F080030360016801F0800105910599FE
:100AD0000592036843F001030360016801F001011E
:100AE000059105990592036843F0020303600168CC
:100AF00001F002010591059905923946036843F01A
:100B000008030360006800F008000590059840465F
:100B100003F0F1FA00224FF4DE61204603F0EBFA15
:100B200000224FF40041284603F0E5FA00224FF47A
:100B30007841304603F0DFFA009701200021019050
:100B4000029103914046694603F08AF94FF4DE6052
:100B500000900121002001910290039069462046F7
:100B600003F07EF94FF4C070009000210220019143
:100B700002906946DFF8380403F072F94FF4E04060
:100B8000009000210220019102906946284603F05E
:100B900067F94FF40040009001210020019102907C
:100BA00003906946284603F05BF94FF4707000909B
:100BB0000220DFF80014019102906946304603F0EC
:100BC0004FF94FF4806000900021022001910290C3
:100BD0006946304603F044F94FF478400090012113
:100BE00000200191029003906946304603F038F9E5
:100BF0003F2000900220DFF8C01301910290694667
:100C0000304603F02DF900220521062001F023F9DA
:100C1000062001F049F900220521072001F01BF907
:100C2000072001F041F900220521082001F013F905
:100C3000082001F039F900220521092001F00BF903
:100C4000092001F031F9002205210A2001F003F901
:100C50000A2001F029F900220521172001F0FBF8F4
:100C6000172001F021F906B0BDE8F08138B5012860
:100C700016D0022823D0042831D008283ED01028CE
:100C80004AD0202857D0402864D080287DD0B0F5A5
:100C9000807F00F09580B0F5007F00F0AD8031BD21
:100CA0004FF48051DFF8E802624C03F01DFA00288F
:100CB00019BF2188481E2088401C208031BD4FF478
:100CC0000051DFF8CC025B4C03F00EFA002860887C
:100CD00002D0411E618031BD401C608031BD4FF4A7
:100CE0008041AB48534C03F0FFF90028A08802D0A4
:100CF000411EA18031BD401CA08031BD8021AC4887
:100D00004C4C03F0F1F90028E08802D0411EE1804C
:100D100031BD401CE08031BD4FF48071A448454C8A
:100D200003F0E2F90028208902D0411E218131BD63
:100D3000401C208131BD4FF4806194483D4C03F04C
:100D4000D3F90028608902D0411E618131BD401C69
:100D5000608131BD374C994DE06B401CE063402110
:100D60008A4803F0C1F90028286801D0206431BD09
:100D70006064206C616C8842616C206C24BF01F55A
:100D80007F41FF31091AA16431BD2A4C8B4DE06CC3
:100D9000401CE06480217D4803F0A6F90028286803
:100DA00001D0206531BD6065206D616D8842616D47
:100DB000206D24BF01F57F41FF31091AA16531BDC6
:100DC0001C4C7E4DE06D401CE0654FF480716F4817
:100DD00003F08AF90028286801D0206631BD6066DA
:100DE000206E616E8842616E206E24BF01F57F41E6
:100DF000FF31091AA16631BD0E4C704DE06E401CEA
:100E0000E0664FF40071614803F06EF9002828682D
:100E100001D0206731BD6067206F616F8842616FCC
:100E2000206F24BF01F57F41FF31091AA16731BD51
:100E300000200140C84D0020B43D00203038024061
:100E400000540040A086010000300240644F0020A2
:100E5000001401400004004010B52DED028BB0EEEF
:100E6000408A10EE900A03F0E9FE554A554B03F014
:100E700009FF0022544B03F0D7FF04F0F9F800EE0D
:100E8000100AB5EE400AF1EE10FADFED360A10DB7B
:100E9000B4EE600AF1EE10FA0BD54C4CF0EE000AFD
:100EA00084ED008A20EE200A04F002FA28EE400ABF
:100EB0004CE0B4EE600AF1EE10FA9FED2B1A12DB53
:100EC000B4EE410AF1EE10FA0DD5F0EE000A20EE74
:100ED000200A04F0EDF93D4C28EE400A84ED000AAA
:100EE00084ED018A34E0B4EE410AF1EE10FADFED50
:100EF000200A12DBB4EE600AF1EE10FA0DD5334C85
:100F0000F1EE480AC4ED000AF0EE000A20EE200AD5
:100F100004F0CEF928EE000A18E0B4EE600AF1EE13
:100F200010FA15DB9FED141AB4EE410AF1EE10FA37
:100F30000ED5F0EE000A20EE200A04F0B9F9234C99
:100F400028EE000A84ED000AB1EE480A84ED010A99
:100F5000BDEC028B10BD000000080040000C0040FA
:100F6000005C0040D00FC93FD00F49400040014015
:100F7000DCCB964000440140D00FC94000500140F6
:100F8000005000200000024034000140000C0240EC
:100F90000004024000080240403802400070004057
:100FA000986E1283B84F00200100000F000001402E
:100FB00000100240000031100000111024440140D4
:100FC0006E861BF0F921094000806640A850002081
:100FD00080B5012003F09BF9FBE700002DE9F84FF5
:100FE0002DED108B86B06846002398469A4680E81F
:100FF0000805DFF8BC4DDFF8BC0D062204F10C013A
:1010000003F02EFCDFF8B06D4FF000099FED7ABAC7
:101010009FED7A8B9FED7BFBDFED7CBA9FED7C9B98
:101020009FED7DCA9FED7DAB9FED7EEB06F18407C2
:101030003DE0706D03F002FE41EC100B04F03DF951
:1010400053EC102B51EC180B03F01CFEDFF86C2D49
:10105000DFF86C3D03F0E8FE53EC182B04F034F994
:1010600004F006F8306496ED0F0AB4EE4B0AF1EE88
:1010700010FA05DB96ED0F0A3BEE400A86ED0F0AEB
:1010800096ED100AB4EE4B0AF1EE10FA05DB96ED80
:10109000100A3BEE400A86ED100A03A803F080F820
:1010A0000398306703A8416871678068B0674FF4A0
:1010B0008051DFF8105DDFF8108D284603F014F83A
:1010C00030704FF40051284603F00EF870704FF462
:1010D0008041284603F008F8B0708021DFF8EC5C0E
:1010E000284603F001F8F0704FF48071284602F0B2
:1010F000FBFF30714FF48061DFF8D40C02F0F4FF95
:1011000070719FED4ADBD8F80000B06309F1010966
:10111000B08B03F0FCF8A06C04F092F953EC1E2B9A
:1011200003F0B0FD03F0A4FF3062A06D04F088F975
:1011300053EC1E2B03F0A6FD03F09AFF7062A06E25
:1011400004F07EF953EC1E2B03F09CFD03F090FF9E
:10115000B062A06F04F074F953EC1E2B03F092FD03
:1011600003F086FFF062606A04F06AF953EC1D2B0D
:1011700003F088FD03F07CFF3063A06A04F060F99F
:1011800053EC1D2B03F07EFD03F072FF706347F6F6
:10119000015CE06ADFF83C1CDFF83C3C70824FF4F5
:1011A000B472206BB082606BF082A06B3083B4F8B5
:1011B00000A0F088AAEB000565453BDB03EB0A0EB7
:1011C000AEEB000097ED1C0A758B00EE900AF8EE6E
:1011D000E00A20EE800A00EE905AF8EE600A80EEF7
:1011E000200AD6ED1F0A30EE200A86ED1F0A504372
:1011F000758B90FBF5F055E00000B4430000000053
:1012000000806640000000989999E93FCDCC4C3EA3
:10121000000000D0CCCCE43F3333B33E00000000EC
:1012200000408F40C3F5285C8FC2C53F7B14AE479A
:10123000E17A743F8D4297ED1C0A1CDA4FF6FF7B72
:10124000D344ABEB000000EE900A758BF8EEE00A99
:1012500020EE800A00EE905AF8EE600A80EE200A36
:10126000D6ED1F0A30EE200A86ED1F0A5043758B1B
:1012700090FBF5F016E000EE905A708BF8EEE00A65
:1012800020EE800A00EE900AF8EE600A80EE200A56
:10129000D6ED1F0A30EE200A86ED1F0A5543708BEB
:1012A00095FBF0F000EE100AB8EEC00AD7ED0A0A7E
:1012B00030EE200A87ED0A0A3089B4F802E0AEEB7E
:1012C000000565451CDB9E44AEEB000097ED1C0A53
:1012D000758B00EE900AF8EEE00A20EE800A00EE30
:1012E000905AF8EE600A80EE200AD7ED000A30EE40
:1012F000200A87ED000A5043758B90FBF5F037E02C
:101300008D4297ED1C0A1CDA4FF6FF7BF344ABEBE2
:10131000000000EE900A758BF8EEE00A20EE800ADD
:1013200000EE905AF8EE600A80EE200AD7ED000A2F
:1013300030EE200A87ED000A5043758B90FBF5F0E4
:1013400016E000EE905A708BF8EEE00A20EE800A6C
:1013500000EE900AF8EE600A80EE200AD7ED000A4F
:1013600030EE200A87ED000A5543708B95FBF0F0B4
:1013700000EE100AB8EEC00AD7ED0B0A30EE200AD4
:1013800087ED0B0A7089B4F804E0AEEB0005654503
:101390001CDB9E44AEEB000097ED1C0A758B00EE43
:1013A000900AF8EEE00A20EE800A00EE905AF8EE7D
:1013B000600A80EE200AD7ED020A30EE200A87ED9F
:1013C000020A5043758B90FBF5F037E08D4297EDA4
:1013D0001C0A1CDA4FF6FF7BF344ABEB000000EE77
:1013E000900A758BF8EEE00A20EE800A00EE905A23
:1013F000F8EE600A80EE200AD7ED020A30EE200AED
:1014000087ED020A5043758B90FBF5F016E000EE75
:10141000905A708BF8EEE00A20EE800A00EE900AF7
:10142000F8EE600A80EE200AD7ED020A30EE200ABC
:1014300087ED020A5543708B95FBF0F000EE100A21
:10144000B8EEC00AD7ED0C0A30EE200A87ED0C0A80
:10145000B089B4F806E0AEEB000565451CDB9E44A0
:10146000AEEB000097ED1C0A758B00EE900AF8EECB
:10147000E00A20EE800A00EE905AF8EE600A80EE54
:10148000200AD7ED040A30EE200A87ED040A504303
:10149000758B90FBF5F037E08D4297ED1C0A1CDA56
:1014A0004FF6FF7BF344ABEB000000EE900A758B28
:1014B000F8EEE00A20EE800A00EE905AF8EE600A9C
:1014C00080EE200AD7ED040A30EE200A87ED040AE8
:1014D0005043758B90FBF5F016E000EE905A708B40
:1014E000F8EEE00A20EE800A00EE900AF8EE600ABC
:1014F00080EE200AD7ED040A30EE200A87ED040AB8
:101500005543708B95FBF0F000EE100AB8EEC00A60
:10151000D7ED0D0A30EE200A87ED0D0AF089B4F8F8
:1015200008E0AEEB000565451CDB9E44AEEB000019
:1015300097ED1C0A758B00EE900AF8EEE00A20EE9B
:10154000800A00EE905AF8EE600A80EE200AD7ED8D
:10155000060A30EE200A87ED060A5043758B90FB91
:10156000F5F037E08D4297ED1C0A1CDA4FF6FF7B51
:10157000F344ABEB000000EE900A758BF8EEE00A46
:1015800020EE800A00EE905AF8EE600A80EE200A03
:10159000D7ED060A30EE200A87ED060A5043758B18
:1015A00090FBF5F016E000EE905A708BF8EEE00A32
:1015B00020EE800A00EE900AF8EE600A80EE200A23
:1015C000D7ED060A30EE200A87ED060A5543708BE8
:1015D00095FBF0F000EE100AB8EEC00AD7ED0E0A47
:1015E00030EE200A87ED0E0A308AB4F80AE0AEEB3E
:1015F0000005654519DB73441B1A97ED1C0A718BB6
:1016000000EE903AF8EEE00A20EE800A00EE901A22
:10161000F8EE600A80EE200AD7ED080A30EE200AC4
:1016200087ED080A5A43708B34E08D4297ED1C0A0F
:101630001BDA4FF6FF717144091A00EE901A738B92
:10164000F8EEE00A20EE800A00EE903AF8EE600A2A
:1016500080EE200AD7ED080A30EE200A87ED080A4E
:101660005143708B91FBF0F016E000EE905A708BB6
:10167000F8EEE00A20EE800A00EE900AF8EE600A2A
:1016800080EE200AD7ED080A30EE200A87ED080A1E
:101690006A43708B92FBF0F0D7ED0F0A00EE100A50
:1016A000B8EEC00A30EE200A87ED0F0A96ED1F0A49
:1016B000D6ED200A30EE600A10EE100A03F0BEFAF2
:1016C00053EC1A2B03F0DEFA0546B08B8B4603F081
:1016D000B7FE02460B462846594603F0A5FB03F029
:1016E000C7FC386497ED000AD7ED010A30EE600AB6
:1016F00010EE100A03F0A2FA53EC1A2B03F0C2FA10
:101700000546B08B8B4603F09BFE02460B462846EF
:10171000594603F089FB03F0ABFCB86497ED020A6D
:10172000D7ED030A30EE600A10EE100A03F086FAD5
:1017300053EC1A2B03F0A6FA0546B08B8B4603F048
:101740007FFE02460B462846594603F06DFB03F028
:101750008FFC386597ED040AD7ED050A30EE600A74
:1017600010EE100A03F06AFA53EC1A2B03F08AFA0F
:101770000546B08B8B4603F063FE02460B462846B7
:10178000594603F051FB03F073FCB86597ED060A68
:10179000D7ED070A30EE600A10EE100A03F04EFA99
:1017A00053EC1A2B03F06EFA0546B08B8B4603F010
:1017B00047FE02460B462846594603F035FB03F028
:1017C00057FC386697ED080AD7ED090A30EE600A33
:1017D00010EE100A03F032FA53EC1A2B03F052FA0F
:1017E0000546B08B8B4603F02BFE02460B4628467F
:1017F000594603F019FB03F03BFCB86697ED100A5D
:1018000020EE0C0A10EE100A03F018FA0546786C68
:101810008B4603F013FA53EC192B03F033FA2A46E4
:101820005B4603F051FD03F023FC786497ED120A48
:1018300020EE0C0A10EE100A03F000FA0546F86CD0
:101840008B4603F0FBF953EC192B03F01BFA2A46E5
:101850005B4603F039FD03F00BFCF86497ED140AC6
:1018600020EE0C0A10EE100A03F0E8F90546786D38
:101870008B4603F0E3F953EC192B03F003FA2A46E5
:101880005B4603F021FD03F0F3FB786597ED160A44
:1018900020EE0C0A10EE100A03F0D0F90546F86DA0
:1018A0008B4603F0CBF953EC192B03F0EBF92A46E6
:1018B0005B4603F009FD03F0DBFBF86597ED180AC2
:1018C00020EE0C0A10EE100A03F0B8F90546786E07
:1018D0008B4603F0B3F953EC192B03F0D3F92A46E6
:1018E0005B4603F0F1FC03F0C3FB786697ED1A0A40
:1018F00020EE0C0A10EE100A03F0A0F90546F86E6F
:101900008B4603F09BF953EC192B03F0BBF92A46E5
:101910005B4603F0D9FC03F0ABFBF866DFF8BC14C0
:10192000F06FC6F8800038687860B868F860386989
:101930007861B869F861386A7862A6F806A06088AC
:101940003081A0887081E088B0812089F081608931
:101950003082A9FB0110C00800EB8002B9EB420005
:1019600016D1D8F800104FF6FE7081424FD2DFF842
:10197000705401221021284602F0BDFBD8F8000067
:10198000401CD8F800108842FBD2002210213BE016
:10199000022808D1D8F800104FF6FE70814236D2E6
:1019A000DFF83C5422E0042816D1D8F800104FF696
:1019B000FE7081422BD2DFF82C54012210212846E0
:1019C00002F099FBD8F80000401CD8F800108842BB
:1019D000FBD20022102117E0062818D1D8F80010F9
:1019E0004FF6FE70814212D2DFF8F8530122202117
:1019F000284602F080FBD8F80000401CD8F8001000
:101A00008842FBD200222021284602F074FB19F004
:101A1000030F7FF44CAB684602F0A6FB0098B0655C
:101A20009FEDC9DB0199F1650298306696ED160AC3
:101A300020EE2B0A10EE100A03F000F90546706E36
:101A40008A4603F0FBF853EC1F2B03F01BF92A46E0
:101A5000534603F039FC03F00BFB706696ED170A52
:101A600020EE2B0A10EE100A03F0E8F80546B06EDF
:101A70008A4603F0E3F853EC1F2B03F003F92A46E0
:101A8000534603F021FC03F0F3FAB06696ED180A12
:101A900020EE2B0A10EE100A03F0D0F80546F06E87
:101AA0008A4603F0CBF853EC1F2B03F0EBF82A46E1
:101AB000534603F009FC03F0DBFAF06696ED190AD1
:101AC000D6ED190A96ED1A1AD6ED1A1A96ED1B2ABA
:101AD00020EE200A01EE210AD6ED1B0A02EE200AB2
:101AE00010EE100A03F0AAF841EC100B03F0B6FC5C
:101AF00051EC100B03F0BCFA706496ED1A0AD6EDA7
:101B0000110A80EE200A86ED120A96ED120AD6ED31
:101B1000120A20EE200A10EE100A03F08FF8024697
:101B20000B4651EC1D0B03F01BFD41EC100B03F0B9
:101B300095FC51EC100B03F09BFAF06496ED190A3A
:101B4000D6ED110A80EE200A86ED140A96ED140AED
:101B5000D6ED140A20EE200A10EE100A03F06EF8FB
:101B600002460B4651EC1D0B03F0FAFC41EC100B46
:101B700003F074FC51EC100B03F07AFA706596EDEB
:101B8000120AB5EE400AF1EE10FA18DDD6ED130A8E
:101B9000F06CF5EE400AF1EE10FA2EDD03F04EF88F
:101BA00041EC100B03F089FB53EC102B51EC180B9C
:101BB00003F068F8814A824B03F036F931E096ED84
:101BC000130AB5EE400AF1EE10FA15DDF06C03F0E1
:101BD00035F841EC100B03F070FB53EC102B51EC7B
:101BE000180B03F04FF8754A754B03F01DF99FED84
:101BF0007EDB53EC1D2B12E0F06C03F01FF841EC80
:101C0000100B03F05AFB53EC102B51EC180B03F0A4
:101C100039F86A4A6A4B03F007F953EC182B03F0C2
:101C200053FB03F025FAF06396ED140AB5EE400A73
:101C3000F1EE10FA1ADDD6ED150A706DF5EE400AD8
:101C4000F1EE10FA7FF7F6A902F0F8FF41EC100B65
:101C500003F033FB53EC102B51EC180B03F012F88C
:101C6000564A574B03F0E0F8FFF7FAB996ED150A1C
:101C7000B5EE400AF1EE10FA7FF7DBA9706D02F0C5
:101C8000DDFF41EC100B03F018FB53EC102B51EC73
:101C9000180B02F0F7FF494A494B03F0C5F89FEDD6
:101CA00052DB53EC1D2BFFF7D9B980B5012002F0B0
:101CB0002EFBFBE738B540F6B9344D4D03222946DB
:101CC000281D01F006FD2978FF2922D168786528B2
:101CD000BCBFA978B5291CDA00EE100AB8EE400A9C
:101CE000F3EE090A80EE200A85ED130A00EE101AC1
:101CF000B8EE400AF0EE000A20EE200A85ED140A44
:101D0000D5ED140A95ED130AFFF7A6F803F09AFC37
:101D1000686403F097FC696C401AA864A86CA04240
:101D200002D30020E8642865142002F0F0FAC5E729
:101D300010B5274C4FF47A7002F0E9FA4FF40041E5
:101D4000204602F0DEF9F5E7000000000000F03F59
:101D500010B50FF2A8031E4C19680022002003F0F2
:101D600064FD0FF29C0109680022012003F05DFD73
:101D70000FF2900001680022022003F056FD962029
:101D800002F0C5FA4FF48041204602F0BAF9012072
:101D900003F071FD4FF48041204602F0B2F9EEE706
:101DA00000681449884208BF03F09EBD70470000D8
:101DB000C84D0020B84F00202C0000206E861BF07C
:101DC000F92109400004024024440140001002406F
:101DD000000C02400083FFFF0100FFFFCDCCCCCC04
:101DE0000000024000080240000000000080764031
:101DF000644F002000480140FEE70000000A000098
:101E00000A0A0A000A00000080B50B48016841F484
:101E100000710160026842F480620260016841F46E
:101E200080710160032000F009F8002003F064FDD8
:101E300000F00CFC002002BD003C02402F4A136859
:101E40004FF6FF0100020B4000F4E06018432C49FC
:101E500008431060704738B4284B1C68C4F3022351
:101E6000C3F10704052C28BF04241D1D072D34BF12
:101E70000023DB1E012505FA04F4641E214099406D
:101E800005FA03F35B1E1A4011430901002807D528
:101E90001C4A00F00F00104400F8041C31BC7047CD
:101EA000194A115431BC7047012200F01F01174B31
:101EB000FFE78A40400943F820207047401EB0F1F8
:101EC000807F01D3012070471149124A4860F020F9
:101ED000107000228A6007200860002070470428E4
:101EE0000B4904D1086840F00400086070470A6894
:101EF00022F004020A607047000000000CED00E0D0
:101F00000000FA0518ED00E000E400E000E100E068
:101F100010E000E023ED00E038B5040001D101201D
:101F200032BD04F13805687820B9002129702046B7
:101F300000F0BDFD21E0022180F8391001680A6837
:101F400042F001020A6013E00068C16841F001013B
:101F5000C160026842F0010202600020704707D1B0
:101F6000D1F800C04FEA5C0C4FEA4C0CC1F800C03D
:101F7000012180F839100020704702206870211D6F
:101F8000206800F0EBF901206870002032BD38B500
:101F9000040001D1012032BD04F13805687820B970
:101FA00000212970204600F0E7FCE6E71CE00A006B
:101FB00006D0042909D008290CD00C290FD013E031
:101FC0000268D36843F002030DE00268D36843F06F
:101FD000040308E00268D36843F0080303E00268E2
:101FE000D36843F01003D3600068012202FA01F1C4
:101FF000026A8A430262026A11430162DFF82C110D
:10200000884205D1DFF82C110A6842F400420A60C8
:10201000016841F001010160002070477CB5044671
:102020000D4694F83900022811467BD094F8390007
:10203000012807D119B9180001D0012076BD02206E
:1020400084F83900280006D0042D17D0082D28D098
:102050000C2D39D04BE0226ADFF8D400D063266A19
:10206000DFF8C400F064206800F13402206A03F055
:10207000F9FC2068C16841F4007137E0626ADFF85A
:10208000B000D063626ADFF8A000D064206800F17D
:102090003802606A03F0E6FC2068C16841F48061A0
:1020A00024E0A26ADFF88800D063A26ADFF8780033
:1020B000D064206800F13C02A06A03F0D3FC2068E1
:1020C000C16841F4006111E0E26ADFF86400D063A6
:1020D000E26ADFF85400D064206800F14002E06A50
:1020E00003F0C0FC2068C16841F48051C1602068E1
:1020F000012101FA05F5016AA9430162016A0D4354
:1021000005622068DFF82410884205D1DFF824003A
:10211000016841F4004101602068026842F0010258
:102120000260002076BD0000652400080000014028
:10213000292400084400014010B5044620680169C4
:102140008A0716D5C1688A0713D56FF002020261AB
:1021500001212176806910F0030F204602D003F0A0
:10216000D3FD04E003F0D1FD204603F071FA002016
:102170002076206801694A0716D5C1684A0713D539
:102180006FF00402026102212176806910F4407F21
:10219000204602D003F0B8FD04E003F0B6FD20466F
:1021A00003F056FA00202076206801690A0716D548
:1021B000C1680A0713D56FF0080202610421217675
:1021C000C06910F0030F204602D003F09DFD04E02B
:1021D00003F09BFD204603F03BFA002020762068A8
:1021E0000169CA0616D5C168CA0613D56FF0100278
:1021F000026108212176C06910F4407F204602D098
:1022000003F082FD04E003F080FD204603F020FA95
:102210000020207620680169CA0708D5C168CA076E
:1022200005D56FF0010202612046FFF7B9FD206875
:1022300001690A0608D5C1680A0605D56FF0800253
:102240000261204603F062FD206801694A0608D554
:10225000C1684A0605D56FF040020261204603F0CE
:1022600056FD206801698A060AD5C1688A0607D525
:102270006FF0200202612046BDE8104003F048BD27
:1022800010BD70B5064606F138040D4620780128C9
:1022900001D1022070BD012121700220607032B195
:1022A000042A18D0082A2BD00C2A3DD050E03068E0
:1022B000294600F0E0F83068816941F00801816149
:1022C0003068816921F00401816131688A69286977
:1022D00002438A613CE03068294600F07CF83068AF
:1022E000816941F4006181613068816921F4806114
:1022F0008161306881692A6941EA0221816127E0B0
:102300003068294600F0DDF83068C16941F0080105
:10231000C1613068C16921F00401C1613168CA69D5
:1023200028690243CA6113E03068294600F0F2F8D8
:102330003068C16941F40061C1613068C16921F44C
:102340008061C1613068C1692A6941EA0221C161C5
:10235000FFE7012060700020207070BD18B47E4B34
:102360000468984218BFB0F1804F07D07B4A904272
:102370001FBF7B4A90427B4A90420ED14A6824F0AC
:1023800070041443984218BFB0F1804F11D0734AC3
:1023900090421CBF724A90420BD0724A90421CBFBE
:1023A000714A904205D0714A90421CBF704A9042D7
:1023B00003D1CA6824F440741443046098428A68C4
:1023C000C2620A68826202D109696A4A1160012206
:1023D000426111BC704770B4026A5F4E22F0100275
:1023E0000262B042056A436884690A6824F4E644DC
:1023F00044EA02248A6825F0200545EA02150DD139
:10240000CA684E6925F0800545EA02158A6923F4F9
:102410004063164325F0400543EA86034360846128
:102420004968816373E0000010B5846B012184F872
:102430003910216A884208BF01200DD0616A8842A4
:1024400008BF022008D0A16A884208BF042003D038
:10245000E16A884201D108202076204603F0F8F88E
:1024600006E00000806B012180F8391003F0FAB813
:102470000020207610BD30B4026A52085200026279
:10248000056A436884690A6824F0730414438A68FF
:1024900025F002051543304A90420BD123F44073D6
:1024A000CA6825F0080515434A6913438A6925F06F
:1024B000040513434360846149684163056230BC8D
:1024C000704770B4026A244E22F480720262056A78
:1024D0004368C4690A6824F0730414438A6825F4C5
:1024E0000075B04245EA02250DD1CA684E6925F44F
:1024F000006545EA02258A6923F44053164325F412
:10250000806543EA06134360C4614968C16305629C
:1025100070BC704770B4026A0F4E22F4805202629F
:10252000B042046A4268C3690D6823F4E64343EA93
:1025300005238D6824F4005444EA053404D14D6920
:1025400022F4804242EA85124260C3614968016414
:10255000046270BC704700000000014000040040AD
:1025600000080040000C00400040014000440140D1
:1025700000480140300001400068042202FA01F1E5
:10258000026AFFE78A430262026A11430162416CF8
:1025900041F400414164026842F0010202600020FF
:1025A000704730B400F138031A78012A08BF0220BE
:1025B0001BD001241C7002225A700268546824F057
:1025C00070045460046865680A68154365600268B1
:1025D000946824F080049460026894684868044316
:1025E0009460012058700020187030BC704730B4DF
:1025F00090F83820012A08BF022024D0012380F857
:102600003830CD688B684A688C6925F440751D4365
:1026100025F4806515430B680A69496925F400654E
:102620001D4325F48055154325F400550D4325F42D
:1026300080452543026825F400452C43546400215D
:1026400080F83810002030BC7047000080B50020B2
:1026500000900022DFF8FC05416841F480414160B0
:10266000416801F48041009100990092036843F0B1
:1026700080530360006800F08050009000980320B1
:10268000FFF7DCFB002200216FF00B00FFF7E3FBFC
:10269000002200216FF00A00FFF7DDFB002200217D
:1026A0006FF00900FFF7D7FB002200216FF0040054
:1026B000FFF7D1FB002200216FF00300FFF7CBFBF7
:1026C00000220F216FF00100FFF7C5FBBDE80840B5
:1026D00000220F214FF0FF30FFF7BDBB38B5044695
:1026E00086B02068DFF87015884245D10021DFF8F8
:1026F0006C05DFF86C5500910F21026842F480727E
:1027000002600322006800F480700090009801913C
:1027100000200390029201A9DFF8480501F0A0FB18
:10272000032000210C2202900391019201A9DFF8FD
:10273000380501F095FBDFF834052860002068605B
:10274000A860E8604FF4806028614FF480506861B1
:102750004FF48040A8614FF48070E8610020286247
:102760006862284603F008F920B18E210FF24C5020
:10277000FFF742FBA563AC6307B030BD81B00068D2
:10278000DFF8EC1488420CD10021DFF8E804009156
:10279000026842F480520260006800F480500090A9
:1027A000009801B0704710B586B00068DFF8C81413
:1027B00088422AD1402000901221012001910290EC
:1027C00000210420039104906946DFF8B0442046BC
:1027D00001F046FB4FF4007000901221012001919E
:1027E000029003210420039104906946204601F0E1
:1027F00037FB00200590DFF85C04016841F400110C
:102800000160006800F400102EE0DFF874148842C4
:102810002CD14FF400700090122101200191029000
:1028200003210420039104906946DFF8380401F085
:1028300017FB4FF48070009012210120019102904B
:1028400003210420039104906946DFF81C0401F081
:1028500007FB00200590DFF8FC03016841F400014C
:102860000160006800F400000590059806B010BDF6
:1028700080B50068DFF8001488420AD1DFF8D4037D
:10288000016821F4001101604FF41071DFF8EC03CE
:1028900013E0DFF8EC23904213D1DFF8B8030168AE
:1028A00021F4000101604FF40071DFF8B80301F07A
:1028B000A3FB4FF48071DFF8B003BDE8044001F0E2
:1028C0009BBB01BD38B5044686B02068DFF8B41361
:1028D00088424FD10021DFF88403DFF8AC53009128
:1028E0000421026842F4801202600222006800F4AF
:1028F0008010009000980191002003900321062091
:1029000004910590029201A9DFF8800301F0A8FA72
:102910000220002102900391032006214FF48072CF
:1029200004900591019201A9DFF8500301F098FA93
:10293000DFF85C0328604FF0206068604020A860EA
:102940000020E8604FF48060286100206861A86181
:10295000E8614FF40030286200206862284603F0E6
:102960000BF828B140F277110FF25030FFF744FA1C
:10297000A564AC6307B030BD38B50446DFF8141366
:102980002068884216D1002000900022DFF8C4029F
:10299000416841F0010141600021406800F0010000
:1029A000009000981A20FFF756FABDE832401A202E
:1029B000FFF77ABAB0F1804F0BD100200090DFF81A
:1029C0009402016841F001010160006800F001001B
:1029D0006AE0DFF8C41288420BD100200090DFF8D3
:1029E0007402016841F002010160006800F0020019
:1029F0005AE0DFF8A81288423BD100200090DFF8AF
:102A0000A0529448016841F0040101600068DFF8B9
:102A1000941200F004000090009829604020A86003
:102A20004FF080610020E86069604FF480602861A9
:102A30004FF4006068614FF40050A8610020E86125
:102A40004FF400302862042068620320A8624FF42B
:102A50000000E86200202863284602F08DFF28B1BC
:102A600040F2DF110FF25420FFF7C6F96562AC6344
:102A700031BD8D4988420AD1002000907548016817
:102A800041F008010160006800F008000CE087498F
:102A900088420BD1002000906E48416841F480319B
:102AA0004160406800F480300090009831BD81B0F2
:102AB00000687F4988420BD1002168480091026874
:102AC00042F400320260006800F400300090009888
:102AD00001B0704700B585B000686E49884209D1E1
:102AE0004FF4D44000900221002002900390019105
:102AF000012054E0B0F1804F1AD14FF48061009171
:102B00000220002102910391019001210491694664
:102B10005A4801F0A5F94FF400400090022100202E
:102B20000290039001910120049069464E4839E0DB
:102B3000594988420BD13320009002210020029095
:102B4000039001910220049069464C482AE05349C1
:102B500088420AD180200090022100200191029039
:102B600003910491694645481CE04F4988420BD1C6
:102B70000320009002210020029003900191022086
:102B80000490694638480DE0484988420CD14020FD
:102B900000900221002002900390019103200490F4
:102BA00069463A4801F05CF905B000BD006841494A
:102BB000884200D0704780B586B000212748009138
:102BC000C021026842F0200202600222006800F088
:102BD000200000900098019101200390032108201B
:102BE00004910590029201A91E4801F039F90022D2
:102BF00005214720FFF72FF94720FFF755F907B0C8
:102C000000BD0068B0F1A04F00D0704780B586B01D
:102C10004FF4C05101910220002102900391032042
:102C20000A210490059101A90F4801F019F92248E1
:102C3000016841F08001016000220092016941F4C5
:102C400080410161006900F480400090009807B065
:102C500000BD0000403802400020014044380240DE
:102C6000444E002000080240000002407064024010
:102C7000003002403038024000540040000402405E
:102C8000005C004000500140A44E002000100240B3
:102C90008864024000000140000400400008004039
:102CA000044F002058600240000C004000400140EA
:102CB000004401400014014034380240433A5C476C
:102CC00049545C526576767944656D6F4B69745CE6
:102CD00053544D3332463431315C5372635C7374F8
:102CE0006D3332663478785F68616C5F6D73702E17
:102CF00063000000F8B5040001D10120F2BD04F129
:102D00003C05687820B9002129702046FFF74BFD6B
:102D1000242068702068016849084900016001F0BA
:102D200010FD0146DFF8EC20DFF8EC30A1FB0220BB
:102D3000C20C206842606068984208D34FF49670D5
:102D400010FB02F2DFF8D470A2FB0776720A20684B
:102D5000521C026266689E4208D27600B1FBF6F011
:102D6000C0F30B01042913D2042011E0A06820B99C
:102D700006EB4606B1FBF6F005E019225643B1FB1F
:102D8000F6F040F4804001050CBF012040F4004003
:102D90002168C861E269206A0243206802602169F3
:102DA000E0680143206881606169A069014320688F
:102DB000C1602068016841F0010101600020686085
:102DC0002020687000202063A870F2BD38B5040090
:102DD00001D1012032BD04F13C0524206870206837
:102DE00001684908490001602046FFF741FD0020C5
:102DF000686068702063A870287032BD0320BDE849
:102E0000F6870120BDE8F6870120BDE8F2830320A4
:102E1000BDE8F28306BD3786A1860100986E128355
:102E20002DE9FC470646884691469A4602F00AFC80
:102E300006F13C070546787820280FD13068816973
:102E40008A0754D502F0FEFB401B1A28F6D3002057
:102E50003063202078700020B8703870F8E178680E
:102E6000042803D100213970FFF7CBBF0020387050
:102E7000FFF7C4BF716A4A1C726209780161308D24
:102E8000411E3185708D411E7185308D002877D0AF
:102E9000306841690A0660D441694A0513D56FF468
:102EA00080624261042078600020306320207870C6
:102EB0000020387078680428DAD13068016841F45D
:102EC00000710160D0E714F1010FE1D024B102F0EC
:102ED000B9FB401B8442DBD2786840F02000786068
:102EE00000213163202078703970E3E75CE03978A5
:102EF0000129B3D001223A700268D10703D40168D6
:102F000041F0010101604146D6F800E00C9C0B98AD
:102F1000DDF828C0DEF8008028F40068CEF80080D4
:102F20004FF0210E87F801E053464FF0400E87F82E
:102F300002E04A464FF0000EC7F804E0C6F824C08D
:102F400070851848F062708D308501950094304688
:102F500000F08AF9002898D081E7716A4A1C7262F1
:102F600009780161308D411E3185708D421E728558
:102F700030684269530788D589B200297FF47AAF57
:102F80002A462146304600F003FB0028AED0786880
:102F900004287FF46DAF3068016841F4007101606E
:102FA00062E700000000FFFF3068016841F4007133
:102FB0000160202078700020B8703870BDE8F68776
:102FC0002DE9FC470646884691469A4602F03AFBB0
:102FD00006F13C0705467878202810D130688169D1
:102FE0008A0740F1AA8002F02DFB401B1A28F5D376
:102FF00000203063202078700020B870387027E1FE
:1030000000203870FFF7FABE308D08B9009008E054
:103010003168012810D1086820F480600860002120
:1030200000913068416900918269009200990168BD
:1030300041F40071016025E002280FD1086820F4F6
:10304000806008603068016841F400610160002020
:103050000090306841690091806904E00020009090
:103060004A6900928869009000990BE0706A411CDF
:10307000716231680A690270308D411E3185708D30
:10308000411E7185308D002800F09680042837D2CB
:1030900001280BD12A462146304600F0ABFA002821
:1030A000E4D078682028ADD0FFF7ABBE022840F00E
:1030B0008480306841694A0700F1938014F1010F60
:1030C000F7D024B102F0BEFA401B8442F1D20020B6
:1030D0003063202078700020B87092E714F1010F5F
:1030E00000F0A0802CB102F0ADFA401B844280F0C9
:1030F000998000203063202078700020B87080E72D
:103100002A462146304600F075FA0028C9D1706A77
:10311000411C716231680A690270308D411E31852F
:10312000708D411E7185306841694A07AAD5716A60
:103130004A1C7262006908709EE7397801293FF4E1
:103140005EAF01223A700268D10703D4016841F0F2
:10315000010101604146D6F800E00C9C0B98DDF8B7
:1031600028C0DEF8008028F40068CEF800804FF018
:10317000220E87F801E053464FF0400E87F802E038
:103180004A464FF0000EC7F804E0C6F824C0708528
:10319000DFF8C800F062708D3085019500943046EC
:1031A00000F0E9F800283FF42FAF786804287FF496
:1031B00027AF0021397077E7FBE6306841694A079D
:1031C00020D414F1010FF8D024B102F03BFA401BD7
:1031D0008442F2D200203063202078700020B87042
:1031E0000FE7016841F400710160706A411C71626F
:1031F00031680A690270308D411E3185708D411E23
:10320000718533E7016821F480610160706A411CB7
:10321000716231680A690270308D411E3185708D8E
:10322000411E7185306841694A077FF557AF0268D2
:1032300042F400720260706A411C716231680A696E
:103240000270308D411E3185708D411E71850DE7F4
:103250000220BDE8F68790F83D0070470000FFFFB0
:1032600041600020BDE8F2832DE9F843064630684E
:10327000089C099D0F46016841F48071914698466B
:10328000016030684169CA074CD414F1010FF8D0CD
:1032900024B102F0D7F9401B8442F2D200203063FF
:1032A000202106F13C00417000218170017032E064
:1032B00041694A0515D5026842F4007202606FF454
:1032C00080603168486106F13C00042242600021C0
:1032D00031632021417000210170416804291AD115
:1032E00017E014F1010F20D024B102F0ABF9401B1C
:1032F00084421AD20020306306F13C00E9E706F16F
:103300003C004168042906D13068026842F400722A
:103310000260FFF779BDFFF77ABD30685FFA89F781
:1033200007619EE707F0FE070761306841698A0779
:10333000BED5002200922A46416900918069009022
:1033400030460099214600F009F90028D7D1B8F19C
:10335000010FE2D031684FEA192008612A46214660
:10336000304600F0FBF80028D7D006F13C00416859
:103370000429D0D1C8E72DE9FE43064630680A9CEF
:103380000B9F0D46016841F48061016090463068F2
:10339000026842F480729946026030684169CA0747
:1033A00000F1A08014F1010FF7D024B102F04AF926
:1033B000C01B8442F1D200203063202106F13C0082
:1033C00041700021817001708AE041694A0515D57C
:1033D000026842F4007202606FF4806031684861F4
:1033E00006F13C000422426000213163202141703B
:1033F000002101704168042972D161E014F1010FCC
:1034000073D024B102F01EF9C01B84426DD200209B
:10341000306306F13C00E9E706F13C00416804290D
:103420005ED13068026842F40072026048E03068A1
:103430005FFA88F101613A462146304600F08EF885
:1034400050B106F13C004168042949D13068026856
:1034500042F40072026033E03068016841F4807128
:10346000016030684169CA076CD414F1010FF8D0CB
:1034700024B102F0E7F8C01B8442F2D2002030638E
:10348000202106F13C00417000218170017027E08D
:1034900041694A0516D5026842F4007202606FF471
:1034A00080603168486106F13C00042242600021DE
:1034B00031632021417000210170416804290FD13E
:1034C000012048E014F1010F40D024B102F0BAF815
:1034D000C01B84423AD20020306306F13C00E8E78A
:1034E000032038E005F0FE010161306841698A0778
:1034F0007FF56BAF002200923A46416900918069E6
:10350000009030460099214600F028F8002883D129
:10351000B9F1010F8BD031684FEA182008613A46A3
:103520002146304600F01AF800283FF480AF06F13B
:103530003C0041680429D3D13068026842F400722B
:103540000260BDE745F00105EDB2056130684169F3
:103550008A079DD5002003B0BDE8F083F8B5064684
:103560000C46174606F13C05306841690A060DD441
:1035700041694A0500D530E014F1010FF4D024B1BF
:1035800002F060F8C01B8442EED21BE00020F2BDC6
:10359000F8B506460C46174606F13C053068416909
:1035A0004A070DD441694A0500D516E014F1010F10
:1035B000F4D024B102F046F8C01B8442EED201E000
:1035C0000020F2BD686840F020006860002131638F
:1035D0002020687029700320F2BD6FF48062426180
:1035E000042068600020306320206870002028706C
:1035F0000120F2BD70B505460C46164628684169A3
:103600004A0622D44169CA0611D424B102F01AF83C
:10361000801B8442F2D205F13C002022416841F037
:1036200020014160427000210170032070BD6FF0E5
:103630001001416105F13C00002141602963202116
:10364000417000210170012070BD002070BD10B5D7
:10365000040001D1012010BD607920B90021217141
:103660002046FFF78BF80220607101206071002076
:1036700010BD000038B5040001D1012032BD04F1B5
:103680003805687820B9002129702046FFF78EFAA6
:10369000242068702068C16821F40051C160204670
:1036A00000F04AF92068016921F490410161206825
:1036B000416921F02A01FFE741612068C16841F4B6
:1036C0000051C1600020686020206870A870002050
:1036D00032BD30B400F138039C78202C1BD109B1E5
:1036E000140000D118E01C78012C14D001251D70A5
:1036F00081628285C2850021596022219970002152
:10370000197001684A6942F001024A610068C168A3
:1037100041F4907106E002E030BC0120704730BCFB
:1037200002207047C160002030BC704738B50446A5
:1037300025682968EA686B6911F00F0007D18806CF
:1037400060D590065ED52046BDE83240AEE0D80791
:1037500002D412F4907F55D0C80705D5D00503D503
:10376000E06B40F00100E063480705D5D80703D5BA
:10377000E06B40F00200E063880705D5D80703D569
:10378000E06B40F00400E063080705D5D80703D5D7
:10379000E06B40F00800E063E06B002871D0890620
:1037A00004D5900644BF204600F080F820684069A8
:1037B000E16B0A0701D440061ED5204600F062F8EE
:1037C000206841694A0612D5416921F040014161F2
:1037D000606B60B10FF2C9010165606B02F089F99D
:1037E00000284ED0606B016DBDE83440084720468C
:1037F000BDE8324002F08DBA204602F08AFA00207D
:10380000E06331BD08062CD510062AD594F839009E
:10381000212836D1A168206AB1F5805F0DD10188D9
:10382000C1F308016960206918B9216A881C206207
:1038300007E0206A411C216203E0411C21620078FC
:103840006860E08C401EE08480B2D0B92068C16816
:1038500021F08001C1602068C16841F04001C16071
:1038600031BD48060DD550060BD5E86820F0400064
:10387000E860202184F839102046BDE8324002F08B
:1038800049BA31BD0168CA6822F49072CA60016801
:103890004A69520852004A61202180F83A10704764
:1038A000806B0021C185C18402F033BA80B590F8E5
:1038B0003A1022293ED18268B2F5805F14D1826A23
:1038C000016941B903685968C1F308011180826A2E
:1038D000911C816218E001684B6803F0FF031380BC
:1038E000816A4A1C82620FE001690029816A04D161
:1038F0004A1C82620268536805E04A1C82620268C0
:10390000536803F07F030B70C18D491EC18589B2D6
:1039100071B90168CA6822F49072CA6001684A6984
:10392000520852004A61202180F83A1002F0F3F95F
:10393000002002BD022002BD2DE9F04704462168A7
:103940000A69E06822F4405202430A618A48CA6860
:103950000240A06802432069024360690243E069B3
:103960000243CA604A69A06922F4407202434A6174
:103970008248E269B2F5004F40F09B8081421CBF53
:103980007F4881424AD100F0E4FE054600F0E1FEA6
:10399000064600F0DEFE074600F0DBFE804600F043
:1039A000D8FE6168DFF8DCA1DFF8D8E119235F43B6
:1039B0004900B7FBF1F75D435E43A7FB0AA9642208
:1039C000B5FBF1F5B6FBF1F64FEA9917A5FB0EEC46
:1039D00002FB17664FEA9C15F6003236DFF8A4C1E9
:1039E000A6FB0CC7BE09760006F4F87606EB0516B2
:1039F00003FB08F74343B3FBF1F0B7FBF1F5614B71
:103A0000A0FB0331880902FB1052D20032325D491B
:103A1000A2FB0110800900F00700A7E000F091FE72
:103A2000054600F08EFE064600F08BFE074600F0CD
:103A300088FE804600F085FE6168DFF848A1DFF867
:103A400044E119235F434900B7FBF1F75D435E434F
:103A5000A7FB0AA96422B5FBF1F5B6FBF1F64FEA24
:103A60009917A5FB0EEC02FB17664FEA9C15F600B2
:103A70003236DFF810C1A6FB0CC7BE09760006F48B
:103A8000F87606EB051603FB08F74343B3FBF1F0AA
:103A9000B7FBF1F53B4BA0FB0331880902FB105249
:103AA000D20032323749A2FB0110800900F0070032
:103AB0005CE081421CBF324881420ED100F049FED9
:103AC000054600F046FE064600F043FE074600F0BD
:103AD00040FE804600F03DFE0DE000F032FE05465F
:103AE00000F02FFE064600F02CFE074600F029FEEF
:103AF000804600F026FE6168DFF888A0DFF884E0E9
:103B000019235F438900B7FBF1F75D435E43A7FBD1
:103B10000AA96422B5FBF1F5B6FBF1F64FEA991755
:103B2000A5FB0EEC02FB17664FEA9C1536013236F8
:103B3000DFF850C0A6FB0CC7BE0906F0F00606EB86
:103B4000051603FB08F74343B3FBF1F0B7FBF1F5B0
:103B50000C4BA0FB0331880902FB105212013232D8
:103B60000849A2FB0110800900F00F0022688619A5
:103B70009660BDE8F0870000F369FFFF0010014088
:103B8000001401403E0AD7A338B58AB00446002588
:103B900014B901200BB030BD032084F8B9032046CE
:103BA000FFF72FF8206802F0EEF883B0211D684679
:103BB000342202F0CDF90EBC206802F0ADF8206886
:103BC000002102F0E6F804F138000121417005708F
:103BD000C5800021C1708160C16041616D1C1C30D5
:103BE0000F2DF2D3002004F5FC72002353701070E7
:103BF000A2F5DD7318800023D3709360D360536106
:103C0000401C25680D441C32091D0F28C5F80431DD
:103C1000EBD383B0211D6846342202F099F90EBC23
:103C2000206802F0C9F8012084F8B903206802F086
:103C300057F900200BB030BD38B5040001D1012088
:103C400032BD0020A06204F15005687820B900213F
:103C500029702046FEF736FE022068702068016851
:103C600021F0400101606268A068A1690243E06838
:103C70000243206902436069024301F40071E06974
:103C80000A430243206A0243A06A0243206802609A
:103C9000A169606A090C01F00401014320684160D8
:103CA0002068C16921F40061C161002068600120C1
:103CB0006870002032BD70B5064606F1500400253C
:103CC0002078012801D1022070BD01232370607883
:103CD000012818BF022540D109B1100001D10125EA
:103CE0003BE00320607065603163B286F286B563A5
:103CF00075643564B587F587B068B0F5004F04D1B9
:103D00003068016841F480410160B16C0FF2151018
:103D10000864B16C0FF24D00C863B16C0FF20D1066
:103D2000C864B16C0D65F38E3068316B00F10C0224
:103D3000B06C01F097FE306801684A0603D402684F
:103D400042F0400202603068416841F02001416069
:103D50003068416841F0020141600020207028462F
:103D600070BD00007CB50646B46B01F06BFC0546E7
:103D700030680168CA0552D42068416821F0020108
:103D8000416020688168080636D501F05BFC401B65
:103D90006428F6D32068416821F0E0014160606842
:103DA000B0F5827F0BD1A068B0F5004F18BFB0F519
:103DB000806F04D12068016821F040010160A06A91
:103DC000B0F5005F0AD121680A684DF6FF70024025
:103DD0000A602068016841F40051016004F150005C
:103DE0000122427000210170416841F020014160D0
:103DF000416841F020014160A06838B9002100917C
:103E00002068C16800918068009000990020E086D9
:103E1000012104F150004170406800B116E02046D5
:103E200019E00000806B02F0D6B80000806B0168DA
:103E30004A68920892004A600122416D41F01001E7
:103E4000416580F8512002F0C7B800002046BDE867
:103E5000764002F0C1B8BDE8764001F0FEBB00003C
:103E60002DE9F84F03460C464FF00008C146C24604
:103E7000AA48AB490F22012505FA08FC25680CEA7F
:103E8000050EE64540F0AC806568022D18BF122D86
:103E900010D14FEAD80503EB85050AF01C062F6AFE
:103EA00002FA06FB27EA0B07D4F810B00BFA06F665
:103EB0003E432E6203251E68277905FA09F5ED4376
:103EC00007F003072E4007FA09F73E431E606668B5
:103ED000012E18BF022E03D0112E18BF122E10D1A2
:103EE0009E68E7682E4007FA09F73E439E605E68C9
:103EF00026EA0C076668C6F3001606FA08F63E4383
:103F00005E60DE683540A66806FA09F63543DD6076
:103F10006568ED0064D5002500954FEA980C0D68A2
:103F200045F480450D600AF00C060D6805F48045E7
:103F3000009502FA06F7009D7A4D55F82CB02BEA51
:103F40000707DFF8E4B15B4508BF4FF0000B1CD05A
:103F5000DFF8D8B15B4508BF4FF0010B15D0DFF893
:103F6000D0B15B4508BF4FF0020B0ED0DFF8C4B1F3
:103F70005B4508BF4FF0030B07D0DFF8BCB15B45D2
:103F80000CBF4FF0040B4FF0070B0BFA06F63E4345
:103F900045F82C606FEA0E0C056866680CEA0505AA
:103FA000F70348BF4EEA05050560456866680CEAF8
:103FB0000505B70348BF4EEA050545608568666894
:103FC0000CEA0505F70248BF4EEA05058560C5689D
:103FD00066680CEA0505B60248BF4EEA0505C560ED
:103FE00008F10108B8F10F0F0AF1040A09F10209FA
:103FF0007FF641AFBDE8F18F2DE9F84F0C464FF049
:10400000000BDC464549474A00940F234FF0010856
:104010000546D946009808FA09FE0EEA00007045E8
:1040200057D1032404FA0BF42E68E44326402E6093
:104030000CF01C074FEAD90605EB860603FA07F7D2
:10404000D6F820A02AEA07073762AE682640AE609D
:104050006E6826EA0E066E604FEA990EEE683440EE
:10406000EC600CF00C0452F82E7003FA04F606EA29
:10407000070A2D4FBD4208BF002713D02B4FBD426A
:1040800008BF01270ED02A4FBD4208BF022709D022
:10409000284FBD4208BF032704D0274FBD420CBFA5
:1040A0000427072707FA04F4A24512D152F82E403C
:1040B00024EA060642F82E60C0430C6804400C60F7
:1040C0004C6804404C608C6804408C60CC68204094
:1040D000C86009F10109B9F10F0F0CF1040C0BF1E3
:1040E000020B97D9BDE8F18F00690140481E80415D
:1040F000C043C00F704781B002B90904816101B0AB
:10410000704742695140416170470C4A136803424D
:104110001CBF1060FCF7AABD70470000003C0140C6
:1041200044380240083801400000024000040240C8
:1041300000080240000C024000100240143C014004
:1041400038B5614D68688047012433280AD15F4C37
:10415000256040F647002968884721680A6A902050
:1041600090470024204632BD58490A6882B0916ABF
:1041700009B102B0084702B0704780B5942200210F
:104180003C2002F009F8802201213C2002F004F8D2
:10419000BDE808400022FFE702213C2001F0FCBFFF
:1041A0002DE9F041804601213C2001F0F6FF064652
:1041B00004213C20464C01F0F0FF207003213C20FC
:1041C00001F0EBFF607008213C2001F0E6FFA070D9
:1041D00007213C2001F0E1FFE07006213C2001F0C6
:1041E000DCFF207105213C200027002501F0D5FFD0
:1041F00006F0E006202E60710ED0402E11D0602E09
:1042000014D0802E17D0A02E1AD0C02E1DD0E02E94
:1042100004BFE627CD251CE040F24C474FF47575EE
:1042200017E040F257374FF43E7512E040F29E27F8
:104230004FF416750DE04FF4E1774FF4C87508E0C0
:104240004FF4C87740F2631503E04FF4A57740F2CE
:1042500027156178227802EB012212B200EE107A63
:1042600001EE102AB8EE400AB8EEC11ADFED150AC9
:1042700081EE001A21EE201A88ED001AE178A2786A
:1042800002EB012212B201EE102AB8EEC11A81EE41
:10429000000A20EE200A88ED010A01EE105A217969
:1042A00001EB002000B200EE100AB8EEC00AB8EE32
:1042B000411A80EE010A20EE200A88ED020ABDE8CC
:1042C000F081000000007A4400000020B850002077
:1042D000B050002080B502F055F8002002BD00B5B6
:1042E00083B00B46B0F908100022842918BFCA1CFD
:1042F00002A90092019101680269406892B201F03E
:104300004DFF012814BF0020029803B000BD80B506
:1043100000B9012002F015F8002002BD80B502F0BE
:1043200093F9012803D0BDE8014002F081BA01BD34
:104330002DE9FC41040019D02078B84EC10740F1A6
:10434000D080B06800F00C00042807D0B06800F0FE
:104350000C0008280DD1706841020AD53168880325
:1043600040F1BF806068002840F0BB800120BDE8BC
:10437000F6816068B0F5803F06D0B0F5A02F3168B7
:1043800007D141F480213160306840F480303060E2
:1043900006E021F480313160326822F480223260FC
:1043A000606870B101F04EF905463168880300F18C
:1043B000988001F047F9401B6528F6D30320BDE83B
:1043C000F68101F03FF905463068810340F18980AC
:1043D00001F038F9401B6528F6D3EFE701F032F918
:1043E000401B022840F2A980E8E7E0688C4970B1E0
:1043F00001220A6001F026F905463068810700F1C4
:10440000C78001F01FF9401B0228F6D9D6E70860E3
:1044100001F018F905463068810740F1818001F00C
:1044200011F9401B0228F6D9C8E7086001F00AF923
:104430000546706F810740F1848001F003F9401B4D
:104440000228F6D9BAE70528306F06D140F00400FB
:104450003067306F40F0010005E0400840003067F1
:10446000306F20F004003067A06870B101F0EAF806
:10447000074641F28938306F810700F1998001F0D9
:10448000E1F8C01B4045F6D398E701F0DBF807469A
:1044900041F28938306F810740F18A8001F0D2F80B
:1044A000C01B4045F6D389E701F0CCF8C01B0228B9
:1044B00040F2948082E701F0C5F8001B022840F228
:1044C000A5807BE70020286601F0BCF80446306830
:1044D000810140F19F8001F0B5F8001B0228F6D958
:1044E0006CE7207881071BD5B06810F00C0F09D05D
:1044F000B06800F00C0008287FF477AF70684102C4
:104500003FF573AF3168880703D5E06801287FF471
:104510002DAF3168206921F0F80141EAC001316016
:10452000217808070DD560693E4900283FF47DAF2A
:1045300001220A6001F086F80546706F81077FF559
:104540004DAF2178480738D5306C0025C1000AD41A
:1045500000950125306C40F080503064306C00F0E4
:10456000805000900098304F3968C80518D43868DA
:1045700040F48070386001F065F880463968C805FD
:104580000ED401F05FF8A0EB08000228F6D915E779
:104590003068216920F0F80040EAC1003060BFE7D0
:1045A000A06801287FF44FAF306F40F001005AE758
:1045B0001DB1306C20F080503064A06950B3B168F8
:1045C00001F00C0108293FF4D1AE0228144D7FF40C
:1045D00079AF0020286601F035F807463068810180
:1045E0003FF562AFE169206AA26A0143606A52083E
:1045F00041EA8011521EE06A41EA024141EA00614B
:1046000071600121296601F01DF8044630688101BE
:104610007FF551AF0020BDE8F68100BF00380240B1
:1046200000004742800E4742007000402DE9F843E9
:1046300004000F4600F07F80594E306800F00F00F4
:10464000B84205D23770316801F00F01B94272D11A
:104650002068544D810712D5400703D5A86840F45F
:10466000E050A8602178080703D5A86840F46040AE
:10467000A860A968A06821F0F0010143A960207832
:10468000C1074DD56068012802D129688A0305E079
:10469000022818BF032803D129688A0103D44AE0FD
:1046A0002A68910747D5A968890840EA8100A8606F
:1046B00041F2893900F0C6FF8046A868616800F0C1
:1046C0000C00B0EB810F2BD000F0BCFFA0EB08007A
:1046D0004845F2D30320BDE8F2832078410705D591
:1046E000A968E06821F4E0510143A960207801073E
:1046F00006D5A868216920F4604040EAC100A8609E
:1047000000F05AF8AA682849C2F30312895C274AC4
:10471000C8401060002001F0EFF80020BDE8F283EF
:10472000306800F00F008742D7D23770316801F04F
:104730000F01B942D1D00120BDE8F2831B480068C7
:1047400070471A481A4A006813681A49C3F382224C
:1047500006E01648164A006813681649C3F3423249
:10476000895CC84070470F220260114A136803F049
:1047700003034360D2F800C00CF0F00CC0F808C08E
:10478000136803F4E053C3601268D20802F4E052E5
:1047900002610348026802F00F020A6070470000DD
:1047A000003C024000380240E874000894010020F8
:1047B000083802404076000818B5124C606800F0D6
:1047C0000C00042802D0082802D019E00E4812BDBF
:1047D00000232268206841022068C0F388104CBF83
:1047E00009490A4902F03F02A1FB000102F056F814
:1047F0002168C1F30141491C4900B0FBF1F012BD31
:10480000024812BD0438024000127A000024F4006D
:1048100070B5044600250CB9012070BD04F13C06BA
:10482000706820B9B56030702046FDF757FF70689A
:10483000C10610D4706820F4885040F00200706007
:10484000204600F035F9B560706820F0020040F0B5
:104850000100706000E0012500203070284670BD26
:10486000F8B50446002004F13C0300901D78012DAA
:1048700001D10220F2BD0120187020688568EE0782
:1048800015D48568DFF81C7345F001058560DFF8F5
:1048900018030568A5FB0776F60C06EB460600969E
:1048A00002E00098401E009000980028F9D1256889
:1048B000A868C60758D55E68DFF8F002064046F4DF
:1048C00080765E606868450505D5586820F400501C
:1048D00040F4805058605868C50404D5986820F0AA
:1048E0000600986001E000259D6000201870A36B11
:1048F0000FF2D120D863A36B0FF225301864A36B9D
:104900000FF22530D8646FF02200256828602068F7
:10491000436843F0806343602068836843F4807396
:104920008360134620680A4600F14C01A06B01F039
:1049300099F820689E490A6812F01F0F08D1816813
:1049400011F0405F10D1816841F0804181600BE03F
:10495000984A904202BF9848016811F0405F03D125
:10496000026842F0804202600020F2BD78B4024644
:104970000020009092F83C30012B08BF022000F08C
:104980009580012082F83C0007240B6810680A2BF0
:1049900012D30A3BC56803EB43039C4025EA040499
:1049A000C460C3680D688C68A5F10A0606EB46066C
:1049B000B4402343C3600FE0056903EB430304FAEB
:1049C00003F325EA0303036103690D688C6805EBB3
:1049D0004505AC40234303611F244B68072B11D2CC
:1049E0005B1E456B03EB83039C4025EA0404446390
:1049F000436B4D680C886E1E06EB8606B44023435D
:104A0000436325E00D2B11D2DB1F056B03EB830302
:104A10009C4025EA04040463036B4D680C88EE1F78
:104A200006EB8606B4402343036311E00D3BC56AE1
:104A300003EB83039C4025EA0404C462C36A4D6807
:104A40000C88A5F10D0606EB8606B4402343C3622D
:104A5000584B984226D10868122804D1544803685C
:104A600043F4800303600868544B984218BF112830
:104A700018D14F48046844F4000404600868984260
:104A800010D14948474C0168A1FB0443DB0C03EB00
:104A900083056D00009502E00098401E009000988C
:104AA0000028F9D1002182F83C10002072BC704728
:104AB0003F4A116821F440311160136841680B438B
:104AC00013600268516821F4807151605168036974
:104AD00041EA03215160516821F0407151605368EF
:104AE00081680B435360916821F400619160936881
:104AF000C1680B439360816A314B994210D093682F
:104B000023F0706393609368816A0B4393609168AC
:104B100021F0405191609368C16A0B43936007E0B4
:104B2000916821F070619160916821F0405191602D
:104B3000916821F0020191609168836941EA430123
:104B40009160016A69B1536843F40063536051682E
:104B500021F4604151605168436A5B1E41EA433170
:104B600002E0516821F400615160D16A21F47001C2
:104B7000D162D16AC3695B1E41EA0351D162916877
:104B800021F4007191609168036B41EA43219160C7
:104B9000916821F4806191609168406941EA8021C7
:104BA0009160704706BD378694010020FEF9FFFF33
:104BB00004230140002001400820014012000010A1
:104BC0000100000F816B0A6C12F0500F24D1086CA9
:104BD00040F4007008640A68906810F0405F04BFF9
:104BE0008869002815D1D36A13F4700F02D0906839
:104BF00043050ED4506820F020005060086C20F46B
:104C000080700864086CC20403D4086C40F0010092
:104C100008640846FBF7C0BA896BCA6C10470000ED
:104C2000806B01F052BF0000806B40210164416C39
:104C300041F00401416401F049BF0000C0F3C751D5
:104C400081B1FF2906D0C110400721F0E04101F1F8
:104C50006051704741020CBF40F4E0016FF0004129
:104C60000020704700F0004100020AD0B0FA80FC3A
:104C700000FA0CF001F16051A1EB0C5101EBD021D5
:104C800040057047B0B581EA030C0CF0004C40F2CF
:104C9000FF7515EA11541DBF15EA1357AC42AF4218
:104CA00039E0E41923EA455343F48013C90241F083
:104CB000004141EA505EC7021100A7FB0202002832
:104CC0004FF00000EEFB01204FF00001E3FB072155
:104CD00018BF42F00102401800214941E3FB0E01D8
:104CE000A4F580640F0302D252004041494154F1BF
:104CF00001046CDD470872F1004250F1000051EBF5
:104D00000451A1F580115CBF41EA0C01B0BD4CEA31
:104D100005510020B0BD05EA1357AC4214BFAF42A5
:104D200041E050EA410E1CBF52EA430E02E06146E8
:104D30000020B0BD24423C441BD15FEA070EF6D0F0
:104D4000090302BF01460020AEF1140EB1FA81F74B
:104D5000AEEB070401FA07FE0C37C7F1200100FA99
:104D600007F7C8404EEA000E23EA455343F4801388
:104D7000A2E733F00043B3FA83F704BFB2FA82FE2E
:104D800077440B3FE41BB7F1200E2FBF02FA0EF35E
:104D9000BB40C7F1200E22FA0EFE38BF43EA0E03D5
:104DA000BA40641C82E750EA410E14BF52EA430E37
:104DB0006FF000014FF4001717EB430F8ABF19463D
:104DC00017EB410FB5E74CEA05510020B0BDD4F117
:104DD0000104B4F120070FDAC4F12007520828BFFC
:104DE00042F0010210FA07F501FA07F7E1BF2A4382
:104DF000E0403843E1400FE0352C98DCC7F1200457
:104E000052EA400220FA07F218BF42F0010231FADA
:104E100007F0A1400A43002172F1004250F1000066
:104E200051EB0C01B0BD0000F0B540F2FF7581EA16
:104E3000030C0CF0004C15EA11541DBF15EA135772
:104E4000AC42AF42E5E0BC41C1F31301C3F313032D
:104E5000801A994143F4801304D2641E40004941F2
:104E600080185941C90241EA5051B1FBF3F603FBE6
:104E70001611A2FB0675D7EBC020A94102D2761EFF
:104E800080185941C90241EA5051B1FBF3FE03FBBE
:104E90001E11A2FB0E75D7EBC020A94103D2AEF1C3
:104EA000010E80185941890241EA9051760546EA7F
:104EB0008E2EB1FBF3F603FB1611A2FB0675D7EBA2
:104EC0008020A94102D2761E80185941C90241EAC8
:104ED00050514EEA060EB1FBF3F603FB1611A2FB8E
:104EE0000675D7EBC020A94102D2761E8018594121
:104EF000C90241EA5051B1FBF3F703FB1711A2FBC2
:104F00000735D3EBC020A94167F100070CBF004271
:104F100047F0010766F3D5274FEA1E31B80814F5AC
:104F2000806412DDBD0775F1004250EB0E5051EB6D
:104F3000045111F5801F5CBF41EA0C01F0BD4CF03B
:104F40007F6141F0E0410020F0BDBD076D0840EAFF
:104F50000E5041F48011D4F10104B4F120060ADAB4
:104F6000C4F120060200E04001FA06F3E1401843D4
:104F7000B24015430EE0342C13DCC6F1200445EAA0
:104F800040056D0820FA06F2154321FA06F0A1400B
:104F90000D43002175F1004250F1000051EB0C016E
:104FA000F0BD00205FEA0C01F0BDCFB992185B4163
:104FB000B3FA83F704BFB2FA82F6BF190B3FB7F119
:104FC00020062FBF02FA06F3BB40C7F1200622FAE3
:104FD00006F638BF3343BA401CB1E419641E33E708
:104FE0007F4231F00041B1FA81F404BFB0FA80F69B
:104FF000A4190B3CB4F120062FBF00FA06F1A14022
:10500000C4F1200620FA06F638BF3143A0403C1B0D
:105010001AE7AC421ABF05EA1357AF4212E050EA52
:1050200041061CBF52EA4306BFE750EA410730463B
:1050300061461CBF41EA0551F0BD52EA430C08BF6E
:10504000C143F0BD00204FF4001616EB410F98BF8E
:1050500016EB430F08BF16EB410F24BFC14305E019
:1050600016EB430F0CBF61464CEA0551F0BD000042
:1050700001F000428B1AA3F16051B1F5801F0ADBE9
:10508000B1F17F6F1FD242EAC102C10071F100414C
:1050900042EB507070470B15C3F10903212B10D25E
:1050A000890241EA905180020128494141F00041C2
:1050B00021FA03F0C3F12003994071F100415041FE
:1050C0007047100070476FF0000013EB103F5CBF9B
:1050D000000E42EAC0507047DFED650A60EE200A1C
:1050E00010EE901A21F0004101EE101ADFED611A66
:1050F000B4EE611AF1EE10FA27D510EE902A4FF0B7
:105100007C5102F00042114301EE101A70EE810A48
:10511000FDEEE00A10EE901A00296ED0FAEEC90AF0
:105120009FED551A00EEC10A9FED541A00EEC10A18
:105130009FED531A00EEC10A9FED521A00EEC10A0C
:105140009FED511A00EEC10A57E010EE101A490007
:105150000916491C10EE101A09D149000816401C06
:1051600002D1090240F083809FED480A7047490050
:1051700004D100287BD0B7EE000A704710EE902AC9
:105180004FF07C5102F00042114301EE101A70EE14
:10519000810A10EE902A51000FD0090EC1F196013C
:1051A0001829A8BF02F0004205DA0129A4BF22FA9B
:1051B00001F303FA01F200EE902A10EE901A490072
:1051C00017D09FED331A20EE811ADFED2B1A01EE76
:1051D000610ADFED2A1A01EE610ADFED291A01EEFC
:1051E000610ADFED281A01EE610ADFED271A01EEF0
:1051F000610AFDEEE00A10EE901A10EE102A22F07D
:10520000004200EE902A9FED231A01F00301F4EE14
:10521000410A0818F1EE10FA00F0010103D511B3AC
:10522000B7EE000A1FE060EE000A71B19FED1A0AA6
:105230009FED1A1A00EE801ADFED191A41EE201ABE
:10524000B7EE000A01EEA00A0DE0DFED161A9FEDA1
:10525000162A00EEA12ADFED152A20EE201A42EED2
:10526000202A01EE220A800748BFB1EE400A7047AB
:1052700083F9223F0000004F0000C94600A0FD4016
:105280000020A23A000034330030C22EFFFFFF7F1F
:1052900000008038000080399349B2BA36A02A3D18
:1052A000DFFFFFBE6E8C4CB94283083CA1AA2ABE28
:1052B000012011E741EC100B01BD80B551EC100B42
:1052C00001F006FCF6E7000070B44FF0004591EAEB
:1052D000030F40F14D816B40841A71EB030604D239
:1052E0006E40001BB141121973414FF4001C1CEBBE
:1052F000410F34BF7CEB430682E00C0DA4EB135648
:10530000362E7BDC012E45EAC32341DC43EA5253AF
:1053100012BFD20292025B08240545EAC12141EA8C
:105320005051D2EBC020994125D407D1B0FA80F674
:1053300010FA06F162D00020203608E0B1FA81F6BA
:10534000B140C6F1200220FA02F21143B0404FEA08
:10535000F474B4EB465434F001064FEA74040AD8EE
:10536000D6F50016760D04F00044F04061FA06F21E
:105370005040F1404840C00A40EA415021F000410D
:1053800028BF5FEA500550F1000044EBD12135E021
:10539000DB0A45EAC121C90AB6F120050EDD42EA61
:1053A0000242120CC5F1200603FA06F6EB4042EA6F
:1053B00006056D42984161F100010DE062FA06F5C3
:1053C000F240554063FA06FC82EA0C02F3405A4070
:1053D0006D42904161EB030111F4801F05D1641E01
:1053E000620502D06D004041494121F4801143081B
:1053F00075F1004350F1000041EB045170BC70475F
:105400001CEB410F15D223F0004352EA43060BD0A8
:105410004FEA4C0CBCEB410F04D80C0D661E342E29
:10542000B7DDEBE7801A994150EA410608BF002139
:10543000E4E708BF1CEB430F28BF6FF00001DDE776
:10544000014648B1B0FA80F18840C91CC1F58461B9
:10545000090501EBD02140057047000051EC100B0D
:1054600000B500F003F841EC100B00BD40F2FF7CEA
:105470000B0D4DD0634566D230B421EA035141F49F
:10548000801103F2FD3C5FEA5C0C01D30018494136
:10549000890041EA907180004FF440140023E20239
:1054A000D50AB1F5100107D46D081DD2091B641986
:1054B00000184941491BF7D56D080AD20919641B28
:1054C00000184941491BEFD56D08F7D301E0520898
:1054D00017D0C01861419B1AAC4100184941801A8D
:1054E000A941F4D452080AD0C01AA1419B186C41BA
:1054F00000184941801AA941E9D45208F4D15B1C33
:105500006C4161084FEA330001EB0C5130BC70472D
:1055100050EA0103FBD030B4B1FA81F311B9B0FA0B
:1055200080F41B190B3BB3F120042FBF00FA04F1E8
:105530009940C3F1200420FA04F438BF2143984075
:10554000D3F101039DE7634514BF50EA410CDEE748
:1055500011F5801FDBD8D943AFF3008070470000FE
:1055600070B44FF0004591EA030F7FF5B5AE6B4084
:10557000841A71EB030603D2001BB1411219734167
:105580004FF4001C1CEB410F34BF7CEB430442E0A2
:105590000C0DA4EB1356352E4FDC45EAC323DB0A72
:1055A00045EAC121C912B6F120050DDD63FA05F601
:1055B000EB4086EA0305124218BF45F00105C0180A
:1055C00051F100010CD213E062FA06F5F2405540A9
:1055D000F3415A40B340F3405A408018594107D331
:1055E00049085FEA30005FEA350528BF45F001054C
:1055F00001F58011420875F1004250F1000041EBC5
:1056000004514E0016F5001F70BC38BF70470020D3
:10561000090D090570471CEB410F10D252EA4306F1
:105620000BD0BCEB410F05D80C0DAB43661E342EDE
:10563000B6DD02E0AB438018594170BC704770BCC6
:105640007047000001484068704700BF8801002093
:10565000DFF87C12012008707047DFF87412012017
:1056600048707047704710B4431C0A06DFF8642284
:105670004CBF38241C2422F81040581C4C064CBF48
:1056800038241C2422F81340431C8C064CBF3824B9
:105690001C2422F81040581CCC064CBF38241C2473
:1056A00022F81340431C0C074CBF38241C2422F85A
:1056B0001040581C4C074CBF38241C2422F81340BF
:1056C000431C8C074CBF38241C2422F81040C80708
:1056D0004CBF38201C2022F8130010BC7047DFF8A4
:1056E000F8314FF0FF0C421C03F800C0002907BF3F
:1056F0000020985403F802C0802099184870704721
:1057000038B50D46044605F08001FFF7E8FFE41CBC
:1057100005F040012046FFF7E2FFE41C05F0200100
:105720002046FFF7DCFFE41C05F010012046FFF7E0
:10573000D6FFE41C05F008012046FFF7D0FFE41C6B
:1057400005F004012046FFF7CAFFE41C05F0020142
:105750002046FFF7C4FF05F00101E01CBDE834401E
:10576000BDE72DE9F04700260025DFF87071102411
:1057700097F8019097F8008097F802A049463046C4
:10578000FFF771FF083641463046FFF76CFF0836D9
:1057900051463046FFF767FF49462846FFF7B0FFFE
:1057A000183541462846FFF7ABFF183551462846C5
:1057B000FFF7A6FF08361835FF1C641ED8D1DFF8A6
:1057C000140100EB4601DFF81001421910200023FC
:1057D00021F8023B13705370937021F8023BD37091
:1057E0001371537121F8023B9371D3711372093213
:1057F000401EEDD1BDE8F08780B5DFF8D400DFF8BA
:10580000D4200021017041704FF4D8730421DFF8D7
:10581000D000FCF703FCBDE808404FF4A262DFF8BB
:10582000B810DFF8C000FEF746BA1CB510281446C1
:1058300017D2009100EB4000284908446946032232
:1058400000F076FB224A50781178E4B2012C08D19E
:105850000029FDD00028FDD0FFF783FFBDE81340ED
:10586000CAE713BD0029FDD00028FDD0FFF779FF5E
:10587000BDE8F140C0E7F8B50446184D6846294632
:10588000032200F055FB0126EF1CF81E39460322C7
:1058900000F04EFB3846F91C032200F049FBF81CCF
:1058A000B91D032200F044FBF61C0937102EECD37F
:1058B00006EB4606A819C01E6946032200F038FB15
:1058C000034A50781178012C00D1CBE7F1BD0000DC
:1058D000980100203C4900202C44002078500020F2
:1058E0001C430020A4410020024841680278891826
:1058F000416070478801002018B5014687B000223A
:105900001A20FCF7A8FA1A20FCF7CEFA0020009023
:10591000154C1648016841F48021016001A9006816
:1059200000F480200090009802A8FEF71CFFFEF70C
:1059300010FF0F490F4A2160002340F2E731E16078
:105940002361A0FB0221C80C401E6060A3602046BA
:10595000FCF7E2FA20B92046FCF7F6FA08B010BDD1
:10596000012008B010BD00003C5000204438024027
:105970000048014006BD37867CB50446FFF762FE4D
:1059800006460CB9012076BD04F1340500202870CC
:105990000220687020680168490849000160216898
:1059A0000868C20720D5FFF74DFE801B0628F6D3F6
:1059B00020202862032015E0B0F5005F09D1032EF6
:1059C00042D8DFE806F00C0A0C02B1F1C07F3BD1EF
:1059D00005E0022E03D9F61E36D1C80134D5402089
:1059E00028620120687076BD0A68DFF8040302406F
:1059F00060680243A0680243E068024320690243F2
:105A000060690243A0690243E0690243206A0243DD
:105A1000606A042803D1E36A206B03431A430A60D7
:105A200023685A69606AD208042840EAC2020BD18E
:105A3000A66AE16A324339B1A0690028BCD1002EC0
:105A400018BF022EC9D0C0D35A61204600F038F9E1
:105A5000A96A3F228A408260002028620120687083
:105A6000002076BDF0B400F1340500242F786E6A72
:105A7000012F08BF02203AD001272F706F78012F25
:105A800032D102276F702C620768D7F800C02CF45F
:105A9000802CC7F800C007687B608368402B04D166
:105AA0000768BA600268D16003E003689960016822
:105AB000CA603F22A96A8A40B26001680A6842F05F
:105AC00016020A6001684A6942F080024A61E96888
:105AD00021B101680A6842F008020A6000680168A2
